{"abi":[{"type":"constructor","inputs":[{"name":"_owner","type":"address","internalType":"address"},{"name":"_underlyingToken","type":"address","internalType":"address"},{"name":"name","type":"string","internalType":"string"},{"name":"symbol","type":"string","internalType":"string"}],"stateMutability":"nonpayable"},{"type":"function","name":"DEFAULT_ADMIN_ROLE","inputs":[],"outputs":[{"name":"","type":"bytes32","internalType":"bytes32"}],"stateMutability":"view"},{"type":"function","name":"LOCKER_ROLE","inputs":[],"outputs":[{"name":"","type":"bytes32","internalType":"bytes32"}],"stateMutability":"view"},{"type":"function","name":"PAUSER_ROLE","inputs":[],"outputs":[{"name":"","type":"bytes32","internalType":"bytes32"}],"stateMutability":"view"},{"type":"function","name":"PROPOSAL_MANAGER_ROLE","inputs":[],"outputs":[{"name":"","type":"bytes32","internalType":"bytes32"}],"stateMutability":"view"},{"type":"function","name":"SUPER_ADMIN_ROLE","inputs":[],"outputs":[{"name":"","type":"bytes32","internalType":"bytes32"}],"stateMutability":"view"},{"type":"function","name":"allowance","inputs":[{"name":"owner","type":"address","internalType":"address"},{"name":"spender","type":"address","internalType":"address"}],"outputs":[{"name":"","type":"uint256","internalType":"uint256"}],"stateMutability":"view"},{"type":"function","name":"approve","inputs":[{"name":"spender","type":"address","internalType":"address"},{"name":"value","type":"uint256","internalType":"uint256"}],"outputs":[{"name":"","type":"bool","internalType":"bool"}],"stateMutability":"nonpayable"},{"type":"function","name":"balanceOf","inputs":[{"name":"account","type":"address","internalType":"address"}],"outputs":[{"name":"","type":"uint256","internalType":"uint256"}],"stateMutability":"view"},{"type":"function","name":"createBalanceConfirmationProposal","inputs":[{"name":"user","type":"address","internalType":"address"}],"outputs":[],"stateMutability":"nonpayable"},{"type":"function","name":"decimals","inputs":[],"outputs":[{"name":"","type":"uint8","internalType":"uint8"}],"stateMutability":"view"},{"type":"function","name":"deposit","inputs":[{"name":"amount","type":"uint256","internalType":"uint256"}],"outputs":[],"stateMutability":"nonpayable"},{"type":"function","name":"executeBalanceConfirmationProposal","inputs":[{"name":"proposalIndex","type":"uint256","internalType":"uint256"}],"outputs":[],"stateMutability":"nonpayable"},{"type":"function","name":"getOwner","inputs":[],"outputs":[{"name":"","type":"address","internalType":"address"}],"stateMutability":"view"},{"type":"function","name":"getProposal","inputs":[{"name":"proposalIndex","type":"uint256","internalType":"uint256"}],"outputs":[{"name":"","type":"string","internalType":"string"},{"name":"","type":"uint256","internalType":"uint256"},{"name":"","type":"address","internalType":"address"},{"name":"","type":"uint256","internalType":"uint256"},{"name":"","type":"uint256","internalType":"uint256"},{"name":"","type":"bool","internalType":"bool"}],"stateMutability":"view"},{"type":"function","name":"getProposalCount","inputs":[],"outputs":[{"name":"","type":"uint256","internalType":"uint256"}],"stateMutability":"view"},{"type":"function","name":"getRoleAdmin","inputs":[{"name":"role","type":"bytes32","internalType":"bytes32"}],"outputs":[{"name":"","type":"bytes32","internalType":"bytes32"}],"stateMutability":"view"},{"type":"function","name":"hasRole","inputs":[{"name":"role","type":"bytes32","internalType":"bytes32"},{"name":"account","type":"address","internalType":"address"}],"outputs":[{"name":"","type":"bool","internalType":"bool"}],"stateMutability":"view"},{"type":"function","name":"hasVoted","inputs":[{"name":"","type":"address","internalType":"address"}],"outputs":[{"name":"","type":"bool","internalType":"bool"}],"stateMutability":"view"},{"type":"function","name":"isAdmin","inputs":[{"name":"user","type":"address","internalType":"address"}],"outputs":[{"name":"","type":"bool","internalType":"bool"}],"stateMutability":"view"},{"type":"function","name":"isLocked","inputs":[],"outputs":[{"name":"","type":"bool","internalType":"bool"}],"stateMutability":"view"},{"type":"function","name":"isPaused","inputs":[],"outputs":[{"name":"","type":"bool","internalType":"bool"}],"stateMutability":"view"},{"type":"function","name":"name","inputs":[],"outputs":[{"name":"","type":"string","internalType":"string"}],"stateMutability":"view"},{"type":"function","name":"pause","inputs":[],"outputs":[],"stateMutability":"nonpayable"},{"type":"function","name":"proposals","inputs":[{"name":"","type":"uint256","internalType":"uint256"}],"outputs":[{"name":"description","type":"string","internalType":"string"},{"name":"voteCount","type":"uint256","internalType":"uint256"},{"name":"user","type":"address","internalType":"address"},{"name":"wrappedBalance","type":"uint256","internalType":"uint256"},{"name":"underlyingBalance","type":"uint256","internalType":"uint256"},{"name":"executed","type":"bool","internalType":"bool"}],"stateMutability":"view"},{"type":"function","name":"supportsInterface","inputs":[{"name":"interfaceId","type":"bytes4","internalType":"bytes4"}],"outputs":[{"name":"","type":"bool","internalType":"bool"}],"stateMutability":"view"},{"type":"function","name":"symbol","inputs":[],"outputs":[{"name":"","type":"string","internalType":"string"}],"stateMutability":"view"},{"type":"function","name":"totalSupply","inputs":[],"outputs":[{"name":"","type":"uint256","internalType":"uint256"}],"stateMutability":"view"},{"type":"function","name":"transfer","inputs":[{"name":"to","type":"address","internalType":"address"},{"name":"value","type":"uint256","internalType":"uint256"}],"outputs":[{"name":"","type":"bool","internalType":"bool"}],"stateMutability":"nonpayable"},{"type":"function","name":"transferFrom","inputs":[{"name":"from","type":"address","internalType":"address"},{"name":"to","type":"address","internalType":"address"},{"name":"value","type":"uint256","internalType":"uint256"}],"outputs":[{"name":"","type":"bool","internalType":"bool"}],"stateMutability":"nonpayable"},{"type":"function","name":"underlyingBalanceOf","inputs":[{"name":"user","type":"address","internalType":"address"}],"outputs":[{"name":"","type":"uint256","internalType":"uint256"}],"stateMutability":"view"},{"type":"function","name":"underlyingToken","inputs":[],"outputs":[{"name":"","type":"address","internalType":"contract IERC20"}],"stateMutability":"view"},{"type":"function","name":"unpause","inputs":[],"outputs":[],"stateMutability":"nonpayable"},{"type":"function","name":"vote","inputs":[{"name":"proposalIndex","type":"uint256","internalType":"uint256"}],"outputs":[],"stateMutability":"nonpayable"},{"type":"function","name":"withdraw","inputs":[{"name":"amount","type":"uint256","internalType":"uint256"}],"outputs":[],"stateMutability":"nonpayable"},{"type":"function","name":"wrappedBalanceOf","inputs":[{"name":"user","type":"address","internalType":"address"}],"outputs":[{"name":"","type":"uint256","internalType":"uint256"}],"stateMutability":"view"},{"type":"event","name":"AccessibleInitialized","inputs":[{"name":"owner","type":"address","indexed":true,"internalType":"address"}],"anonymous":false},{"type":"event","name":"AdminStatusChanged","inputs":[{"name":"admin","type":"address","indexed":true,"internalType":"address"},{"name":"status","type":"bool","indexed":false,"internalType":"bool"}],"anonymous":false},{"type":"event","name":"Approval","inputs":[{"name":"owner","type":"address","indexed":true,"internalType":"address"},{"name":"spender","type":"address","indexed":true,"internalType":"address"},{"name":"value","type":"uint256","indexed":false,"internalType":"uint256"}],"anonymous":false},{"type":"event","name":"Deposit","inputs":[{"name":"user","type":"address","indexed":true,"internalType":"address"},{"name":"amount","type":"uint256","indexed":false,"internalType":"uint256"}],"anonymous":false},{"type":"event","name":"Locked","inputs":[{"name":"untilBlock","type":"uint256","indexed":false,"internalType":"uint256"}],"anonymous":false},{"type":"event","name":"OwnerChanged","inputs":[{"name":"oldOwner","type":"address","indexed":true,"internalType":"address"},{"name":"newOwner","type":"address","indexed":true,"internalType":"address"}],"anonymous":false},{"type":"event","name":"Paused","inputs":[],"anonymous":false},{"type":"event","name":"RoleAdminChanged","inputs":[{"name":"role","type":"bytes32","indexed":true,"internalType":"bytes32"},{"name":"previousAdminRole","type":"bytes32","indexed":false,"internalType":"bytes32"},{"name":"newAdminRole","type":"bytes32","indexed":false,"internalType":"bytes32"}],"anonymous":false},{"type":"event","name":"RoleGranted","inputs":[{"name":"role","type":"bytes32","indexed":true,"internalType":"bytes32"},{"name":"account","type":"address","indexed":true,"internalType":"address"},{"name":"sender","type":"address","indexed":true,"internalType":"address"}],"anonymous":false},{"type":"event","name":"RoleRevoked","inputs":[{"name":"role","type":"bytes32","indexed":true,"internalType":"bytes32"},{"name":"account","type":"address","indexed":true,"internalType":"address"},{"name":"sender","type":"address","indexed":true,"internalType":"address"}],"anonymous":false},{"type":"event","name":"StatusableInitialized","inputs":[{"name":"owner","type":"address","indexed":true,"internalType":"address"}],"anonymous":false},{"type":"event","name":"SuperAdminChanged","inputs":[{"name":"oldSuperAdmin","type":"address","indexed":true,"internalType":"address"},{"name":"newSuperAdmin","type":"address","indexed":true,"internalType":"address"}],"anonymous":false},{"type":"event","name":"Transfer","inputs":[{"name":"from","type":"address","indexed":true,"internalType":"address"},{"name":"to","type":"address","indexed":true,"internalType":"address"},{"name":"value","type":"uint256","indexed":false,"internalType":"uint256"}],"anonymous":false},{"type":"event","name":"Unlocked","inputs":[],"anonymous":false},{"type":"event","name":"Unpaused","inputs":[],"anonymous":false},{"type":"event","name":"Withdrawal","inputs":[{"name":"user","type":"address","indexed":true,"internalType":"address"},{"name":"amount","type":"uint256","indexed":false,"internalType":"uint256"}],"anonymous":false},{"type":"error","name":"AddressEmptyCode","inputs":[{"name":"target","type":"address","internalType":"address"}]},{"type":"error","name":"AddressInsufficientBalance","inputs":[{"name":"account","type":"address","internalType":"address"}]},{"type":"error","name":"ERC20InsufficientAllowance","inputs":[{"name":"spender","type":"address","internalType":"address"},{"name":"allowance","type":"uint256","internalType":"uint256"},{"name":"needed","type":"uint256","internalType":"uint256"}]},{"type":"error","name":"ERC20InsufficientBalance","inputs":[{"name":"sender","type":"address","internalType":"address"},{"name":"balance","type":"uint256","internalType":"uint256"},{"name":"needed","type":"uint256","internalType":"uint256"}]},{"type":"error","name":"ERC20InvalidApprover","inputs":[{"name":"approver","type":"address","internalType":"address"}]},{"type":"error","name":"ERC20InvalidReceiver","inputs":[{"name":"receiver","type":"address","internalType":"address"}]},{"type":"error","name":"ERC20InvalidSender","inputs":[{"name":"sender","type":"address","internalType":"address"}]},{"type":"error","name":"ERC20InvalidSpender","inputs":[{"name":"spender","type":"address","internalType":"address"}]},{"type":"error","name":"FailedInnerCall","inputs":[]},{"type":"error","name":"SafeERC20FailedOperation","inputs":[{"name":"token","type":"address","internalType":"address"}]}],"bytecode":{"object":"0x60a060405234801561001057600080fd5b5060405161272b38038061272b83398101604081905261002f916106ba565b8181600361003d83826107c9565b50600461004a82826107c9565b5050600580546001600160a01b03191633179055506001600160a01b038316608052610075846100a8565b61009f7f551cdf6489aac1d95b64156158ffe857f0ad2c0a4a5e725571ef480e28e0360485610168565b50505050610888565b6100b181610176565b6100ba816101a1565b6100c5600082610168565b6100dd60008051602061270b83398151915282610168565b6101077faf9a8bb3cbd6b84fbccefa71ff73e26e798553c6914585a84886212a46a9027982610168565b6101317f65d7a28e3265b37a6474929f336521b332c1681b933f6cb9f3376673440d862a82610168565b6040516001600160a01b038216907f3de3d1f713a564024f731f6d7afb81c43fdb29e76938f872f1808492de7a6cee90600090a250565b61017282826101ea565b5050565b61017f81610270565b600680546001600160a01b0319166001600160a01b0392909216919091179055565b6101aa81610333565b6101b381610349565b6040516001600160a01b038216907f663670337b17c161b72582af2b4825d2f2be2de8d56b0bb8a2ea06a8386e9e7790600090a250565b600554600160a01b900460ff166102485760405162461bcd60e51b815260206004820152601860248201527f436f6e7472616374206e6f7420696e697469616c697a6564000000000000000060448201526064015b60405180910390fd5b60008051602061270b833981519152610261813361035f565b61026b83836103c7565b505050565b6005546001600160a01b031633146102ba5760405162461bcd60e51b815260206004820152600d60248201526c2737ba103a34329037bbb732b960991b604482015260640161023f565b600554600160a01b900460ff16156103145760405162461bcd60e51b815260206004820152601c60248201527f436f6e747261637420616c726561647920696e697469616c697a656400000000604482015260640161023f565b61031d8161043d565b506005805460ff60a01b1916600160a01b179055565b61033c81610176565b506008805460ff19169055565b61035281610333565b50600a805460ff19169055565b6103698282610539565b6101725760405162461bcd60e51b815260206004820152602960248201527f416363657373436f6e74726f6c3a206163636f756e7420646f6573206e6f74206044820152686861766520726f6c6560b81b606482015260840161023f565b6000828152600b60205260409020600201546103e3813361035f565b6000838152600b602052604090206103fb908361055a565b1561026b5760405133906001600160a01b0384169085907f2f8788117e7eff1d82e926ec794901d17c78024a50270940304540a733656f0d90600090a4505050565b6005546001600160a01b031633146104875760405162461bcd60e51b815260206004820152600d60248201526c2737ba103a34329037bbb732b960991b604482015260640161023f565b6001600160a01b0381166104dd5760405162461bcd60e51b815260206004820152601a60248201527f496e76616c6964206e6577206f776e657220616464726573732e000000000000604482015260640161023f565b6005546040516001600160a01b038084169216907fb532073b38c83145e3e5135377a08bf9aab55bc0fd7c1179cd4fb995d2a5159c90600090a3600580546001600160a01b0319166001600160a01b0392909216919091179055565b6000828152600b60205260408120610551908361056f565b90505b92915050565b6000610551836001600160a01b038416610591565b6001600160a01b03811660009081526001830160205260408120541515610551565b60008181526001830160205260408120546105d857508154600181810184556000848152602080822090930184905584548482528286019093526040902091909155610554565b506000610554565b80516001600160a01b03811681146105f757600080fd5b919050565b634e487b7160e01b600052604160045260246000fd5b600082601f83011261062357600080fd5b81516001600160401b038082111561063d5761063d6105fc565b604051601f8301601f19908116603f01168101908282118183101715610665576106656105fc565b816040528381526020925086602085880101111561068257600080fd5b600091505b838210156106a45785820183015181830184015290820190610687565b6000602085830101528094505050505092915050565b600080600080608085870312156106d057600080fd5b6106d9856105e0565b93506106e7602086016105e0565b60408601519093506001600160401b038082111561070457600080fd5b61071088838901610612565b9350606087015191508082111561072657600080fd5b5061073387828801610612565b91505092959194509250565b600181811c9082168061075357607f821691505b60208210810361077357634e487b7160e01b600052602260045260246000fd5b50919050565b601f82111561026b576000816000526020600020601f850160051c810160208610156107a25750805b601f850160051c820191505b818110156107c1578281556001016107ae565b505050505050565b81516001600160401b038111156107e2576107e26105fc565b6107f6816107f0845461073f565b84610779565b602080601f83116001811461082b57600084156108135750858301515b600019600386901b1c1916600185901b1785556107c1565b600085815260208120601f198616915b8281101561085a5788860151825594840194600190910190840161083b565b50858210156108785787850151600019600388901b60f8161c191681555b5050505050600190811b01905550565b608051611e456108c66000396000818161032b015281816109b501528181610a7e01528181610c7501528181610e0a01526110f00152611e456000f3fe608060405234801561001057600080fd5b50600436106102115760003560e01c80634de29d4811610125578063a9059cbb116100ad578063c7f758a81161007c578063c7f758a8146104bc578063d47f639c146104cf578063dd62ed3e146104e2578063e63ab1e91461051b578063f36213671461053057600080fd5b8063a9059cbb14610483578063b187bd2614610496578063b6b55f25146104a1578063c08cc02d146104b457600080fd5b806391d14854116100f457806391d1485414610445578063935a8b841461045857806395d89b411461046b578063a217fddf14610473578063a4e2d6341461047b57600080fd5b80634de29d48146103dc57806370a08231146104035780638456cb591461042c578063893d20e81461043457600080fd5b806323b872dd116101a85780632e1a7d4d116101775780632e1a7d4d14610378578063313ce5671461038b5780633dad0f491461039a5780633f4ba83a146103ad5780634460bdd6146103b557600080fd5b806323b872dd146102f0578063248a9ca3146103035780632495a5991461032657806324d7806c1461036557600080fd5b806306fdde03116101e457806306fdde031461029d578063095ea7b3146102b257806309eef43e146102c557806318160ddd146102e857600080fd5b80630121b93f14610216578063013cf08b1461022b57806301ffc9a71461025957806306db3e651461027c575b600080fd5b6102296102243660046119f1565b610557565b005b61023e6102393660046119f1565b610628565b60405161025096959493929190611a5a565b60405180910390f35b61026c610267366004611aa1565b61070a565b6040519015158152602001610250565b61028f61028a366004611ae7565b610741565b604051908152602001610250565b6102a561075f565b6040516102509190611b02565b61026c6102c0366004611b15565b6107f1565b61026c6102d3366004611ae7565b600d6020526000908152604090205460ff1681565b60025461028f565b61026c6102fe366004611b3f565b610809565b61028f6103113660046119f1565b6000908152600b602052604090206002015490565b61034d7f000000000000000000000000000000000000000000000000000000000000000081565b6040516001600160a01b039091168152602001610250565b61026c610373366004611ae7565b61082f565b6102296103863660046119f1565b610866565b60405160128152602001610250565b6102296103a8366004611ae7565b610a15565b610229610bf6565b61028f7f7613a25ecc738585a232ad50a301178f12b3ba8887d13e138b523c4269c4768981565b61028f7f551cdf6489aac1d95b64156158ffe857f0ad2c0a4a5e725571ef480e28e0360481565b61028f610411366004611ae7565b6001600160a01b031660009081526020819052604090205490565b610229610c1a565b6005546001600160a01b031661034d565b61026c610453366004611b7b565b610c3b565b61028f610466366004611ae7565b610c53565b6102a5610ce2565b61028f600081565b61026c610cf1565b61026c610491366004611b15565b610d0d565b600a5460ff1661026c565b6102296104af3660046119f1565b610d1b565b600c5461028f565b61023e6104ca3660046119f1565b610e6e565b6102296104dd3660046119f1565b610f94565b61028f6104f0366004611ba7565b6001600160a01b03918216600090815260016020908152604080832093909416825291909152205490565b61028f600080516020611df083398151915281565b61028f7faf9a8bb3cbd6b84fbccefa71ff73e26e798553c6914585a84886212a46a9027981565b600c5481106105815760405162461bcd60e51b815260040161057890611bd1565b60405180910390fd5b336000908152600d602052604090205460ff16156105d15760405162461bcd60e51b815260206004820152600d60248201526c105b1c9958591e481d9bdd1959609a1b6044820152606401610578565b6001600c82815481106105e6576105e6611c01565b906000526020600020906006020160010160008282546106069190611c17565b9091555050336000908152600d60205260409020805460ff1916600117905550565b600c818154811061063857600080fd5b906000526020600020906006020160009150905080600001805461065b90611c38565b80601f016020809104026020016040519081016040528092919081815260200182805461068790611c38565b80156106d45780601f106106a9576101008083540402835291602001916106d4565b820191906000526020600020905b8154815290600101906020018083116106b757829003601f168201915b5050506001840154600285015460038601546004870154600590970154959692956001600160a01b039092169450925060ff1686565b60006001600160e01b031982166301ffc9a760e01b148061073b57506301ffc9a760e01b6001600160e01b03198316145b92915050565b6001600160a01b03811660009081526020819052604081205461073b565b60606003805461076e90611c38565b80601f016020809104026020016040519081016040528092919081815260200182805461079a90611c38565b80156107e75780601f106107bc576101008083540402835291602001916107e7565b820191906000526020600020905b8154815290600101906020018083116107ca57829003601f168201915b5050505050905090565b6000336107ff8185856111c1565b5060019392505050565b6000336108178582856111d3565b610822858585611251565b60019150505b9392505050565b6001600160a01b03811660009081526007602052604081205460ff168061073b5750506006546001600160a01b0390811691161490565b61086e610cf1565b156108b05760405162461bcd60e51b815260206004820152601260248201527110dbdb9d1c9858dd081a5cc81b1bd8dad95960721b6044820152606401610578565b600a5460ff16156108f85760405162461bcd60e51b815260206004820152601260248201527110dbdb9d1c9858dd081a5cc81c185d5cd95960721b6044820152606401610578565b600081116109485760405162461bcd60e51b815260206004820152601d60248201527f416d6f756e74206d7573742062652067726561746572207468616e20300000006044820152606401610578565b3360009081526020819052604090205481111561099e5760405162461bcd60e51b8152602060048201526014602482015273496e73756666696369656e742062616c616e636560601b6044820152606401610578565b6109a833826112b0565b6109dc6001600160a01b037f00000000000000000000000000000000000000000000000000000000000000001633836112ea565b60405181815233907f7fcf532c15f0a6db0bd6d0e038bea71d30d808c7d98cb3bf7268a95bf5081b65906020015b60405180910390a250565b7f551cdf6489aac1d95b64156158ffe857f0ad2c0a4a5e725571ef480e28e03604610a408133611349565b6001600160a01b0382166000908152602081905260408120546040516370a0823160e01b81526001600160a01b0385811660048301529192506000917f000000000000000000000000000000000000000000000000000000000000000016906370a0823190602401602060405180830381865afa158015610ac5573d6000803e3d6000fd5b505050506040513d601f19601f82011682018060405250810190610ae99190611c72565b6040805161010081018252601460c08201908152732130b630b731b29031b7b73334b936b0ba34b7b760611b60e083015281526000602082018190526001600160a01b03881692820192909252606081018590526080810183905260a08101829052600c8054600181018255925280519293509160069091027fdf6966c971051c3d54ec59162606531493a51404a002842f56009d7e5cf4a8c701908190610b919082611cf1565b506020820151600182015560408201516002820180546001600160a01b0319166001600160a01b03909216919091179055606082015160038201556080820151600482015560a0909101516005909101805460ff191691151591909117905550505050565b600080516020611df0833981519152610c0f8133611349565b610c176113b1565b50565b600080516020611df0833981519152610c338133611349565b610c17611426565b6000828152600b60205260408120610828908361149b565b6040516370a0823160e01b81526001600160a01b0382811660048301526000917f0000000000000000000000000000000000000000000000000000000000000000909116906370a0823190602401602060405180830381865afa158015610cbe573d6000803e3d6000fd5b505050506040513d601f19601f8201168201806040525081019061073b9190611c72565b60606004805461076e90611c38565b60085460009060ff168015610d0857506009544311155b905090565b6000336107ff818585611251565b610d23610cf1565b15610d655760405162461bcd60e51b815260206004820152601260248201527110dbdb9d1c9858dd081a5cc81b1bd8dad95960721b6044820152606401610578565b600a5460ff1615610dad5760405162461bcd60e51b815260206004820152601260248201527110dbdb9d1c9858dd081a5cc81c185d5cd95960721b6044820152606401610578565b60008111610dfd5760405162461bcd60e51b815260206004820152601d60248201527f416d6f756e74206d7573742062652067726561746572207468616e20300000006044820152606401610578565b610e326001600160a01b037f0000000000000000000000000000000000000000000000000000000000000000163330846114bd565b610e3c33826114f6565b60405181815233907fe1fffcc4923d04b559f4d29a8bfc6cda04eb5b0d3c460751c2402c5c5cc9109c90602001610a0a565b60606000806000806000600c805490508710610e9c5760405162461bcd60e51b815260040161057890611bd1565b6000600c8881548110610eb157610eb1611c01565b6000918252602090912060069091020160018101546002820154600383015460048401546005850154855495965086956001600160a01b039094169360ff909116908690610efe90611c38565b80601f0160208091040260200160405190810160405280929190818152602001828054610f2a90611c38565b8015610f775780601f10610f4c57610100808354040283529160200191610f77565b820191906000526020600020905b815481529060010190602001808311610f5a57829003601f168201915b505050505095509650965096509650965096505091939550919395565b7f551cdf6489aac1d95b64156158ffe857f0ad2c0a4a5e725571ef480e28e03604610fbf8133611349565b600c548210610fe05760405162461bcd60e51b815260040161057890611bd1565b6000600c8381548110610ff557610ff5611c01565b60009182526020909120600690910201600581015490915060ff161561105d5760405162461bcd60e51b815260206004820152601960248201527f50726f706f73616c20616c7265616479206578656375746564000000000000006044820152606401610578565b60028101546001600160a01b03166000908152602081905260409020548160030154146110cc5760405162461bcd60e51b815260206004820152601860248201527f577261707065642062616c616e6365206d69736d6174636800000000000000006044820152606401610578565b60028101546040516370a0823160e01b81526001600160a01b0391821660048201527f0000000000000000000000000000000000000000000000000000000000000000909116906370a0823190602401602060405180830381865afa158015611139573d6000803e3d6000fd5b505050506040513d601f19601f8201168201806040525081019061115d9190611c72565b8160040154146111af5760405162461bcd60e51b815260206004820152601b60248201527f556e6465726c79696e672062616c616e6365206d69736d6174636800000000006044820152606401610578565b600501805460ff191660011790555050565b6111ce838383600161152c565b505050565b6001600160a01b03838116600090815260016020908152604080832093861683529290522054600019811461124b578181101561123c57604051637dc7a0d960e11b81526001600160a01b03841660048201526024810182905260448101839052606401610578565b61124b8484848403600061152c565b50505050565b6001600160a01b03831661127b57604051634b637e8f60e11b815260006004820152602401610578565b6001600160a01b0382166112a55760405163ec442f0560e01b815260006004820152602401610578565b6111ce838383611601565b6001600160a01b0382166112da57604051634b637e8f60e11b815260006004820152602401610578565b6112e682600083611601565b5050565b6040516001600160a01b038381166024830152604482018390526111ce91859182169063a9059cbb906064015b604051602081830303815290604052915060e01b6020820180516001600160e01b03838183161783525050505061172b565b6113538282610c3b565b6112e65760405162461bcd60e51b815260206004820152602960248201527f416363657373436f6e74726f6c3a206163636f756e7420646f6573206e6f74206044820152686861766520726f6c6560b81b6064820152608401610578565b600554600160a01b900460ff166114055760405162461bcd60e51b815260206004820152601860248201527710dbdb9d1c9858dd081b9bdd081a5b9a5d1a585b1a5e995960421b6044820152606401610578565b600080516020611df083398151915261141e8133611349565b610c1761178e565b600554600160a01b900460ff1661147a5760405162461bcd60e51b815260206004820152601860248201527710dbdb9d1c9858dd081b9bdd081a5b9a5d1a585b1a5e995960421b6044820152606401610578565b600080516020611df08339815191526114938133611349565b610c17611798565b6001600160a01b03811660009081526001830160205260408120541515610828565b6040516001600160a01b03848116602483015283811660448301526064820183905261124b9186918216906323b872dd90608401611317565b6001600160a01b0382166115205760405163ec442f0560e01b815260006004820152602401610578565b6112e660008383611601565b6001600160a01b0384166115565760405163e602df0560e01b815260006004820152602401610578565b6001600160a01b03831661158057604051634a1406b160e11b815260006004820152602401610578565b6001600160a01b038085166000908152600160209081526040808320938716835292905220829055801561124b57826001600160a01b0316846001600160a01b03167f8c5be1e5ebec7d5bd14f71427d1e84f3dd0314c0f7b2291e5b200ac8c7c3b925846040516115f391815260200190565b60405180910390a350505050565b6001600160a01b03831661162c5780600260008282546116219190611c17565b9091555061169e9050565b6001600160a01b0383166000908152602081905260409020548181101561167f5760405163391434e360e21b81526001600160a01b03851660048201526024810182905260448101839052606401610578565b6001600160a01b03841660009081526020819052604090209082900390555b6001600160a01b0382166116ba576002805482900390556116d9565b6001600160a01b03821660009081526020819052604090208054820190555b816001600160a01b0316836001600160a01b03167fddf252ad1be2c89b69c2b068fc378daa952ba7f163c4a11628f55a4df523b3ef8360405161171e91815260200190565b60405180910390a3505050565b60006117406001600160a01b038416836117a0565b905080516000141580156117655750808060200190518101906117639190611db1565b155b156111ce57604051635274afe760e01b81526001600160a01b0384166004820152602401610578565b6117966117ae565b565b61179661183d565b6060610828838360006118cf565b6006546001600160a01b031633146118085760405162461bcd60e51b815260206004820152601c60248201527f43616c6c6572206973206e6f742074686520737570657241646d696e000000006044820152606401610578565b600a805460ff191690556040517fa45f47fdea8a1efdd9029a5691c7f759c32b7c698632b563573e155625d1693390600090a1565b6006546001600160a01b031633146118975760405162461bcd60e51b815260206004820152601c60248201527f43616c6c6572206973206e6f742074686520737570657241646d696e000000006044820152606401610578565b600a805460ff191660011790556040517f9e87fac88ff661f02d44f95383c817fece4bce600a3dab7a54406878b965e75290600090a1565b6060814710156118f45760405163cd78605960e01b8152306004820152602401610578565b600080856001600160a01b031684866040516119109190611dd3565b60006040518083038185875af1925050503d806000811461194d576040519150601f19603f3d011682016040523d82523d6000602084013e611952565b606091505b509150915061196286838361196c565b9695505050505050565b6060826119815761197c826119c8565b610828565b815115801561199857506001600160a01b0384163b155b156119c157604051639996b31560e01b81526001600160a01b0385166004820152602401610578565b5080610828565b8051156119d85780518082602001fd5b604051630a12f52160e11b815260040160405180910390fd5b600060208284031215611a0357600080fd5b5035919050565b60005b83811015611a25578181015183820152602001611a0d565b50506000910152565b60008151808452611a46816020860160208601611a0a565b601f01601f19169290920160200192915050565b60c081526000611a6d60c0830189611a2e565b6020830197909752506001600160a01b0394909416604085015260608401929092526080830152151560a090910152919050565b600060208284031215611ab357600080fd5b81356001600160e01b03198116811461082857600080fd5b80356001600160a01b0381168114611ae257600080fd5b919050565b600060208284031215611af957600080fd5b61082882611acb565b6020815260006108286020830184611a2e565b60008060408385031215611b2857600080fd5b611b3183611acb565b946020939093013593505050565b600080600060608486031215611b5457600080fd5b611b5d84611acb565b9250611b6b60208501611acb565b9150604084013590509250925092565b60008060408385031215611b8e57600080fd5b82359150611b9e60208401611acb565b90509250929050565b60008060408385031215611bba57600080fd5b611bc383611acb565b9150611b9e60208401611acb565b602080825260169082015275092dcecc2d8d2c840e0e4dee0dee6c2d840d2dcc8caf60531b604082015260600190565b634e487b7160e01b600052603260045260246000fd5b8082018082111561073b57634e487b7160e01b600052601160045260246000fd5b600181811c90821680611c4c57607f821691505b602082108103611c6c57634e487b7160e01b600052602260045260246000fd5b50919050565b600060208284031215611c8457600080fd5b5051919050565b634e487b7160e01b600052604160045260246000fd5b601f8211156111ce576000816000526020600020601f850160051c81016020861015611cca5750805b601f850160051c820191505b81811015611ce957828155600101611cd6565b505050505050565b815167ffffffffffffffff811115611d0b57611d0b611c8b565b611d1f81611d198454611c38565b84611ca1565b602080601f831160018114611d545760008415611d3c5750858301515b600019600386901b1c1916600185901b178555611ce9565b600085815260208120601f198616915b82811015611d8357888601518255948401946001909101908401611d64565b5085821015611da15787850151600019600388901b60f8161c191681555b5050505050600190811b01905550565b600060208284031215611dc357600080fd5b8151801515811461082857600080fd5b60008251611de5818460208701611a0a565b919091019291505056fe65d7a28e3265b37a6474929f336521b332c1681b933f6cb9f3376673440d862aa26469706673582212200f6f06e164a422e8b16678e34946bde19f1f382dfda7aa3988037d40580acf7e64736f6c634300081900337613a25ecc738585a232ad50a301178f12b3ba8887d13e138b523c4269c47689","linkReferences":{}},"methodIdentifiers":{"DEFAULT_ADMIN_ROLE()":"a217fddf","LOCKER_ROLE()":"f3621367","PAUSER_ROLE()":"e63ab1e9","PROPOSAL_MANAGER_ROLE()":"4de29d48","SUPER_ADMIN_ROLE()":"4460bdd6","allowance(address,address)":"dd62ed3e","approve(address,uint256)":"095ea7b3","balanceOf(address)":"70a08231","createBalanceConfirmationProposal(address)":"3dad0f49","decimals()":"313ce567","deposit(uint256)":"b6b55f25","executeBalanceConfirmationProposal(uint256)":"d47f639c","getOwner()":"893d20e8","getProposal(uint256)":"c7f758a8","getProposalCount()":"c08cc02d","getRoleAdmin(bytes32)":"248a9ca3","hasRole(bytes32,address)":"91d14854","hasVoted(address)":"09eef43e","isAdmin(address)":"24d7806c","isLocked()":"a4e2d634","isPaused()":"b187bd26","name()":"06fdde03","pause()":"8456cb59","proposals(uint256)":"013cf08b","supportsInterface(bytes4)":"01ffc9a7","symbol()":"95d89b41","totalSupply()":"18160ddd","transfer(address,uint256)":"a9059cbb","transferFrom(address,address,uint256)":"23b872dd","underlyingBalanceOf(address)":"935a8b84","underlyingToken()":"2495a599","unpause()":"3f4ba83a","vote(uint256)":"0121b93f","withdraw(uint256)":"2e1a7d4d","wrappedBalanceOf(address)":"06db3e65"},"id":30}