{"abi":[{"type":"function","name":"DEFAULT_ADMIN_ROLE","inputs":[],"outputs":[{"name":"","type":"bytes32","internalType":"bytes32"}],"stateMutability":"view"},{"type":"function","name":"LOCKER_ROLE","inputs":[],"outputs":[{"name":"","type":"bytes32","internalType":"bytes32"}],"stateMutability":"view"},{"type":"function","name":"PAUSER_ROLE","inputs":[],"outputs":[{"name":"","type":"bytes32","internalType":"bytes32"}],"stateMutability":"view"},{"type":"function","name":"SUPER_ADMIN_ROLE","inputs":[],"outputs":[{"name":"","type":"bytes32","internalType":"bytes32"}],"stateMutability":"view"},{"type":"function","name":"addPair","inputs":[{"name":"baseToken","type":"address","internalType":"contract IERC20"},{"name":"quoteToken","type":"address","internalType":"contract IERC20"}],"outputs":[],"stateMutability":"nonpayable"},{"type":"function","name":"getOwner","inputs":[],"outputs":[{"name":"","type":"address","internalType":"address"}],"stateMutability":"view"},{"type":"function","name":"getPair","inputs":[{"name":"pairId","type":"uint256","internalType":"uint256"}],"outputs":[{"name":"","type":"address","internalType":"contract IERC20"},{"name":"","type":"address","internalType":"contract IERC20"}],"stateMutability":"view"},{"type":"function","name":"getRoleAdmin","inputs":[{"name":"role","type":"bytes32","internalType":"bytes32"}],"outputs":[{"name":"","type":"bytes32","internalType":"bytes32"}],"stateMutability":"view"},{"type":"function","name":"hasRole","inputs":[{"name":"role","type":"bytes32","internalType":"bytes32"},{"name":"account","type":"address","internalType":"address"}],"outputs":[{"name":"","type":"bool","internalType":"bool"}],"stateMutability":"view"},{"type":"function","name":"isAdmin","inputs":[{"name":"user","type":"address","internalType":"address"}],"outputs":[{"name":"","type":"bool","internalType":"bool"}],"stateMutability":"view"},{"type":"function","name":"isLocked","inputs":[],"outputs":[{"name":"","type":"bool","internalType":"bool"}],"stateMutability":"view"},{"type":"function","name":"isPaused","inputs":[],"outputs":[{"name":"","type":"bool","internalType":"bool"}],"stateMutability":"view"},{"type":"function","name":"supportsInterface","inputs":[{"name":"interfaceId","type":"bytes4","internalType":"bytes4"}],"outputs":[{"name":"","type":"bool","internalType":"bool"}],"stateMutability":"view"},{"type":"function","name":"tokenPairs","inputs":[{"name":"","type":"uint256","internalType":"uint256"}],"outputs":[{"name":"baseToken","type":"address","internalType":"contract IERC20"},{"name":"quoteToken","type":"address","internalType":"contract IERC20"}],"stateMutability":"view"},{"type":"event","name":"AccessibleInitialized","inputs":[{"name":"owner","type":"address","indexed":true,"internalType":"address"}],"anonymous":false},{"type":"event","name":"AdminStatusChanged","inputs":[{"name":"admin","type":"address","indexed":true,"internalType":"address"},{"name":"status","type":"bool","indexed":false,"internalType":"bool"}],"anonymous":false},{"type":"event","name":"Locked","inputs":[{"name":"untilBlock","type":"uint256","indexed":false,"internalType":"uint256"}],"anonymous":false},{"type":"event","name":"OwnerChanged","inputs":[{"name":"oldOwner","type":"address","indexed":true,"internalType":"address"},{"name":"newOwner","type":"address","indexed":true,"internalType":"address"}],"anonymous":false},{"type":"event","name":"PairAdded","inputs":[{"name":"pairId","type":"uint256","indexed":true,"internalType":"uint256"},{"name":"baseToken","type":"address","indexed":false,"internalType":"address"},{"name":"quoteToken","type":"address","indexed":false,"internalType":"address"}],"anonymous":false},{"type":"event","name":"Paused","inputs":[],"anonymous":false},{"type":"event","name":"RoleAdminChanged","inputs":[{"name":"role","type":"bytes32","indexed":true,"internalType":"bytes32"},{"name":"previousAdminRole","type":"bytes32","indexed":false,"internalType":"bytes32"},{"name":"newAdminRole","type":"bytes32","indexed":false,"internalType":"bytes32"}],"anonymous":false},{"type":"event","name":"RoleGranted","inputs":[{"name":"role","type":"bytes32","indexed":true,"internalType":"bytes32"},{"name":"account","type":"address","indexed":true,"internalType":"address"},{"name":"sender","type":"address","indexed":true,"internalType":"address"}],"anonymous":false},{"type":"event","name":"RoleRevoked","inputs":[{"name":"role","type":"bytes32","indexed":true,"internalType":"bytes32"},{"name":"account","type":"address","indexed":true,"internalType":"address"},{"name":"sender","type":"address","indexed":true,"internalType":"address"}],"anonymous":false},{"type":"event","name":"StatusableInitialized","inputs":[{"name":"owner","type":"address","indexed":true,"internalType":"address"}],"anonymous":false},{"type":"event","name":"SuperAdminChanged","inputs":[{"name":"oldSuperAdmin","type":"address","indexed":true,"internalType":"address"},{"name":"newSuperAdmin","type":"address","indexed":true,"internalType":"address"}],"anonymous":false},{"type":"event","name":"Unlocked","inputs":[],"anonymous":false},{"type":"event","name":"Unpaused","inputs":[],"anonymous":false}],"bytecode":{"object":"0x6080604052348015600f57600080fd5b50600080546001600160a01b03191633179055610686806100316000396000f3fe608060405234801561001057600080fd5b50600436106100ea5760003560e01c8063a217fddf1161008c578063b6f3e08711610066578063b6f3e087146101fe578063bdf391cc14610213578063e63ab1e914610226578063f36213671461024d57600080fd5b8063a217fddf146101e3578063a4e2d634146101eb578063b187bd26146101f357600080fd5b80634460bdd6116100c85780634460bdd61461015b578063893d20e81461018257806391d148541461019d578063a15369d1146101b057600080fd5b806301ffc9a7146100ef578063248a9ca31461011757806324d7806c14610148575b600080fd5b6101026100fd366004610543565b610274565b60405190151581526020015b60405180910390f35b61013a61012536600461056d565b60009081526006602052604090206002015490565b60405190815260200161010e565b61010261015636600461059e565b6102ab565b61013a7f7613a25ecc738585a232ad50a301178f12b3ba8887d13e138b523c4269c4768981565b6000546040516001600160a01b03909116815260200161010e565b6101026101ab3660046105bb565b6102e2565b6101c36101be36600461056d565b61031a565b604080516001600160a01b0393841681529290911660208301520161010e565b61013a600081565b610102610353565b60055460ff16610102565b61021161020c3660046105eb565b61036f565b005b6101c361022136600461056d565b6104b4565b61013a7f65d7a28e3265b37a6474929f336521b332c1681b933f6cb9f3376673440d862a81565b61013a7faf9a8bb3cbd6b84fbccefa71ff73e26e798553c6914585a84886212a46a9027981565b60006001600160e01b031982166301ffc9a760e01b14806102a557506301ffc9a760e01b6001600160e01b03198316145b92915050565b6001600160a01b03811660009081526002602052604081205460ff16806102a55750506001546001600160a01b0390811691161490565b600082815260066020526040812061031390836001600160a01b038116600090815260018301602052604081205415155b9392505050565b6007818154811061032a57600080fd5b6000918252602090912060029091020180546001909101546001600160a01b0391821692501682565b60035460009060ff16801561036a57506004544311155b905090565b6000546001600160a01b031633146103be5760405162461bcd60e51b815260206004820152600d60248201526c2737ba103a34329037bbb732b960991b60448201526064015b60405180910390fd5b604080518082019091526001600160a01b0380841682528281166020830190815260078054600181810183556000839052945160029091027fa66cc928b5edb82af9bd49922954155ab7b0942694bea4ce44661d9a8736c688810180549286166001600160a01b031993841617905592517fa66cc928b5edb82af9bd49922954155ab7b0942694bea4ce44661d9a8736c6899093018054939094169216919091179091555461046d9190610619565b604080516001600160a01b038086168252841660208201527fbdf0e5eca458f21fa7f881795ad7abfa4ba00bf6ef9fd52b07fcd6d78e557de3910160405180910390a25050565b600754600090819083106105005760405162461bcd60e51b815260206004820152601360248201527214185a5c88191bd95cc81b9bdd08195e1a5cdd606a1b60448201526064016103b5565b6000600784815481106105155761051561063a565b6000918252602090912060029091020180546001909101546001600160a01b03918216969116945092505050565b60006020828403121561055557600080fd5b81356001600160e01b03198116811461031357600080fd5b60006020828403121561057f57600080fd5b5035919050565b6001600160a01b038116811461059b57600080fd5b50565b6000602082840312156105b057600080fd5b813561031381610586565b600080604083850312156105ce57600080fd5b8235915060208301356105e081610586565b809150509250929050565b600080604083850312156105fe57600080fd5b823561060981610586565b915060208301356105e081610586565b818103818111156102a557634e487b7160e01b600052601160045260246000fd5b634e487b7160e01b600052603260045260246000fdfea2646970667358221220dd4440a9eaef743165e08f8e7b03ce6224adf7a37310649c0bc8786217fa82a064736f6c63430008190033","linkReferences":{}},"methodIdentifiers":{"DEFAULT_ADMIN_ROLE()":"a217fddf","LOCKER_ROLE()":"f3621367","PAUSER_ROLE()":"e63ab1e9","SUPER_ADMIN_ROLE()":"4460bdd6","addPair(address,address)":"b6f3e087","getOwner()":"893d20e8","getPair(uint256)":"bdf391cc","getRoleAdmin(bytes32)":"248a9ca3","hasRole(bytes32,address)":"91d14854","isAdmin(address)":"24d7806c","isLocked()":"a4e2d634","isPaused()":"b187bd26","supportsInterface(bytes4)":"01ffc9a7","tokenPairs(uint256)":"a15369d1"},"id":8}