{"abi":[{"type":"constructor","inputs":[{"name":"_implt","type":"address","internalType":"address"}],"stateMutability":"nonpayable"},{"type":"fallback","stateMutability":"payable"},{"type":"receive","stateMutability":"payable"},{"type":"function","name":"implt","inputs":[],"outputs":[{"name":"","type":"address","internalType":"address"}],"stateMutability":"view"}],"bytecode":{"object":"0x6080604052348015600f57600080fd5b50604051610194380380610194833981016040819052602c916050565b600080546001600160a01b0319166001600160a01b0392909216919091179055607e565b600060208284031215606157600080fd5b81516001600160a01b0381168114607757600080fd5b9392505050565b6101078061008d6000396000f3fe608060405260043610601f5760003560e01c8063569b6fd2146097576025565b36602557005b6000546001600160a01b03168060745760405162461bcd60e51b815260206004820152601060248201526f1a5b5c1b1d081b9bdd081cd95d1d195960821b604482015260640160405180910390fd5b3660008037600080366000845af43d6000803e8080156092573d6000f35b3d6000fd5b34801560a257600080fd5b5060005460b5906001600160a01b031681565b6040516001600160a01b03909116815260200160405180910390f3fea26469706673582212206cb1ba48c9f9578f43987cfdd30b7926c67b02ea6281e86aa6c3d8e69e4109c164736f6c63430008190033","linkReferences":{}},"methodIdentifiers":{"implt()":"569b6fd2"},"id":27}