{"abi":[{"type":"function","name":"clone","inputs":[{"name":"target","type":"address","internalType":"address"}],"outputs":[{"name":"result","type":"address","internalType":"address"}],"stateMutability":"nonpayable"}],"bytecode":{"object":"0x6080604052348015600f57600080fd5b5061010e8061001f6000396000f3fe6080604052348015600f57600080fd5b506004361060285760003560e01c80638124b78e14602d575b600080fd5b603c603836600460aa565b6058565b6040516001600160a01b03909116815260200160405180910390f35b6000808260601b9050604051733d602d80600a3d3981f3363d3d373d3d3d363d7360601b81528160148201526e5af43d82803e903d91602b57fd5bf360881b60288201526037816000f0949350505050565b60006020828403121560bb57600080fd5b81356001600160a01b038116811460d157600080fd5b939250505056fea26469706673582212204162dc1657c06ecd9adfdec57d2c11a3f2d128d32203371a51913c4d84b986a364736f6c63430008190033","linkReferences":{}},"methodIdentifiers":{"clone(address)":"8124b78e"},"id":26}