{"abi":[{"type":"function","name":"DEFAULT_ADMIN_ROLE","inputs":[],"outputs":[{"name":"","type":"bytes32","internalType":"bytes32"}],"stateMutability":"view"},{"type":"function","name":"LOCKER_ROLE","inputs":[],"outputs":[{"name":"","type":"bytes32","internalType":"bytes32"}],"stateMutability":"view"},{"type":"function","name":"PAUSER_ROLE","inputs":[],"outputs":[{"name":"","type":"bytes32","internalType":"bytes32"}],"stateMutability":"view"},{"type":"function","name":"SUPER_ADMIN_ROLE","inputs":[],"outputs":[{"name":"","type":"bytes32","internalType":"bytes32"}],"stateMutability":"view"},{"type":"function","name":"decode","inputs":[{"name":"encodedData","type":"bytes","internalType":"bytes"},{"name":"additionalParam","type":"bytes32","internalType":"bytes32"}],"outputs":[{"name":"","type":"bytes","internalType":"bytes"}],"stateMutability":"view"},{"type":"function","name":"encode","inputs":[{"name":"data","type":"bytes","internalType":"bytes"},{"name":"additionalParam","type":"bytes32","internalType":"bytes32"}],"outputs":[{"name":"","type":"bytes","internalType":"bytes"}],"stateMutability":"view"},{"type":"function","name":"getOwner","inputs":[],"outputs":[{"name":"","type":"address","internalType":"address"}],"stateMutability":"view"},{"type":"function","name":"getRoleAdmin","inputs":[{"name":"role","type":"bytes32","internalType":"bytes32"}],"outputs":[{"name":"","type":"bytes32","internalType":"bytes32"}],"stateMutability":"view"},{"type":"function","name":"hasRole","inputs":[{"name":"role","type":"bytes32","internalType":"bytes32"},{"name":"account","type":"address","internalType":"address"}],"outputs":[{"name":"","type":"bool","internalType":"bool"}],"stateMutability":"view"},{"type":"function","name":"initialize","inputs":[{"name":"owner","type":"address","internalType":"address"}],"outputs":[],"stateMutability":"nonpayable"},{"type":"function","name":"isAdmin","inputs":[{"name":"user","type":"address","internalType":"address"}],"outputs":[{"name":"","type":"bool","internalType":"bool"}],"stateMutability":"view"},{"type":"function","name":"isLocked","inputs":[],"outputs":[{"name":"","type":"bool","internalType":"bool"}],"stateMutability":"view"},{"type":"function","name":"isPaused","inputs":[],"outputs":[{"name":"","type":"bool","internalType":"bool"}],"stateMutability":"view"},{"type":"function","name":"supportsInterface","inputs":[{"name":"interfaceId","type":"bytes4","internalType":"bytes4"}],"outputs":[{"name":"","type":"bool","internalType":"bool"}],"stateMutability":"view"},{"type":"function","name":"verifyEncodedData","inputs":[{"name":"encodedData","type":"bytes","internalType":"bytes"},{"name":"originalData","type":"bytes","internalType":"bytes"},{"name":"additionalParam","type":"bytes32","internalType":"bytes32"}],"outputs":[{"name":"","type":"bool","internalType":"bool"}],"stateMutability":"view"},{"type":"event","name":"AccessibleInitialized","inputs":[{"name":"owner","type":"address","indexed":true,"internalType":"address"}],"anonymous":false},{"type":"event","name":"AdminStatusChanged","inputs":[{"name":"admin","type":"address","indexed":true,"internalType":"address"},{"name":"status","type":"bool","indexed":false,"internalType":"bool"}],"anonymous":false},{"type":"event","name":"Locked","inputs":[{"name":"untilBlock","type":"uint256","indexed":false,"internalType":"uint256"}],"anonymous":false},{"type":"event","name":"OwnerChanged","inputs":[{"name":"oldOwner","type":"address","indexed":true,"internalType":"address"},{"name":"newOwner","type":"address","indexed":true,"internalType":"address"}],"anonymous":false},{"type":"event","name":"Paused","inputs":[],"anonymous":false},{"type":"event","name":"RoleAdminChanged","inputs":[{"name":"role","type":"bytes32","indexed":true,"internalType":"bytes32"},{"name":"previousAdminRole","type":"bytes32","indexed":false,"internalType":"bytes32"},{"name":"newAdminRole","type":"bytes32","indexed":false,"internalType":"bytes32"}],"anonymous":false},{"type":"event","name":"RoleGranted","inputs":[{"name":"role","type":"bytes32","indexed":true,"internalType":"bytes32"},{"name":"account","type":"address","indexed":true,"internalType":"address"},{"name":"sender","type":"address","indexed":true,"internalType":"address"}],"anonymous":false},{"type":"event","name":"RoleRevoked","inputs":[{"name":"role","type":"bytes32","indexed":true,"internalType":"bytes32"},{"name":"account","type":"address","indexed":true,"internalType":"address"},{"name":"sender","type":"address","indexed":true,"internalType":"address"}],"anonymous":false},{"type":"event","name":"StatusableInitialized","inputs":[{"name":"owner","type":"address","indexed":true,"internalType":"address"}],"anonymous":false},{"type":"event","name":"SuperAdminChanged","inputs":[{"name":"oldSuperAdmin","type":"address","indexed":true,"internalType":"address"},{"name":"newSuperAdmin","type":"address","indexed":true,"internalType":"address"}],"anonymous":false},{"type":"event","name":"Unlocked","inputs":[],"anonymous":false},{"type":"event","name":"Unpaused","inputs":[],"anonymous":false}],"bytecode":{"object":"0x6080604052348015600f57600080fd5b50600080546001600160a01b03191633179055610f1e806100316000396000f3fe608060405234801561001057600080fd5b50600436106100f55760003560e01c8063a217fddf11610097578063c439373c11610066578063c439373c14610209578063c4d66de81461021c578063e63ab1e914610231578063f36213671461025857600080fd5b8063a217fddf146101ce578063a4e2d634146101d6578063ac25e0b1146101de578063b187bd26146101fe57600080fd5b80632759759c116100d35780632759759c146101665780634460bdd614610179578063893d20e8146101a057806391d14854146101bb57600080fd5b806301ffc9a7146100fa578063248a9ca31461012257806324d7806c14610153575b600080fd5b61010d610108366004610bd9565b61027f565b60405190151581526020015b60405180910390f35b610145610130366004610c03565b60009081526006602052604090206002015490565b604051908152602001610119565b61010d610161366004610c38565b6102b6565b61010d610174366004610cf6565b6102ed565b6101457f7613a25ecc738585a232ad50a301178f12b3ba8887d13e138b523c4269c4768981565b6000546040516001600160a01b039091168152602001610119565b61010d6101c9366004610d63565b610335565b610145600081565b61010d61034d565b6101f16101ec366004610d8f565b610369565b6040516101199190610df8565b60055460ff1661010d565b6101f1610217366004610d8f565b610375565b61022f61022a366004610c38565b6103ab565b005b6101457f65d7a28e3265b37a6474929f336521b332c1681b933f6cb9f3376673440d862a81565b6101457faf9a8bb3cbd6b84fbccefa71ff73e26e798553c6914585a84886212a46a9027981565b60006001600160e01b031982166301ffc9a760e01b14806102b057506301ffc9a760e01b6001600160e01b03198316145b92915050565b6001600160a01b03811660009081526002602052604081205460ff16806102b05750506001546001600160a01b0390811691161490565b60008054600160a01b900460ff166103205760405162461bcd60e51b815260040161031790610e2b565b60405180910390fd5b61032b8484846103f8565b90505b9392505050565b600082815260066020526040812061032e908361048a565b60035460009060ff16801561036457506004544311155b905090565b606061032e83836104ac565b600054606090600160a01b900460ff166103a15760405162461bcd60e51b815260040161031790610e2b565b61032e8383610524565b6103b4816106ed565b6103f5816040516bffffffffffffffffffffffff19606083901b16602082015260340160408051601f19818403018152919052805160209091012060075550565b50565b60008054600160a01b900460ff166104225760405162461bcd60e51b815260040161031790610e2b565b600061042e8584610524565b9050838051906020012081805190602001201461044f57600091505061032e565b60008184604051602001610464929190610e62565b60408051808303601f190181529190528051602090910120600754149695505050505050565b6001600160a01b0381166000908152600183016020526040812054151561032e565b606060008351116104f65760405162461bcd60e51b8152602060048201526014602482015273446174612063616e6e6f7420626520656d70747960601b6044820152606401610317565b600754828460405160200161050d93929190610e84565b604051602081830303815290604052905092915050565b606060208351116105a95760405162461bcd60e51b815260206004820152604360248201527f456e636f646564206461746120697320746f6f2073686f727420746f20636f6e60448201527f7461696e2073616c7420616e64206164646974696f6e616c20706172616d657460648201526265727360e81b608482015260a401610317565b602083810151600754604080519384018390528301859052909160600160405160208183030381529060405280519060200120146106295760405162461bcd60e51b815260206004820152601b60248201527f496e76616c696420656e636f64696e6720706172616d657465727300000000006044820152606401610317565b6000602085516106399190610eb1565b67ffffffffffffffff81111561065157610651610c53565b6040519080825280601f01601f19166020018201604052801561067b576020820181803683370190505b50905060205b85518110156106e45785818151811061069c5761069c610ed2565b602001015160f81c60f81b826020836106b59190610eb1565b815181106106c5576106c5610ed2565b60200101906001600160f81b031916908160001a905350600101610681565b50949350505050565b6106f6816107bf565b6106ff816107ea565b61070a600082610833565b6107347f7613a25ecc738585a232ad50a301178f12b3ba8887d13e138b523c4269c4768982610833565b61075e7faf9a8bb3cbd6b84fbccefa71ff73e26e798553c6914585a84886212a46a9027982610833565b6107887f65d7a28e3265b37a6474929f336521b332c1681b933f6cb9f3376673440d862a82610833565b6040516001600160a01b038216907f3de3d1f713a564024f731f6d7afb81c43fdb29e76938f872f1808492de7a6cee90600090a250565b6107c881610841565b600180546001600160a01b0319166001600160a01b0392909216919091179055565b6107f381610904565b6107fc8161091a565b6040516001600160a01b038216907f663670337b17c161b72582af2b4825d2f2be2de8d56b0bb8a2ea06a8386e9e7790600090a250565b61083d8282610930565b5050565b6000546001600160a01b0316331461088b5760405162461bcd60e51b815260206004820152600d60248201526c2737ba103a34329037bbb732b960991b6044820152606401610317565b600054600160a01b900460ff16156108e55760405162461bcd60e51b815260206004820152601c60248201527f436f6e747261637420616c726561647920696e697469616c697a6564000000006044820152606401610317565b6108ee81610993565b506000805460ff60a01b1916600160a01b179055565b61090d816107bf565b506003805460ff19169055565b61092381610904565b506005805460ff19169055565b600054600160a01b900460ff166109595760405162461bcd60e51b815260040161031790610e2b565b7f7613a25ecc738585a232ad50a301178f12b3ba8887d13e138b523c4269c476896109848133610a8e565b61098e8383610af6565b505050565b6000546001600160a01b031633146109dd5760405162461bcd60e51b815260206004820152600d60248201526c2737ba103a34329037bbb732b960991b6044820152606401610317565b6001600160a01b038116610a335760405162461bcd60e51b815260206004820152601a60248201527f496e76616c6964206e6577206f776e657220616464726573732e0000000000006044820152606401610317565b600080546040516001600160a01b03808516939216917fb532073b38c83145e3e5135377a08bf9aab55bc0fd7c1179cd4fb995d2a5159c91a3600080546001600160a01b0319166001600160a01b0392909216919091179055565b610a988282610335565b61083d5760405162461bcd60e51b815260206004820152602960248201527f416363657373436f6e74726f6c3a206163636f756e7420646f6573206e6f74206044820152686861766520726f6c6560b81b6064820152608401610317565b600082815260066020526040902060020154610b128133610a8e565b6000838152600660205260409020610b2a9083610b6c565b1561098e5760405133906001600160a01b0384169085907f2f8788117e7eff1d82e926ec794901d17c78024a50270940304540a733656f0d90600090a4505050565b600061032e836001600160a01b0384166000610b9b838360009081526001919091016020526040902054151590565b610bd1575081546001818101845560008481526020808220909301849055845484825282860190935260409020919091556102b0565b5060006102b0565b600060208284031215610beb57600080fd5b81356001600160e01b03198116811461032e57600080fd5b600060208284031215610c1557600080fd5b5035919050565b80356001600160a01b0381168114610c3357600080fd5b919050565b600060208284031215610c4a57600080fd5b61032e82610c1c565b634e487b7160e01b600052604160045260246000fd5b600082601f830112610c7a57600080fd5b813567ffffffffffffffff80821115610c9557610c95610c53565b604051601f8301601f19908116603f01168101908282118183101715610cbd57610cbd610c53565b81604052838152866020858801011115610cd657600080fd5b836020870160208301376000602085830101528094505050505092915050565b600080600060608486031215610d0b57600080fd5b833567ffffffffffffffff80821115610d2357600080fd5b610d2f87838801610c69565b94506020860135915080821115610d4557600080fd5b50610d5286828701610c69565b925050604084013590509250925092565b60008060408385031215610d7657600080fd5b82359150610d8660208401610c1c565b90509250929050565b60008060408385031215610da257600080fd5b823567ffffffffffffffff811115610db957600080fd5b610dc585828601610c69565b95602094909401359450505050565b60005b83811015610def578181015183820152602001610dd7565b50506000910152565b6020815260008251806020840152610e17816040850160208701610dd4565b601f01601f19169190910160400192915050565b60208082526018908201527f436f6e7472616374206e6f7420696e697469616c697a65640000000000000000604082015260600190565b60008351610e74818460208801610dd4565b9190910191825250602001919050565b83815282602082015260008251610ea2816040850160208701610dd4565b91909101604001949350505050565b818103818111156102b057634e487b7160e01b600052601160045260246000fd5b634e487b7160e01b600052603260045260246000fdfea26469706673582212208a2c25974c6525e54a61b3865977c337b107803ea91cac826d5825606d7c992464736f6c63430008190033","linkReferences":{}},"methodIdentifiers":{"DEFAULT_ADMIN_ROLE()":"a217fddf","LOCKER_ROLE()":"f3621367","PAUSER_ROLE()":"e63ab1e9","SUPER_ADMIN_ROLE()":"4460bdd6","decode(bytes,bytes32)":"c439373c","encode(bytes,bytes32)":"ac25e0b1","getOwner()":"893d20e8","getRoleAdmin(bytes32)":"248a9ca3","hasRole(bytes32,address)":"91d14854","initialize(address)":"c4d66de8","isAdmin(address)":"24d7806c","isLocked()":"a4e2d634","isPaused()":"b187bd26","supportsInterface(bytes4)":"01ffc9a7","verifyEncodedData(bytes,bytes,bytes32)":"2759759c"},"id":19}