{"abi":[{"type":"constructor","inputs":[],"stateMutability":"nonpayable"},{"type":"function","name":"ADMIN_ROLE","inputs":[],"outputs":[{"name":"","type":"bytes32","internalType":"bytes32"}],"stateMutability":"view"},{"type":"function","name":"DEFAULT_ADMIN_ROLE","inputs":[],"outputs":[{"name":"","type":"bytes32","internalType":"bytes32"}],"stateMutability":"view"},{"type":"function","name":"DEPLOYER_ROLE","inputs":[],"outputs":[{"name":"","type":"bytes32","internalType":"bytes32"}],"stateMutability":"view"},{"type":"function","name":"LOCKER_ROLE","inputs":[],"outputs":[{"name":"","type":"bytes32","internalType":"bytes32"}],"stateMutability":"view"},{"type":"function","name":"PAUSER_ROLE","inputs":[],"outputs":[{"name":"","type":"bytes32","internalType":"bytes32"}],"stateMutability":"view"},{"type":"function","name":"SUPER_ADMIN_ROLE","inputs":[],"outputs":[{"name":"","type":"bytes32","internalType":"bytes32"}],"stateMutability":"view"},{"type":"function","name":"addContractCode","inputs":[{"name":"contractType","type":"string","internalType":"string"},{"name":"bytecode","type":"bytes","internalType":"bytes"},{"name":"code","type":"string","internalType":"string"}],"outputs":[],"stateMutability":"nonpayable"},{"type":"function","name":"contractsCodes","inputs":[{"name":"","type":"uint256","internalType":"uint256"}],"outputs":[{"name":"id","type":"uint256","internalType":"uint256"},{"name":"contractType","type":"string","internalType":"string"},{"name":"encodedBytecode","type":"bytes","internalType":"bytes"},{"name":"code","type":"string","internalType":"string"}],"stateMutability":"view"},{"type":"function","name":"generatedProxedContracts","inputs":[{"name":"","type":"uint256","internalType":"uint256"}],"outputs":[{"name":"id","type":"uint256","internalType":"uint256"},{"name":"proxyAddress","type":"address","internalType":"address"},{"name":"impltAddress","type":"address","internalType":"address"},{"name":"contractCodeId","type":"uint256","internalType":"uint256"}],"stateMutability":"view"},{"type":"function","name":"getContractCode","inputs":[{"name":"contractCodeId","type":"uint256","internalType":"uint256"}],"outputs":[{"name":"","type":"tuple","internalType":"struct ContractManager.ContractCode","components":[{"name":"id","type":"uint256","internalType":"uint256"},{"name":"contractType","type":"string","internalType":"string"},{"name":"encodedBytecode","type":"bytes","internalType":"bytes"},{"name":"code","type":"string","internalType":"string"}]}],"stateMutability":"view"},{"type":"function","name":"getOwner","inputs":[],"outputs":[{"name":"","type":"address","internalType":"address"}],"stateMutability":"view"},{"type":"function","name":"getRoleAdmin","inputs":[{"name":"role","type":"bytes32","internalType":"bytes32"}],"outputs":[{"name":"","type":"bytes32","internalType":"bytes32"}],"stateMutability":"view"},{"type":"function","name":"hasRole","inputs":[{"name":"role","type":"bytes32","internalType":"bytes32"},{"name":"account","type":"address","internalType":"address"}],"outputs":[{"name":"","type":"bool","internalType":"bool"}],"stateMutability":"view"},{"type":"function","name":"isAdmin","inputs":[{"name":"user","type":"address","internalType":"address"}],"outputs":[{"name":"","type":"bool","internalType":"bool"}],"stateMutability":"view"},{"type":"function","name":"isLocked","inputs":[],"outputs":[{"name":"","type":"bool","internalType":"bool"}],"stateMutability":"view"},{"type":"function","name":"isPaused","inputs":[],"outputs":[{"name":"","type":"bool","internalType":"bool"}],"stateMutability":"view"},{"type":"function","name":"lock","inputs":[{"name":"numberOfBlocks","type":"uint256","internalType":"uint256"}],"outputs":[],"stateMutability":"nonpayable"},{"type":"function","name":"pause","inputs":[],"outputs":[],"stateMutability":"nonpayable"},{"type":"function","name":"proxyedDeploy","inputs":[{"name":"contractCodeId","type":"uint256","internalType":"uint256"},{"name":"_salt","type":"bytes32","internalType":"bytes32"}],"outputs":[{"name":"","type":"address","internalType":"address"}],"stateMutability":"nonpayable"},{"type":"function","name":"supportsInterface","inputs":[{"name":"interfaceId","type":"bytes4","internalType":"bytes4"}],"outputs":[{"name":"","type":"bool","internalType":"bool"}],"stateMutability":"view"},{"type":"function","name":"unlock","inputs":[],"outputs":[],"stateMutability":"nonpayable"},{"type":"function","name":"unpause","inputs":[],"outputs":[],"stateMutability":"nonpayable"},{"type":"event","name":"AccessibleInitialized","inputs":[{"name":"owner","type":"address","indexed":true,"internalType":"address"}],"anonymous":false},{"type":"event","name":"AdminStatusChanged","inputs":[{"name":"admin","type":"address","indexed":true,"internalType":"address"},{"name":"status","type":"bool","indexed":false,"internalType":"bool"}],"anonymous":false},{"type":"event","name":"ContractCodeAdded","inputs":[{"name":"id","type":"uint256","indexed":true,"internalType":"uint256"},{"name":"contractType","type":"string","indexed":false,"internalType":"string"},{"name":"code","type":"string","indexed":false,"internalType":"string"}],"anonymous":false},{"type":"event","name":"Locked","inputs":[{"name":"untilBlock","type":"uint256","indexed":false,"internalType":"uint256"}],"anonymous":false},{"type":"event","name":"OwnerChanged","inputs":[{"name":"oldOwner","type":"address","indexed":true,"internalType":"address"},{"name":"newOwner","type":"address","indexed":true,"internalType":"address"}],"anonymous":false},{"type":"event","name":"Paused","inputs":[],"anonymous":false},{"type":"event","name":"ProxedContractDeployed","inputs":[{"name":"id","type":"uint256","indexed":true,"internalType":"uint256"},{"name":"proxyAddress","type":"address","indexed":false,"internalType":"address"},{"name":"impltAddress","type":"address","indexed":false,"internalType":"address"},{"name":"contractCodeId","type":"uint256","indexed":false,"internalType":"uint256"}],"anonymous":false},{"type":"event","name":"RoleAdminChanged","inputs":[{"name":"role","type":"bytes32","indexed":true,"internalType":"bytes32"},{"name":"previousAdminRole","type":"bytes32","indexed":false,"internalType":"bytes32"},{"name":"newAdminRole","type":"bytes32","indexed":false,"internalType":"bytes32"}],"anonymous":false},{"type":"event","name":"RoleGranted","inputs":[{"name":"role","type":"bytes32","indexed":true,"internalType":"bytes32"},{"name":"account","type":"address","indexed":true,"internalType":"address"},{"name":"sender","type":"address","indexed":true,"internalType":"address"}],"anonymous":false},{"type":"event","name":"RoleRevoked","inputs":[{"name":"role","type":"bytes32","indexed":true,"internalType":"bytes32"},{"name":"account","type":"address","indexed":true,"internalType":"address"},{"name":"sender","type":"address","indexed":true,"internalType":"address"}],"anonymous":false},{"type":"event","name":"StatusableInitialized","inputs":[{"name":"owner","type":"address","indexed":true,"internalType":"address"}],"anonymous":false},{"type":"event","name":"SuperAdminChanged","inputs":[{"name":"oldSuperAdmin","type":"address","indexed":true,"internalType":"address"},{"name":"newSuperAdmin","type":"address","indexed":true,"internalType":"address"}],"anonymous":false},{"type":"event","name":"Unlocked","inputs":[],"anonymous":false},{"type":"event","name":"Unpaused","inputs":[],"anonymous":false}],"bytecode":{"object":"0x6080604052348015600f57600080fd5b50600080546001600160a01b03191633179055611ac7806100316000396000f3fe608060405234801561001057600080fd5b50600436106101425760003560e01c8063a217fddf116100b8578063b9b4d4a01161007c578063b9b4d4a0146102c4578063d52fe5bf14610307578063dd4670641461031a578063e63ab1e91461032d578063ecd0026114610342578063f36213671461036957600080fd5b8063a217fddf14610281578063a4e2d63414610289578063a69df4b514610291578063b187bd2614610299578063b36405de146102a457600080fd5b80634460bdd61161010a5780634460bdd6146101e057806375b238fc146102075780638456cb591461022e578063893d20e81461023657806391d148541461025b5780639bda3f9b1461026e57600080fd5b806301ffc9a71461014757806320edba2a1461016f578063248a9ca31461019257806324d7806c146101c35780633f4ba83a146101d6575b600080fd5b61015a61015536600461132a565b61037e565b60405190151581526020015b60405180910390f35b61018261017d366004611354565b6103b5565b60405161016694939291906113bd565b6101b56101a0366004611354565b60009081526006602052604090206002015490565b604051908152602001610166565b61015a6101d1366004611423565b610589565b6101de6105c0565b005b6101b57f7613a25ecc738585a232ad50a301178f12b3ba8887d13e138b523c4269c4768981565b6101b57fa49807205ce4d355092ef5a8a18f56e8913cf4a201fbe287825b095693c2177581565b6101de6105e4565b6000546001600160a01b03165b6040516001600160a01b039091168152602001610166565b61015a61026936600461143e565b610605565b61024361027c36600461146a565b610624565b6101b5600081565b61015a610977565b6101de610993565b60055460ff1661015a565b6102b76102b2366004611354565b6109b4565b604051610166919061148c565b6102d76102d2366004611354565b610c50565b60405161016694939291909384526001600160a01b03928316602085015291166040830152606082015260800190565b6101de6103153660046115a3565b610c96565b6101de610328366004611354565b610dfa565b6101b5600080516020611a5283398151915281565b6101b57ffc425f2263d0df187444b70e47283d622c70181c5baebb1306a01edba1ce184c81565b6101b5600080516020611a7283398151915281565b60006001600160e01b031982166301ffc9a760e01b14806103af57506301ffc9a760e01b6001600160e01b03198316145b92915050565b600781815481106103c557600080fd5b600091825260209091206004909102018054600182018054919350906103ea90611642565b80601f016020809104026020016040519081016040528092919081815260200182805461041690611642565b80156104635780601f1061043857610100808354040283529160200191610463565b820191906000526020600020905b81548152906001019060200180831161044657829003601f168201915b50505050509080600201805461047890611642565b80601f01602080910402602001604051908101604052809291908181526020018280546104a490611642565b80156104f15780601f106104c6576101008083540402835291602001916104f1565b820191906000526020600020905b8154815290600101906020018083116104d457829003601f168201915b50505050509080600301805461050690611642565b80601f016020809104026020016040519081016040528092919081815260200182805461053290611642565b801561057f5780601f106105545761010080835404028352916020019161057f565b820191906000526020600020905b81548152906001019060200180831161056257829003601f168201915b5050505050905084565b6001600160a01b03811660009081526002602052604081205460ff16806103af5750506001546001600160a01b0390811691161490565b600080516020611a528339815191526105d98133610e20565b6105e1610e88565b50565b600080516020611a528339815191526105fd8133610e20565b6105e1610ed2565b600082815260066020526040812061061d9083610f1c565b9392505050565b600061062e610977565b156106755760405162461bcd60e51b815260206004820152601260248201527110dbdb9d1c9858dd081a5cc81b1bd8dad95960721b60448201526064015b60405180910390fd5b60055460ff16156106bd5760405162461bcd60e51b815260206004820152601260248201527110dbdb9d1c9858dd081a5cc81c185d5cd95960721b604482015260640161066c565b7ffc425f2263d0df187444b70e47283d622c70181c5baebb1306a01edba1ce184c6106e88133610e20565b60075484106107395760405162461bcd60e51b815260206004820152601c60248201527f436f6e747261637420636f646520646f6573206e6f7420657869737400000000604482015260640161066c565b60006007858154811061074e5761074e611676565b9060005260206000209060040201600201805461076a90611642565b80601f016020809104026020016040519081016040528092919081815260200182805461079690611642565b80156107e35780601f106107b8576101008083540402835291602001916107e3565b820191906000526020600020905b8154815290600101906020018083116107c657829003601f168201915b5050505050905060006107f882600954610f3e565b905060008151602083016000f09050803b61081257600080fd5b6000604051806020016108249061131d565b601f1982820381018352601f9091011660408181526001600160a01b038516602083015291925060009183910160408051601f198184030181529082905261086f929160200161168c565b6040516020818303038152906040529050600061088c828a611083565b90506000600880549050905060086040518060800160405280838152602001846001600160a01b03168152602001876001600160a01b031681526020018d81525090806001815401808255809150506001900390600052602060002090600402016000909190919091506000820151816000015560208201518160010160006101000a8154816001600160a01b0302191690836001600160a01b0316021790555060408201518160020160006101000a8154816001600160a01b0302191690836001600160a01b03160217905550606082015181600301555050819850505050505050505092915050565b60035460009060ff16801561098e57506004544311155b905090565b600080516020611a728339815191526109ac8133610e20565b6105e161109d565b6109df6040518060800160405280600081526020016060815260200160608152602001606081525090565b7ffc425f2263d0df187444b70e47283d622c70181c5baebb1306a01edba1ce184c610a0a8133610e20565b6007548310610a5b5760405162461bcd60e51b815260206004820152601c60248201527f436f6e747261637420636f646520646f6573206e6f7420657869737400000000604482015260640161066c565b60078381548110610a6e57610a6e611676565b906000526020600020906004020160405180608001604052908160008201548152602001600182018054610aa190611642565b80601f0160208091040260200160405190810160405280929190818152602001828054610acd90611642565b8015610b1a5780601f10610aef57610100808354040283529160200191610b1a565b820191906000526020600020905b815481529060010190602001808311610afd57829003601f168201915b50505050508152602001600282018054610b3390611642565b80601f0160208091040260200160405190810160405280929190818152602001828054610b5f90611642565b8015610bac5780601f10610b8157610100808354040283529160200191610bac565b820191906000526020600020905b815481529060010190602001808311610b8f57829003601f168201915b50505050508152602001600382018054610bc590611642565b80601f0160208091040260200160405190810160405280929190818152602001828054610bf190611642565b8015610c3e5780601f10610c1357610100808354040283529160200191610c3e565b820191906000526020600020905b815481529060010190602001808311610c2157829003601f168201915b50505050508152505091505b50919050565b60088181548110610c6057600080fd5b600091825260209091206004909102018054600182015460028301546003909301549193506001600160a01b0390811692169084565b600054600160a01b900460ff16610cbf5760405162461bcd60e51b815260040161066c906116bb565b7fa49807205ce4d355092ef5a8a18f56e8913cf4a201fbe287825b095693c21775610cea8133610e20565b6000610cf8846009546110e7565b6007805460408051608081018252828152602081018a8152918101859052606081018890526001830184556000939093528251600483027fa66cc928b5edb82af9bd49922954155ab7b0942694bea4ce44661d9a8736c6888101918255915194955091937fa66cc928b5edb82af9bd49922954155ab7b0942694bea4ce44661d9a8736c68990910190610d8b9082611743565b5060408201516002820190610da09082611743565b5060608201516003820190610db59082611743565b505050807f16c6cb4f1d8536537cc25a760e3cfc9cf4324964a782ab30978c0ecadfae72c58786604051610dea929190611803565b60405180910390a2505050505050565b600080516020611a72833981519152610e138133610e20565b610e1c82611113565b5050565b610e2a8282610605565b610e1c5760405162461bcd60e51b815260206004820152602960248201527f416363657373436f6e74726f6c3a206163636f756e7420646f6573206e6f74206044820152686861766520726f6c6560b81b606482015260840161066c565b600054600160a01b900460ff16610eb15760405162461bcd60e51b815260040161066c906116bb565b600080516020611a52833981519152610eca8133610e20565b6105e161115e565b600054600160a01b900460ff16610efb5760405162461bcd60e51b815260040161066c906116bb565b600080516020611a52833981519152610f148133610e20565b6105e1611168565b6001600160a01b0381166000908152600183016020526040812054151561061d565b6060602083511015610f885760405162461bcd60e51b8152602060048201526013602482015272092dcecc2d8d2c840c8c2e8c240d8cadccee8d606b1b604482015260640161066c565b8251830151828114610fcb5760405162461bcd60e51b815260206004820152600c60248201526b125b9d985b1a59081cd85b1d60a21b604482015260640161066c565b600060208551610fdb919061183e565b67ffffffffffffffff811115610ff357610ff36114f7565b6040519080825280601f01601f19166020018201604052801561101d576020820181803683370190505b50905060005b815181101561107a5785818151811061103e5761103e611676565b602001015160f81c60f81b82828151811061105b5761105b611676565b60200101906001600160f81b031916908160001a905350600101611023565b50949350505050565b600080828451602086016000f59050803b61061d57600080fd5b600054600160a01b900460ff166110c65760405162461bcd60e51b815260040161066c906116bb565b600080516020611a728339815191526110df8133610e20565b6105e1611170565b606082826040516020016110fc929190611851565b604051602081830303815290604052905092915050565b600054600160a01b900460ff1661113c5760405162461bcd60e51b815260040161066c906116bb565b600080516020611a728339815191526111558133610e20565b610e1c82611178565b611166611181565b565b6111666111e0565b611166611242565b6105e1816112a1565b6001546001600160a01b031633146111ab5760405162461bcd60e51b815260040161066c90611873565b6005805460ff191690556040517fa45f47fdea8a1efdd9029a5691c7f759c32b7c698632b563573e155625d1693390600090a1565b6001546001600160a01b0316331461120a5760405162461bcd60e51b815260040161066c90611873565b6005805460ff191660011790556040517f9e87fac88ff661f02d44f95383c817fece4bce600a3dab7a54406878b965e75290600090a1565b6001546001600160a01b0316331461126c5760405162461bcd60e51b815260040161066c90611873565b6003805460ff191690556040517f19aad37188a1d3921e29eb3c66acf43d81975e107cb650d58cca878627955fd690600090a1565b6001546001600160a01b031633146112cb5760405162461bcd60e51b815260040161066c90611873565b6003805460ff191660011790556112e281436118aa565b60048190556040519081527f032bc66be43dbccb7487781d168eb7bda224628a3b2c3388bdf69b532a3a16119060200160405180910390a150565b610194806118be83390190565b60006020828403121561133c57600080fd5b81356001600160e01b03198116811461061d57600080fd5b60006020828403121561136657600080fd5b5035919050565b60005b83811015611388578181015183820152602001611370565b50506000910152565b600081518084526113a981602086016020860161136d565b601f01601f19169290920160200192915050565b8481526080602082015260006113d66080830186611391565b82810360408401526113e88186611391565b905082810360608401526113fc8185611391565b979650505050505050565b80356001600160a01b038116811461141e57600080fd5b919050565b60006020828403121561143557600080fd5b61061d82611407565b6000806040838503121561145157600080fd5b8235915061146160208401611407565b90509250929050565b6000806040838503121561147d57600080fd5b50508035926020909101359150565b602081528151602082015260006020830151608060408401526114b260a0840182611391565b90506040840151601f19808584030160608601526114d08383611391565b92506060860151915080858403016080860152506114ee8282611391565b95945050505050565b634e487b7160e01b600052604160045260246000fd5b600067ffffffffffffffff80841115611528576115286114f7565b604051601f8501601f19908116603f01168101908282118183101715611550576115506114f7565b8160405280935085815286868601111561156957600080fd5b858560208301376000602087830101525050509392505050565b600082601f83011261159457600080fd5b61061d8383356020850161150d565b6000806000606084860312156115b857600080fd5b833567ffffffffffffffff808211156115d057600080fd5b6115dc87838801611583565b945060208601359150808211156115f257600080fd5b818601915086601f83011261160657600080fd5b6116158783356020850161150d565b9350604086013591508082111561162b57600080fd5b5061163886828701611583565b9150509250925092565b600181811c9082168061165657607f821691505b602082108103610c4a57634e487b7160e01b600052602260045260246000fd5b634e487b7160e01b600052603260045260246000fd5b6000835161169e81846020880161136d565b8351908301906116b281836020880161136d565b01949350505050565b60208082526018908201527f436f6e7472616374206e6f7420696e697469616c697a65640000000000000000604082015260600190565b601f82111561173e576000816000526020600020601f850160051c8101602086101561171b5750805b601f850160051c820191505b8181101561173a57828155600101611727565b5050505b505050565b815167ffffffffffffffff81111561175d5761175d6114f7565b6117718161176b8454611642565b846116f2565b602080601f8311600181146117a6576000841561178e5750858301515b600019600386901b1c1916600185901b17855561173a565b600085815260208120601f198616915b828110156117d5578886015182559484019460019091019084016117b6565b50858210156117f35787850151600019600388901b60f8161c191681555b5050505050600190811b01905550565b6040815260006118166040830185611391565b82810360208401526114ee8185611391565b634e487b7160e01b600052601160045260246000fd5b818103818111156103af576103af611828565b6000835161186381846020880161136d565b9190910191825250602001919050565b6020808252601c908201527f43616c6c6572206973206e6f742074686520737570657241646d696e00000000604082015260600190565b808201808211156103af576103af61182856fe6080604052348015600f57600080fd5b50604051610194380380610194833981016040819052602c916050565b600080546001600160a01b0319166001600160a01b0392909216919091179055607e565b600060208284031215606157600080fd5b81516001600160a01b0381168114607757600080fd5b9392505050565b6101078061008d6000396000f3fe608060405260043610601f5760003560e01c8063569b6fd2146097576025565b36602557005b6000546001600160a01b03168060745760405162461bcd60e51b815260206004820152601060248201526f1a5b5c1b1d081b9bdd081cd95d1d195960821b604482015260640160405180910390fd5b3660008037600080366000845af43d6000803e8080156092573d6000f35b3d6000fd5b34801560a257600080fd5b5060005460b5906001600160a01b031681565b6040516001600160a01b03909116815260200160405180910390f3fea26469706673582212206cb1ba48c9f9578f43987cfdd30b7926c67b02ea6281e86aa6c3d8e69e4109c164736f6c6343000819003365d7a28e3265b37a6474929f336521b332c1681b933f6cb9f3376673440d862aaf9a8bb3cbd6b84fbccefa71ff73e26e798553c6914585a84886212a46a90279a26469706673582212206430800dd919130be9498a41272a56f34a746ade6ef2cbdd75db227495da19ad64736f6c63430008190033","linkReferences":{}},"methodIdentifiers":{"ADMIN_ROLE()":"75b238fc","DEFAULT_ADMIN_ROLE()":"a217fddf","DEPLOYER_ROLE()":"ecd00261","LOCKER_ROLE()":"f3621367","PAUSER_ROLE()":"e63ab1e9","SUPER_ADMIN_ROLE()":"4460bdd6","addContractCode(string,bytes,string)":"d52fe5bf","contractsCodes(uint256)":"20edba2a","generatedProxedContracts(uint256)":"b9b4d4a0","getContractCode(uint256)":"b36405de","getOwner()":"893d20e8","getRoleAdmin(bytes32)":"248a9ca3","hasRole(bytes32,address)":"91d14854","isAdmin(address)":"24d7806c","isLocked()":"a4e2d634","isPaused()":"b187bd26","lock(uint256)":"dd467064","pause()":"8456cb59","proxyedDeploy(uint256,bytes32)":"9bda3f9b","supportsInterface(bytes4)":"01ffc9a7","unlock()":"a69df4b5","unpause()":"3f4ba83a"},"id":24}