{"abi":[{"type":"constructor","inputs":[],"stateMutability":"nonpayable"},{"type":"function","name":"ADMIN_ROLE","inputs":[],"outputs":[{"name":"","type":"bytes32","internalType":"bytes32"}],"stateMutability":"view"},{"type":"function","name":"DEFAULT_ADMIN_ROLE","inputs":[],"outputs":[{"name":"","type":"bytes32","internalType":"bytes32"}],"stateMutability":"view"},{"type":"function","name":"LOCKER_ROLE","inputs":[],"outputs":[{"name":"","type":"bytes32","internalType":"bytes32"}],"stateMutability":"view"},{"type":"function","name":"PAUSER_ROLE","inputs":[],"outputs":[{"name":"","type":"bytes32","internalType":"bytes32"}],"stateMutability":"view"},{"type":"function","name":"SUPER_ADMIN_ROLE","inputs":[],"outputs":[{"name":"","type":"bytes32","internalType":"bytes32"}],"stateMutability":"view"},{"type":"function","name":"addNode","inputs":[{"name":"providerAddress","type":"address","internalType":"address"},{"name":"nodeAddress","type":"address","internalType":"address"},{"name":"nodeName","type":"string","internalType":"string"}],"outputs":[],"stateMutability":"nonpayable"},{"type":"function","name":"addProvider","inputs":[{"name":"providerAddress","type":"address","internalType":"address"},{"name":"providerName","type":"string","internalType":"string"}],"outputs":[],"stateMutability":"nonpayable"},{"type":"function","name":"getOwner","inputs":[],"outputs":[{"name":"","type":"address","internalType":"address"}],"stateMutability":"view"},{"type":"function","name":"getProviderNodes","inputs":[{"name":"providerAddress","type":"address","internalType":"address"}],"outputs":[{"name":"","type":"tuple[]","internalType":"struct GatewaysManagement.Node[]","components":[{"name":"nodeAddress","type":"address","internalType":"address"},{"name":"nodeName","type":"string","internalType":"string"}]}],"stateMutability":"view"},{"type":"function","name":"getProviders","inputs":[],"outputs":[{"name":"","type":"address[]","internalType":"address[]"}],"stateMutability":"view"},{"type":"function","name":"getRoleAdmin","inputs":[{"name":"role","type":"bytes32","internalType":"bytes32"}],"outputs":[{"name":"","type":"bytes32","internalType":"bytes32"}],"stateMutability":"view"},{"type":"function","name":"hasRole","inputs":[{"name":"role","type":"bytes32","internalType":"bytes32"},{"name":"account","type":"address","internalType":"address"}],"outputs":[{"name":"","type":"bool","internalType":"bool"}],"stateMutability":"view"},{"type":"function","name":"isAdmin","inputs":[{"name":"user","type":"address","internalType":"address"}],"outputs":[{"name":"","type":"bool","internalType":"bool"}],"stateMutability":"view"},{"type":"function","name":"isLocked","inputs":[],"outputs":[{"name":"","type":"bool","internalType":"bool"}],"stateMutability":"view"},{"type":"function","name":"isPaused","inputs":[],"outputs":[{"name":"","type":"bool","internalType":"bool"}],"stateMutability":"view"},{"type":"function","name":"providerList","inputs":[{"name":"","type":"uint256","internalType":"uint256"}],"outputs":[{"name":"","type":"address","internalType":"address"}],"stateMutability":"view"},{"type":"function","name":"providers","inputs":[{"name":"","type":"address","internalType":"address"}],"outputs":[{"name":"providerName","type":"string","internalType":"string"}],"stateMutability":"view"},{"type":"function","name":"supportsInterface","inputs":[{"name":"interfaceId","type":"bytes4","internalType":"bytes4"}],"outputs":[{"name":"","type":"bool","internalType":"bool"}],"stateMutability":"view"},{"type":"event","name":"AccessibleInitialized","inputs":[{"name":"owner","type":"address","indexed":true,"internalType":"address"}],"anonymous":false},{"type":"event","name":"AdminStatusChanged","inputs":[{"name":"admin","type":"address","indexed":true,"internalType":"address"},{"name":"status","type":"bool","indexed":false,"internalType":"bool"}],"anonymous":false},{"type":"event","name":"Locked","inputs":[{"name":"untilBlock","type":"uint256","indexed":false,"internalType":"uint256"}],"anonymous":false},{"type":"event","name":"NodeAdded","inputs":[{"name":"providerAddress","type":"address","indexed":true,"internalType":"address"},{"name":"nodeAddress","type":"address","indexed":false,"internalType":"address"},{"name":"nodeName","type":"string","indexed":false,"internalType":"string"}],"anonymous":false},{"type":"event","name":"OwnerChanged","inputs":[{"name":"oldOwner","type":"address","indexed":true,"internalType":"address"},{"name":"newOwner","type":"address","indexed":true,"internalType":"address"}],"anonymous":false},{"type":"event","name":"Paused","inputs":[],"anonymous":false},{"type":"event","name":"ProviderAdded","inputs":[{"name":"providerAddress","type":"address","indexed":true,"internalType":"address"},{"name":"providerName","type":"string","indexed":false,"internalType":"string"}],"anonymous":false},{"type":"event","name":"RoleAdminChanged","inputs":[{"name":"role","type":"bytes32","indexed":true,"internalType":"bytes32"},{"name":"previousAdminRole","type":"bytes32","indexed":false,"internalType":"bytes32"},{"name":"newAdminRole","type":"bytes32","indexed":false,"internalType":"bytes32"}],"anonymous":false},{"type":"event","name":"RoleGranted","inputs":[{"name":"role","type":"bytes32","indexed":true,"internalType":"bytes32"},{"name":"account","type":"address","indexed":true,"internalType":"address"},{"name":"sender","type":"address","indexed":true,"internalType":"address"}],"anonymous":false},{"type":"event","name":"RoleRevoked","inputs":[{"name":"role","type":"bytes32","indexed":true,"internalType":"bytes32"},{"name":"account","type":"address","indexed":true,"internalType":"address"},{"name":"sender","type":"address","indexed":true,"internalType":"address"}],"anonymous":false},{"type":"event","name":"StatusableInitialized","inputs":[{"name":"owner","type":"address","indexed":true,"internalType":"address"}],"anonymous":false},{"type":"event","name":"SuperAdminChanged","inputs":[{"name":"oldSuperAdmin","type":"address","indexed":true,"internalType":"address"},{"name":"newSuperAdmin","type":"address","indexed":true,"internalType":"address"}],"anonymous":false},{"type":"event","name":"Unlocked","inputs":[],"anonymous":false},{"type":"event","name":"Unpaused","inputs":[],"anonymous":false}],"bytecode":{"object":"0x608060405234801561001057600080fd5b50600080546001600160a01b03191633908117825561002f919061005e565b6100597fa49807205ce4d355092ef5a8a18f56e8913cf4a201fbe287825b095693c217753361005e565b610289565b610068828261006c565b5050565b600054600160a01b900460ff166100ca5760405162461bcd60e51b815260206004820152601860248201527f436f6e7472616374206e6f7420696e697469616c697a6564000000000000000060448201526064015b60405180910390fd5b7f7613a25ecc738585a232ad50a301178f12b3ba8887d13e138b523c4269c476896100f58133610104565b6100ff838361016c565b505050565b61010e82826101e2565b6100685760405162461bcd60e51b815260206004820152602960248201527f416363657373436f6e74726f6c3a206163636f756e7420646f6573206e6f74206044820152686861766520726f6c6560b81b60648201526084016100c1565b6000828152600660205260409020600201546101888133610104565b60008381526006602052604090206101a09083610203565b156100ff5760405133906001600160a01b0384169085907f2f8788117e7eff1d82e926ec794901d17c78024a50270940304540a733656f0d90600090a4505050565b60008281526006602052604081206101fa9083610218565b90505b92915050565b60006101fa836001600160a01b03841661023a565b6001600160a01b038116600090815260018301602052604081205415156101fa565b6000818152600183016020526040812054610281575081546001818101845560008481526020808220909301849055845484825282860190935260409020919091556101fd565b5060006101fd565b610df6806102986000396000f3fe608060405234801561001057600080fd5b50600436106101165760003560e01c806391d14854116100a2578063be452e0411610071578063be452e0414610274578063e63ab1e914610294578063edc922a9146102bb578063f3621367146102d0578063fc000500146102f757600080fd5b806391d1485414610246578063a217fddf14610259578063a4e2d63414610261578063b187bd261461026957600080fd5b8063390bfd3c116100e9578063390bfd3c146101a75780634460bdd6146101d257806375b238fc146101f9578063869beb2f14610220578063893d20e81461023557600080fd5b806301ffc9a71461011b5780630787bc2714610143578063248a9ca31461016357806324d7806c14610194575b600080fd5b61012e61012936600461092f565b61030a565b60405190151581526020015b60405180910390f35b610156610151366004610975565b610341565b60405161013a91906109d6565b6101866101713660046109e9565b60009081526006602052604090206002015490565b60405190815260200161013a565b61012e6101a2366004610975565b6103df565b6101ba6101b53660046109e9565b610416565b6040516001600160a01b03909116815260200161013a565b6101867f7613a25ecc738585a232ad50a301178f12b3ba8887d13e138b523c4269c4768981565b6101867fa49807205ce4d355092ef5a8a18f56e8913cf4a201fbe287825b095693c2177581565b61023361022e366004610aa5565b610440565b005b6000546001600160a01b03166101ba565b61012e610254366004610b03565b6105a3565b610186600081565b61012e6105db565b60055460ff1661012e565b610287610282366004610975565b6105f7565b60405161013a9190610b2f565b6101867f65d7a28e3265b37a6474929f336521b332c1681b933f6cb9f3376673440d862a81565b6102c3610716565b60405161013a9190610bae565b6101867faf9a8bb3cbd6b84fbccefa71ff73e26e798553c6914585a84886212a46a9027981565b610233610305366004610bfb565b610778565b60006001600160e01b031982166301ffc9a760e01b148061033b57506301ffc9a760e01b6001600160e01b03198316145b92915050565b60076020526000908152604090208054819061035c90610c49565b80601f016020809104026020016040519081016040528092919081815260200182805461038890610c49565b80156103d55780601f106103aa576101008083540402835291602001916103d5565b820191906000526020600020905b8154815290600101906020018083116103b857829003601f168201915b5050505050905081565b6001600160a01b03811660009081526002602052604081205460ff168061033b5750506001546001600160a01b0390811691161490565b6008818154811061042657600080fd5b6000918252602090912001546001600160a01b0316905081565b7fa49807205ce4d355092ef5a8a18f56e8913cf4a201fbe287825b095693c2177561046b81336108c3565b6001600160a01b0384166000908152600760205260409020805461048e90610c49565b90506000036104e45760405162461bcd60e51b815260206004820152601760248201527f50726f766964657220646f6573206e6f7420657869737400000000000000000060448201526064015b60405180910390fd5b6001600160a01b0384811660009081526007602090815260408083208151808301909252878516825281830187815260019182018054808401825590865293909420825160029094020180546001600160a01b031916939095169290921784559151919291908201906105579082610cd4565b505050836001600160a01b03167f3d9e07ab6b123e85d5dcc51684879558166e0f88e9aee605dc26f254665672d58484604051610595929190610d94565b60405180910390a250505050565b60008281526006602052604081206105d490836001600160a01b038116600090815260018301602052604081205415155b9392505050565b60035460009060ff1680156105f257506004544311155b905090565b6001600160a01b0381166000908152600760209081526040808320600101805482518185028101850190935280835260609492939192909184015b8282101561070b576000848152602090819020604080518082019091526002850290910180546001600160a01b03168252600181018054929391929184019161067a90610c49565b80601f01602080910402602001604051908101604052809291908181526020018280546106a690610c49565b80156106f35780601f106106c8576101008083540402835291602001916106f3565b820191906000526020600020905b8154815290600101906020018083116106d657829003601f168201915b50505050508152505081526020019060010190610632565b505050509050919050565b6060600880548060200260200160405190810160405280929190818152602001828054801561076e57602002820191906000526020600020905b81546001600160a01b03168152600190910190602001808311610750575b5050505050905090565b7fa49807205ce4d355092ef5a8a18f56e8913cf4a201fbe287825b095693c217756107a381336108c3565b6001600160a01b038316600090815260076020526040902080546107c690610c49565b1590506108155760405162461bcd60e51b815260206004820152601760248201527f50726f766964657220616c72656164792065786973747300000000000000000060448201526064016104db565b6001600160a01b03831660009081526007602052604090206108378382610cd4565b50600880546001810182556000919091527ff3f7a9fe364faab93b216da50a3214154f22a0a2b415b23a84c8169e8b636ee30180546001600160a01b0319166001600160a01b0385169081179091556040517f685b3f0c2702c8946b2f7fcfbc7ad4802d34b86a128adc5b5fb99570d27f5357906108b69085906109d6565b60405180910390a2505050565b6108cd82826105a3565b61092b5760405162461bcd60e51b815260206004820152602960248201527f416363657373436f6e74726f6c3a206163636f756e7420646f6573206e6f74206044820152686861766520726f6c6560b81b60648201526084016104db565b5050565b60006020828403121561094157600080fd5b81356001600160e01b0319811681146105d457600080fd5b80356001600160a01b038116811461097057600080fd5b919050565b60006020828403121561098757600080fd5b6105d482610959565b6000815180845260005b818110156109b65760208185018101518683018201520161099a565b506000602082860101526020601f19601f83011685010191505092915050565b6020815260006105d46020830184610990565b6000602082840312156109fb57600080fd5b5035919050565b634e487b7160e01b600052604160045260246000fd5b600082601f830112610a2957600080fd5b813567ffffffffffffffff80821115610a4457610a44610a02565b604051601f8301601f19908116603f01168101908282118183101715610a6c57610a6c610a02565b81604052838152866020858801011115610a8557600080fd5b836020870160208301376000602085830101528094505050505092915050565b600080600060608486031215610aba57600080fd5b610ac384610959565b9250610ad160208501610959565b9150604084013567ffffffffffffffff811115610aed57600080fd5b610af986828701610a18565b9150509250925092565b60008060408385031215610b1657600080fd5b82359150610b2660208401610959565b90509250929050565b600060208083018184528085518083526040925060408601915060408160051b87010184880160005b83811015610ba057888303603f19018552815180516001600160a01b03168452870151878401879052610b8d87850182610990565b9588019593505090860190600101610b58565b509098975050505050505050565b6020808252825182820181905260009190848201906040850190845b81811015610bef5783516001600160a01b031683529284019291840191600101610bca565b50909695505050505050565b60008060408385031215610c0e57600080fd5b610c1783610959565b9150602083013567ffffffffffffffff811115610c3357600080fd5b610c3f85828601610a18565b9150509250929050565b600181811c90821680610c5d57607f821691505b602082108103610c7d57634e487b7160e01b600052602260045260246000fd5b50919050565b601f821115610ccf576000816000526020600020601f850160051c81016020861015610cac5750805b601f850160051c820191505b81811015610ccb57828155600101610cb8565b5050505b505050565b815167ffffffffffffffff811115610cee57610cee610a02565b610d0281610cfc8454610c49565b84610c83565b602080601f831160018114610d375760008415610d1f5750858301515b600019600386901b1c1916600185901b178555610ccb565b600085815260208120601f198616915b82811015610d6657888601518255948401946001909101908401610d47565b5085821015610d845787850151600019600388901b60f8161c191681555b5050505050600190811b01905550565b6001600160a01b0383168152604060208201819052600090610db890830184610990565b94935050505056fea2646970667358221220d575ac5f7a19ef58f5b7ac3fbebd946c9eb2cedf626567a5d4e3c25ba38076b564736f6c63430008190033","linkReferences":{}},"methodIdentifiers":{"ADMIN_ROLE()":"75b238fc","DEFAULT_ADMIN_ROLE()":"a217fddf","LOCKER_ROLE()":"f3621367","PAUSER_ROLE()":"e63ab1e9","SUPER_ADMIN_ROLE()":"4460bdd6","addNode(address,address,string)":"869beb2f","addProvider(address,string)":"fc000500","getOwner()":"893d20e8","getProviderNodes(address)":"be452e04","getProviders()":"edc922a9","getRoleAdmin(bytes32)":"248a9ca3","hasRole(bytes32,address)":"91d14854","isAdmin(address)":"24d7806c","isLocked()":"a4e2d634","isPaused()":"b187bd26","providerList(uint256)":"390bfd3c","providers(address)":"0787bc27","supportsInterface(bytes4)":"01ffc9a7"},"id":1}