{"abi":[{"type":"function","name":"DEFAULT_ADMIN_ROLE","inputs":[],"outputs":[{"name":"","type":"bytes32","internalType":"bytes32"}],"stateMutability":"view"},{"type":"function","name":"EXECUTOR_ROLE","inputs":[],"outputs":[{"name":"","type":"bytes32","internalType":"bytes32"}],"stateMutability":"view"},{"type":"function","name":"LOCKER_ROLE","inputs":[],"outputs":[{"name":"","type":"bytes32","internalType":"bytes32"}],"stateMutability":"view"},{"type":"function","name":"MULTI_EXECUTOR_ROLE","inputs":[],"outputs":[{"name":"","type":"bytes32","internalType":"bytes32"}],"stateMutability":"view"},{"type":"function","name":"PAUSER_ROLE","inputs":[],"outputs":[{"name":"","type":"bytes32","internalType":"bytes32"}],"stateMutability":"view"},{"type":"function","name":"STATIC_CALLER_ROLE","inputs":[],"outputs":[{"name":"","type":"bytes32","internalType":"bytes32"}],"stateMutability":"view"},{"type":"function","name":"SUPER_ADMIN_ROLE","inputs":[],"outputs":[{"name":"","type":"bytes32","internalType":"bytes32"}],"stateMutability":"view"},{"type":"function","name":"call","inputs":[{"name":"target","type":"address","internalType":"address"},{"name":"data","type":"bytes","internalType":"bytes"}],"outputs":[{"name":"","type":"bytes","internalType":"bytes"}],"stateMutability":"nonpayable"},{"type":"function","name":"callStatic","inputs":[{"name":"target","type":"address","internalType":"address"},{"name":"data","type":"bytes","internalType":"bytes"}],"outputs":[{"name":"","type":"bytes","internalType":"bytes"}],"stateMutability":"view"},{"type":"function","name":"execute","inputs":[{"name":"target","type":"address","internalType":"address"},{"name":"data","type":"bytes","internalType":"bytes"}],"outputs":[{"name":"","type":"bytes","internalType":"bytes"}],"stateMutability":"nonpayable"},{"type":"function","name":"getEncodedData","inputs":[{"name":"target","type":"address","internalType":"address"},{"name":"signature","type":"string","internalType":"string"},{"name":"params","type":"bytes","internalType":"bytes"}],"outputs":[{"name":"","type":"address","internalType":"address"},{"name":"","type":"bytes","internalType":"bytes"}],"stateMutability":"pure"},{"type":"function","name":"getEncodedData","inputs":[{"name":"signature","type":"string","internalType":"string"},{"name":"params","type":"bytes","internalType":"bytes"}],"outputs":[{"name":"","type":"bytes","internalType":"bytes"}],"stateMutability":"pure"},{"type":"function","name":"getOwner","inputs":[],"outputs":[{"name":"","type":"address","internalType":"address"}],"stateMutability":"view"},{"type":"function","name":"getRoleAdmin","inputs":[{"name":"role","type":"bytes32","internalType":"bytes32"}],"outputs":[{"name":"","type":"bytes32","internalType":"bytes32"}],"stateMutability":"view"},{"type":"function","name":"hasRole","inputs":[{"name":"role","type":"bytes32","internalType":"bytes32"},{"name":"account","type":"address","internalType":"address"}],"outputs":[{"name":"","type":"bool","internalType":"bool"}],"stateMutability":"view"},{"type":"function","name":"isAdmin","inputs":[{"name":"user","type":"address","internalType":"address"}],"outputs":[{"name":"","type":"bool","internalType":"bool"}],"stateMutability":"view"},{"type":"function","name":"isLocked","inputs":[],"outputs":[{"name":"","type":"bool","internalType":"bool"}],"stateMutability":"view"},{"type":"function","name":"isPaused","inputs":[],"outputs":[{"name":"","type":"bool","internalType":"bool"}],"stateMutability":"view"},{"type":"function","name":"multiExecute","inputs":[{"name":"targets","type":"address[]","internalType":"address[]"},{"name":"data","type":"bytes[]","internalType":"bytes[]"}],"outputs":[{"name":"","type":"bytes[]","internalType":"bytes[]"}],"stateMutability":"nonpayable"},{"type":"function","name":"supportsInterface","inputs":[{"name":"interfaceId","type":"bytes4","internalType":"bytes4"}],"outputs":[{"name":"","type":"bool","internalType":"bool"}],"stateMutability":"view"},{"type":"event","name":"AccessibleInitialized","inputs":[{"name":"owner","type":"address","indexed":true,"internalType":"address"}],"anonymous":false},{"type":"event","name":"AdminStatusChanged","inputs":[{"name":"admin","type":"address","indexed":true,"internalType":"address"},{"name":"status","type":"bool","indexed":false,"internalType":"bool"}],"anonymous":false},{"type":"event","name":"Locked","inputs":[{"name":"untilBlock","type":"uint256","indexed":false,"internalType":"uint256"}],"anonymous":false},{"type":"event","name":"OwnerChanged","inputs":[{"name":"oldOwner","type":"address","indexed":true,"internalType":"address"},{"name":"newOwner","type":"address","indexed":true,"internalType":"address"}],"anonymous":false},{"type":"event","name":"Paused","inputs":[],"anonymous":false},{"type":"event","name":"RoleAdminChanged","inputs":[{"name":"role","type":"bytes32","indexed":true,"internalType":"bytes32"},{"name":"previousAdminRole","type":"bytes32","indexed":false,"internalType":"bytes32"},{"name":"newAdminRole","type":"bytes32","indexed":false,"internalType":"bytes32"}],"anonymous":false},{"type":"event","name":"RoleGranted","inputs":[{"name":"role","type":"bytes32","indexed":true,"internalType":"bytes32"},{"name":"account","type":"address","indexed":true,"internalType":"address"},{"name":"sender","type":"address","indexed":true,"internalType":"address"}],"anonymous":false},{"type":"event","name":"RoleRevoked","inputs":[{"name":"role","type":"bytes32","indexed":true,"internalType":"bytes32"},{"name":"account","type":"address","indexed":true,"internalType":"address"},{"name":"sender","type":"address","indexed":true,"internalType":"address"}],"anonymous":false},{"type":"event","name":"StatusableInitialized","inputs":[{"name":"owner","type":"address","indexed":true,"internalType":"address"}],"anonymous":false},{"type":"event","name":"SuperAdminChanged","inputs":[{"name":"oldSuperAdmin","type":"address","indexed":true,"internalType":"address"},{"name":"newSuperAdmin","type":"address","indexed":true,"internalType":"address"}],"anonymous":false},{"type":"event","name":"Unlocked","inputs":[],"anonymous":false},{"type":"event","name":"Unpaused","inputs":[],"anonymous":false}],"bytecode":{"object":"0x6080604052348015600f57600080fd5b50600080546001600160a01b0319163317905561102f806100316000396000f3fe608060405234801561001057600080fd5b506004361061012c5760003560e01c80634a3aad11116100ad578063a4e2d63411610071578063a4e2d634146102d0578063b187bd26146102d8578063da73b13f146102e3578063e63ab1e91461030a578063f36213671461033157600080fd5b80634a3aad11146102665780637eaeabff14610287578063893d20e81461029a57806391d14854146102b5578063a217fddf146102c857600080fd5b80631cff79cd116100f45780631cff79cd146101e3578063248a9ca3146101f657806324d7806c146102195780634460bdd61461022c57806344eb64631461025357600080fd5b806301ffc9a71461013157806307bd0265146101595780630d2efdbb1461017c5780631a8090bb146101a35780631b8b921d146101c3575b600080fd5b61014461013f366004610a81565b610358565b60405190151581526020015b60405180910390f35b61016e600080516020610fda83398151915281565b604051908152602001610150565b61016e7f24f6679db5ad89e1735cc3ff300ee2cf5477ec5cf71573e015430144c84b7ca781565b6101b66101b1366004610c32565b61038f565b6040516101509190610d42565b6101d66101d1366004610da6565b610526565b6040516101509190610dea565b6101d66101f1366004610da6565b61062f565b61016e610204366004610dfd565b60009081526006602052604090206002015490565b610144610227366004610e16565b6106a4565b61016e7f7613a25ecc738585a232ad50a301178f12b3ba8887d13e138b523c4269c4768981565b6101d6610261366004610da6565b6106db565b610279610274366004610e31565b6107f2565b604051610150929190610ea5565b6101d6610295366004610ec9565b61085b565b6000546040516001600160a01b039091168152602001610150565b6101446102c3366004610f23565b6108bc565b61016e600081565b6101446108f4565b60055460ff16610144565b61016e7f16d22fb0a3dea8ff8be795756b9481592d33d5cad2ba7d6d931b8de4c03e259281565b61016e7f65d7a28e3265b37a6474929f336521b332c1681b933f6cb9f3376673440d862a81565b61016e7faf9a8bb3cbd6b84fbccefa71ff73e26e798553c6914585a84886212a46a9027981565b60006001600160e01b031982166301ffc9a760e01b148061038957506301ffc9a760e01b6001600160e01b03198316145b92915050565b60606103996108f4565b156103bf5760405162461bcd60e51b81526004016103b690610f4f565b60405180910390fd5b60055460ff16156103e25760405162461bcd60e51b81526004016103b690610f7b565b7f16d22fb0a3dea8ff8be795756b9481592d33d5cad2ba7d6d931b8de4c03e259261040d8133610910565b825184511461045e5760405162461bcd60e51b815260206004820181905260248201527f5461726765747320616e642064617461206c656e677468206d69736d6174636860448201526064016103b6565b6000845167ffffffffffffffff81111561047a5761047a610aab565b6040519080825280602002602001820160405280156104ad57816020015b60608152602001906001900390816104985790505b50905060005b855181101561051d576104f88682815181106104d1576104d1610fa7565b60200260200101518683815181106104eb576104eb610fa7565b602002602001015161097c565b82828151811061050a5761050a610fa7565b60209081029190910101526001016104b3565b50949350505050565b60606105306108f4565b1561054d5760405162461bcd60e51b81526004016103b690610f4f565b60055460ff16156105705760405162461bcd60e51b81526004016103b690610f7b565b600080516020610fda8339815191526105898133610910565b600080856001600160a01b0316856040516105a49190610fbd565b6000604051808303816000865af19150503d80600081146105e1576040519150601f19603f3d011682016040523d82523d6000602084013e6105e6565b606091505b5091509150816106265760405162461bcd60e51b815260206004820152600b60248201526a10d85b1b0819985a5b195960aa1b60448201526064016103b6565b95945050505050565b60606106396108f4565b156106565760405162461bcd60e51b81526004016103b690610f4f565b60055460ff16156106795760405162461bcd60e51b81526004016103b690610f7b565b600080516020610fda8339815191526106928133610910565b61069c848461097c565b949350505050565b6001600160a01b03811660009081526002602052604081205460ff16806103895750506001546001600160a01b0390811691161490565b60606106e56108f4565b156107025760405162461bcd60e51b81526004016103b690610f4f565b60055460ff16156107255760405162461bcd60e51b81526004016103b690610f7b565b7f24f6679db5ad89e1735cc3ff300ee2cf5477ec5cf71573e015430144c84b7ca76107508133610910565b600080856001600160a01b03168560405161076b9190610fbd565b600060405180830381855afa9150503d80600081146107a6576040519150601f19603f3d011682016040523d82523d6000602084013e6107ab565b606091505b5091509150816106265760405162461bcd60e51b815260206004820152601260248201527114dd185d1a58c818d85b1b0819985a5b195960721b60448201526064016103b6565b600060608484846040516024016108099190610dea565b60408051601f19818403018152908290529161082491610fbd565b6040519081900390206020820180516001600160e01b03166001600160e01b03199092169190911790529092509050935093915050565b6060828260405160240161086f9190610dea565b60408051601f19818403018152908290529161088a91610fbd565b6040519081900390206020820180516001600160e01b03166001600160e01b0319909216919091179052905092915050565b60008281526006602052604081206108ed90836001600160a01b038116600090815260018301602052604081205415155b9392505050565b60035460009060ff16801561090b57506004544311155b905090565b61091a82826108bc565b6109785760405162461bcd60e51b815260206004820152602960248201527f416363657373436f6e74726f6c3a206163636f756e7420646f6573206e6f74206044820152686861766520726f6c6560b81b60648201526084016103b6565b5050565b60606109866108f4565b156109a35760405162461bcd60e51b81526004016103b690610f4f565b60055460ff16156109c65760405162461bcd60e51b81526004016103b690610f7b565b600080516020610fda8339815191526109df8133610910565b600080856001600160a01b0316856040516109fa9190610fbd565b6000604051808303816000865af19150503d8060008114610a37576040519150601f19603f3d011682016040523d82523d6000602084013e610a3c565b606091505b5091509150816106265760405162461bcd60e51b815260206004820152601060248201526f115e1958dd5d1a5bdb8819985a5b195960821b60448201526064016103b6565b600060208284031215610a9357600080fd5b81356001600160e01b0319811681146108ed57600080fd5b634e487b7160e01b600052604160045260246000fd5b604051601f8201601f1916810167ffffffffffffffff81118282101715610aea57610aea610aab565b604052919050565b600067ffffffffffffffff821115610b0c57610b0c610aab565b5060051b60200190565b80356001600160a01b0381168114610b2d57600080fd5b919050565b600082601f830112610b4357600080fd5b813567ffffffffffffffff811115610b5d57610b5d610aab565b610b70601f8201601f1916602001610ac1565b818152846020838601011115610b8557600080fd5b816020850160208301376000918101602001919091529392505050565b600082601f830112610bb357600080fd5b81356020610bc8610bc383610af2565b610ac1565b82815260059290921b84018101918181019086841115610be757600080fd5b8286015b84811015610c2757803567ffffffffffffffff811115610c0b5760008081fd5b610c198986838b0101610b32565b845250918301918301610beb565b509695505050505050565b60008060408385031215610c4557600080fd5b823567ffffffffffffffff80821115610c5d57600080fd5b818501915085601f830112610c7157600080fd5b81356020610c81610bc383610af2565b82815260059290921b84018101918181019089841115610ca057600080fd5b948201945b83861015610cc557610cb686610b16565b82529482019490820190610ca5565b96505086013592505080821115610cdb57600080fd5b50610ce885828601610ba2565b9150509250929050565b60005b83811015610d0d578181015183820152602001610cf5565b50506000910152565b60008151808452610d2e816020860160208601610cf2565b601f01601f19169290920160200192915050565b600060208083016020845280855180835260408601915060408160051b87010192506020870160005b82811015610d9957603f19888603018452610d87858351610d16565b94509285019290850190600101610d6b565b5092979650505050505050565b60008060408385031215610db957600080fd5b610dc283610b16565b9150602083013567ffffffffffffffff811115610dde57600080fd5b610ce885828601610b32565b6020815260006108ed6020830184610d16565b600060208284031215610e0f57600080fd5b5035919050565b600060208284031215610e2857600080fd5b6108ed82610b16565b600080600060608486031215610e4657600080fd5b610e4f84610b16565b9250602084013567ffffffffffffffff80821115610e6c57600080fd5b610e7887838801610b32565b93506040860135915080821115610e8e57600080fd5b50610e9b86828701610b32565b9150509250925092565b6001600160a01b038316815260406020820181905260009061069c90830184610d16565b60008060408385031215610edc57600080fd5b823567ffffffffffffffff80821115610ef457600080fd5b610f0086838701610b32565b93506020850135915080821115610f1657600080fd5b50610ce885828601610b32565b60008060408385031215610f3657600080fd5b82359150610f4660208401610b16565b90509250929050565b60208082526012908201527110dbdb9d1c9858dd081a5cc81b1bd8dad95960721b604082015260600190565b60208082526012908201527110dbdb9d1c9858dd081a5cc81c185d5cd95960721b604082015260600190565b634e487b7160e01b600052603260045260246000fd5b60008251610fcf818460208701610cf2565b919091019291505056fed8aa0f3194971a2a116679f7c2090f6939c8d4e01a2a8d7e41d55e5351469e63a2646970667358221220bbd0a984f58333fd8d65f77039da710d79d849039ef67d152c8efc0f35219ff064736f6c63430008190033","linkReferences":{}},"methodIdentifiers":{"DEFAULT_ADMIN_ROLE()":"a217fddf","EXECUTOR_ROLE()":"07bd0265","LOCKER_ROLE()":"f3621367","MULTI_EXECUTOR_ROLE()":"da73b13f","PAUSER_ROLE()":"e63ab1e9","STATIC_CALLER_ROLE()":"0d2efdbb","SUPER_ADMIN_ROLE()":"4460bdd6","call(address,bytes)":"1b8b921d","callStatic(address,bytes)":"44eb6463","execute(address,bytes)":"1cff79cd","getEncodedData(address,string,bytes)":"4a3aad11","getEncodedData(string,bytes)":"7eaeabff","getOwner()":"893d20e8","getRoleAdmin(bytes32)":"248a9ca3","hasRole(bytes32,address)":"91d14854","isAdmin(address)":"24d7806c","isLocked()":"a4e2d634","isPaused()":"b187bd26","multiExecute(address[],bytes[])":"1a8090bb","supportsInterface(bytes4)":"01ffc9a7"},"id":20}