{
  "contractName": "AccessControl",
  "abi": [
    {
      "inputs": [
        {
          "internalType": "address",
          "name": "owner",
          "type": "address"
        },
        {
          "internalType": "address",
          "name": "superAdmin",
          "type": "address"
        }
      ],
      "stateMutability": "nonpayable",
      "type": "constructor"
    },
    {
      "anonymous": false,
      "inputs": [
        {
          "indexed": true,
          "internalType": "address",
          "name": "admin",
          "type": "address"
        }
      ],
      "name": "AdminAdded",
      "type": "event"
    },
    {
      "anonymous": false,
      "inputs": [
        {
          "indexed": true,
          "internalType": "address",
          "name": "admin",
          "type": "address"
        }
      ],
      "name": "AdminRemoved",
      "type": "event"
    },
    {
      "anonymous": false,
      "inputs": [
        {
          "indexed": true,
          "internalType": "bytes32",
          "name": "role",
          "type": "bytes32"
        },
        {
          "indexed": false,
          "internalType": "bytes32",
          "name": "previousAdminRole",
          "type": "bytes32"
        },
        {
          "indexed": false,
          "internalType": "bytes32",
          "name": "newAdminRole",
          "type": "bytes32"
        }
      ],
      "name": "RoleAdminChanged",
      "type": "event"
    },
    {
      "anonymous": false,
      "inputs": [
        {
          "indexed": true,
          "internalType": "bytes32",
          "name": "role",
          "type": "bytes32"
        },
        {
          "indexed": true,
          "internalType": "address",
          "name": "account",
          "type": "address"
        },
        {
          "indexed": true,
          "internalType": "address",
          "name": "sender",
          "type": "address"
        }
      ],
      "name": "RoleGranted",
      "type": "event"
    },
    {
      "anonymous": false,
      "inputs": [
        {
          "indexed": true,
          "internalType": "bytes32",
          "name": "role",
          "type": "bytes32"
        },
        {
          "indexed": true,
          "internalType": "address",
          "name": "account",
          "type": "address"
        },
        {
          "indexed": true,
          "internalType": "address",
          "name": "sender",
          "type": "address"
        }
      ],
      "name": "RoleRevoked",
      "type": "event"
    },
    {
      "anonymous": false,
      "inputs": [
        {
          "indexed": true,
          "internalType": "address",
          "name": "previousSuperAdmin",
          "type": "address"
        },
        {
          "indexed": true,
          "internalType": "address",
          "name": "newSuperAdmin",
          "type": "address"
        }
      ],
      "name": "SuperAdminChanged",
      "type": "event"
    },
    {
      "inputs": [],
      "name": "DEFAULT_ADMIN_ROLE",
      "outputs": [
        {
          "internalType": "bytes32",
          "name": "",
          "type": "bytes32"
        }
      ],
      "stateMutability": "view",
      "type": "function"
    },
    {
      "inputs": [],
      "name": "OWNER_ROLE",
      "outputs": [
        {
          "internalType": "bytes32",
          "name": "",
          "type": "bytes32"
        }
      ],
      "stateMutability": "view",
      "type": "function"
    },
    {
      "inputs": [],
      "name": "SUPER_ADMIN_ROLE",
      "outputs": [
        {
          "internalType": "bytes32",
          "name": "",
          "type": "bytes32"
        }
      ],
      "stateMutability": "view",
      "type": "function"
    },
    {
      "inputs": [],
      "name": "getOwner",
      "outputs": [
        {
          "internalType": "address",
          "name": "",
          "type": "address"
        }
      ],
      "stateMutability": "view",
      "type": "function"
    },
    {
      "inputs": [],
      "name": "getSuperAdmin",
      "outputs": [
        {
          "internalType": "address",
          "name": "",
          "type": "address"
        }
      ],
      "stateMutability": "view",
      "type": "function"
    },
    {
      "inputs": [
        {
          "internalType": "address",
          "name": "user",
          "type": "address"
        }
      ],
      "name": "isAdmin",
      "outputs": [
        {
          "internalType": "bool",
          "name": "",
          "type": "bool"
        }
      ],
      "stateMutability": "view",
      "type": "function"
    },
    {
      "inputs": [
        {
          "internalType": "bytes32",
          "name": "role",
          "type": "bytes32"
        },
        {
          "internalType": "address",
          "name": "account",
          "type": "address"
        }
      ],
      "name": "hasRole",
      "outputs": [
        {
          "internalType": "bool",
          "name": "",
          "type": "bool"
        }
      ],
      "stateMutability": "view",
      "type": "function"
    },
    {
      "inputs": [
        {
          "internalType": "bytes32",
          "name": "role",
          "type": "bytes32"
        },
        {
          "internalType": "address",
          "name": "account",
          "type": "address"
        }
      ],
      "name": "grantRole",
      "outputs": [],
      "stateMutability": "nonpayable",
      "type": "function"
    },
    {
      "inputs": [
        {
          "internalType": "bytes32",
          "name": "role",
          "type": "bytes32"
        },
        {
          "internalType": "address",
          "name": "account",
          "type": "address"
        }
      ],
      "name": "revokeRole",
      "outputs": [],
      "stateMutability": "nonpayable",
      "type": "function"
    },
    {
      "inputs": [
        {
          "internalType": "bytes32",
          "name": "role",
          "type": "bytes32"
        },
        {
          "internalType": "address",
          "name": "account",
          "type": "address"
        }
      ],
      "name": "renounceRole",
      "outputs": [],
      "stateMutability": "nonpayable",
      "type": "function"
    },
    {
      "inputs": [
        {
          "internalType": "bytes32",
          "name": "role",
          "type": "bytes32"
        },
        {
          "internalType": "bytes32",
          "name": "newAdminRole",
          "type": "bytes32"
        }
      ],
      "name": "setRoleAdmin",
      "outputs": [],
      "stateMutability": "nonpayable",
      "type": "function"
    }
  ],
  "bytecode": "0x608060405234801562000010575f80fd5b506040516200100e3803806200100e83398181016040528101906200003691906200035c565b8181815f806101000a81548173ffffffffffffffffffffffffffffffffffffffff021916908373ffffffffffffffffffffffffffffffffffffffff1602179055508060015f6101000a81548173ffffffffffffffffffffffffffffffffffffffff021916908373ffffffffffffffffffffffffffffffffffffffff160217905550600160025f8473ffffffffffffffffffffffffffffffffffffffff1673ffffffffffffffffffffffffffffffffffffffff1681526020019081526020015f205f6101000a81548160ff0219169083151502179055505050620001225f801b836200018e60201b60201c565b620001547fb19546dff01e856fb3f010c267a7b1c60363cf8a4664e21cc89c26224620214e836200018e60201b60201c565b620001867f7613a25ecc738585a232ad50a301178f12b3ba8887d13e138b523c4269c47689826200018e60201b60201c565b5050620003a1565b620001a08282620001a460201b60201c565b5050565b620001cb8160035f8581526020019081526020015f205f016200023160201b90919060201c565b156200022d573373ffffffffffffffffffffffffffffffffffffffff168173ffffffffffffffffffffffffffffffffffffffff16837f2f8788117e7eff1d82e926ec794901d17c78024a50270940304540a733656f0d60405160405180910390a45b5050565b5f6200025e835f018373ffffffffffffffffffffffffffffffffffffffff165f1b6200026660201b60201c565b905092915050565b5f620002798383620002d760201b60201c565b620002cd57825f0182908060018154018082558091505060019003905f5260205f20015f9091909190915055825f0180549050836001015f8481526020019081526020015f208190555060019050620002d1565b5f90505b92915050565b5f80836001015f8481526020019081526020015f20541415905092915050565b5f80fd5b5f73ffffffffffffffffffffffffffffffffffffffff82169050919050565b5f6200032682620002fb565b9050919050565b62000338816200031a565b811462000343575f80fd5b50565b5f8151905062000356816200032d565b92915050565b5f8060408385031215620003755762000374620002f7565b5b5f620003848582860162000346565b9250506020620003978582860162000346565b9150509250929050565b610c5f80620003af5f395ff3fe608060405234801561000f575f80fd5b50600436106100a7575f3560e01c80638204c3261161006f5780638204c3261461014d578063893d20e81461016b57806391d1485414610189578063a217fddf146101b9578063d547741f146101d7578063e58378bb146101f3576100a7565b80631e4e0091146100ab57806324d7806c146100c75780632f2ff15d146100f757806336568abe146101135780634460bdd61461012f575b5f80fd5b6100c560048036038101906100c0919061088f565b610211565b005b6100e160048036038101906100dc9190610927565b6102c2565b6040516100ee919061096c565b60405180910390f35b610111600480360381019061010c9190610985565b610314565b005b61012d60048036038101906101289190610985565b610375565b005b6101376103f1565b60405161014491906109d2565b60405180910390f35b610155610415565b60405161016291906109fa565b60405180910390f35b61017361043d565b60405161018091906109fa565b60405180910390f35b6101a3600480360381019061019e9190610985565b610464565b6040516101b0919061096c565b60405180910390f35b6101c1610492565b6040516101ce91906109d2565b60405180910390f35b6101f160048036038101906101ec9190610985565b610498565b005b6101fb6104f9565b60405161020891906109d2565b60405180910390f35b5f801b61021e8133610464565b61025d576040517f08c379a000000000000000000000000000000000000000000000000000000000815260040161025490610a93565b60405180910390fd5b5f6102678461051d565b90508260035f8681526020019081526020015f2060020181905550837fbd79b86ffe0ab8e8776151514217cd7cacd52c909f66475c3af44e129f0b00ff82856040516102b4929190610ab1565b60405180910390a250505050565b5f60025f8373ffffffffffffffffffffffffffffffffffffffff1673ffffffffffffffffffffffffffffffffffffffff1681526020019081526020015f205f9054906101000a900460ff169050919050565b61031d8261051d565b6103278133610464565b610366576040517f08c379a000000000000000000000000000000000000000000000000000000000815260040161035d90610a93565b60405180910390fd5b610370838361053a565b505050565b3373ffffffffffffffffffffffffffffffffffffffff168173ffffffffffffffffffffffffffffffffffffffff16146103e3576040517f08c379a00000000000000000000000000000000000000000000000000000000081526004016103da90610b48565b60405180910390fd5b6103ed82826105c4565b5050565b7f7613a25ecc738585a232ad50a301178f12b3ba8887d13e138b523c4269c4768981565b5f60015f9054906101000a900473ffffffffffffffffffffffffffffffffffffffff16905090565b5f805f9054906101000a900473ffffffffffffffffffffffffffffffffffffffff16905090565b5f61048a8260035f8681526020019081526020015f205f0161064e90919063ffffffff16565b905092915050565b5f801b81565b6104a18261051d565b6104ab8133610464565b6104ea576040517f08c379a00000000000000000000000000000000000000000000000000000000081526004016104e190610a93565b60405180910390fd5b6104f483836105c4565b505050565b7fb19546dff01e856fb3f010c267a7b1c60363cf8a4664e21cc89c26224620214e81565b5f60035f8381526020019081526020015f20600201549050919050565b61055f8160035f8581526020019081526020015f205f0161067b90919063ffffffff16565b156105c0573373ffffffffffffffffffffffffffffffffffffffff168173ffffffffffffffffffffffffffffffffffffffff16837f2f8788117e7eff1d82e926ec794901d17c78024a50270940304540a733656f0d60405160405180910390a45b5050565b6105e98160035f8581526020019081526020015f205f016106a890919063ffffffff16565b1561064a573373ffffffffffffffffffffffffffffffffffffffff168173ffffffffffffffffffffffffffffffffffffffff16837ff6391f5c32d9c69d2a47ea670b442974b53935d1edc7fd64eb21e047a839171b60405160405180910390a45b5050565b5f610673835f018373ffffffffffffffffffffffffffffffffffffffff165f1b6106d5565b905092915050565b5f6106a0835f018373ffffffffffffffffffffffffffffffffffffffff165f1b6106f5565b905092915050565b5f6106cd835f018373ffffffffffffffffffffffffffffffffffffffff165f1b61075c565b905092915050565b5f80836001015f8481526020019081526020015f20541415905092915050565b5f61070083836106d5565b61075257825f0182908060018154018082558091505060019003905f5260205f20015f9091909190915055825f0180549050836001015f8481526020019081526020015f208190555060019050610756565b5f90505b92915050565b5f80836001015f8481526020019081526020015f205490505f811461084d575f6001826107899190610b9c565b90505f6001865f018054905061079f9190610b9c565b9050808214610805575f865f0182815481106107be576107bd610bcf565b5b905f5260205f200154905080875f0184815481106107df576107de610bcf565b5b905f5260205f20018190555083876001015f8381526020019081526020015f2081905550505b855f0180548061081857610817610bfc565b5b600190038181905f5260205f20015f90559055856001015f8681526020019081526020015f205f905560019350505050610852565b5f9150505b92915050565b5f80fd5b5f819050919050565b61086e8161085c565b8114610878575f80fd5b50565b5f8135905061088981610865565b92915050565b5f80604083850312156108a5576108a4610858565b5b5f6108b28582860161087b565b92505060206108c38582860161087b565b9150509250929050565b5f73ffffffffffffffffffffffffffffffffffffffff82169050919050565b5f6108f6826108cd565b9050919050565b610906816108ec565b8114610910575f80fd5b50565b5f81359050610921816108fd565b92915050565b5f6020828403121561093c5761093b610858565b5b5f61094984828501610913565b91505092915050565b5f8115159050919050565b61096681610952565b82525050565b5f60208201905061097f5f83018461095d565b92915050565b5f806040838503121561099b5761099a610858565b5b5f6109a88582860161087b565b92505060206109b985828601610913565b9150509250929050565b6109cc8161085c565b82525050565b5f6020820190506109e55f8301846109c3565b92915050565b6109f4816108ec565b82525050565b5f602082019050610a0d5f8301846109eb565b92915050565b5f82825260208201905092915050565b7f416363657373436f6e74726f6c3a2073656e64657220646f6573206e6f7420685f8201527f61766520726f6c65000000000000000000000000000000000000000000000000602082015250565b5f610a7d602883610a13565b9150610a8882610a23565b604082019050919050565b5f6020820190508181035f830152610aaa81610a71565b9050919050565b5f604082019050610ac45f8301856109c3565b610ad160208301846109c3565b9392505050565b7f416363657373436f6e74726f6c3a2063616e206f6e6c792072656e6f756e63655f8201527f20726f6c657320666f722073656c660000000000000000000000000000000000602082015250565b5f610b32602f83610a13565b9150610b3d82610ad8565b604082019050919050565b5f6020820190508181035f830152610b5f81610b26565b9050919050565b5f819050919050565b7f4e487b71000000000000000000000000000000000000000000000000000000005f52601160045260245ffd5b5f610ba682610b66565b9150610bb183610b66565b9250828203905081811115610bc957610bc8610b6f565b5b92915050565b7f4e487b71000000000000000000000000000000000000000000000000000000005f52603260045260245ffd5b7f4e487b71000000000000000000000000000000000000000000000000000000005f52603160045260245ffdfea2646970667358221220b58359eb6f25c9a65a611997060e37feeefcf1689e32b9dafddda57e519405ab64736f6c63430008150033",
  "immutableReferences": {},
  "source": "// SPDX-License-Identifier: MIT\npragma solidity ^0.8.0;\n\nimport \"@openzeppelin/contracts/utils/structs/EnumerableSet.sol\";\nimport \"../Ownablity/OwnableContract.sol\";\n\ncontract AccessControl is OwnableContract {\n    using EnumerableSet for EnumerableSet.AddressSet;\n\n    struct RoleData {\n        EnumerableSet.AddressSet members;\n        bytes32 adminRole;\n    }\n\n    mapping(bytes32 => RoleData) private _roles;\n\n    bytes32 public constant DEFAULT_ADMIN_ROLE = 0x00;\n    bytes32 public constant OWNER_ROLE = keccak256(\"OWNER_ROLE\");\n    bytes32 public constant SUPER_ADMIN_ROLE = keccak256(\"SUPER_ADMIN_ROLE\");\n\n    event RoleGranted(\n        bytes32 indexed role,\n        address indexed account,\n        address indexed sender\n    );\n    event RoleRevoked(\n        bytes32 indexed role,\n        address indexed account,\n        address indexed sender\n    );\n    event RoleAdminChanged(\n        bytes32 indexed role,\n        bytes32 previousAdminRole,\n        bytes32 newAdminRole\n    );\n\n    modifier onlyRole(bytes32 role) {\n        require(\n            hasRole(role, msg.sender),\n            \"AccessControl: sender does not have role\"\n        );\n        _;\n    }\n\n    constructor(\n        address owner,\n        address superAdmin\n    ) OwnableContract(owner, superAdmin) {\n        _setupRole(DEFAULT_ADMIN_ROLE, owner);\n        _setupRole(OWNER_ROLE, owner);\n        _setupRole(SUPER_ADMIN_ROLE, superAdmin);\n    }\n\n    function hasRole(bytes32 role, address account) public view returns (bool) {\n        return _roles[role].members.contains(account);\n    }\n\n    function getRoleAdmin(bytes32 role) internal view returns (bytes32) {\n        return _roles[role].adminRole;\n    }\n\n    function grantRole(\n        bytes32 role,\n        address account\n    ) public onlyRole(getRoleAdmin(role)) {\n        _grantRole(role, account);\n    }\n\n    function revokeRole(\n        bytes32 role,\n        address account\n    ) public onlyRole(getRoleAdmin(role)) {\n        _revokeRole(role, account);\n    }\n\n    function renounceRole(bytes32 role, address account) public {\n        require(\n            account == msg.sender,\n            \"AccessControl: can only renounce roles for self\"\n        );\n        _revokeRole(role, account);\n    }\n\n    function setRoleAdmin(\n        bytes32 role,\n        bytes32 newAdminRole\n    ) public onlyRole(DEFAULT_ADMIN_ROLE) {\n        bytes32 previousAdminRole = getRoleAdmin(role);\n        _roles[role].adminRole = newAdminRole;\n        emit RoleAdminChanged(role, previousAdminRole, newAdminRole);\n    }\n\n    function _setupRole(bytes32 role, address account) internal {\n        _grantRole(role, account);\n    }\n\n    function _grantRole(bytes32 role, address account) internal {\n        if (_roles[role].members.add(account)) {\n            emit RoleGranted(role, account, msg.sender);\n        }\n    }\n\n    function _revokeRole(bytes32 role, address account) internal {\n        if (_roles[role].members.remove(account)) {\n            emit RoleRevoked(role, account, msg.sender);\n        }\n    }\n\n    function _changeOwner(address newOwner) internal virtual override {\n        address oldOwner = getOwner();\n        super._changeOwner(newOwner);\n        _revokeRole(OWNER_ROLE, oldOwner);\n        _grantRole(OWNER_ROLE, newOwner);\n    }\n\n    function _setSuperAdmin(address newSuperAdmin) internal virtual override {\n        address oldSuperAdmin = getSuperAdmin();\n        super._setSuperAdmin(newSuperAdmin);\n        _revokeRole(SUPER_ADMIN_ROLE, oldSuperAdmin);\n        _grantRole(SUPER_ADMIN_ROLE, newSuperAdmin);\n    }\n}\n",
  "sourcePath": "/Users/yemo/yemowithprivate/projects/yemowith/contracts/core/objective/Accessblity/AccessControl/AccessControl.sol",
  "compiler": {
    "name": "solc",
    "version": "0.8.21+commit.d9974bed.Emscripten.clang"
  },
  "schemaVersion": "3.4.16",
  "updatedAt": "2024-06-04T07:07:04.057Z",
  "devdoc": {
    "kind": "dev",
    "methods": {},
    "version": 1
  },
  "userdoc": {
    "kind": "user",
    "methods": {},
    "version": 1
  }
}