{
  "contractName": "BaseObject",
  "abi": [
    {
      "anonymous": false,
      "inputs": [
        {
          "indexed": true,
          "internalType": "address",
          "name": "admin",
          "type": "address"
        }
      ],
      "name": "AdminAdded",
      "type": "event"
    },
    {
      "anonymous": false,
      "inputs": [
        {
          "indexed": true,
          "internalType": "address",
          "name": "admin",
          "type": "address"
        }
      ],
      "name": "AdminRemoved",
      "type": "event"
    },
    {
      "anonymous": false,
      "inputs": [
        {
          "indexed": true,
          "internalType": "address",
          "name": "deployer",
          "type": "address"
        },
        {
          "indexed": true,
          "internalType": "address",
          "name": "contractAddress",
          "type": "address"
        }
      ],
      "name": "ContractDeployed",
      "type": "event"
    },
    {
      "anonymous": false,
      "inputs": [
        {
          "indexed": false,
          "internalType": "uint256",
          "name": "untilBlock",
          "type": "uint256"
        }
      ],
      "name": "Locked",
      "type": "event"
    },
    {
      "anonymous": false,
      "inputs": [],
      "name": "Paused",
      "type": "event"
    },
    {
      "anonymous": false,
      "inputs": [
        {
          "indexed": true,
          "internalType": "bytes32",
          "name": "role",
          "type": "bytes32"
        },
        {
          "indexed": false,
          "internalType": "bytes32",
          "name": "previousAdminRole",
          "type": "bytes32"
        },
        {
          "indexed": false,
          "internalType": "bytes32",
          "name": "newAdminRole",
          "type": "bytes32"
        }
      ],
      "name": "RoleAdminChanged",
      "type": "event"
    },
    {
      "anonymous": false,
      "inputs": [
        {
          "indexed": true,
          "internalType": "bytes32",
          "name": "role",
          "type": "bytes32"
        },
        {
          "indexed": true,
          "internalType": "address",
          "name": "account",
          "type": "address"
        },
        {
          "indexed": true,
          "internalType": "address",
          "name": "sender",
          "type": "address"
        }
      ],
      "name": "RoleGranted",
      "type": "event"
    },
    {
      "anonymous": false,
      "inputs": [
        {
          "indexed": true,
          "internalType": "bytes32",
          "name": "role",
          "type": "bytes32"
        },
        {
          "indexed": true,
          "internalType": "address",
          "name": "account",
          "type": "address"
        },
        {
          "indexed": true,
          "internalType": "address",
          "name": "sender",
          "type": "address"
        }
      ],
      "name": "RoleRevoked",
      "type": "event"
    },
    {
      "anonymous": false,
      "inputs": [
        {
          "indexed": true,
          "internalType": "address",
          "name": "previousSuperAdmin",
          "type": "address"
        },
        {
          "indexed": true,
          "internalType": "address",
          "name": "newSuperAdmin",
          "type": "address"
        }
      ],
      "name": "SuperAdminChanged",
      "type": "event"
    },
    {
      "anonymous": false,
      "inputs": [],
      "name": "Unlocked",
      "type": "event"
    },
    {
      "anonymous": false,
      "inputs": [],
      "name": "Unpaused",
      "type": "event"
    },
    {
      "inputs": [],
      "name": "ADMIN_ROLE",
      "outputs": [
        {
          "internalType": "bytes32",
          "name": "",
          "type": "bytes32"
        }
      ],
      "stateMutability": "view",
      "type": "function"
    },
    {
      "inputs": [],
      "name": "DEFAULT_ADMIN_ROLE",
      "outputs": [
        {
          "internalType": "bytes32",
          "name": "",
          "type": "bytes32"
        }
      ],
      "stateMutability": "view",
      "type": "function"
    },
    {
      "inputs": [],
      "name": "EXECUTOR_ROLE",
      "outputs": [
        {
          "internalType": "bytes32",
          "name": "",
          "type": "bytes32"
        }
      ],
      "stateMutability": "view",
      "type": "function"
    },
    {
      "inputs": [],
      "name": "MULTI_EXECUTOR_ROLE",
      "outputs": [
        {
          "internalType": "bytes32",
          "name": "",
          "type": "bytes32"
        }
      ],
      "stateMutability": "view",
      "type": "function"
    },
    {
      "inputs": [],
      "name": "OWNER_ROLE",
      "outputs": [
        {
          "internalType": "bytes32",
          "name": "",
          "type": "bytes32"
        }
      ],
      "stateMutability": "view",
      "type": "function"
    },
    {
      "inputs": [],
      "name": "STATIC_CALLER_ROLE",
      "outputs": [
        {
          "internalType": "bytes32",
          "name": "",
          "type": "bytes32"
        }
      ],
      "stateMutability": "view",
      "type": "function"
    },
    {
      "inputs": [],
      "name": "SUPER_ADMIN_ROLE",
      "outputs": [
        {
          "internalType": "bytes32",
          "name": "",
          "type": "bytes32"
        }
      ],
      "stateMutability": "view",
      "type": "function"
    },
    {
      "inputs": [],
      "name": "WHITELIST_ROLE",
      "outputs": [
        {
          "internalType": "bytes32",
          "name": "",
          "type": "bytes32"
        }
      ],
      "stateMutability": "view",
      "type": "function"
    },
    {
      "inputs": [
        {
          "internalType": "bytes",
          "name": "_bytecode",
          "type": "bytes"
        },
        {
          "internalType": "bytes32",
          "name": "_salt",
          "type": "bytes32"
        }
      ],
      "name": "_computeAddress",
      "outputs": [
        {
          "internalType": "address",
          "name": "",
          "type": "address"
        }
      ],
      "stateMutability": "view",
      "type": "function"
    },
    {
      "inputs": [
        {
          "internalType": "address",
          "name": "account",
          "type": "address"
        }
      ],
      "name": "addWhitelist",
      "outputs": [],
      "stateMutability": "nonpayable",
      "type": "function"
    },
    {
      "inputs": [
        {
          "internalType": "address",
          "name": "target",
          "type": "address"
        },
        {
          "internalType": "bytes",
          "name": "data",
          "type": "bytes"
        }
      ],
      "name": "call",
      "outputs": [
        {
          "internalType": "bytes",
          "name": "",
          "type": "bytes"
        }
      ],
      "stateMutability": "nonpayable",
      "type": "function"
    },
    {
      "inputs": [
        {
          "internalType": "address",
          "name": "target",
          "type": "address"
        },
        {
          "internalType": "bytes",
          "name": "data",
          "type": "bytes"
        }
      ],
      "name": "callStatic",
      "outputs": [
        {
          "internalType": "bytes",
          "name": "",
          "type": "bytes"
        }
      ],
      "stateMutability": "view",
      "type": "function"
    },
    {
      "inputs": [
        {
          "internalType": "bytes",
          "name": "bytecode",
          "type": "bytes"
        },
        {
          "internalType": "bytes32",
          "name": "salt",
          "type": "bytes32"
        }
      ],
      "name": "computeContractAddress",
      "outputs": [
        {
          "internalType": "address",
          "name": "",
          "type": "address"
        }
      ],
      "stateMutability": "view",
      "type": "function"
    },
    {
      "inputs": [
        {
          "internalType": "bytes",
          "name": "encodedData",
          "type": "bytes"
        },
        {
          "internalType": "bytes32",
          "name": "additionalParam",
          "type": "bytes32"
        }
      ],
      "name": "decodeData",
      "outputs": [
        {
          "internalType": "bytes",
          "name": "",
          "type": "bytes"
        }
      ],
      "stateMutability": "view",
      "type": "function"
    },
    {
      "inputs": [
        {
          "internalType": "bytes",
          "name": "_bytecode",
          "type": "bytes"
        },
        {
          "internalType": "bytes32",
          "name": "_salt",
          "type": "bytes32"
        }
      ],
      "name": "deploy",
      "outputs": [
        {
          "internalType": "address",
          "name": "",
          "type": "address"
        }
      ],
      "stateMutability": "view",
      "type": "function"
    },
    {
      "inputs": [
        {
          "internalType": "bytes",
          "name": "bytecode",
          "type": "bytes"
        },
        {
          "internalType": "bytes32",
          "name": "salt",
          "type": "bytes32"
        }
      ],
      "name": "deployContract",
      "outputs": [
        {
          "internalType": "address",
          "name": "",
          "type": "address"
        }
      ],
      "stateMutability": "nonpayable",
      "type": "function"
    },
    {
      "inputs": [
        {
          "internalType": "bytes",
          "name": "data",
          "type": "bytes"
        },
        {
          "internalType": "bytes32",
          "name": "additionalParam",
          "type": "bytes32"
        }
      ],
      "name": "encodeData",
      "outputs": [
        {
          "internalType": "bytes",
          "name": "",
          "type": "bytes"
        }
      ],
      "stateMutability": "view",
      "type": "function"
    },
    {
      "inputs": [
        {
          "internalType": "address",
          "name": "target",
          "type": "address"
        },
        {
          "internalType": "bytes",
          "name": "data",
          "type": "bytes"
        }
      ],
      "name": "execute",
      "outputs": [
        {
          "internalType": "bytes",
          "name": "",
          "type": "bytes"
        }
      ],
      "stateMutability": "nonpayable",
      "type": "function"
    },
    {
      "inputs": [
        {
          "internalType": "address",
          "name": "target",
          "type": "address"
        },
        {
          "internalType": "string",
          "name": "signature",
          "type": "string"
        },
        {
          "internalType": "bytes",
          "name": "params",
          "type": "bytes"
        }
      ],
      "name": "getEncodedData",
      "outputs": [
        {
          "internalType": "address",
          "name": "",
          "type": "address"
        },
        {
          "internalType": "bytes",
          "name": "",
          "type": "bytes"
        }
      ],
      "stateMutability": "pure",
      "type": "function"
    },
    {
      "inputs": [
        {
          "internalType": "string",
          "name": "signature",
          "type": "string"
        },
        {
          "internalType": "bytes",
          "name": "params",
          "type": "bytes"
        }
      ],
      "name": "getEncodedData",
      "outputs": [
        {
          "internalType": "bytes",
          "name": "",
          "type": "bytes"
        }
      ],
      "stateMutability": "pure",
      "type": "function"
    },
    {
      "inputs": [],
      "name": "getOwner",
      "outputs": [
        {
          "internalType": "address",
          "name": "",
          "type": "address"
        }
      ],
      "stateMutability": "view",
      "type": "function"
    },
    {
      "inputs": [],
      "name": "getSuperAdmin",
      "outputs": [
        {
          "internalType": "address",
          "name": "",
          "type": "address"
        }
      ],
      "stateMutability": "view",
      "type": "function"
    },
    {
      "inputs": [
        {
          "internalType": "bytes32",
          "name": "role",
          "type": "bytes32"
        },
        {
          "internalType": "address",
          "name": "account",
          "type": "address"
        }
      ],
      "name": "grantRole",
      "outputs": [],
      "stateMutability": "nonpayable",
      "type": "function"
    },
    {
      "inputs": [
        {
          "internalType": "bytes32",
          "name": "role",
          "type": "bytes32"
        },
        {
          "internalType": "address",
          "name": "account",
          "type": "address"
        }
      ],
      "name": "hasRole",
      "outputs": [
        {
          "internalType": "bool",
          "name": "",
          "type": "bool"
        }
      ],
      "stateMutability": "view",
      "type": "function"
    },
    {
      "inputs": [
        {
          "internalType": "bytes",
          "name": "_bytecode",
          "type": "bytes"
        },
        {
          "internalType": "bytes32",
          "name": "_salt",
          "type": "bytes32"
        }
      ],
      "name": "initiateDeployment",
      "outputs": [
        {
          "internalType": "address",
          "name": "",
          "type": "address"
        }
      ],
      "stateMutability": "nonpayable",
      "type": "function"
    },
    {
      "inputs": [
        {
          "internalType": "address",
          "name": "user",
          "type": "address"
        }
      ],
      "name": "isAdmin",
      "outputs": [
        {
          "internalType": "bool",
          "name": "",
          "type": "bool"
        }
      ],
      "stateMutability": "view",
      "type": "function"
    },
    {
      "inputs": [],
      "name": "isLocked",
      "outputs": [
        {
          "internalType": "bool",
          "name": "",
          "type": "bool"
        }
      ],
      "stateMutability": "view",
      "type": "function"
    },
    {
      "inputs": [],
      "name": "isPaused",
      "outputs": [
        {
          "internalType": "bool",
          "name": "",
          "type": "bool"
        }
      ],
      "stateMutability": "view",
      "type": "function"
    },
    {
      "inputs": [
        {
          "internalType": "address[]",
          "name": "targets",
          "type": "address[]"
        },
        {
          "internalType": "bytes[]",
          "name": "data",
          "type": "bytes[]"
        }
      ],
      "name": "multiExecute",
      "outputs": [
        {
          "internalType": "bytes[]",
          "name": "",
          "type": "bytes[]"
        }
      ],
      "stateMutability": "nonpayable",
      "type": "function"
    },
    {
      "inputs": [
        {
          "internalType": "address",
          "name": "account",
          "type": "address"
        }
      ],
      "name": "removeWhitelist",
      "outputs": [],
      "stateMutability": "nonpayable",
      "type": "function"
    },
    {
      "inputs": [
        {
          "internalType": "bytes32",
          "name": "role",
          "type": "bytes32"
        },
        {
          "internalType": "address",
          "name": "account",
          "type": "address"
        }
      ],
      "name": "renounceRole",
      "outputs": [],
      "stateMutability": "nonpayable",
      "type": "function"
    },
    {
      "inputs": [
        {
          "internalType": "bytes32",
          "name": "role",
          "type": "bytes32"
        },
        {
          "internalType": "address",
          "name": "account",
          "type": "address"
        }
      ],
      "name": "revokeRole",
      "outputs": [],
      "stateMutability": "nonpayable",
      "type": "function"
    },
    {
      "inputs": [
        {
          "internalType": "bytes32",
          "name": "role",
          "type": "bytes32"
        },
        {
          "internalType": "bytes32",
          "name": "newAdminRole",
          "type": "bytes32"
        }
      ],
      "name": "setRoleAdmin",
      "outputs": [],
      "stateMutability": "nonpayable",
      "type": "function"
    },
    {
      "inputs": [
        {
          "internalType": "bytes",
          "name": "encodedData",
          "type": "bytes"
        },
        {
          "internalType": "bytes",
          "name": "originalData",
          "type": "bytes"
        },
        {
          "internalType": "bytes32",
          "name": "additionalParam",
          "type": "bytes32"
        }
      ],
      "name": "validateEncodedData",
      "outputs": [
        {
          "internalType": "bool",
          "name": "",
          "type": "bool"
        }
      ],
      "stateMutability": "view",
      "type": "function"
    },
    {
      "inputs": [
        {
          "internalType": "address",
          "name": "owner",
          "type": "address"
        },
        {
          "internalType": "address",
          "name": "superAdmin",
          "type": "address"
        },
        {
          "internalType": "address",
          "name": "admin",
          "type": "address"
        }
      ],
      "name": "initialize",
      "outputs": [],
      "stateMutability": "nonpayable",
      "type": "function"
    }
  ],
  "bytecode": "0x60806040523480156200001157600080fd5b50333333828181600160006101000a81548173ffffffffffffffffffffffffffffffffffffffff021916908373ffffffffffffffffffffffffffffffffffffffff16021790555080600260006101000a81548173ffffffffffffffffffffffffffffffffffffffff021916908373ffffffffffffffffffffffffffffffffffffffff1602179055506001600360008473ffffffffffffffffffffffffffffffffffffffff1673ffffffffffffffffffffffffffffffffffffffff16815260200190815260200160002060006101000a81548160ff0219169083151502179055505050620001257fb19546dff01e856fb3f010c267a7b1c60363cf8a4664e21cc89c26224620214e846200017560201b60201c565b6200013a6000801b836200017560201b60201c565b6200016c7f7613a25ecc738585a232ad50a301178f12b3ba8887d13e138b523c4269c47689826200017560201b60201c565b505050620002f5565b6200018782826200018b60201b60201c565b5050565b620001ba81600460008581526020019081526020016000206000016200022060201b620013591790919060201c565b156200021c573373ffffffffffffffffffffffffffffffffffffffff168173ffffffffffffffffffffffffffffffffffffffff16837f2f8788117e7eff1d82e926ec794901d17c78024a50270940304540a733656f0d60405160405180910390a45b5050565b600062000250836000018373ffffffffffffffffffffffffffffffffffffffff1660001b6200025860201b60201c565b905092915050565b60006200026c8383620002d260201b60201c565b620002c7578260000182908060018154018082558091505060019003906000526020600020016000909190919091505582600001805490508360010160008481526020019081526020016000208190555060019050620002cc565b600090505b92915050565b600080836001016000848152602001908152602001600020541415905092915050565b61332e80620003056000396000f3fe608060405234801561001057600080fd5b50600436106102115760003560e01c806378c8cda711610125578063a4e2d634116100ad578063da73b13f1161007c578063da73b13f1461068b578063e06d4934146106a9578063e58378bb146106d9578063eed7ede2146106f7578063f80f5dd51461072757610211565b8063a4e2d63414610617578063b187bd2614610635578063c0c53b8b14610653578063d547741f1461066f57610211565b80638204c326116100f45780638204c3261461055d578063893d20e81461057b57806391d14854146105995780639ef9dfff146105c9578063a217fddf146105f957610211565b806378c8cda7146104c35780637a997ab7146104df5780637e711c06146104fd5780637eaeabff1461052d57610211565b80632bd7910b116101a857806344eb64631161017757806344eb6463146103e45780634a3aad11146104145780634af63f021461044557806362ca29ed1461047557806375b238fc146104a557610211565b80632bd7910b1461035e5780632f2ff15d1461038e57806336568abe146103aa5780634460bdd6146103c657610211565b80631cff79cd116101e45780631cff79cd146102b25780631e4e0091146102e2578063204f09eb146102fe57806324d7806c1461032e57610211565b806307bd0265146102165780630d2efdbb146102345780631a8090bb146102525780631b8b921d14610282575b600080fd5b61021e610743565b60405161022b9190611e2e565b60405180910390f35b61023c610767565b6040516102499190611e2e565b60405180910390f35b61026c600480360381019061026791906121aa565b61078b565b604051610279919061236c565b60405180910390f35b61029c6004803603810190610297919061238e565b610915565b6040516102a99190612434565b60405180910390f35b6102cc60048036038101906102c7919061238e565b610a3c565b6040516102d99190612434565b60405180910390f35b6102fc60048036038101906102f79190612482565b610abb565b005b610318600480360381019061031391906124c2565b610b70565b604051610325919061252d565b60405180910390f35b61034860048036038101906103439190612548565b610bba565b6040516103559190612590565b60405180910390f35b610378600480360381019061037391906124c2565b610c10565b604051610385919061252d565b60405180910390f35b6103a860048036038101906103a391906125ab565b610c24565b005b6103c460048036038101906103bf91906125ab565b610c85565b005b6103ce610d01565b6040516103db9190611e2e565b60405180910390f35b6103fe60048036038101906103f9919061238e565b610d25565b60405161040b9190612434565b60405180910390f35b61042e6004803603810190610429919061268c565b610e4a565b60405161043c929190612717565b60405180910390f35b61045f600480360381019061045a91906124c2565b610edf565b60405161046c919061252d565b60405180910390f35b61048f600480360381019061048a91906124c2565b610ef3565b60405161049c919061252d565b60405180910390f35b6104ad610f07565b6040516104ba9190611e2e565b60405180910390f35b6104dd60048036038101906104d89190612548565b610f2b565b005b6104e7610f91565b6040516104f49190611e2e565b60405180910390f35b610517600480360381019061051291906124c2565b610fb5565b604051610524919061252d565b60405180910390f35b61054760048036038101906105429190612747565b610fc9565b6040516105549190612434565b60405180910390f35b610565611057565b604051610572919061252d565b60405180910390f35b610583611081565b604051610590919061252d565b60405180910390f35b6105b360048036038101906105ae91906125ab565b6110ab565b6040516105c09190612590565b60405180910390f35b6105e360048036038101906105de91906127bf565b6110dd565b6040516105f09190612590565b60405180910390f35b6106016110f3565b60405161060e9190611e2e565b60405180910390f35b61061f6110fa565b60405161062c9190612590565b60405180910390f35b61063d61111f565b60405161064a9190612590565b60405180910390f35b61066d6004803603810190610668919061284a565b611136565b005b610689600480360381019061068491906125ab565b611222565b005b610693611283565b6040516106a09190611e2e565b60405180910390f35b6106c360048036038101906106be91906124c2565b6112a7565b6040516106d09190612434565b60405180910390f35b6106e16112bb565b6040516106ee9190611e2e565b60405180910390f35b610711600480360381019061070c91906124c2565b6112df565b60405161071e9190612434565b60405180910390f35b610741600480360381019061073c9190612548565b6112f3565b005b7fd8aa0f3194971a2a116679f7c2090f6939c8d4e01a2a8d7e41d55e5351469e6381565b7f24f6679db5ad89e1735cc3ff300ee2cf5477ec5cf71573e015430144c84b7ca781565b60607f16d22fb0a3dea8ff8be795756b9481592d33d5cad2ba7d6d931b8de4c03e25926107b881336110ab565b6107f7576040517f08c379a00000000000000000000000000000000000000000000000000000000081526004016107ee90612920565b60405180910390fd5b825184511461083b576040517f08c379a00000000000000000000000000000000000000000000000000000000081526004016108329061298c565b60405180910390fd5b6000845167ffffffffffffffff81111561085857610857611e73565b5b60405190808252806020026020018201604052801561088b57816020015b60608152602001906001900390816108765790505b50905060005b8551811015610909576108d88682815181106108b0576108af6129ac565b5b60200260200101518683815181106108cb576108ca6129ac565b5b6020026020010151611389565b8282815181106108eb576108ea6129ac565b5b6020026020010181905250808061090190612a14565b915050610891565b50809250505092915050565b60607fd8aa0f3194971a2a116679f7c2090f6939c8d4e01a2a8d7e41d55e5351469e6361094281336110ab565b610981576040517f08c379a000000000000000000000000000000000000000000000000000000000815260040161097890612920565b60405180910390fd5b6000808573ffffffffffffffffffffffffffffffffffffffff16856040516109a99190612a98565b6000604051808303816000865af19150503d80600081146109e6576040519150601f19603f3d011682016040523d82523d6000602084013e6109eb565b606091505b509150915081610a30576040517f08c379a0000000000000000000000000000000000000000000000000000000008152600401610a2790612afb565b60405180910390fd5b80935050505092915050565b60607fd8aa0f3194971a2a116679f7c2090f6939c8d4e01a2a8d7e41d55e5351469e63610a6981336110ab565b610aa8576040517f08c379a0000000000000000000000000000000000000000000000000000000008152600401610a9f90612920565b60405180910390fd5b610ab28484611389565b91505092915050565b6000801b610ac981336110ab565b610b08576040517f08c379a0000000000000000000000000000000000000000000000000000000008152600401610aff90612920565b60405180910390fd5b6000610b13846114b0565b9050826004600086815260200190815260200160002060020181905550837fbd79b86ffe0ab8e8776151514217cd7cacd52c909f66475c3af44e129f0b00ff8285604051610b62929190612b1b565b60405180910390a250505050565b60008060ff60f81b30848680519060200120604051602001610b959493929190612bfa565b6040516020818303038152906040528051906020012090508060001c91505092915050565b6000600360008373ffffffffffffffffffffffffffffffffffffffff1673ffffffffffffffffffffffffffffffffffffffff16815260200190815260200160002060009054906101000a900460ff169050919050565b6000610c1c8383610fb5565b905092915050565b610c2d826114b0565b610c3781336110ab565b610c76576040517f08c379a0000000000000000000000000000000000000000000000000000000008152600401610c6d90612920565b60405180910390fd5b610c8083836114d0565b505050565b3373ffffffffffffffffffffffffffffffffffffffff168173ffffffffffffffffffffffffffffffffffffffff1614610cf3576040517f08c379a0000000000000000000000000000000000000000000000000000000008152600401610cea90612cba565b60405180910390fd5b610cfd828261155d565b5050565b7f7613a25ecc738585a232ad50a301178f12b3ba8887d13e138b523c4269c4768981565b60607f24f6679db5ad89e1735cc3ff300ee2cf5477ec5cf71573e015430144c84b7ca7610d5281336110ab565b610d91576040517f08c379a0000000000000000000000000000000000000000000000000000000008152600401610d8890612920565b60405180910390fd5b6000808573ffffffffffffffffffffffffffffffffffffffff1685604051610db99190612a98565b600060405180830381855afa9150503d8060008114610df4576040519150601f19603f3d011682016040523d82523d6000602084013e610df9565b606091505b509150915081610e3e576040517f08c379a0000000000000000000000000000000000000000000000000000000008152600401610e3590612d26565b60405180910390fd5b80935050505092915050565b60006060848484604051602401610e619190612434565b60405160208183030381529060405290604051610e7e9190612d8d565b60405180910390207bffffffffffffffffffffffffffffffffffffffffffffffffffffffff19166020820180517bffffffffffffffffffffffffffffffffffffffffffffffffffffffff838183161783525050505091509150935093915050565b6000610eeb8383610b70565b905092915050565b6000610eff8383610b70565b905092915050565b7fa49807205ce4d355092ef5a8a18f56e8913cf4a201fbe287825b095693c2177581565b610f336115ea565b610f3d81336110ab565b610f7c576040517f08c379a0000000000000000000000000000000000000000000000000000000008152600401610f7390612920565b60405180910390fd5b610f8d610f87611612565b8361155d565b5050565b7fdc72ed553f2544c34465af23b847953efeb813428162d767f9ba5f4013be676081565b6000610fc1838361163a565b905092915050565b60608282604051602401610fdd9190612434565b60405160208183030381529060405290604051610ffa9190612d8d565b60405180910390207bffffffffffffffffffffffffffffffffffffffffffffffffffffffff19166020820180517bffffffffffffffffffffffffffffffffffffffffffffffffffffffff8381831617835250505050905092915050565b6000600260009054906101000a900473ffffffffffffffffffffffffffffffffffffffff16905090565b6000600160009054906101000a900473ffffffffffffffffffffffffffffffffffffffff16905090565b60006110d5826004600086815260200190815260200160002060000161176090919063ffffffff16565b905092915050565b60006110ea848484611790565b90509392505050565b6000801b81565b6000600560009054906101000a900460ff16801561111a57506006544311155b905090565b6000600760009054906101000a900460ff16905090565b600760029054906101000a900460ff168061115e5750600760019054906101000a900460ff16155b61119d576040517f08c379a000000000000000000000000000000000000000000000000000000000815260040161119490612e16565b60405180910390fd5b6000600760029054906101000a900460ff1615905080156111ef576001600760026101000a81548160ff0219169083151502179055506001600760016101000a81548160ff0219169083151502179055505b6111fa8484846117fc565b801561121c576000600760026101000a81548160ff0219169083151502179055505b50505050565b61122b826114b0565b61123581336110ab565b611274576040517f08c379a000000000000000000000000000000000000000000000000000000000815260040161126b90612920565b60405180910390fd5b61127e838361155d565b505050565b7f16d22fb0a3dea8ff8be795756b9481592d33d5cad2ba7d6d931b8de4c03e259281565b60606112b3838361195c565b905092915050565b7fb19546dff01e856fb3f010c267a7b1c60363cf8a4664e21cc89c26224620214e81565b60606112eb8383611b10565b905092915050565b6112fb6115ea565b61130581336110ab565b611344576040517f08c379a000000000000000000000000000000000000000000000000000000000815260040161133b90612920565b60405180910390fd5b61135561134f611612565b836114d0565b5050565b6000611381836000018373ffffffffffffffffffffffffffffffffffffffff1660001b611b84565b905092915050565b60607fd8aa0f3194971a2a116679f7c2090f6939c8d4e01a2a8d7e41d55e5351469e636113b681336110ab565b6113f5576040517f08c379a00000000000000000000000000000000000000000000000000000000081526004016113ec90612920565b60405180910390fd5b6000808573ffffffffffffffffffffffffffffffffffffffff168560405161141d9190612a98565b6000604051808303816000865af19150503d806000811461145a576040519150601f19603f3d011682016040523d82523d6000602084013e61145f565b606091505b5091509150816114a4576040517f08c379a000000000000000000000000000000000000000000000000000000000815260040161149b90612e82565b60405180910390fd5b80935050505092915050565b600060046000838152602001908152602001600020600201549050919050565b6114f8816004600085815260200190815260200160002060000161135990919063ffffffff16565b15611559573373ffffffffffffffffffffffffffffffffffffffff168173ffffffffffffffffffffffffffffffffffffffff16837f2f8788117e7eff1d82e926ec794901d17c78024a50270940304540a733656f0d60405160405180910390a45b5050565b6115858160046000858152602001908152602001600020600001611bf490919063ffffffff16565b156115e6573373ffffffffffffffffffffffffffffffffffffffff168173ffffffffffffffffffffffffffffffffffffffff16837ff6391f5c32d9c69d2a47ea670b442974b53935d1edc7fd64eb21e047a839171b60405160405180910390a45b5050565b60007f7613a25ecc738585a232ad50a301178f12b3ba8887d13e138b523c4269c47689905090565b60007fdc72ed553f2544c34465af23b847953efeb813428162d767f9ba5f4013be6760905090565b6000806000845103611681576040517f08c379a000000000000000000000000000000000000000000000000000000000815260040161167890612eee565b60405180910390fd5b828451602086016000f59050600073ffffffffffffffffffffffffffffffffffffffff168173ffffffffffffffffffffffffffffffffffffffff16036116fc576040517f08c379a00000000000000000000000000000000000000000000000000000000081526004016116f390612f5a565b60405180910390fd5b8073ffffffffffffffffffffffffffffffffffffffff163373ffffffffffffffffffffffffffffffffffffffff167f33c981baba081f8fd2c52ac6ad1ea95b6814b4376640f55689051f658472968860405160405180910390a38091505092915050565b6000611788836000018373ffffffffffffffffffffffffffffffffffffffff1660001b611c24565b905092915050565b60008061179d858461195c565b905083805190602001208180519060200120146117be5760009150506117f5565b600081846040516020016117d3929190612f7a565b6040516020818303038152906040528051906020012090506000548114925050505b9392505050565b600760029054906101000a900460ff16806118245750600760019054906101000a900460ff16155b611863576040517f08c379a000000000000000000000000000000000000000000000000000000000815260040161185a90612e16565b60405180910390fd5b6000600760029054906101000a900460ff1615905080156118b5576001600760026101000a81548160ff0219169083151502179055506001600760016101000a81548160ff0219169083151502179055505b6118bd611c47565b156118fd576040517f08c379a00000000000000000000000000000000000000000000000000000000081526004016118f490613014565b60405180910390fd5b61190e611908611c5e565b85611c86565b61191b6000801b83611c86565b61192c6119266115ea565b84611c86565b611934611c94565b8015611956576000600760026101000a81548160ff0219169083151502179055505b50505050565b606060208351116119a2576040517f08c379a0000000000000000000000000000000000000000000000000000000008152600401611999906130cc565b60405180910390fd5b60006020840151905060005481846040516020016119c19291906130ec565b6040516020818303038152906040528051906020012014611a17576040517f08c379a0000000000000000000000000000000000000000000000000000000008152600401611a0e90613164565b60405180910390fd5b600060208551611a279190613184565b67ffffffffffffffff811115611a4057611a3f611e73565b5b6040519080825280601f01601f191660200182016040528015611a725781602001600182028036833780820191505090505b5090506000602090505b8551811015611b0457858181518110611a9857611a976129ac565b5b602001015160f81c60f81b82602083611ab19190613184565b81518110611ac257611ac16129ac565b5b60200101907effffffffffffffffffffffffffffffffffffffffffffffffffffffffffffff1916908160001a9053508080611afc90612a14565b915050611a7c565b50809250505092915050565b60606000835111611b56576040517f08c379a0000000000000000000000000000000000000000000000000000000008152600401611b4d90613204565b60405180910390fd5b6000548284604051602001611b6d93929190613224565b604051602081830303815290604052905092915050565b6000611b908383611c24565b611be9578260000182908060018154018082558091505060019003906000526020600020016000909190919091505582600001805490508360010160008481526020019081526020016000208190555060019050611bee565b600090505b92915050565b6000611c1c836000018373ffffffffffffffffffffffffffffffffffffffff1660001b611d01565b905092915050565b600080836001016000848152602001908152602001600020541415905092915050565b6000600760019054906101000a900460ff16905090565b60007fb19546dff01e856fb3f010c267a7b1c60363cf8a4664e21cc89c26224620214e905090565b611c9082826114d0565b5050565b600760019054906101000a900460ff1615611ce4576040517f08c379a0000000000000000000000000000000000000000000000000000000008152600401611cdb906132a9565b60405180910390fd5b6001600760016101000a81548160ff021916908315150217905550565b60008083600101600084815260200190815260200160002054905060008114611e09576000600182611d339190613184565b9050600060018660000180549050611d4b9190613184565b9050818114611dba576000866000018281548110611d6c57611d6b6129ac565b5b9060005260206000200154905080876000018481548110611d9057611d8f6129ac565b5b90600052602060002001819055508387600101600083815260200190815260200160002081905550505b85600001805480611dce57611dcd6132c9565b5b600190038181906000526020600020016000905590558560010160008681526020019081526020016000206000905560019350505050611e0f565b60009150505b92915050565b6000819050919050565b611e2881611e15565b82525050565b6000602082019050611e436000830184611e1f565b92915050565b6000604051905090565b600080fd5b600080fd5b600080fd5b6000601f19601f8301169050919050565b7f4e487b7100000000000000000000000000000000000000000000000000000000600052604160045260246000fd5b611eab82611e62565b810181811067ffffffffffffffff82111715611eca57611ec9611e73565b5b80604052505050565b6000611edd611e49565b9050611ee98282611ea2565b919050565b600067ffffffffffffffff821115611f0957611f08611e73565b5b602082029050602081019050919050565b600080fd5b600073ffffffffffffffffffffffffffffffffffffffff82169050919050565b6000611f4a82611f1f565b9050919050565b611f5a81611f3f565b8114611f6557600080fd5b50565b600081359050611f7781611f51565b92915050565b6000611f90611f8b84611eee565b611ed3565b90508083825260208201905060208402830185811115611fb357611fb2611f1a565b5b835b81811015611fdc5780611fc88882611f68565b845260208401935050602081019050611fb5565b5050509392505050565b600082601f830112611ffb57611ffa611e5d565b5b813561200b848260208601611f7d565b91505092915050565b600067ffffffffffffffff82111561202f5761202e611e73565b5b602082029050602081019050919050565b600080fd5b600067ffffffffffffffff8211156120605761205f611e73565b5b61206982611e62565b9050602081019050919050565b82818337600083830152505050565b600061209861209384612045565b611ed3565b9050828152602081018484840111156120b4576120b3612040565b5b6120bf848285612076565b509392505050565b600082601f8301126120dc576120db611e5d565b5b81356120ec848260208601612085565b91505092915050565b600061210861210384612014565b611ed3565b9050808382526020820190506020840283018581111561212b5761212a611f1a565b5b835b8181101561217257803567ffffffffffffffff8111156121505761214f611e5d565b5b80860161215d89826120c7565b8552602085019450505060208101905061212d565b5050509392505050565b600082601f83011261219157612190611e5d565b5b81356121a18482602086016120f5565b91505092915050565b600080604083850312156121c1576121c0611e53565b5b600083013567ffffffffffffffff8111156121df576121de611e58565b5b6121eb85828601611fe6565b925050602083013567ffffffffffffffff81111561220c5761220b611e58565b5b6122188582860161217c565b9150509250929050565b600081519050919050565b600082825260208201905092915050565b6000819050602082019050919050565b600081519050919050565b600082825260208201905092915050565b60005b8381101561228857808201518184015260208101905061226d565b83811115612297576000848401525b50505050565b60006122a88261224e565b6122b28185612259565b93506122c281856020860161226a565b6122cb81611e62565b840191505092915050565b60006122e2838361229d565b905092915050565b6000602082019050919050565b600061230282612222565b61230c818561222d565b93508360208202850161231e8561223e565b8060005b8581101561235a578484038952815161233b85826122d6565b9450612346836122ea565b925060208a01995050600181019050612322565b50829750879550505050505092915050565b6000602082019050818103600083015261238681846122f7565b905092915050565b600080604083850312156123a5576123a4611e53565b5b60006123b385828601611f68565b925050602083013567ffffffffffffffff8111156123d4576123d3611e58565b5b6123e0858286016120c7565b9150509250929050565b600082825260208201905092915050565b60006124068261224e565b61241081856123ea565b935061242081856020860161226a565b61242981611e62565b840191505092915050565b6000602082019050818103600083015261244e81846123fb565b905092915050565b61245f81611e15565b811461246a57600080fd5b50565b60008135905061247c81612456565b92915050565b6000806040838503121561249957612498611e53565b5b60006124a78582860161246d565b92505060206124b88582860161246d565b9150509250929050565b600080604083850312156124d9576124d8611e53565b5b600083013567ffffffffffffffff8111156124f7576124f6611e58565b5b612503858286016120c7565b92505060206125148582860161246d565b9150509250929050565b61252781611f3f565b82525050565b6000602082019050612542600083018461251e565b92915050565b60006020828403121561255e5761255d611e53565b5b600061256c84828501611f68565b91505092915050565b60008115159050919050565b61258a81612575565b82525050565b60006020820190506125a56000830184612581565b92915050565b600080604083850312156125c2576125c1611e53565b5b60006125d08582860161246d565b92505060206125e185828601611f68565b9150509250929050565b600067ffffffffffffffff82111561260657612605611e73565b5b61260f82611e62565b9050602081019050919050565b600061262f61262a846125eb565b611ed3565b90508281526020810184848401111561264b5761264a612040565b5b612656848285612076565b509392505050565b600082601f83011261267357612672611e5d565b5b813561268384826020860161261c565b91505092915050565b6000806000606084860312156126a5576126a4611e53565b5b60006126b386828701611f68565b935050602084013567ffffffffffffffff8111156126d4576126d3611e58565b5b6126e08682870161265e565b925050604084013567ffffffffffffffff81111561270157612700611e58565b5b61270d868287016120c7565b9150509250925092565b600060408201905061272c600083018561251e565b818103602083015261273e81846123fb565b90509392505050565b6000806040838503121561275e5761275d611e53565b5b600083013567ffffffffffffffff81111561277c5761277b611e58565b5b6127888582860161265e565b925050602083013567ffffffffffffffff8111156127a9576127a8611e58565b5b6127b5858286016120c7565b9150509250929050565b6000806000606084860312156127d8576127d7611e53565b5b600084013567ffffffffffffffff8111156127f6576127f5611e58565b5b612802868287016120c7565b935050602084013567ffffffffffffffff81111561282357612822611e58565b5b61282f868287016120c7565b92505060406128408682870161246d565b9150509250925092565b60008060006060848603121561286357612862611e53565b5b600061287186828701611f68565b935050602061288286828701611f68565b925050604061289386828701611f68565b9150509250925092565b600082825260208201905092915050565b7f416363657373436f6e74726f6c3a2073656e64657220646f6573206e6f74206860008201527f61766520726f6c65000000000000000000000000000000000000000000000000602082015250565b600061290a60288361289d565b9150612915826128ae565b604082019050919050565b60006020820190508181036000830152612939816128fd565b9050919050565b7f5461726765747320616e642064617461206c656e677468206d69736d61746368600082015250565b600061297660208361289d565b915061298182612940565b602082019050919050565b600060208201905081810360008301526129a581612969565b9050919050565b7f4e487b7100000000000000000000000000000000000000000000000000000000600052603260045260246000fd5b7f4e487b7100000000000000000000000000000000000000000000000000000000600052601160045260246000fd5b6000819050919050565b6000612a1f82612a0a565b91507fffffffffffffffffffffffffffffffffffffffffffffffffffffffffffffffff8203612a5157612a506129db565b5b600182019050919050565b600081905092915050565b6000612a728261224e565b612a7c8185612a5c565b9350612a8c81856020860161226a565b80840191505092915050565b6000612aa48284612a67565b915081905092915050565b7f43616c6c206661696c6564000000000000000000000000000000000000000000600082015250565b6000612ae5600b8361289d565b9150612af082612aaf565b602082019050919050565b60006020820190508181036000830152612b1481612ad8565b9050919050565b6000604082019050612b306000830185611e1f565b612b3d6020830184611e1f565b9392505050565b60007fff0000000000000000000000000000000000000000000000000000000000000082169050919050565b6000819050919050565b612b8b612b8682612b44565b612b70565b82525050565b60008160601b9050919050565b6000612ba982612b91565b9050919050565b6000612bbb82612b9e565b9050919050565b612bd3612bce82611f3f565b612bb0565b82525050565b6000819050919050565b612bf4612bef82611e15565b612bd9565b82525050565b6000612c068287612b7a565b600182019150612c168286612bc2565b601482019150612c268285612be3565b602082019150612c368284612be3565b60208201915081905095945050505050565b7f416363657373436f6e74726f6c3a2063616e206f6e6c792072656e6f756e636560008201527f20726f6c657320666f722073656c660000000000000000000000000000000000602082015250565b6000612ca4602f8361289d565b9150612caf82612c48565b604082019050919050565b60006020820190508181036000830152612cd381612c97565b9050919050565b7f5374617469632063616c6c206661696c65640000000000000000000000000000600082015250565b6000612d1060128361289d565b9150612d1b82612cda565b602082019050919050565b60006020820190508181036000830152612d3f81612d03565b9050919050565b600081519050919050565b600081905092915050565b6000612d6782612d46565b612d718185612d51565b9350612d8181856020860161226a565b80840191505092915050565b6000612d998284612d5c565b915081905092915050565b7f496e697469616c697a61626c653a20636f6e747261637420697320616c72656160008201527f647920696e697469616c697a6564000000000000000000000000000000000000602082015250565b6000612e00602e8361289d565b9150612e0b82612da4565b604082019050919050565b60006020820190508181036000830152612e2f81612df3565b9050919050565b7f457865637574696f6e206661696c656400000000000000000000000000000000600082015250565b6000612e6c60108361289d565b9150612e7782612e36565b602082019050919050565b60006020820190508181036000830152612e9b81612e5f565b9050919050565b7f42797465636f6465206c656e677468206973207a65726f000000000000000000600082015250565b6000612ed860178361289d565b9150612ee382612ea2565b602082019050919050565b60006020820190508181036000830152612f0781612ecb565b9050919050565b7f4661696c656420746f206465706c6f7920636f6e747261637400000000000000600082015250565b6000612f4460198361289d565b9150612f4f82612f0e565b602082019050919050565b60006020820190508181036000830152612f7381612f37565b9050919050565b6000612f868285612a67565b9150612f928284612be3565b6020820191508190509392505050565b7f416476616e636564416363657373436f6e74726f6c3a20616c7265616479206960008201527f6e697469616c697a656400000000000000000000000000000000000000000000602082015250565b6000612ffe602a8361289d565b915061300982612fa2565b604082019050919050565b6000602082019050818103600083015261302d81612ff1565b9050919050565b7f456e636f646564206461746120697320746f6f2073686f727420746f20636f6e60008201527f7461696e2073616c7420616e64206164646974696f6e616c20706172616d657460208201527f6572730000000000000000000000000000000000000000000000000000000000604082015250565b60006130b660438361289d565b91506130c182613034565b606082019050919050565b600060208201905081810360008301526130e5816130a9565b9050919050565b60006130f88285612be3565b6020820191506131088284612be3565b6020820191508190509392505050565b7f496e76616c696420656e636f64696e6720706172616d65746572730000000000600082015250565b600061314e601b8361289d565b915061315982613118565b602082019050919050565b6000602082019050818103600083015261317d81613141565b9050919050565b600061318f82612a0a565b915061319a83612a0a565b9250828210156131ad576131ac6129db565b5b828203905092915050565b7f446174612063616e6e6f7420626520656d707479000000000000000000000000600082015250565b60006131ee60148361289d565b91506131f9826131b8565b602082019050919050565b6000602082019050818103600083015261321d816131e1565b9050919050565b60006132308286612be3565b6020820191506132408285612be3565b6020820191506132508284612a67565b9150819050949350505050565b7f436f6e747261637420616c726561647920696e697469616c697a656400000000600082015250565b6000613293601c8361289d565b915061329e8261325d565b602082019050919050565b600060208201905081810360008301526132c281613286565b9050919050565b7f4e487b7100000000000000000000000000000000000000000000000000000000600052603160045260246000fdfea2646970667358221220db1fe25d2b1190f90aa03bdd913a9b6eec05e9c8e53719fe458757997a3bc8ad64736f6c634300080d0033",
  "immutableReferences": {},
  "source": "// SPDX-License-Identifier: MIT\npragma solidity ^0.8.0;\n\nimport \"../libraries/Factories/BaseFactory.sol\";\nimport \"./Accessblity/BaseAccessControl.sol\";\n\ncontract BaseObject is BaseAccessControl, BaseFactory {\n    function initialize(\n        address owner,\n        address superAdmin,\n        address admin\n    ) public override initializer {\n        BaseAccessControl.initialize(owner, superAdmin, admin);\n    }\n}\n",
  "sourcePath": "/Users/yemo/yemowithprivate/projects/yemowith/contracts/core/objective/BaseObject.sol",
  "compiler": {
    "name": "solc",
    "version": "0.8.13+commit.abaa5c0e.Emscripten.clang"
  },
  "schemaVersion": "3.4.16",
  "updatedAt": "2024-06-10T11:54:44.472Z",
  "devdoc": {
    "kind": "dev",
    "methods": {
      "_computeAddress(bytes,bytes32)": {
        "details": "Computes the address for a contract to be deployed via CREATE2.",
        "params": {
          "_bytecode": "The bytecode of the contract to be deployed.",
          "_salt": "A bytes32 salt value used to compute the address."
        },
        "returns": {
          "_0": "computedAddress The precomputed address of the contract if deployed with the provided bytecode and salt."
        }
      },
      "deploy(bytes,bytes32)": {
        "details": "Computes the address for a contract to be deployed via CREATE2, without actually deploying it.",
        "params": {
          "_bytecode": "The bytecode of the contract to be deployed.",
          "_salt": "A bytes32 salt value used to compute the address."
        },
        "returns": {
          "_0": "computedAddress The precomputed address of the contract if deployed with the provided bytecode and salt."
        }
      },
      "initiateDeployment(bytes,bytes32)": {
        "details": "Public function to initiate the deployment of a contract.",
        "params": {
          "_bytecode": "The bytecode of the contract to be deployed.",
          "_salt": "A bytes32 salt value used to create a deterministic address."
        },
        "returns": {
          "_0": "contractAddress The address of the deployed contract."
        }
      }
    },
    "version": 1
  },
  "userdoc": {
    "kind": "user",
    "methods": {},
    "version": 1
  }
}