{
  "contractName": "BaseRegistry",
  "abi": [
    {
      "inputs": [
        {
          "internalType": "address",
          "name": "_baseRegisterableAddress",
          "type": "address"
        }
      ],
      "stateMutability": "nonpayable",
      "type": "constructor"
    },
    {
      "anonymous": false,
      "inputs": [
        {
          "indexed": true,
          "internalType": "address",
          "name": "admin",
          "type": "address"
        }
      ],
      "name": "AdminAdded",
      "type": "event"
    },
    {
      "anonymous": false,
      "inputs": [
        {
          "indexed": true,
          "internalType": "address",
          "name": "admin",
          "type": "address"
        }
      ],
      "name": "AdminRemoved",
      "type": "event"
    },
    {
      "anonymous": false,
      "inputs": [
        {
          "indexed": true,
          "internalType": "address",
          "name": "item",
          "type": "address"
        },
        {
          "indexed": false,
          "internalType": "bool",
          "name": "isActive",
          "type": "bool"
        },
        {
          "indexed": false,
          "internalType": "string",
          "name": "description",
          "type": "string"
        },
        {
          "indexed": false,
          "internalType": "bytes",
          "name": "encodedData",
          "type": "bytes"
        }
      ],
      "name": "ItemRegistered",
      "type": "event"
    },
    {
      "anonymous": false,
      "inputs": [
        {
          "indexed": true,
          "internalType": "address",
          "name": "item",
          "type": "address"
        },
        {
          "indexed": false,
          "internalType": "bool",
          "name": "isActive",
          "type": "bool"
        }
      ],
      "name": "ItemStatusChanged",
      "type": "event"
    },
    {
      "anonymous": false,
      "inputs": [
        {
          "indexed": false,
          "internalType": "uint256",
          "name": "untilBlock",
          "type": "uint256"
        }
      ],
      "name": "Locked",
      "type": "event"
    },
    {
      "anonymous": false,
      "inputs": [],
      "name": "Paused",
      "type": "event"
    },
    {
      "anonymous": false,
      "inputs": [
        {
          "indexed": true,
          "internalType": "bytes32",
          "name": "role",
          "type": "bytes32"
        },
        {
          "indexed": false,
          "internalType": "bytes32",
          "name": "previousAdminRole",
          "type": "bytes32"
        },
        {
          "indexed": false,
          "internalType": "bytes32",
          "name": "newAdminRole",
          "type": "bytes32"
        }
      ],
      "name": "RoleAdminChanged",
      "type": "event"
    },
    {
      "anonymous": false,
      "inputs": [
        {
          "indexed": true,
          "internalType": "bytes32",
          "name": "role",
          "type": "bytes32"
        },
        {
          "indexed": true,
          "internalType": "address",
          "name": "account",
          "type": "address"
        },
        {
          "indexed": true,
          "internalType": "address",
          "name": "sender",
          "type": "address"
        }
      ],
      "name": "RoleGranted",
      "type": "event"
    },
    {
      "anonymous": false,
      "inputs": [
        {
          "indexed": true,
          "internalType": "bytes32",
          "name": "role",
          "type": "bytes32"
        },
        {
          "indexed": true,
          "internalType": "address",
          "name": "account",
          "type": "address"
        },
        {
          "indexed": true,
          "internalType": "address",
          "name": "sender",
          "type": "address"
        }
      ],
      "name": "RoleRevoked",
      "type": "event"
    },
    {
      "anonymous": false,
      "inputs": [
        {
          "indexed": true,
          "internalType": "address",
          "name": "previousSuperAdmin",
          "type": "address"
        },
        {
          "indexed": true,
          "internalType": "address",
          "name": "newSuperAdmin",
          "type": "address"
        }
      ],
      "name": "SuperAdminChanged",
      "type": "event"
    },
    {
      "anonymous": false,
      "inputs": [],
      "name": "Unlocked",
      "type": "event"
    },
    {
      "anonymous": false,
      "inputs": [],
      "name": "Unpaused",
      "type": "event"
    },
    {
      "inputs": [],
      "name": "ADMIN_ROLE",
      "outputs": [
        {
          "internalType": "bytes32",
          "name": "",
          "type": "bytes32"
        }
      ],
      "stateMutability": "view",
      "type": "function"
    },
    {
      "inputs": [],
      "name": "DEFAULT_ADMIN_ROLE",
      "outputs": [
        {
          "internalType": "bytes32",
          "name": "",
          "type": "bytes32"
        }
      ],
      "stateMutability": "view",
      "type": "function"
    },
    {
      "inputs": [],
      "name": "OWNER_ROLE",
      "outputs": [
        {
          "internalType": "bytes32",
          "name": "",
          "type": "bytes32"
        }
      ],
      "stateMutability": "view",
      "type": "function"
    },
    {
      "inputs": [],
      "name": "REGISTRY_MANAGER_ROLE",
      "outputs": [
        {
          "internalType": "bytes32",
          "name": "",
          "type": "bytes32"
        }
      ],
      "stateMutability": "view",
      "type": "function"
    },
    {
      "inputs": [],
      "name": "SUPER_ADMIN_ROLE",
      "outputs": [
        {
          "internalType": "bytes32",
          "name": "",
          "type": "bytes32"
        }
      ],
      "stateMutability": "view",
      "type": "function"
    },
    {
      "inputs": [],
      "name": "WHITELIST_ROLE",
      "outputs": [
        {
          "internalType": "bytes32",
          "name": "",
          "type": "bytes32"
        }
      ],
      "stateMutability": "view",
      "type": "function"
    },
    {
      "inputs": [
        {
          "internalType": "address",
          "name": "account",
          "type": "address"
        }
      ],
      "name": "addWhitelist",
      "outputs": [],
      "stateMutability": "nonpayable",
      "type": "function"
    },
    {
      "inputs": [],
      "name": "baseRegisterableAddress",
      "outputs": [
        {
          "internalType": "address",
          "name": "",
          "type": "address"
        }
      ],
      "stateMutability": "view",
      "type": "function"
    },
    {
      "inputs": [],
      "name": "getOwner",
      "outputs": [
        {
          "internalType": "address",
          "name": "",
          "type": "address"
        }
      ],
      "stateMutability": "view",
      "type": "function"
    },
    {
      "inputs": [],
      "name": "getSuperAdmin",
      "outputs": [
        {
          "internalType": "address",
          "name": "",
          "type": "address"
        }
      ],
      "stateMutability": "view",
      "type": "function"
    },
    {
      "inputs": [
        {
          "internalType": "bytes32",
          "name": "role",
          "type": "bytes32"
        },
        {
          "internalType": "address",
          "name": "account",
          "type": "address"
        }
      ],
      "name": "grantRole",
      "outputs": [],
      "stateMutability": "nonpayable",
      "type": "function"
    },
    {
      "inputs": [
        {
          "internalType": "bytes32",
          "name": "role",
          "type": "bytes32"
        },
        {
          "internalType": "address",
          "name": "account",
          "type": "address"
        }
      ],
      "name": "hasRole",
      "outputs": [
        {
          "internalType": "bool",
          "name": "",
          "type": "bool"
        }
      ],
      "stateMutability": "view",
      "type": "function"
    },
    {
      "inputs": [
        {
          "internalType": "address",
          "name": "owner",
          "type": "address"
        },
        {
          "internalType": "address",
          "name": "superAdmin",
          "type": "address"
        },
        {
          "internalType": "address",
          "name": "admin",
          "type": "address"
        }
      ],
      "name": "initialize",
      "outputs": [],
      "stateMutability": "nonpayable",
      "type": "function"
    },
    {
      "inputs": [
        {
          "internalType": "address",
          "name": "user",
          "type": "address"
        }
      ],
      "name": "isAdmin",
      "outputs": [
        {
          "internalType": "bool",
          "name": "",
          "type": "bool"
        }
      ],
      "stateMutability": "view",
      "type": "function"
    },
    {
      "inputs": [],
      "name": "isLocked",
      "outputs": [
        {
          "internalType": "bool",
          "name": "",
          "type": "bool"
        }
      ],
      "stateMutability": "view",
      "type": "function"
    },
    {
      "inputs": [],
      "name": "isPaused",
      "outputs": [
        {
          "internalType": "bool",
          "name": "",
          "type": "bool"
        }
      ],
      "stateMutability": "view",
      "type": "function"
    },
    {
      "inputs": [
        {
          "internalType": "address",
          "name": "",
          "type": "address"
        }
      ],
      "name": "registryItems",
      "outputs": [
        {
          "internalType": "bool",
          "name": "isActive",
          "type": "bool"
        },
        {
          "internalType": "string",
          "name": "description",
          "type": "string"
        },
        {
          "internalType": "bytes",
          "name": "encodedData",
          "type": "bytes"
        }
      ],
      "stateMutability": "view",
      "type": "function"
    },
    {
      "inputs": [
        {
          "internalType": "address",
          "name": "account",
          "type": "address"
        }
      ],
      "name": "removeWhitelist",
      "outputs": [],
      "stateMutability": "nonpayable",
      "type": "function"
    },
    {
      "inputs": [
        {
          "internalType": "bytes32",
          "name": "role",
          "type": "bytes32"
        },
        {
          "internalType": "address",
          "name": "account",
          "type": "address"
        }
      ],
      "name": "renounceRole",
      "outputs": [],
      "stateMutability": "nonpayable",
      "type": "function"
    },
    {
      "inputs": [
        {
          "internalType": "bytes32",
          "name": "role",
          "type": "bytes32"
        },
        {
          "internalType": "address",
          "name": "account",
          "type": "address"
        }
      ],
      "name": "revokeRole",
      "outputs": [],
      "stateMutability": "nonpayable",
      "type": "function"
    },
    {
      "inputs": [
        {
          "internalType": "bytes32",
          "name": "role",
          "type": "bytes32"
        },
        {
          "internalType": "bytes32",
          "name": "newAdminRole",
          "type": "bytes32"
        }
      ],
      "name": "setRoleAdmin",
      "outputs": [],
      "stateMutability": "nonpayable",
      "type": "function"
    },
    {
      "inputs": [
        {
          "internalType": "address",
          "name": "item",
          "type": "address"
        },
        {
          "internalType": "string",
          "name": "description",
          "type": "string"
        },
        {
          "internalType": "bytes",
          "name": "data",
          "type": "bytes"
        }
      ],
      "name": "registerItem",
      "outputs": [],
      "stateMutability": "nonpayable",
      "type": "function"
    },
    {
      "inputs": [
        {
          "internalType": "address",
          "name": "item",
          "type": "address"
        },
        {
          "internalType": "bool",
          "name": "isActive",
          "type": "bool"
        }
      ],
      "name": "setItemStatus",
      "outputs": [],
      "stateMutability": "nonpayable",
      "type": "function"
    }
  ],
  "bytecode": "0x60806040523480156200001157600080fd5b506040516200260a3803806200260a833981810160405281019062000037919062000445565b3333338281816000806101000a81548173ffffffffffffffffffffffffffffffffffffffff021916908373ffffffffffffffffffffffffffffffffffffffff16021790555080600160006101000a81548173ffffffffffffffffffffffffffffffffffffffff021916908373ffffffffffffffffffffffffffffffffffffffff1602179055506001600260008473ffffffffffffffffffffffffffffffffffffffff1673ffffffffffffffffffffffffffffffffffffffff16815260200190815260200160002060006101000a81548160ff0219169083151502179055505050620001497fb19546dff01e856fb3f010c267a7b1c60363cf8a4664e21cc89c26224620214e84620001eb60201b60201c565b6200015e6000801b83620001eb60201b60201c565b620001907f7613a25ecc738585a232ad50a301178f12b3ba8887d13e138b523c4269c4768982620001eb60201b60201c565b50505080600860006101000a81548173ffffffffffffffffffffffffffffffffffffffff021916908373ffffffffffffffffffffffffffffffffffffffff160217905550620001e46200020160201b60201c565b50620004fa565b620001fd82826200027160201b60201c565b5050565b600660019054906101000a900460ff161562000254576040517f08c379a00000000000000000000000000000000000000000000000000000000081526004016200024b90620004d8565b60405180910390fd5b6001600660016101000a81548160ff021916908315150217905550565b620002a081600360008581526020019081526020016000206000016200030660201b62000c7c1790919060201c565b1562000302573373ffffffffffffffffffffffffffffffffffffffff168173ffffffffffffffffffffffffffffffffffffffff16837f2f8788117e7eff1d82e926ec794901d17c78024a50270940304540a733656f0d60405160405180910390a45b5050565b600062000336836000018373ffffffffffffffffffffffffffffffffffffffff1660001b6200033e60201b60201c565b905092915050565b6000620003528383620003b860201b60201c565b620003ad578260000182908060018154018082558091505060019003906000526020600020016000909190919091505582600001805490508360010160008481526020019081526020016000208190555060019050620003b2565b600090505b92915050565b600080836001016000848152602001908152602001600020541415905092915050565b600080fd5b600073ffffffffffffffffffffffffffffffffffffffff82169050919050565b60006200040d82620003e0565b9050919050565b6200041f8162000400565b81146200042b57600080fd5b50565b6000815190506200043f8162000414565b92915050565b6000602082840312156200045e576200045d620003db565b5b60006200046e848285016200042e565b91505092915050565b600082825260208201905092915050565b7f436f6e747261637420616c726561647920696e697469616c697a656400000000600082015250565b6000620004c0601c8362000477565b9150620004cd8262000488565b602082019050919050565b60006020820190508181036000830152620004f381620004b1565b9050919050565b612100806200050a6000396000f3fe608060405234801561001057600080fd5b506004361061014d5760003560e01c80638204c326116100c3578063bd8fde1c1161007c578063bd8fde1c1461037c578063c0c53b8b1461039a578063d547741f146103b6578063e58378bb146103d2578063f80f5dd5146103f0578063ff0634191461040c5761014d565b80638204c326146102b6578063893d20e8146102d457806391d14854146102f2578063a217fddf14610322578063a4e2d63414610340578063b187bd261461035e5761014d565b806336349a8a1161011557806336349a8a1461020857806336568abe146102245780634460bdd61461024057806375b238fc1461025e57806378c8cda71461027c5780637a997ab7146102985761014d565b80631e4e00911461015257806324d7806c1461016e578063267ddf651461019e5780632f2ff15d146101d057806335ea681c146101ec575b600080fd5b61016c60048036038101906101679190611602565b61042a565b005b610188600480360381019061018391906116a0565b6104df565b60405161019591906116e8565b60405180910390f35b6101b860048036038101906101b391906116a0565b610535565b6040516101c7939291906117f1565b60405180910390f35b6101ea60048036038101906101e59190611836565b61067c565b005b610206600480360381019061020191906118a2565b6106dd565b005b610222600480360381019061021d9190611ab8565b610756565b005b61023e60048036038101906102399190611836565b6107d1565b005b61024861084d565b6040516102559190611b52565b60405180910390f35b610266610871565b6040516102739190611b52565b60405180910390f35b610296600480360381019061029191906116a0565b610895565b005b6102a06108fb565b6040516102ad9190611b52565b60405180910390f35b6102be61091f565b6040516102cb9190611b7c565b60405180910390f35b6102dc610949565b6040516102e99190611b7c565b60405180910390f35b61030c60048036038101906103079190611836565b610972565b60405161031991906116e8565b60405180910390f35b61032a6109a4565b6040516103379190611b52565b60405180910390f35b6103486109ab565b60405161035591906116e8565b60405180910390f35b6103666109d0565b60405161037391906116e8565b60405180910390f35b6103846109e7565b6040516103919190611b52565b60405180910390f35b6103b460048036038101906103af9190611b97565b610a0b565b005b6103d060048036038101906103cb9190611836565b610b6b565b005b6103da610bcc565b6040516103e79190611b52565b60405180910390f35b61040a600480360381019061040591906116a0565b610bf0565b005b610414610c56565b6040516104219190611b7c565b60405180910390f35b6000801b6104388133610972565b610477576040517f08c379a000000000000000000000000000000000000000000000000000000000815260040161046e90611c5c565b60405180910390fd5b600061048284610cac565b9050826003600086815260200190815260200160002060020181905550837fbd79b86ffe0ab8e8776151514217cd7cacd52c909f66475c3af44e129f0b00ff82856040516104d1929190611c7c565b60405180910390a250505050565b6000600260008373ffffffffffffffffffffffffffffffffffffffff1673ffffffffffffffffffffffffffffffffffffffff16815260200190815260200160002060009054906101000a900460ff169050919050565b60076020528060005260406000206000915090508060000160009054906101000a900460ff169080600101805461056b90611cd4565b80601f016020809104026020016040519081016040528092919081815260200182805461059790611cd4565b80156105e45780601f106105b9576101008083540402835291602001916105e4565b820191906000526020600020905b8154815290600101906020018083116105c757829003601f168201915b5050505050908060020180546105f990611cd4565b80601f016020809104026020016040519081016040528092919081815260200182805461062590611cd4565b80156106725780601f1061064757610100808354040283529160200191610672565b820191906000526020600020905b81548152906001019060200180831161065557829003601f168201915b5050505050905083565b61068582610cac565b61068f8133610972565b6106ce576040517f08c379a00000000000000000000000000000000000000000000000000000000081526004016106c590611c5c565b60405180910390fd5b6106d88383610ccc565b505050565b7ff7a450ef335e1892cb42c8ca72e7242359d7711924b75db5717410da3f614aa36107088133610972565b610747576040517f08c379a000000000000000000000000000000000000000000000000000000000815260040161073e90611c5c565b60405180910390fd5b6107518383610d59565b505050565b7ff7a450ef335e1892cb42c8ca72e7242359d7711924b75db5717410da3f614aa36107818133610972565b6107c0576040517f08c379a00000000000000000000000000000000000000000000000000000000081526004016107b790611c5c565b60405180910390fd5b6107cb848484610f05565b50505050565b3373ffffffffffffffffffffffffffffffffffffffff168173ffffffffffffffffffffffffffffffffffffffff161461083f576040517f08c379a000000000000000000000000000000000000000000000000000000000815260040161083690611d77565b60405180910390fd5b61084982826110f1565b5050565b7f7613a25ecc738585a232ad50a301178f12b3ba8887d13e138b523c4269c4768981565b7fa49807205ce4d355092ef5a8a18f56e8913cf4a201fbe287825b095693c2177581565b61089d61117e565b6108a78133610972565b6108e6576040517f08c379a00000000000000000000000000000000000000000000000000000000081526004016108dd90611c5c565b60405180910390fd5b6108f76108f16111a6565b836110f1565b5050565b7fdc72ed553f2544c34465af23b847953efeb813428162d767f9ba5f4013be676081565b6000600160009054906101000a900473ffffffffffffffffffffffffffffffffffffffff16905090565b60008060009054906101000a900473ffffffffffffffffffffffffffffffffffffffff16905090565b600061099c82600360008681526020019081526020016000206000016111ce90919063ffffffff16565b905092915050565b6000801b81565b6000600460009054906101000a900460ff1680156109cb57506005544311155b905090565b6000600660009054906101000a900460ff16905090565b7ff7a450ef335e1892cb42c8ca72e7242359d7711924b75db5717410da3f614aa381565b600660029054906101000a900460ff1680610a335750600660019054906101000a900460ff16155b610a72576040517f08c379a0000000000000000000000000000000000000000000000000000000008152600401610a6990611e09565b60405180910390fd5b6000600660029054906101000a900460ff161590508015610ac4576001600660026101000a81548160ff0219169083151502179055506001600660016101000a81548160ff0219169083151502179055505b610acc6111fe565b15610b0c576040517f08c379a0000000000000000000000000000000000000000000000000000000008152600401610b0390611e9b565b60405180910390fd5b610b1d610b17611215565b8561123d565b610b2a6000801b8361123d565b610b3b610b3561117e565b8461123d565b610b4361124b565b8015610b65576000600660026101000a81548160ff0219169083151502179055505b50505050565b610b7482610cac565b610b7e8133610972565b610bbd576040517f08c379a0000000000000000000000000000000000000000000000000000000008152600401610bb490611c5c565b60405180910390fd5b610bc783836110f1565b505050565b7fb19546dff01e856fb3f010c267a7b1c60363cf8a4664e21cc89c26224620214e81565b610bf861117e565b610c028133610972565b610c41576040517f08c379a0000000000000000000000000000000000000000000000000000000008152600401610c3890611c5c565b60405180910390fd5b610c52610c4c6111a6565b83610ccc565b5050565b600860009054906101000a900473ffffffffffffffffffffffffffffffffffffffff1681565b6000610ca4836000018373ffffffffffffffffffffffffffffffffffffffff1660001b6112b8565b905092915050565b600060036000838152602001908152602001600020600201549050919050565b610cf48160036000858152602001908152602001600020600001610c7c90919063ffffffff16565b15610d55573373ffffffffffffffffffffffffffffffffffffffff168173ffffffffffffffffffffffffffffffffffffffff16837f2f8788117e7eff1d82e926ec794901d17c78024a50270940304540a733656f0d60405160405180910390a45b5050565b7ff7a450ef335e1892cb42c8ca72e7242359d7711924b75db5717410da3f614aa3610d848133610972565b610dc3576040517f08c379a0000000000000000000000000000000000000000000000000000000008152600401610dba90611c5c565b60405180910390fd5b811515600760008573ffffffffffffffffffffffffffffffffffffffff1673ffffffffffffffffffffffffffffffffffffffff16815260200190815260200160002060000160009054906101000a900460ff16151503610e58576040517f08c379a0000000000000000000000000000000000000000000000000000000008152600401610e4f90611f07565b60405180910390fd5b81600760008573ffffffffffffffffffffffffffffffffffffffff1673ffffffffffffffffffffffffffffffffffffffff16815260200190815260200160002060000160006101000a81548160ff0219169083151502179055508273ffffffffffffffffffffffffffffffffffffffff167ff01842a3dee2a004f3bebbc3d7713e55bba32a972ad853b42999cb12bb4741cb83604051610ef891906116e8565b60405180910390a2505050565b7ff7a450ef335e1892cb42c8ca72e7242359d7711924b75db5717410da3f614aa3610f308133610972565b610f6f576040517f08c379a0000000000000000000000000000000000000000000000000000000008152600401610f6690611c5c565b60405180910390fd5b600073ffffffffffffffffffffffffffffffffffffffff168473ffffffffffffffffffffffffffffffffffffffff1603610fde576040517f08c379a0000000000000000000000000000000000000000000000000000000008152600401610fd590611f73565b60405180910390fd5b604051806060016040528060011515815260200184815260200183815250600760008673ffffffffffffffffffffffffffffffffffffffff1673ffffffffffffffffffffffffffffffffffffffff16815260200190815260200160002060008201518160000160006101000a81548160ff021916908315150217905550602082015181600101908051906020019061107792919061148f565b506040820151816002019080519060200190611094929190611515565b509050508373ffffffffffffffffffffffffffffffffffffffff167ff9e02d3c0b6ffaeedc171c297f570ae5107283732067d95e2630942ea38b0360600185856040516110e3939291906117f1565b60405180910390a250505050565b611119816003600085815260200190815260200160002060000161132890919063ffffffff16565b1561117a573373ffffffffffffffffffffffffffffffffffffffff168173ffffffffffffffffffffffffffffffffffffffff16837ff6391f5c32d9c69d2a47ea670b442974b53935d1edc7fd64eb21e047a839171b60405160405180910390a45b5050565b60007f7613a25ecc738585a232ad50a301178f12b3ba8887d13e138b523c4269c47689905090565b60007fdc72ed553f2544c34465af23b847953efeb813428162d767f9ba5f4013be6760905090565b60006111f6836000018373ffffffffffffffffffffffffffffffffffffffff1660001b611358565b905092915050565b6000600660019054906101000a900460ff16905090565b60007fb19546dff01e856fb3f010c267a7b1c60363cf8a4664e21cc89c26224620214e905090565b6112478282610ccc565b5050565b600660019054906101000a900460ff161561129b576040517f08c379a000000000000000000000000000000000000000000000000000000000815260040161129290611fdf565b60405180910390fd5b6001600660016101000a81548160ff021916908315150217905550565b60006112c48383611358565b61131d578260000182908060018154018082558091505060019003906000526020600020016000909190919091505582600001805490508360010160008481526020019081526020016000208190555060019050611322565b600090505b92915050565b6000611350836000018373ffffffffffffffffffffffffffffffffffffffff1660001b61137b565b905092915050565b600080836001016000848152602001908152602001600020541415905092915050565b600080836001016000848152602001908152602001600020549050600081146114835760006001826113ad9190612038565b90506000600186600001805490506113c59190612038565b90508181146114345760008660000182815481106113e6576113e561206c565b5b906000526020600020015490508087600001848154811061140a5761140961206c565b5b90600052602060002001819055508387600101600083815260200190815260200160002081905550505b856000018054806114485761144761209b565b5b600190038181906000526020600020016000905590558560010160008681526020019081526020016000206000905560019350505050611489565b60009150505b92915050565b82805461149b90611cd4565b90600052602060002090601f0160209004810192826114bd5760008555611504565b82601f106114d657805160ff1916838001178555611504565b82800160010185558215611504579182015b828111156115035782518255916020019190600101906114e8565b5b509050611511919061159b565b5090565b82805461152190611cd4565b90600052602060002090601f016020900481019282611543576000855561158a565b82601f1061155c57805160ff191683800117855561158a565b8280016001018555821561158a579182015b8281111561158957825182559160200191906001019061156e565b5b509050611597919061159b565b5090565b5b808211156115b457600081600090555060010161159c565b5090565b6000604051905090565b600080fd5b600080fd5b6000819050919050565b6115df816115cc565b81146115ea57600080fd5b50565b6000813590506115fc816115d6565b92915050565b60008060408385031215611619576116186115c2565b5b6000611627858286016115ed565b9250506020611638858286016115ed565b9150509250929050565b600073ffffffffffffffffffffffffffffffffffffffff82169050919050565b600061166d82611642565b9050919050565b61167d81611662565b811461168857600080fd5b50565b60008135905061169a81611674565b92915050565b6000602082840312156116b6576116b56115c2565b5b60006116c48482850161168b565b91505092915050565b60008115159050919050565b6116e2816116cd565b82525050565b60006020820190506116fd60008301846116d9565b92915050565b600081519050919050565b600082825260208201905092915050565b60005b8381101561173d578082015181840152602081019050611722565b8381111561174c576000848401525b50505050565b6000601f19601f8301169050919050565b600061176e82611703565b611778818561170e565b935061178881856020860161171f565b61179181611752565b840191505092915050565b600081519050919050565b600082825260208201905092915050565b60006117c38261179c565b6117cd81856117a7565b93506117dd81856020860161171f565b6117e681611752565b840191505092915050565b600060608201905061180660008301866116d9565b81810360208301526118188185611763565b9050818103604083015261182c81846117b8565b9050949350505050565b6000806040838503121561184d5761184c6115c2565b5b600061185b858286016115ed565b925050602061186c8582860161168b565b9150509250929050565b61187f816116cd565b811461188a57600080fd5b50565b60008135905061189c81611876565b92915050565b600080604083850312156118b9576118b86115c2565b5b60006118c78582860161168b565b92505060206118d88582860161188d565b9150509250929050565b600080fd5b600080fd5b7f4e487b7100000000000000000000000000000000000000000000000000000000600052604160045260246000fd5b61192482611752565b810181811067ffffffffffffffff82111715611943576119426118ec565b5b80604052505050565b60006119566115b8565b9050611962828261191b565b919050565b600067ffffffffffffffff821115611982576119816118ec565b5b61198b82611752565b9050602081019050919050565b82818337600083830152505050565b60006119ba6119b584611967565b61194c565b9050828152602081018484840111156119d6576119d56118e7565b5b6119e1848285611998565b509392505050565b600082601f8301126119fe576119fd6118e2565b5b8135611a0e8482602086016119a7565b91505092915050565b600067ffffffffffffffff821115611a3257611a316118ec565b5b611a3b82611752565b9050602081019050919050565b6000611a5b611a5684611a17565b61194c565b905082815260208101848484011115611a7757611a766118e7565b5b611a82848285611998565b509392505050565b600082601f830112611a9f57611a9e6118e2565b5b8135611aaf848260208601611a48565b91505092915050565b600080600060608486031215611ad157611ad06115c2565b5b6000611adf8682870161168b565b935050602084013567ffffffffffffffff811115611b0057611aff6115c7565b5b611b0c868287016119e9565b925050604084013567ffffffffffffffff811115611b2d57611b2c6115c7565b5b611b3986828701611a8a565b9150509250925092565b611b4c816115cc565b82525050565b6000602082019050611b676000830184611b43565b92915050565b611b7681611662565b82525050565b6000602082019050611b916000830184611b6d565b92915050565b600080600060608486031215611bb057611baf6115c2565b5b6000611bbe8682870161168b565b9350506020611bcf8682870161168b565b9250506040611be08682870161168b565b9150509250925092565b7f416363657373436f6e74726f6c3a2073656e64657220646f6573206e6f74206860008201527f61766520726f6c65000000000000000000000000000000000000000000000000602082015250565b6000611c4660288361170e565b9150611c5182611bea565b604082019050919050565b60006020820190508181036000830152611c7581611c39565b9050919050565b6000604082019050611c916000830185611b43565b611c9e6020830184611b43565b9392505050565b7f4e487b7100000000000000000000000000000000000000000000000000000000600052602260045260246000fd5b60006002820490506001821680611cec57607f821691505b602082108103611cff57611cfe611ca5565b5b50919050565b7f416363657373436f6e74726f6c3a2063616e206f6e6c792072656e6f756e636560008201527f20726f6c657320666f722073656c660000000000000000000000000000000000602082015250565b6000611d61602f8361170e565b9150611d6c82611d05565b604082019050919050565b60006020820190508181036000830152611d9081611d54565b9050919050565b7f496e697469616c697a61626c653a20636f6e747261637420697320616c72656160008201527f647920696e697469616c697a6564000000000000000000000000000000000000602082015250565b6000611df3602e8361170e565b9150611dfe82611d97565b604082019050919050565b60006020820190508181036000830152611e2281611de6565b9050919050565b7f416476616e636564416363657373436f6e74726f6c3a20616c7265616479206960008201527f6e697469616c697a656400000000000000000000000000000000000000000000602082015250565b6000611e85602a8361170e565b9150611e9082611e29565b604082019050919050565b60006020820190508181036000830152611eb481611e78565b9050919050565b7f4974656d20616c726561647920696e2074686973207374617465000000000000600082015250565b6000611ef1601a8361170e565b9150611efc82611ebb565b602082019050919050565b60006020820190508181036000830152611f2081611ee4565b9050919050565b7f496e76616c6964206974656d2061646472657373000000000000000000000000600082015250565b6000611f5d60148361170e565b9150611f6882611f27565b602082019050919050565b60006020820190508181036000830152611f8c81611f50565b9050919050565b7f436f6e747261637420616c726561647920696e697469616c697a656400000000600082015250565b6000611fc9601c8361170e565b9150611fd482611f93565b602082019050919050565b60006020820190508181036000830152611ff881611fbc565b9050919050565b6000819050919050565b7f4e487b7100000000000000000000000000000000000000000000000000000000600052601160045260246000fd5b600061204382611fff565b915061204e83611fff565b92508282101561206157612060612009565b5b828203905092915050565b7f4e487b7100000000000000000000000000000000000000000000000000000000600052603260045260246000fd5b7f4e487b7100000000000000000000000000000000000000000000000000000000600052603160045260246000fdfea2646970667358221220dc86563f278e84152705e5805d3029a134a8ca691bb7901094b0b39ca26b71d164736f6c634300080d0033",
  "immutableReferences": {},
  "source": "// SPDX-License-Identifier: MIT\npragma solidity ^0.8.0;\n\nimport \"../Accessblity/BaseAccessControl.sol\";\n\ncontract BaseRegistry is BaseAccessControl {\n    struct RegistryItem {\n        bool isActive;\n        string description; // Additional dynamic data can be added here\n        bytes encodedData; // Encoded data for flexible storage\n    }\n\n    // Mapping of item addresses to their details\n    mapping(address => RegistryItem) public registryItems;\n\n    // Event for item registration and status changes\n    event ItemRegistered(\n        address indexed item,\n        bool isActive,\n        string description,\n        bytes encodedData\n    );\n    event ItemStatusChanged(address indexed item, bool isActive);\n\n    // Define roles for registry management\n    bytes32 public constant REGISTRY_MANAGER_ROLE =\n        keccak256(\"REGISTRY_MANAGER_ROLE\");\n\n    // Address of the BaseRegisterable contract\n    address public baseRegisterableAddress;\n\n    // Constructor to initialize the management contract\n    constructor(address _baseRegisterableAddress) {\n        baseRegisterableAddress = _baseRegisterableAddress;\n        _initialize();\n    }\n\n    // Internal function to register a new item with additional encoded data\n    function _registerItem(\n        address item,\n        string memory description,\n        bytes memory data\n    ) internal onlyRole(REGISTRY_MANAGER_ROLE) {\n        require(item != address(0), \"Invalid item address\");\n        registryItems[item] = RegistryItem({\n            isActive: true,\n            description: description,\n            encodedData: data\n        });\n        emit ItemRegistered(item, true, description, data);\n    }\n\n    // Internal function to set the activation status of an item\n    function _setItemStatus(\n        address item,\n        bool isActive\n    ) internal onlyRole(REGISTRY_MANAGER_ROLE) {\n        require(\n            registryItems[item].isActive != isActive,\n            \"Item already in this state\"\n        );\n        registryItems[item].isActive = isActive;\n        emit ItemStatusChanged(item, isActive);\n    }\n\n    // Public wrapper for registering a new item, accessible only by authorized roles\n    function registerItem(\n        address item,\n        string memory description,\n        bytes memory data\n    ) public onlyRole(REGISTRY_MANAGER_ROLE) {\n        _registerItem(item, description, data);\n    }\n\n    // Public wrapper for updating the status of an item, accessible only by authorized roles\n    function setItemStatus(\n        address item,\n        bool isActive\n    ) public onlyRole(REGISTRY_MANAGER_ROLE) {\n        _setItemStatus(item, isActive);\n    }\n}\n",
  "sourcePath": "/Users/yemo/yemowithprivate/projects/yemowith/contracts/core/objective/Registerable/BaseRegistry.sol",
  "compiler": {
    "name": "solc",
    "version": "0.8.13+commit.abaa5c0e.Emscripten.clang"
  },
  "schemaVersion": "3.4.16",
  "updatedAt": "2024-06-10T11:54:44.478Z",
  "devdoc": {
    "kind": "dev",
    "methods": {},
    "version": 1
  },
  "userdoc": {
    "kind": "user",
    "methods": {},
    "version": 1
  }
}