{
  "contractName": "BaseDeployer",
  "abi": [
    {
      "anonymous": false,
      "inputs": [
        {
          "indexed": true,
          "internalType": "address",
          "name": "deployer",
          "type": "address"
        },
        {
          "indexed": true,
          "internalType": "address",
          "name": "contractAddress",
          "type": "address"
        }
      ],
      "name": "ContractDeployed",
      "type": "event"
    },
    {
      "inputs": [
        {
          "internalType": "bytes",
          "name": "_bytecode",
          "type": "bytes"
        },
        {
          "internalType": "bytes32",
          "name": "_salt",
          "type": "bytes32"
        }
      ],
      "name": "deploy",
      "outputs": [
        {
          "internalType": "address",
          "name": "",
          "type": "address"
        }
      ],
      "stateMutability": "view",
      "type": "function"
    },
    {
      "inputs": [
        {
          "internalType": "bytes",
          "name": "_bytecode",
          "type": "bytes"
        },
        {
          "internalType": "bytes32",
          "name": "_salt",
          "type": "bytes32"
        }
      ],
      "name": "_computeAddress",
      "outputs": [
        {
          "internalType": "address",
          "name": "",
          "type": "address"
        }
      ],
      "stateMutability": "view",
      "type": "function"
    },
    {
      "inputs": [
        {
          "internalType": "bytes",
          "name": "_bytecode",
          "type": "bytes"
        },
        {
          "internalType": "bytes32",
          "name": "_salt",
          "type": "bytes32"
        }
      ],
      "name": "initiateDeployment",
      "outputs": [
        {
          "internalType": "address",
          "name": "",
          "type": "address"
        }
      ],
      "stateMutability": "nonpayable",
      "type": "function"
    }
  ],
  "bytecode": "0x608060405234801561000f575f80fd5b506106a88061001d5f395ff3fe608060405234801561000f575f80fd5b506004361061003f575f3560e01c8063204f09eb146100435780634af63f02146100735780637e711c06146100a3575b5f80fd5b61005d600480360381019061005891906103e3565b6100d3565b60405161006a919061047c565b60405180910390f35b61008d600480360381019061008891906103e3565b61011b565b60405161009a919061047c565b60405180910390f35b6100bd60048036038101906100b891906103e3565b61012e565b6040516100ca919061047c565b60405180910390f35b5f8060ff60f81b308486805190602001206040516020016100f79493929190610545565b604051602081830303815290604052805190602001209050805f1c91505092915050565b5f61012683836100d3565b905092915050565b5f6101398383610141565b905092915050565b5f805f845103610186576040517f08c379a000000000000000000000000000000000000000000000000000000000815260040161017d906105ec565b60405180910390fd5b828451602086015ff590505f73ffffffffffffffffffffffffffffffffffffffff168173ffffffffffffffffffffffffffffffffffffffff16036101ff576040517f08c379a00000000000000000000000000000000000000000000000000000000081526004016101f690610654565b60405180910390fd5b8073ffffffffffffffffffffffffffffffffffffffff163373ffffffffffffffffffffffffffffffffffffffff167f33c981baba081f8fd2c52ac6ad1ea95b6814b4376640f55689051f658472968860405160405180910390a38091505092915050565b5f604051905090565b5f80fd5b5f80fd5b5f80fd5b5f80fd5b5f601f19601f8301169050919050565b7f4e487b71000000000000000000000000000000000000000000000000000000005f52604160045260245ffd5b6102c28261027c565b810181811067ffffffffffffffff821117156102e1576102e061028c565b5b80604052505050565b5f6102f3610263565b90506102ff82826102b9565b919050565b5f67ffffffffffffffff82111561031e5761031d61028c565b5b6103278261027c565b9050602081019050919050565b828183375f83830152505050565b5f61035461034f84610304565b6102ea565b9050828152602081018484840111156103705761036f610278565b5b61037b848285610334565b509392505050565b5f82601f83011261039757610396610274565b5b81356103a7848260208601610342565b91505092915050565b5f819050919050565b6103c2816103b0565b81146103cc575f80fd5b50565b5f813590506103dd816103b9565b92915050565b5f80604083850312156103f9576103f861026c565b5b5f83013567ffffffffffffffff81111561041657610415610270565b5b61042285828601610383565b9250506020610433858286016103cf565b9150509250929050565b5f73ffffffffffffffffffffffffffffffffffffffff82169050919050565b5f6104668261043d565b9050919050565b6104768161045c565b82525050565b5f60208201905061048f5f83018461046d565b92915050565b5f7fff0000000000000000000000000000000000000000000000000000000000000082169050919050565b5f819050919050565b6104da6104d582610495565b6104c0565b82525050565b5f8160601b9050919050565b5f6104f6826104e0565b9050919050565b5f610507826104ec565b9050919050565b61051f61051a8261045c565b6104fd565b82525050565b5f819050919050565b61053f61053a826103b0565b610525565b82525050565b5f61055082876104c9565b600182019150610560828661050e565b601482019150610570828561052e565b602082019150610580828461052e565b60208201915081905095945050505050565b5f82825260208201905092915050565b7f42797465636f6465206c656e677468206973207a65726f0000000000000000005f82015250565b5f6105d6601783610592565b91506105e1826105a2565b602082019050919050565b5f6020820190508181035f830152610603816105ca565b9050919050565b7f4661696c656420746f206465706c6f7920636f6e7472616374000000000000005f82015250565b5f61063e601983610592565b91506106498261060a565b602082019050919050565b5f6020820190508181035f83015261066b81610632565b905091905056fea2646970667358221220a7aa62b6712b47e7d3298500e3f6c5d283753636b03f7d12b415122c5937dfef64736f6c63430008150033",
  "immutableReferences": {},
  "source": "// SPDX-License-Identifier: MIT\npragma solidity ^0.8.0;\n\n/**\n * @title Deployer\n * @dev This contract uses CREATE2 for deploying contracts, allowing for predictable address computation.\n * It provides detailed events for tracking deployments.\n */\ncontract BaseDeployer {\n    // Event that is emitted after a contract is successfully deployed using CREATE2.\n    event ContractDeployed(\n        address indexed deployer,\n        address indexed contractAddress\n    );\n\n    /**\n     * @dev Computes the address for a contract to be deployed via CREATE2, without actually deploying it.\n     * @param _bytecode The bytecode of the contract to be deployed.\n     * @param _salt A bytes32 salt value used to compute the address.\n     * @return computedAddress The precomputed address of the contract if deployed with the provided bytecode and salt.\n     */\n    function deploy(\n        bytes memory _bytecode,\n        bytes32 _salt\n    ) public view returns (address) {\n        return _computeAddress(_bytecode, _salt);\n    }\n\n    /**\n     * @dev Computes the address for a contract to be deployed via CREATE2.\n     * @param _bytecode The bytecode of the contract to be deployed.\n     * @param _salt A bytes32 salt value used to compute the address.\n     * @return computedAddress The precomputed address of the contract if deployed with the provided bytecode and salt.\n     */\n    function _computeAddress(\n        bytes memory _bytecode,\n        bytes32 _salt\n    ) public view returns (address) {\n        bytes32 hash = keccak256(\n            abi.encodePacked(\n                bytes1(0xff),\n                address(this),\n                _salt,\n                keccak256(_bytecode)\n            )\n        );\n\n        return address(uint160(uint256(hash)));\n    }\n\n    /**\n     * @dev Private function that actually deploys a contract using CREATE2.\n     * @param _bytecode The bytecode of the contract to be deployed.\n     * @param _salt A bytes32 salt value used to create a deterministic address.\n     * @return contractAddress The address of the deployed contract.\n     */\n    function _deploy(\n        bytes memory _bytecode,\n        bytes32 _salt\n    ) private returns (address) {\n        address contractAddress;\n\n        // Ensures that the bytecode is not empty\n        require(_bytecode.length != 0, \"Bytecode length is zero\");\n\n        // Inline assembly is used to access the CREATE2 opcode directly.\n        assembly {\n            contractAddress := create2(\n                0,\n                add(_bytecode, 0x20),\n                mload(_bytecode),\n                _salt\n            )\n        }\n\n        // Ensure that the contract was successfully deployed.\n        require(contractAddress != address(0), \"Failed to deploy contract\");\n\n        // Emitting an event with the deployer address, contract address, and the salt used.\n        emit ContractDeployed(msg.sender, contractAddress);\n\n        return contractAddress;\n    }\n\n    /**\n     * @dev Public function to initiate the deployment of a contract.\n     * @param _bytecode The bytecode of the contract to be deployed.\n     * @param _salt A bytes32 salt value used to create a deterministic address.\n     * @return contractAddress The address of the deployed contract.\n     */\n    function initiateDeployment(\n        bytes memory _bytecode,\n        bytes32 _salt\n    ) public returns (address) {\n        return _deploy(_bytecode, _salt);\n    }\n}\n",
  "sourcePath": "/Users/yemo/yemowithprivate/projects/yemowith/contracts/core/libraries/Deployer/BaseDeployer.sol",
  "compiler": {
    "name": "solc",
    "version": "0.8.21+commit.d9974bed.Emscripten.clang"
  },
  "schemaVersion": "3.4.16",
  "updatedAt": "2024-06-04T07:07:04.047Z",
  "devdoc": {
    "details": "This contract uses CREATE2 for deploying contracts, allowing for predictable address computation. It provides detailed events for tracking deployments.",
    "kind": "dev",
    "methods": {
      "_computeAddress(bytes,bytes32)": {
        "details": "Computes the address for a contract to be deployed via CREATE2.",
        "params": {
          "_bytecode": "The bytecode of the contract to be deployed.",
          "_salt": "A bytes32 salt value used to compute the address."
        },
        "returns": {
          "_0": "computedAddress The precomputed address of the contract if deployed with the provided bytecode and salt."
        }
      },
      "deploy(bytes,bytes32)": {
        "details": "Computes the address for a contract to be deployed via CREATE2, without actually deploying it.",
        "params": {
          "_bytecode": "The bytecode of the contract to be deployed.",
          "_salt": "A bytes32 salt value used to compute the address."
        },
        "returns": {
          "_0": "computedAddress The precomputed address of the contract if deployed with the provided bytecode and salt."
        }
      },
      "initiateDeployment(bytes,bytes32)": {
        "details": "Public function to initiate the deployment of a contract.",
        "params": {
          "_bytecode": "The bytecode of the contract to be deployed.",
          "_salt": "A bytes32 salt value used to create a deterministic address."
        },
        "returns": {
          "_0": "contractAddress The address of the deployed contract."
        }
      }
    },
    "title": "Deployer",
    "version": 1
  },
  "userdoc": {
    "kind": "user",
    "methods": {},
    "version": 1
  }
}