{
  "contractName": "BaseFactory",
  "abi": [
    {
      "anonymous": false,
      "inputs": [
        {
          "indexed": true,
          "internalType": "address",
          "name": "admin",
          "type": "address"
        }
      ],
      "name": "AdminAdded",
      "type": "event"
    },
    {
      "anonymous": false,
      "inputs": [
        {
          "indexed": true,
          "internalType": "address",
          "name": "admin",
          "type": "address"
        }
      ],
      "name": "AdminRemoved",
      "type": "event"
    },
    {
      "anonymous": false,
      "inputs": [
        {
          "indexed": true,
          "internalType": "address",
          "name": "deployer",
          "type": "address"
        },
        {
          "indexed": true,
          "internalType": "address",
          "name": "contractAddress",
          "type": "address"
        }
      ],
      "name": "ContractDeployed",
      "type": "event"
    },
    {
      "anonymous": false,
      "inputs": [
        {
          "indexed": false,
          "internalType": "uint256",
          "name": "untilBlock",
          "type": "uint256"
        }
      ],
      "name": "Locked",
      "type": "event"
    },
    {
      "anonymous": false,
      "inputs": [],
      "name": "Paused",
      "type": "event"
    },
    {
      "anonymous": false,
      "inputs": [
        {
          "indexed": true,
          "internalType": "bytes32",
          "name": "role",
          "type": "bytes32"
        },
        {
          "indexed": false,
          "internalType": "bytes32",
          "name": "previousAdminRole",
          "type": "bytes32"
        },
        {
          "indexed": false,
          "internalType": "bytes32",
          "name": "newAdminRole",
          "type": "bytes32"
        }
      ],
      "name": "RoleAdminChanged",
      "type": "event"
    },
    {
      "anonymous": false,
      "inputs": [
        {
          "indexed": true,
          "internalType": "bytes32",
          "name": "role",
          "type": "bytes32"
        },
        {
          "indexed": true,
          "internalType": "address",
          "name": "account",
          "type": "address"
        },
        {
          "indexed": true,
          "internalType": "address",
          "name": "sender",
          "type": "address"
        }
      ],
      "name": "RoleGranted",
      "type": "event"
    },
    {
      "anonymous": false,
      "inputs": [
        {
          "indexed": true,
          "internalType": "bytes32",
          "name": "role",
          "type": "bytes32"
        },
        {
          "indexed": true,
          "internalType": "address",
          "name": "account",
          "type": "address"
        },
        {
          "indexed": true,
          "internalType": "address",
          "name": "sender",
          "type": "address"
        }
      ],
      "name": "RoleRevoked",
      "type": "event"
    },
    {
      "anonymous": false,
      "inputs": [
        {
          "indexed": true,
          "internalType": "address",
          "name": "previousSuperAdmin",
          "type": "address"
        },
        {
          "indexed": true,
          "internalType": "address",
          "name": "newSuperAdmin",
          "type": "address"
        }
      ],
      "name": "SuperAdminChanged",
      "type": "event"
    },
    {
      "anonymous": false,
      "inputs": [],
      "name": "Unlocked",
      "type": "event"
    },
    {
      "anonymous": false,
      "inputs": [],
      "name": "Unpaused",
      "type": "event"
    },
    {
      "inputs": [],
      "name": "ADMIN_ROLE",
      "outputs": [
        {
          "internalType": "bytes32",
          "name": "",
          "type": "bytes32"
        }
      ],
      "stateMutability": "view",
      "type": "function"
    },
    {
      "inputs": [],
      "name": "DEFAULT_ADMIN_ROLE",
      "outputs": [
        {
          "internalType": "bytes32",
          "name": "",
          "type": "bytes32"
        }
      ],
      "stateMutability": "view",
      "type": "function"
    },
    {
      "inputs": [],
      "name": "EXECUTOR_ROLE",
      "outputs": [
        {
          "internalType": "bytes32",
          "name": "",
          "type": "bytes32"
        }
      ],
      "stateMutability": "view",
      "type": "function"
    },
    {
      "inputs": [],
      "name": "MULTI_EXECUTOR_ROLE",
      "outputs": [
        {
          "internalType": "bytes32",
          "name": "",
          "type": "bytes32"
        }
      ],
      "stateMutability": "view",
      "type": "function"
    },
    {
      "inputs": [],
      "name": "OWNER_ROLE",
      "outputs": [
        {
          "internalType": "bytes32",
          "name": "",
          "type": "bytes32"
        }
      ],
      "stateMutability": "view",
      "type": "function"
    },
    {
      "inputs": [],
      "name": "STATIC_CALLER_ROLE",
      "outputs": [
        {
          "internalType": "bytes32",
          "name": "",
          "type": "bytes32"
        }
      ],
      "stateMutability": "view",
      "type": "function"
    },
    {
      "inputs": [],
      "name": "SUPER_ADMIN_ROLE",
      "outputs": [
        {
          "internalType": "bytes32",
          "name": "",
          "type": "bytes32"
        }
      ],
      "stateMutability": "view",
      "type": "function"
    },
    {
      "inputs": [],
      "name": "WHITELIST_ROLE",
      "outputs": [
        {
          "internalType": "bytes32",
          "name": "",
          "type": "bytes32"
        }
      ],
      "stateMutability": "view",
      "type": "function"
    },
    {
      "inputs": [
        {
          "internalType": "bytes",
          "name": "_bytecode",
          "type": "bytes"
        },
        {
          "internalType": "bytes32",
          "name": "_salt",
          "type": "bytes32"
        }
      ],
      "name": "_computeAddress",
      "outputs": [
        {
          "internalType": "address",
          "name": "",
          "type": "address"
        }
      ],
      "stateMutability": "view",
      "type": "function"
    },
    {
      "inputs": [
        {
          "internalType": "address",
          "name": "account",
          "type": "address"
        }
      ],
      "name": "addWhitelist",
      "outputs": [],
      "stateMutability": "nonpayable",
      "type": "function"
    },
    {
      "inputs": [
        {
          "internalType": "address",
          "name": "target",
          "type": "address"
        },
        {
          "internalType": "bytes",
          "name": "data",
          "type": "bytes"
        }
      ],
      "name": "call",
      "outputs": [
        {
          "internalType": "bytes",
          "name": "",
          "type": "bytes"
        }
      ],
      "stateMutability": "nonpayable",
      "type": "function"
    },
    {
      "inputs": [
        {
          "internalType": "address",
          "name": "target",
          "type": "address"
        },
        {
          "internalType": "bytes",
          "name": "data",
          "type": "bytes"
        }
      ],
      "name": "callStatic",
      "outputs": [
        {
          "internalType": "bytes",
          "name": "",
          "type": "bytes"
        }
      ],
      "stateMutability": "view",
      "type": "function"
    },
    {
      "inputs": [
        {
          "internalType": "bytes",
          "name": "bytecode",
          "type": "bytes"
        },
        {
          "internalType": "bytes32",
          "name": "salt",
          "type": "bytes32"
        }
      ],
      "name": "computeContractAddress",
      "outputs": [
        {
          "internalType": "address",
          "name": "",
          "type": "address"
        }
      ],
      "stateMutability": "view",
      "type": "function"
    },
    {
      "inputs": [
        {
          "internalType": "bytes",
          "name": "encodedData",
          "type": "bytes"
        },
        {
          "internalType": "bytes32",
          "name": "additionalParam",
          "type": "bytes32"
        }
      ],
      "name": "decodeData",
      "outputs": [
        {
          "internalType": "bytes",
          "name": "",
          "type": "bytes"
        }
      ],
      "stateMutability": "view",
      "type": "function"
    },
    {
      "inputs": [
        {
          "internalType": "bytes",
          "name": "_bytecode",
          "type": "bytes"
        },
        {
          "internalType": "bytes32",
          "name": "_salt",
          "type": "bytes32"
        }
      ],
      "name": "deploy",
      "outputs": [
        {
          "internalType": "address",
          "name": "",
          "type": "address"
        }
      ],
      "stateMutability": "view",
      "type": "function"
    },
    {
      "inputs": [
        {
          "internalType": "bytes",
          "name": "bytecode",
          "type": "bytes"
        },
        {
          "internalType": "bytes32",
          "name": "salt",
          "type": "bytes32"
        }
      ],
      "name": "deployContract",
      "outputs": [
        {
          "internalType": "address",
          "name": "",
          "type": "address"
        }
      ],
      "stateMutability": "nonpayable",
      "type": "function"
    },
    {
      "inputs": [
        {
          "internalType": "bytes",
          "name": "data",
          "type": "bytes"
        },
        {
          "internalType": "bytes32",
          "name": "additionalParam",
          "type": "bytes32"
        }
      ],
      "name": "encodeData",
      "outputs": [
        {
          "internalType": "bytes",
          "name": "",
          "type": "bytes"
        }
      ],
      "stateMutability": "view",
      "type": "function"
    },
    {
      "inputs": [
        {
          "internalType": "address",
          "name": "target",
          "type": "address"
        },
        {
          "internalType": "bytes",
          "name": "data",
          "type": "bytes"
        }
      ],
      "name": "execute",
      "outputs": [
        {
          "internalType": "bytes",
          "name": "",
          "type": "bytes"
        }
      ],
      "stateMutability": "nonpayable",
      "type": "function"
    },
    {
      "inputs": [
        {
          "internalType": "address",
          "name": "target",
          "type": "address"
        },
        {
          "internalType": "string",
          "name": "signature",
          "type": "string"
        },
        {
          "internalType": "bytes",
          "name": "params",
          "type": "bytes"
        }
      ],
      "name": "getEncodedData",
      "outputs": [
        {
          "internalType": "address",
          "name": "",
          "type": "address"
        },
        {
          "internalType": "bytes",
          "name": "",
          "type": "bytes"
        }
      ],
      "stateMutability": "pure",
      "type": "function"
    },
    {
      "inputs": [
        {
          "internalType": "string",
          "name": "signature",
          "type": "string"
        },
        {
          "internalType": "bytes",
          "name": "params",
          "type": "bytes"
        }
      ],
      "name": "getEncodedData",
      "outputs": [
        {
          "internalType": "bytes",
          "name": "",
          "type": "bytes"
        }
      ],
      "stateMutability": "pure",
      "type": "function"
    },
    {
      "inputs": [],
      "name": "getOwner",
      "outputs": [
        {
          "internalType": "address",
          "name": "",
          "type": "address"
        }
      ],
      "stateMutability": "view",
      "type": "function"
    },
    {
      "inputs": [],
      "name": "getSuperAdmin",
      "outputs": [
        {
          "internalType": "address",
          "name": "",
          "type": "address"
        }
      ],
      "stateMutability": "view",
      "type": "function"
    },
    {
      "inputs": [
        {
          "internalType": "bytes32",
          "name": "role",
          "type": "bytes32"
        },
        {
          "internalType": "address",
          "name": "account",
          "type": "address"
        }
      ],
      "name": "grantRole",
      "outputs": [],
      "stateMutability": "nonpayable",
      "type": "function"
    },
    {
      "inputs": [
        {
          "internalType": "bytes32",
          "name": "role",
          "type": "bytes32"
        },
        {
          "internalType": "address",
          "name": "account",
          "type": "address"
        }
      ],
      "name": "hasRole",
      "outputs": [
        {
          "internalType": "bool",
          "name": "",
          "type": "bool"
        }
      ],
      "stateMutability": "view",
      "type": "function"
    },
    {
      "inputs": [
        {
          "internalType": "address",
          "name": "owner",
          "type": "address"
        },
        {
          "internalType": "address",
          "name": "superAdmin",
          "type": "address"
        }
      ],
      "name": "initialize",
      "outputs": [],
      "stateMutability": "nonpayable",
      "type": "function"
    },
    {
      "inputs": [
        {
          "internalType": "bytes",
          "name": "_bytecode",
          "type": "bytes"
        },
        {
          "internalType": "bytes32",
          "name": "_salt",
          "type": "bytes32"
        }
      ],
      "name": "initiateDeployment",
      "outputs": [
        {
          "internalType": "address",
          "name": "",
          "type": "address"
        }
      ],
      "stateMutability": "nonpayable",
      "type": "function"
    },
    {
      "inputs": [
        {
          "internalType": "address",
          "name": "user",
          "type": "address"
        }
      ],
      "name": "isAdmin",
      "outputs": [
        {
          "internalType": "bool",
          "name": "",
          "type": "bool"
        }
      ],
      "stateMutability": "view",
      "type": "function"
    },
    {
      "inputs": [],
      "name": "isLocked",
      "outputs": [
        {
          "internalType": "bool",
          "name": "",
          "type": "bool"
        }
      ],
      "stateMutability": "view",
      "type": "function"
    },
    {
      "inputs": [],
      "name": "isPaused",
      "outputs": [
        {
          "internalType": "bool",
          "name": "",
          "type": "bool"
        }
      ],
      "stateMutability": "view",
      "type": "function"
    },
    {
      "inputs": [
        {
          "internalType": "address[]",
          "name": "targets",
          "type": "address[]"
        },
        {
          "internalType": "bytes[]",
          "name": "data",
          "type": "bytes[]"
        }
      ],
      "name": "multiExecute",
      "outputs": [
        {
          "internalType": "bytes[]",
          "name": "",
          "type": "bytes[]"
        }
      ],
      "stateMutability": "nonpayable",
      "type": "function"
    },
    {
      "inputs": [
        {
          "internalType": "address",
          "name": "account",
          "type": "address"
        }
      ],
      "name": "removeWhitelist",
      "outputs": [],
      "stateMutability": "nonpayable",
      "type": "function"
    },
    {
      "inputs": [
        {
          "internalType": "bytes32",
          "name": "role",
          "type": "bytes32"
        },
        {
          "internalType": "address",
          "name": "account",
          "type": "address"
        }
      ],
      "name": "renounceRole",
      "outputs": [],
      "stateMutability": "nonpayable",
      "type": "function"
    },
    {
      "inputs": [
        {
          "internalType": "bytes32",
          "name": "role",
          "type": "bytes32"
        },
        {
          "internalType": "address",
          "name": "account",
          "type": "address"
        }
      ],
      "name": "revokeRole",
      "outputs": [],
      "stateMutability": "nonpayable",
      "type": "function"
    },
    {
      "inputs": [
        {
          "internalType": "bytes32",
          "name": "role",
          "type": "bytes32"
        },
        {
          "internalType": "bytes32",
          "name": "newAdminRole",
          "type": "bytes32"
        }
      ],
      "name": "setRoleAdmin",
      "outputs": [],
      "stateMutability": "nonpayable",
      "type": "function"
    },
    {
      "inputs": [
        {
          "internalType": "bytes",
          "name": "encodedData",
          "type": "bytes"
        },
        {
          "internalType": "bytes",
          "name": "originalData",
          "type": "bytes"
        },
        {
          "internalType": "bytes32",
          "name": "additionalParam",
          "type": "bytes32"
        }
      ],
      "name": "validateEncodedData",
      "outputs": [
        {
          "internalType": "bool",
          "name": "",
          "type": "bool"
        }
      ],
      "stateMutability": "view",
      "type": "function"
    }
  ],
  "bytecode": "0x608060405234801562000010575f80fd5b50333381818160015f6101000a81548173ffffffffffffffffffffffffffffffffffffffff021916908373ffffffffffffffffffffffffffffffffffffffff1602179055508060025f6101000a81548173ffffffffffffffffffffffffffffffffffffffff021916908373ffffffffffffffffffffffffffffffffffffffff160217905550600160035f8473ffffffffffffffffffffffffffffffffffffffff1673ffffffffffffffffffffffffffffffffffffffff1681526020019081526020015f205f6101000a81548160ff0219169083151502179055505050620001005f801b836200016c60201b60201c565b620001327fb19546dff01e856fb3f010c267a7b1c60363cf8a4664e21cc89c26224620214e836200016c60201b60201c565b620001647f7613a25ecc738585a232ad50a301178f12b3ba8887d13e138b523c4269c47689826200016c60201b60201c565b5050620002d5565b6200017e82826200018260201b60201c565b5050565b620001a98160045f8581526020019081526020015f205f016200020f60201b90919060201c565b156200020b573373ffffffffffffffffffffffffffffffffffffffff168173ffffffffffffffffffffffffffffffffffffffff16837f2f8788117e7eff1d82e926ec794901d17c78024a50270940304540a733656f0d60405160405180910390a45b5050565b5f6200023c835f018373ffffffffffffffffffffffffffffffffffffffff165f1b6200024460201b60201c565b905092915050565b5f620002578383620002b560201b60201c565b620002ab57825f0182908060018154018082558091505060019003905f5260205f20015f9091909190915055825f0180549050836001015f8481526020019081526020015f208190555060019050620002af565b5f90505b92915050565b5f80836001015f8481526020019081526020015f20541415905092915050565b61310580620002e35f395ff3fe608060405234801561000f575f80fd5b506004361061020f575f3560e01c806375b238fc11610123578063a217fddf116100ab578063da73b13f1161007a578063da73b13f14610688578063e06d4934146106a6578063e58378bb146106d6578063eed7ede2146106f4578063f80f5dd5146107245761020f565b8063a217fddf14610612578063a4e2d63414610630578063b187bd261461064e578063d547741f1461066c5761020f565b80637eaeabff116100f25780637eaeabff146105465780638204c32614610576578063893d20e81461059457806391d14854146105b25780639ef9dfff146105e25761020f565b806375b238fc146104be57806378c8cda7146104dc5780637a997ab7146104f85780637e711c06146105165761020f565b80632bd7910b116101a657806344eb64631161017557806344eb6463146103e1578063485cc955146104115780634a3aad111461042d5780634af63f021461045e57806362ca29ed1461048e5761020f565b80632bd7910b1461035b5780632f2ff15d1461038b57806336568abe146103a75780634460bdd6146103c35761020f565b80631cff79cd116101e25780631cff79cd146102af5780631e4e0091146102df578063204f09eb146102fb57806324d7806c1461032b5761020f565b806307bd0265146102135780630d2efdbb146102315780631a8090bb1461024f5780631b8b921d1461027f575b5f80fd5b61021b610740565b6040516102289190611cc4565b60405180910390f35b610239610764565b6040516102469190611cc4565b60405180910390f35b61026960048036038101906102649190612026565b610788565b60405161027691906121d1565b60405180910390f35b610299600480360381019061029491906121f1565b610910565b6040516102a69190612293565b60405180910390f35b6102c960048036038101906102c491906121f1565b610a32565b6040516102d69190612293565b60405180910390f35b6102f960048036038101906102f491906122dd565b610ab1565b005b6103156004803603810190610310919061231b565b610b62565b6040516103229190612384565b60405180910390f35b6103456004803603810190610340919061239d565b610baa565b60405161035291906123e2565b60405180910390f35b6103756004803603810190610370919061231b565b610bfc565b6040516103829190612384565b60405180910390f35b6103a560048036038101906103a091906123fb565b610c0f565b005b6103c160048036038101906103bc91906123fb565b610c70565b005b6103cb610cec565b6040516103d89190611cc4565b60405180910390f35b6103fb60048036038101906103f691906121f1565b610d10565b6040516104089190612293565b60405180910390f35b61042b60048036038101906104269190612439565b610e31565b005b61044760048036038101906104429190612515565b610f8d565b60405161045592919061259d565b60405180910390f35b6104786004803603810190610473919061231b565b611021565b6040516104859190612384565b60405180910390f35b6104a860048036038101906104a3919061231b565b611034565b6040516104b59190612384565b60405180910390f35b6104c6611047565b6040516104d39190611cc4565b60405180910390f35b6104f660048036038101906104f1919061239d565b61106b565b005b6105006110d1565b60405161050d9190611cc4565b60405180910390f35b610530600480360381019061052b919061231b565b6110f5565b60405161053d9190612384565b60405180910390f35b610560600480360381019061055b91906125cb565b611108565b60405161056d9190612293565b60405180910390f35b61057e611196565b60405161058b9190612384565b60405180910390f35b61059c6111be565b6040516105a99190612384565b60405180910390f35b6105cc60048036038101906105c791906123fb565b6111e6565b6040516105d991906123e2565b60405180910390f35b6105fc60048036038101906105f79190612641565b611214565b60405161060991906123e2565b60405180910390f35b61061a611229565b6040516106279190611cc4565b60405180910390f35b61063861122f565b60405161064591906123e2565b60405180910390f35b610656611252565b60405161066391906123e2565b60405180910390f35b610686600480360381019061068191906123fb565b611267565b005b6106906112c8565b60405161069d9190611cc4565b60405180910390f35b6106c060048036038101906106bb919061231b565b6112ec565b6040516106cd9190612293565b60405180910390f35b6106de611300565b6040516106eb9190611cc4565b60405180910390f35b61070e6004803603810190610709919061231b565b611324565b60405161071b9190612293565b60405180910390f35b61073e6004803603810190610739919061239d565b611338565b005b7fd8aa0f3194971a2a116679f7c2090f6939c8d4e01a2a8d7e41d55e5351469e6381565b7f24f6679db5ad89e1735cc3ff300ee2cf5477ec5cf71573e015430144c84b7ca781565b60607f16d22fb0a3dea8ff8be795756b9481592d33d5cad2ba7d6d931b8de4c03e25926107b581336111e6565b6107f4576040517f08c379a00000000000000000000000000000000000000000000000000000000081526004016107eb90612749565b60405180910390fd5b8251845114610838576040517f08c379a000000000000000000000000000000000000000000000000000000000815260040161082f906127b1565b60405180910390fd5b5f845167ffffffffffffffff81111561085457610853611d02565b5b60405190808252806020026020018201604052801561088757816020015b60608152602001906001900390816108725790505b5090505f5b8551811015610904576108d38682815181106108ab576108aa6127cf565b5b60200260200101518683815181106108c6576108c56127cf565b5b602002602001015161139e565b8282815181106108e6576108e56127cf565b5b602002602001018190525080806108fc90612832565b91505061088c565b50809250505092915050565b60607fd8aa0f3194971a2a116679f7c2090f6939c8d4e01a2a8d7e41d55e5351469e6361093d81336111e6565b61097c576040517f08c379a000000000000000000000000000000000000000000000000000000000815260040161097390612749565b60405180910390fd5b5f808573ffffffffffffffffffffffffffffffffffffffff16856040516109a391906128b3565b5f604051808303815f865af19150503d805f81146109dc576040519150601f19603f3d011682016040523d82523d5f602084013e6109e1565b606091505b509150915081610a26576040517f08c379a0000000000000000000000000000000000000000000000000000000008152600401610a1d90612913565b60405180910390fd5b80935050505092915050565b60607fd8aa0f3194971a2a116679f7c2090f6939c8d4e01a2a8d7e41d55e5351469e63610a5f81336111e6565b610a9e576040517f08c379a0000000000000000000000000000000000000000000000000000000008152600401610a9590612749565b60405180910390fd5b610aa8848461139e565b91505092915050565b5f801b610abe81336111e6565b610afd576040517f08c379a0000000000000000000000000000000000000000000000000000000008152600401610af490612749565b60405180910390fd5b5f610b07846114c0565b90508260045f8681526020019081526020015f2060020181905550837fbd79b86ffe0ab8e8776151514217cd7cacd52c909f66475c3af44e129f0b00ff8285604051610b54929190612931565b60405180910390a250505050565b5f8060ff60f81b30848680519060200120604051602001610b869493929190612a08565b604051602081830303815290604052805190602001209050805f1c91505092915050565b5f60035f8373ffffffffffffffffffffffffffffffffffffffff1673ffffffffffffffffffffffffffffffffffffffff1681526020019081526020015f205f9054906101000a900460ff169050919050565b5f610c0783836110f5565b905092915050565b610c18826114c0565b610c2281336111e6565b610c61576040517f08c379a0000000000000000000000000000000000000000000000000000000008152600401610c5890612749565b60405180910390fd5b610c6b83836114dd565b505050565b3373ffffffffffffffffffffffffffffffffffffffff168173ffffffffffffffffffffffffffffffffffffffff1614610cde576040517f08c379a0000000000000000000000000000000000000000000000000000000008152600401610cd590612ac5565b60405180910390fd5b610ce88282611567565b5050565b7f7613a25ecc738585a232ad50a301178f12b3ba8887d13e138b523c4269c4768981565b60607f24f6679db5ad89e1735cc3ff300ee2cf5477ec5cf71573e015430144c84b7ca7610d3d81336111e6565b610d7c576040517f08c379a0000000000000000000000000000000000000000000000000000000008152600401610d7390612749565b60405180910390fd5b5f808573ffffffffffffffffffffffffffffffffffffffff1685604051610da391906128b3565b5f60405180830381855afa9150503d805f8114610ddb576040519150601f19603f3d011682016040523d82523d5f602084013e610de0565b606091505b509150915081610e25576040517f08c379a0000000000000000000000000000000000000000000000000000000008152600401610e1c90612b2d565b60405180910390fd5b80935050505092915050565b600760029054906101000a900460ff1680610e595750600760019054906101000a900460ff16155b610e98576040517f08c379a0000000000000000000000000000000000000000000000000000000008152600401610e8f90612bbb565b60405180910390fd5b5f600760029054906101000a900460ff161590508015610ee9576001600760026101000a81548160ff0219169083151502179055506001600760016101000a81548160ff0219169083151502179055505b610ef16115f1565b15610f31576040517f08c379a0000000000000000000000000000000000000000000000000000000008152600401610f2890612c49565b60405180910390fd5b610f3d5f801b84611607565b610f4e610f48611615565b84611607565b610f5f610f5961163c565b83611607565b610f67611663565b8015610f88575f600760026101000a81548160ff0219169083151502179055505b505050565b5f6060848484604051602401610fa39190612293565b60405160208183030381529060405290604051610fc09190612cab565b60405180910390207bffffffffffffffffffffffffffffffffffffffffffffffffffffffff19166020820180517bffffffffffffffffffffffffffffffffffffffffffffffffffffffff838183161783525050505091509150935093915050565b5f61102c8383610b62565b905092915050565b5f61103f8383610b62565b905092915050565b7fa49807205ce4d355092ef5a8a18f56e8913cf4a201fbe287825b095693c2177581565b61107361163c565b61107d81336111e6565b6110bc576040517f08c379a00000000000000000000000000000000000000000000000000000000081526004016110b390612749565b60405180910390fd5b6110cd6110c76116d0565b83611567565b5050565b7fdc72ed553f2544c34465af23b847953efeb813428162d767f9ba5f4013be676081565b5f61110083836116f7565b905092915050565b6060828260405160240161111c9190612293565b604051602081830303815290604052906040516111399190612cab565b60405180910390207bffffffffffffffffffffffffffffffffffffffffffffffffffffffff19166020820180517bffffffffffffffffffffffffffffffffffffffffffffffffffffffff8381831617835250505050905092915050565b5f60025f9054906101000a900473ffffffffffffffffffffffffffffffffffffffff16905090565b5f60015f9054906101000a900473ffffffffffffffffffffffffffffffffffffffff16905090565b5f61120c8260045f8681526020019081526020015f205f0161181990919063ffffffff16565b905092915050565b5f611220848484611846565b90509392505050565b5f801b81565b5f60055f9054906101000a900460ff16801561124d57506006544311155b905090565b5f60075f9054906101000a900460ff16905090565b611270826114c0565b61127a81336111e6565b6112b9576040517f08c379a00000000000000000000000000000000000000000000000000000000081526004016112b090612749565b60405180910390fd5b6112c38383611567565b505050565b7f16d22fb0a3dea8ff8be795756b9481592d33d5cad2ba7d6d931b8de4c03e259281565b60606112f883836118ae565b905092915050565b7fb19546dff01e856fb3f010c267a7b1c60363cf8a4664e21cc89c26224620214e81565b60606113308383611a5d565b905092915050565b61134061163c565b61134a81336111e6565b611389576040517f08c379a000000000000000000000000000000000000000000000000000000000815260040161138090612749565b60405180910390fd5b61139a6113946116d0565b836114dd565b5050565b60607fd8aa0f3194971a2a116679f7c2090f6939c8d4e01a2a8d7e41d55e5351469e636113cb81336111e6565b61140a576040517f08c379a000000000000000000000000000000000000000000000000000000000815260040161140190612749565b60405180910390fd5b5f808573ffffffffffffffffffffffffffffffffffffffff168560405161143191906128b3565b5f604051808303815f865af19150503d805f811461146a576040519150601f19603f3d011682016040523d82523d5f602084013e61146f565b606091505b5091509150816114b4576040517f08c379a00000000000000000000000000000000000000000000000000000000081526004016114ab90612d0b565b60405180910390fd5b80935050505092915050565b5f60045f8381526020019081526020015f20600201549050919050565b6115028160045f8581526020019081526020015f205f01611acf90919063ffffffff16565b15611563573373ffffffffffffffffffffffffffffffffffffffff168173ffffffffffffffffffffffffffffffffffffffff16837f2f8788117e7eff1d82e926ec794901d17c78024a50270940304540a733656f0d60405160405180910390a45b5050565b61158c8160045f8581526020019081526020015f205f01611afc90919063ffffffff16565b156115ed573373ffffffffffffffffffffffffffffffffffffffff168173ffffffffffffffffffffffffffffffffffffffff16837ff6391f5c32d9c69d2a47ea670b442974b53935d1edc7fd64eb21e047a839171b60405160405180910390a45b5050565b5f600760019054906101000a900460ff16905090565b61161182826114dd565b5050565b5f7fb19546dff01e856fb3f010c267a7b1c60363cf8a4664e21cc89c26224620214e905090565b5f7f7613a25ecc738585a232ad50a301178f12b3ba8887d13e138b523c4269c47689905090565b600760019054906101000a900460ff16156116b3576040517f08c379a00000000000000000000000000000000000000000000000000000000081526004016116aa90612d73565b60405180910390fd5b6001600760016101000a81548160ff021916908315150217905550565b5f7fdc72ed553f2544c34465af23b847953efeb813428162d767f9ba5f4013be6760905090565b5f805f84510361173c576040517f08c379a000000000000000000000000000000000000000000000000000000000815260040161173390612ddb565b60405180910390fd5b828451602086015ff590505f73ffffffffffffffffffffffffffffffffffffffff168173ffffffffffffffffffffffffffffffffffffffff16036117b5576040517f08c379a00000000000000000000000000000000000000000000000000000000081526004016117ac90612e43565b60405180910390fd5b8073ffffffffffffffffffffffffffffffffffffffff163373ffffffffffffffffffffffffffffffffffffffff167f33c981baba081f8fd2c52ac6ad1ea95b6814b4376640f55689051f658472968860405160405180910390a38091505092915050565b5f61183e835f018373ffffffffffffffffffffffffffffffffffffffff165f1b611b29565b905092915050565b5f8061185285846118ae565b90508380519060200120818051906020012014611872575f9150506118a7565b5f8184604051602001611886929190612e61565b6040516020818303038152906040528051906020012090505f548114925050505b9392505050565b606060208351116118f4576040517f08c379a00000000000000000000000000000000000000000000000000000000081526004016118eb90612f1e565b60405180910390fd5b5f602084015190505f548184604051602001611911929190612f3c565b6040516020818303038152906040528051906020012014611967576040517f08c379a000000000000000000000000000000000000000000000000000000000815260040161195e90612fb1565b60405180910390fd5b5f602085516119769190612fcf565b67ffffffffffffffff81111561198f5761198e611d02565b5b6040519080825280601f01601f1916602001820160405280156119c15781602001600182028036833780820191505090505b5090505f602090505b8551811015611a51578581815181106119e6576119e56127cf565b5b602001015160f81c60f81b826020836119ff9190612fcf565b81518110611a1057611a0f6127cf565b5b60200101907effffffffffffffffffffffffffffffffffffffffffffffffffffffffffffff191690815f1a9053508080611a4990612832565b9150506119ca565b50809250505092915050565b60605f835111611aa2576040517f08c379a0000000000000000000000000000000000000000000000000000000008152600401611a999061304c565b60405180910390fd5b5f548284604051602001611ab89392919061306a565b604051602081830303815290604052905092915050565b5f611af4835f018373ffffffffffffffffffffffffffffffffffffffff165f1b611b49565b905092915050565b5f611b21835f018373ffffffffffffffffffffffffffffffffffffffff165f1b611bb0565b905092915050565b5f80836001015f8481526020019081526020015f20541415905092915050565b5f611b548383611b29565b611ba657825f0182908060018154018082558091505060019003905f5260205f20015f9091909190915055825f0180549050836001015f8481526020019081526020015f208190555060019050611baa565b5f90505b92915050565b5f80836001015f8481526020019081526020015f205490505f8114611ca1575f600182611bdd9190612fcf565b90505f6001865f0180549050611bf39190612fcf565b9050808214611c59575f865f018281548110611c1257611c116127cf565b5b905f5260205f200154905080875f018481548110611c3357611c326127cf565b5b905f5260205f20018190555083876001015f8381526020019081526020015f2081905550505b855f01805480611c6c57611c6b6130a2565b5b600190038181905f5260205f20015f90559055856001015f8681526020019081526020015f205f905560019350505050611ca6565b5f9150505b92915050565b5f819050919050565b611cbe81611cac565b82525050565b5f602082019050611cd75f830184611cb5565b92915050565b5f604051905090565b5f80fd5b5f80fd5b5f80fd5b5f601f19601f8301169050919050565b7f4e487b71000000000000000000000000000000000000000000000000000000005f52604160045260245ffd5b611d3882611cf2565b810181811067ffffffffffffffff82111715611d5757611d56611d02565b5b80604052505050565b5f611d69611cdd565b9050611d758282611d2f565b919050565b5f67ffffffffffffffff821115611d9457611d93611d02565b5b602082029050602081019050919050565b5f80fd5b5f73ffffffffffffffffffffffffffffffffffffffff82169050919050565b5f611dd282611da9565b9050919050565b611de281611dc8565b8114611dec575f80fd5b50565b5f81359050611dfd81611dd9565b92915050565b5f611e15611e1084611d7a565b611d60565b90508083825260208201905060208402830185811115611e3857611e37611da5565b5b835b81811015611e615780611e4d8882611def565b845260208401935050602081019050611e3a565b5050509392505050565b5f82601f830112611e7f57611e7e611cee565b5b8135611e8f848260208601611e03565b91505092915050565b5f67ffffffffffffffff821115611eb257611eb1611d02565b5b602082029050602081019050919050565b5f80fd5b5f67ffffffffffffffff821115611ee157611ee0611d02565b5b611eea82611cf2565b9050602081019050919050565b828183375f83830152505050565b5f611f17611f1284611ec7565b611d60565b905082815260208101848484011115611f3357611f32611ec3565b5b611f3e848285611ef7565b509392505050565b5f82601f830112611f5a57611f59611cee565b5b8135611f6a848260208601611f05565b91505092915050565b5f611f85611f8084611e98565b611d60565b90508083825260208201905060208402830185811115611fa857611fa7611da5565b5b835b81811015611fef57803567ffffffffffffffff811115611fcd57611fcc611cee565b5b808601611fda8982611f46565b85526020850194505050602081019050611faa565b5050509392505050565b5f82601f83011261200d5761200c611cee565b5b813561201d848260208601611f73565b91505092915050565b5f806040838503121561203c5761203b611ce6565b5b5f83013567ffffffffffffffff81111561205957612058611cea565b5b61206585828601611e6b565b925050602083013567ffffffffffffffff81111561208657612085611cea565b5b61209285828601611ff9565b9150509250929050565b5f81519050919050565b5f82825260208201905092915050565b5f819050602082019050919050565b5f81519050919050565b5f82825260208201905092915050565b5f5b838110156120fc5780820151818401526020810190506120e1565b5f8484015250505050565b5f612111826120c5565b61211b81856120cf565b935061212b8185602086016120df565b61213481611cf2565b840191505092915050565b5f61214a8383612107565b905092915050565b5f602082019050919050565b5f6121688261209c565b61217281856120a6565b935083602082028501612184856120b6565b805f5b858110156121bf57848403895281516121a0858261213f565b94506121ab83612152565b925060208a01995050600181019050612187565b50829750879550505050505092915050565b5f6020820190508181035f8301526121e9818461215e565b905092915050565b5f806040838503121561220757612206611ce6565b5b5f61221485828601611def565b925050602083013567ffffffffffffffff81111561223557612234611cea565b5b61224185828601611f46565b9150509250929050565b5f82825260208201905092915050565b5f612265826120c5565b61226f818561224b565b935061227f8185602086016120df565b61228881611cf2565b840191505092915050565b5f6020820190508181035f8301526122ab818461225b565b905092915050565b6122bc81611cac565b81146122c6575f80fd5b50565b5f813590506122d7816122b3565b92915050565b5f80604083850312156122f3576122f2611ce6565b5b5f612300858286016122c9565b9250506020612311858286016122c9565b9150509250929050565b5f806040838503121561233157612330611ce6565b5b5f83013567ffffffffffffffff81111561234e5761234d611cea565b5b61235a85828601611f46565b925050602061236b858286016122c9565b9150509250929050565b61237e81611dc8565b82525050565b5f6020820190506123975f830184612375565b92915050565b5f602082840312156123b2576123b1611ce6565b5b5f6123bf84828501611def565b91505092915050565b5f8115159050919050565b6123dc816123c8565b82525050565b5f6020820190506123f55f8301846123d3565b92915050565b5f806040838503121561241157612410611ce6565b5b5f61241e858286016122c9565b925050602061242f85828601611def565b9150509250929050565b5f806040838503121561244f5761244e611ce6565b5b5f61245c85828601611def565b925050602061246d85828601611def565b9150509250929050565b5f67ffffffffffffffff82111561249157612490611d02565b5b61249a82611cf2565b9050602081019050919050565b5f6124b96124b484612477565b611d60565b9050828152602081018484840111156124d5576124d4611ec3565b5b6124e0848285611ef7565b509392505050565b5f82601f8301126124fc576124fb611cee565b5b813561250c8482602086016124a7565b91505092915050565b5f805f6060848603121561252c5761252b611ce6565b5b5f61253986828701611def565b935050602084013567ffffffffffffffff81111561255a57612559611cea565b5b612566868287016124e8565b925050604084013567ffffffffffffffff81111561258757612586611cea565b5b61259386828701611f46565b9150509250925092565b5f6040820190506125b05f830185612375565b81810360208301526125c2818461225b565b90509392505050565b5f80604083850312156125e1576125e0611ce6565b5b5f83013567ffffffffffffffff8111156125fe576125fd611cea565b5b61260a858286016124e8565b925050602083013567ffffffffffffffff81111561262b5761262a611cea565b5b61263785828601611f46565b9150509250929050565b5f805f6060848603121561265857612657611ce6565b5b5f84013567ffffffffffffffff81111561267557612674611cea565b5b61268186828701611f46565b935050602084013567ffffffffffffffff8111156126a2576126a1611cea565b5b6126ae86828701611f46565b92505060406126bf868287016122c9565b9150509250925092565b5f82825260208201905092915050565b7f416363657373436f6e74726f6c3a2073656e64657220646f6573206e6f7420685f8201527f61766520726f6c65000000000000000000000000000000000000000000000000602082015250565b5f6127336028836126c9565b915061273e826126d9565b604082019050919050565b5f6020820190508181035f83015261276081612727565b9050919050565b7f5461726765747320616e642064617461206c656e677468206d69736d617463685f82015250565b5f61279b6020836126c9565b91506127a682612767565b602082019050919050565b5f6020820190508181035f8301526127c88161278f565b9050919050565b7f4e487b71000000000000000000000000000000000000000000000000000000005f52603260045260245ffd5b7f4e487b71000000000000000000000000000000000000000000000000000000005f52601160045260245ffd5b5f819050919050565b5f61283c82612829565b91507fffffffffffffffffffffffffffffffffffffffffffffffffffffffffffffffff820361286e5761286d6127fc565b5b600182019050919050565b5f81905092915050565b5f61288d826120c5565b6128978185612879565b93506128a78185602086016120df565b80840191505092915050565b5f6128be8284612883565b915081905092915050565b7f43616c6c206661696c65640000000000000000000000000000000000000000005f82015250565b5f6128fd600b836126c9565b9150612908826128c9565b602082019050919050565b5f6020820190508181035f83015261292a816128f1565b9050919050565b5f6040820190506129445f830185611cb5565b6129516020830184611cb5565b9392505050565b5f7fff0000000000000000000000000000000000000000000000000000000000000082169050919050565b5f819050919050565b61299d61299882612958565b612983565b82525050565b5f8160601b9050919050565b5f6129b9826129a3565b9050919050565b5f6129ca826129af565b9050919050565b6129e26129dd82611dc8565b6129c0565b82525050565b5f819050919050565b612a026129fd82611cac565b6129e8565b82525050565b5f612a13828761298c565b600182019150612a2382866129d1565b601482019150612a3382856129f1565b602082019150612a4382846129f1565b60208201915081905095945050505050565b7f416363657373436f6e74726f6c3a2063616e206f6e6c792072656e6f756e63655f8201527f20726f6c657320666f722073656c660000000000000000000000000000000000602082015250565b5f612aaf602f836126c9565b9150612aba82612a55565b604082019050919050565b5f6020820190508181035f830152612adc81612aa3565b9050919050565b7f5374617469632063616c6c206661696c656400000000000000000000000000005f82015250565b5f612b176012836126c9565b9150612b2282612ae3565b602082019050919050565b5f6020820190508181035f830152612b4481612b0b565b9050919050565b7f496e697469616c697a61626c653a20636f6e747261637420697320616c7265615f8201527f647920696e697469616c697a6564000000000000000000000000000000000000602082015250565b5f612ba5602e836126c9565b9150612bb082612b4b565b604082019050919050565b5f6020820190508181035f830152612bd281612b99565b9050919050565b7f416476616e636564416363657373436f6e74726f6c3a20616c726561647920695f8201527f6e697469616c697a656400000000000000000000000000000000000000000000602082015250565b5f612c33602a836126c9565b9150612c3e82612bd9565b604082019050919050565b5f6020820190508181035f830152612c6081612c27565b9050919050565b5f81519050919050565b5f81905092915050565b5f612c8582612c67565b612c8f8185612c71565b9350612c9f8185602086016120df565b80840191505092915050565b5f612cb68284612c7b565b915081905092915050565b7f457865637574696f6e206661696c6564000000000000000000000000000000005f82015250565b5f612cf56010836126c9565b9150612d0082612cc1565b602082019050919050565b5f6020820190508181035f830152612d2281612ce9565b9050919050565b7f436f6e747261637420616c726561647920696e697469616c697a6564000000005f82015250565b5f612d5d601c836126c9565b9150612d6882612d29565b602082019050919050565b5f6020820190508181035f830152612d8a81612d51565b9050919050565b7f42797465636f6465206c656e677468206973207a65726f0000000000000000005f82015250565b5f612dc56017836126c9565b9150612dd082612d91565b602082019050919050565b5f6020820190508181035f830152612df281612db9565b9050919050565b7f4661696c656420746f206465706c6f7920636f6e7472616374000000000000005f82015250565b5f612e2d6019836126c9565b9150612e3882612df9565b602082019050919050565b5f6020820190508181035f830152612e5a81612e21565b9050919050565b5f612e6c8285612883565b9150612e7882846129f1565b6020820191508190509392505050565b7f456e636f646564206461746120697320746f6f2073686f727420746f20636f6e5f8201527f7461696e2073616c7420616e64206164646974696f6e616c20706172616d657460208201527f6572730000000000000000000000000000000000000000000000000000000000604082015250565b5f612f086043836126c9565b9150612f1382612e88565b606082019050919050565b5f6020820190508181035f830152612f3581612efc565b9050919050565b5f612f4782856129f1565b602082019150612f5782846129f1565b6020820191508190509392505050565b7f496e76616c696420656e636f64696e6720706172616d657465727300000000005f82015250565b5f612f9b601b836126c9565b9150612fa682612f67565b602082019050919050565b5f6020820190508181035f830152612fc881612f8f565b9050919050565b5f612fd982612829565b9150612fe483612829565b9250828203905081811115612ffc57612ffb6127fc565b5b92915050565b7f446174612063616e6e6f7420626520656d7074790000000000000000000000005f82015250565b5f6130366014836126c9565b915061304182613002565b602082019050919050565b5f6020820190508181035f8301526130638161302a565b9050919050565b5f61307582866129f1565b60208201915061308582856129f1565b6020820191506130958284612883565b9150819050949350505050565b7f4e487b71000000000000000000000000000000000000000000000000000000005f52603160045260245ffdfea264697066735822122040dc3856673013cf25139b715fa94a796cab07e41b1c5c19b20e8fbf973f99d064736f6c63430008150033",
  "immutableReferences": {},
  "source": "// SPDX-License-Identifier: MIT\npragma solidity ^0.8.0;\n\nimport \"../../objective/Binders/WithEncoder.sol\";\nimport \"../../objective/Binders/WithDeployer.sol\";\nimport \"../../objective/Binders/WithExecutor.sol\";\n\ncontract BaseFactory is WithEncoder, WithDeployer, WithExecutor {}\n",
  "sourcePath": "/Users/yemo/yemowithprivate/projects/yemowith/contracts/core/libraries/Factories/BaseFactory.sol",
  "compiler": {
    "name": "solc",
    "version": "0.8.21+commit.d9974bed.Emscripten.clang"
  },
  "schemaVersion": "3.4.16",
  "updatedAt": "2024-06-04T07:07:04.054Z",
  "devdoc": {
    "kind": "dev",
    "methods": {
      "_computeAddress(bytes,bytes32)": {
        "details": "Computes the address for a contract to be deployed via CREATE2.",
        "params": {
          "_bytecode": "The bytecode of the contract to be deployed.",
          "_salt": "A bytes32 salt value used to compute the address."
        },
        "returns": {
          "_0": "computedAddress The precomputed address of the contract if deployed with the provided bytecode and salt."
        }
      },
      "deploy(bytes,bytes32)": {
        "details": "Computes the address for a contract to be deployed via CREATE2, without actually deploying it.",
        "params": {
          "_bytecode": "The bytecode of the contract to be deployed.",
          "_salt": "A bytes32 salt value used to compute the address."
        },
        "returns": {
          "_0": "computedAddress The precomputed address of the contract if deployed with the provided bytecode and salt."
        }
      },
      "initiateDeployment(bytes,bytes32)": {
        "details": "Public function to initiate the deployment of a contract.",
        "params": {
          "_bytecode": "The bytecode of the contract to be deployed.",
          "_salt": "A bytes32 salt value used to create a deterministic address."
        },
        "returns": {
          "_0": "contractAddress The address of the deployed contract."
        }
      }
    },
    "version": 1
  },
  "userdoc": {
    "kind": "user",
    "methods": {},
    "version": 1
  }
}