{
  "contractName": "BaseRegistry",
  "abi": [
    {
      "inputs": [
        {
          "internalType": "address",
          "name": "_baseRegisterableAddress",
          "type": "address"
        }
      ],
      "stateMutability": "nonpayable",
      "type": "constructor"
    },
    {
      "anonymous": false,
      "inputs": [
        {
          "indexed": true,
          "internalType": "address",
          "name": "admin",
          "type": "address"
        }
      ],
      "name": "AdminAdded",
      "type": "event"
    },
    {
      "anonymous": false,
      "inputs": [
        {
          "indexed": true,
          "internalType": "address",
          "name": "admin",
          "type": "address"
        }
      ],
      "name": "AdminRemoved",
      "type": "event"
    },
    {
      "anonymous": false,
      "inputs": [
        {
          "indexed": true,
          "internalType": "address",
          "name": "item",
          "type": "address"
        },
        {
          "indexed": false,
          "internalType": "bool",
          "name": "isActive",
          "type": "bool"
        },
        {
          "indexed": false,
          "internalType": "string",
          "name": "description",
          "type": "string"
        },
        {
          "indexed": false,
          "internalType": "bytes",
          "name": "encodedData",
          "type": "bytes"
        }
      ],
      "name": "ItemRegistered",
      "type": "event"
    },
    {
      "anonymous": false,
      "inputs": [
        {
          "indexed": true,
          "internalType": "address",
          "name": "item",
          "type": "address"
        },
        {
          "indexed": false,
          "internalType": "bool",
          "name": "isActive",
          "type": "bool"
        }
      ],
      "name": "ItemStatusChanged",
      "type": "event"
    },
    {
      "anonymous": false,
      "inputs": [
        {
          "indexed": false,
          "internalType": "uint256",
          "name": "untilBlock",
          "type": "uint256"
        }
      ],
      "name": "Locked",
      "type": "event"
    },
    {
      "anonymous": false,
      "inputs": [],
      "name": "Paused",
      "type": "event"
    },
    {
      "anonymous": false,
      "inputs": [
        {
          "indexed": true,
          "internalType": "bytes32",
          "name": "role",
          "type": "bytes32"
        },
        {
          "indexed": false,
          "internalType": "bytes32",
          "name": "previousAdminRole",
          "type": "bytes32"
        },
        {
          "indexed": false,
          "internalType": "bytes32",
          "name": "newAdminRole",
          "type": "bytes32"
        }
      ],
      "name": "RoleAdminChanged",
      "type": "event"
    },
    {
      "anonymous": false,
      "inputs": [
        {
          "indexed": true,
          "internalType": "bytes32",
          "name": "role",
          "type": "bytes32"
        },
        {
          "indexed": true,
          "internalType": "address",
          "name": "account",
          "type": "address"
        },
        {
          "indexed": true,
          "internalType": "address",
          "name": "sender",
          "type": "address"
        }
      ],
      "name": "RoleGranted",
      "type": "event"
    },
    {
      "anonymous": false,
      "inputs": [
        {
          "indexed": true,
          "internalType": "bytes32",
          "name": "role",
          "type": "bytes32"
        },
        {
          "indexed": true,
          "internalType": "address",
          "name": "account",
          "type": "address"
        },
        {
          "indexed": true,
          "internalType": "address",
          "name": "sender",
          "type": "address"
        }
      ],
      "name": "RoleRevoked",
      "type": "event"
    },
    {
      "anonymous": false,
      "inputs": [
        {
          "indexed": true,
          "internalType": "address",
          "name": "previousSuperAdmin",
          "type": "address"
        },
        {
          "indexed": true,
          "internalType": "address",
          "name": "newSuperAdmin",
          "type": "address"
        }
      ],
      "name": "SuperAdminChanged",
      "type": "event"
    },
    {
      "anonymous": false,
      "inputs": [],
      "name": "Unlocked",
      "type": "event"
    },
    {
      "anonymous": false,
      "inputs": [],
      "name": "Unpaused",
      "type": "event"
    },
    {
      "inputs": [],
      "name": "ADMIN_ROLE",
      "outputs": [
        {
          "internalType": "bytes32",
          "name": "",
          "type": "bytes32"
        }
      ],
      "stateMutability": "view",
      "type": "function"
    },
    {
      "inputs": [],
      "name": "DEFAULT_ADMIN_ROLE",
      "outputs": [
        {
          "internalType": "bytes32",
          "name": "",
          "type": "bytes32"
        }
      ],
      "stateMutability": "view",
      "type": "function"
    },
    {
      "inputs": [],
      "name": "OWNER_ROLE",
      "outputs": [
        {
          "internalType": "bytes32",
          "name": "",
          "type": "bytes32"
        }
      ],
      "stateMutability": "view",
      "type": "function"
    },
    {
      "inputs": [],
      "name": "REGISTRY_MANAGER_ROLE",
      "outputs": [
        {
          "internalType": "bytes32",
          "name": "",
          "type": "bytes32"
        }
      ],
      "stateMutability": "view",
      "type": "function"
    },
    {
      "inputs": [],
      "name": "SUPER_ADMIN_ROLE",
      "outputs": [
        {
          "internalType": "bytes32",
          "name": "",
          "type": "bytes32"
        }
      ],
      "stateMutability": "view",
      "type": "function"
    },
    {
      "inputs": [],
      "name": "WHITELIST_ROLE",
      "outputs": [
        {
          "internalType": "bytes32",
          "name": "",
          "type": "bytes32"
        }
      ],
      "stateMutability": "view",
      "type": "function"
    },
    {
      "inputs": [
        {
          "internalType": "address",
          "name": "account",
          "type": "address"
        }
      ],
      "name": "addWhitelist",
      "outputs": [],
      "stateMutability": "nonpayable",
      "type": "function"
    },
    {
      "inputs": [],
      "name": "baseRegisterableAddress",
      "outputs": [
        {
          "internalType": "address",
          "name": "",
          "type": "address"
        }
      ],
      "stateMutability": "view",
      "type": "function"
    },
    {
      "inputs": [],
      "name": "getOwner",
      "outputs": [
        {
          "internalType": "address",
          "name": "",
          "type": "address"
        }
      ],
      "stateMutability": "view",
      "type": "function"
    },
    {
      "inputs": [],
      "name": "getSuperAdmin",
      "outputs": [
        {
          "internalType": "address",
          "name": "",
          "type": "address"
        }
      ],
      "stateMutability": "view",
      "type": "function"
    },
    {
      "inputs": [
        {
          "internalType": "bytes32",
          "name": "role",
          "type": "bytes32"
        },
        {
          "internalType": "address",
          "name": "account",
          "type": "address"
        }
      ],
      "name": "grantRole",
      "outputs": [],
      "stateMutability": "nonpayable",
      "type": "function"
    },
    {
      "inputs": [
        {
          "internalType": "bytes32",
          "name": "role",
          "type": "bytes32"
        },
        {
          "internalType": "address",
          "name": "account",
          "type": "address"
        }
      ],
      "name": "hasRole",
      "outputs": [
        {
          "internalType": "bool",
          "name": "",
          "type": "bool"
        }
      ],
      "stateMutability": "view",
      "type": "function"
    },
    {
      "inputs": [
        {
          "internalType": "address",
          "name": "owner",
          "type": "address"
        },
        {
          "internalType": "address",
          "name": "superAdmin",
          "type": "address"
        }
      ],
      "name": "initialize",
      "outputs": [],
      "stateMutability": "nonpayable",
      "type": "function"
    },
    {
      "inputs": [
        {
          "internalType": "address",
          "name": "user",
          "type": "address"
        }
      ],
      "name": "isAdmin",
      "outputs": [
        {
          "internalType": "bool",
          "name": "",
          "type": "bool"
        }
      ],
      "stateMutability": "view",
      "type": "function"
    },
    {
      "inputs": [],
      "name": "isLocked",
      "outputs": [
        {
          "internalType": "bool",
          "name": "",
          "type": "bool"
        }
      ],
      "stateMutability": "view",
      "type": "function"
    },
    {
      "inputs": [],
      "name": "isPaused",
      "outputs": [
        {
          "internalType": "bool",
          "name": "",
          "type": "bool"
        }
      ],
      "stateMutability": "view",
      "type": "function"
    },
    {
      "inputs": [
        {
          "internalType": "address",
          "name": "",
          "type": "address"
        }
      ],
      "name": "registryItems",
      "outputs": [
        {
          "internalType": "bool",
          "name": "isActive",
          "type": "bool"
        },
        {
          "internalType": "string",
          "name": "description",
          "type": "string"
        },
        {
          "internalType": "bytes",
          "name": "encodedData",
          "type": "bytes"
        }
      ],
      "stateMutability": "view",
      "type": "function"
    },
    {
      "inputs": [
        {
          "internalType": "address",
          "name": "account",
          "type": "address"
        }
      ],
      "name": "removeWhitelist",
      "outputs": [],
      "stateMutability": "nonpayable",
      "type": "function"
    },
    {
      "inputs": [
        {
          "internalType": "bytes32",
          "name": "role",
          "type": "bytes32"
        },
        {
          "internalType": "address",
          "name": "account",
          "type": "address"
        }
      ],
      "name": "renounceRole",
      "outputs": [],
      "stateMutability": "nonpayable",
      "type": "function"
    },
    {
      "inputs": [
        {
          "internalType": "bytes32",
          "name": "role",
          "type": "bytes32"
        },
        {
          "internalType": "address",
          "name": "account",
          "type": "address"
        }
      ],
      "name": "revokeRole",
      "outputs": [],
      "stateMutability": "nonpayable",
      "type": "function"
    },
    {
      "inputs": [
        {
          "internalType": "bytes32",
          "name": "role",
          "type": "bytes32"
        },
        {
          "internalType": "bytes32",
          "name": "newAdminRole",
          "type": "bytes32"
        }
      ],
      "name": "setRoleAdmin",
      "outputs": [],
      "stateMutability": "nonpayable",
      "type": "function"
    },
    {
      "inputs": [
        {
          "internalType": "address",
          "name": "item",
          "type": "address"
        },
        {
          "internalType": "string",
          "name": "description",
          "type": "string"
        },
        {
          "internalType": "bytes",
          "name": "data",
          "type": "bytes"
        }
      ],
      "name": "registerItem",
      "outputs": [],
      "stateMutability": "nonpayable",
      "type": "function"
    },
    {
      "inputs": [
        {
          "internalType": "address",
          "name": "item",
          "type": "address"
        },
        {
          "internalType": "bool",
          "name": "isActive",
          "type": "bool"
        }
      ],
      "name": "setItemStatus",
      "outputs": [],
      "stateMutability": "nonpayable",
      "type": "function"
    }
  ],
  "bytecode": "0x608060405234801562000010575f80fd5b506040516200274d3803806200274d83398181016040528101906200003691906200041f565b33338181815f806101000a81548173ffffffffffffffffffffffffffffffffffffffff021916908373ffffffffffffffffffffffffffffffffffffffff1602179055508060015f6101000a81548173ffffffffffffffffffffffffffffffffffffffff021916908373ffffffffffffffffffffffffffffffffffffffff160217905550600160025f8473ffffffffffffffffffffffffffffffffffffffff1673ffffffffffffffffffffffffffffffffffffffff1681526020019081526020015f205f6101000a81548160ff0219169083151502179055505050620001245f801b83620001e160201b60201c565b620001567fb19546dff01e856fb3f010c267a7b1c60363cf8a4664e21cc89c26224620214e83620001e160201b60201c565b620001887f7613a25ecc738585a232ad50a301178f12b3ba8887d13e138b523c4269c4768982620001e160201b60201c565b50508060085f6101000a81548173ffffffffffffffffffffffffffffffffffffffff021916908373ffffffffffffffffffffffffffffffffffffffff160217905550620001da620001f760201b60201c565b50620004cd565b620001f382826200026760201b60201c565b5050565b600660019054906101000a900460ff16156200024a576040517f08c379a00000000000000000000000000000000000000000000000000000000081526004016200024190620004ad565b60405180910390fd5b6001600660016101000a81548160ff021916908315150217905550565b6200028e8160035f8581526020019081526020015f205f01620002f460201b90919060201c565b15620002f0573373ffffffffffffffffffffffffffffffffffffffff168173ffffffffffffffffffffffffffffffffffffffff16837f2f8788117e7eff1d82e926ec794901d17c78024a50270940304540a733656f0d60405160405180910390a45b5050565b5f62000321835f018373ffffffffffffffffffffffffffffffffffffffff165f1b6200032960201b60201c565b905092915050565b5f6200033c83836200039a60201b60201c565b6200039057825f0182908060018154018082558091505060019003905f5260205f20015f9091909190915055825f0180549050836001015f8481526020019081526020015f20819055506001905062000394565b5f90505b92915050565b5f80836001015f8481526020019081526020015f20541415905092915050565b5f80fd5b5f73ffffffffffffffffffffffffffffffffffffffff82169050919050565b5f620003e982620003be565b9050919050565b620003fb81620003dd565b811462000406575f80fd5b50565b5f815190506200041981620003f0565b92915050565b5f60208284031215620004375762000436620003ba565b5b5f620004468482850162000409565b91505092915050565b5f82825260208201905092915050565b7f436f6e747261637420616c726561647920696e697469616c697a6564000000005f82015250565b5f62000495601c836200044f565b9150620004a2826200045f565b602082019050919050565b5f6020820190508181035f830152620004c68162000487565b9050919050565b61227280620004db5f395ff3fe608060405234801561000f575f80fd5b506004361061014b575f3560e01c80637a997ab7116100c1578063b187bd261161007a578063b187bd2614610377578063bd8fde1c14610395578063d547741f146103b3578063e58378bb146103cf578063f80f5dd5146103ed578063ff063419146104095761014b565b80637a997ab7146102b15780638204c326146102cf578063893d20e8146102ed57806391d148541461030b578063a217fddf1461033b578063a4e2d634146103595761014b565b806336349a8a1161011357806336349a8a1461020557806336568abe146102215780634460bdd61461023d578063485cc9551461025b57806375b238fc1461027757806378c8cda7146102955761014b565b80631e4e00911461014f57806324d7806c1461016b578063267ddf651461019b5780632f2ff15d146101cd57806335ea681c146101e9575b5f80fd5b61016960048036038101906101649190611457565b610427565b005b610185600480360381019061018091906114ef565b6104d8565b6040516101929190611534565b60405180910390f35b6101b560048036038101906101b091906114ef565b61052a565b6040516101c493929190611629565b60405180910390f35b6101e760048036038101906101e2919061166c565b610668565b005b61020360048036038101906101fe91906116d4565b6106c9565b005b61021f600480360381019061021a91906118dc565b610742565b005b61023b6004803603810190610236919061166c565b6107bd565b005b610245610839565b6040516102529190611973565b60405180910390f35b6102756004803603810190610270919061198c565b61085d565b005b61027f6109b9565b60405161028c9190611973565b60405180910390f35b6102af60048036038101906102aa91906114ef565b6109dd565b005b6102b9610a43565b6040516102c69190611973565b60405180910390f35b6102d7610a67565b6040516102e491906119d9565b60405180910390f35b6102f5610a8f565b60405161030291906119d9565b60405180910390f35b6103256004803603810190610320919061166c565b610ab6565b6040516103329190611534565b60405180910390f35b610343610ae4565b6040516103509190611973565b60405180910390f35b610361610aea565b60405161036e9190611534565b60405180910390f35b61037f610b0d565b60405161038c9190611534565b60405180910390f35b61039d610b22565b6040516103aa9190611973565b60405180910390f35b6103cd60048036038101906103c8919061166c565b610b46565b005b6103d7610ba7565b6040516103e49190611973565b60405180910390f35b610407600480360381019061040291906114ef565b610bcb565b005b610411610c31565b60405161041e91906119d9565b60405180910390f35b5f801b6104348133610ab6565b610473576040517f08c379a000000000000000000000000000000000000000000000000000000000815260040161046a90611a62565b60405180910390fd5b5f61047d84610c56565b90508260035f8681526020019081526020015f2060020181905550837fbd79b86ffe0ab8e8776151514217cd7cacd52c909f66475c3af44e129f0b00ff82856040516104ca929190611a80565b60405180910390a250505050565b5f60025f8373ffffffffffffffffffffffffffffffffffffffff1673ffffffffffffffffffffffffffffffffffffffff1681526020019081526020015f205f9054906101000a900460ff169050919050565b6007602052805f5260405f205f91509050805f015f9054906101000a900460ff169080600101805461055b90611ad4565b80601f016020809104026020016040519081016040528092919081815260200182805461058790611ad4565b80156105d25780601f106105a9576101008083540402835291602001916105d2565b820191905f5260205f20905b8154815290600101906020018083116105b557829003601f168201915b5050505050908060020180546105e790611ad4565b80601f016020809104026020016040519081016040528092919081815260200182805461061390611ad4565b801561065e5780601f106106355761010080835404028352916020019161065e565b820191905f5260205f20905b81548152906001019060200180831161064157829003601f168201915b5050505050905083565b61067182610c56565b61067b8133610ab6565b6106ba576040517f08c379a00000000000000000000000000000000000000000000000000000000081526004016106b190611a62565b60405180910390fd5b6106c48383610c73565b505050565b7ff7a450ef335e1892cb42c8ca72e7242359d7711924b75db5717410da3f614aa36106f48133610ab6565b610733576040517f08c379a000000000000000000000000000000000000000000000000000000000815260040161072a90611a62565b60405180910390fd5b61073d8383610cfd565b505050565b7ff7a450ef335e1892cb42c8ca72e7242359d7711924b75db5717410da3f614aa361076d8133610ab6565b6107ac576040517f08c379a00000000000000000000000000000000000000000000000000000000081526004016107a390611a62565b60405180910390fd5b6107b7848484610ea1565b50505050565b3373ffffffffffffffffffffffffffffffffffffffff168173ffffffffffffffffffffffffffffffffffffffff161461082b576040517f08c379a000000000000000000000000000000000000000000000000000000000815260040161082290611b74565b60405180910390fd5b6108358282611079565b5050565b7f7613a25ecc738585a232ad50a301178f12b3ba8887d13e138b523c4269c4768981565b600660029054906101000a900460ff16806108855750600660019054906101000a900460ff16155b6108c4576040517f08c379a00000000000000000000000000000000000000000000000000000000081526004016108bb90611c02565b60405180910390fd5b5f600660029054906101000a900460ff161590508015610915576001600660026101000a81548160ff0219169083151502179055506001600660016101000a81548160ff0219169083151502179055505b61091d611103565b1561095d576040517f08c379a000000000000000000000000000000000000000000000000000000000815260040161095490611c90565b60405180910390fd5b6109695f801b84611119565b61097a610974611127565b84611119565b61098b61098561114e565b83611119565b610993611175565b80156109b4575f600660026101000a81548160ff0219169083151502179055505b505050565b7fa49807205ce4d355092ef5a8a18f56e8913cf4a201fbe287825b095693c2177581565b6109e561114e565b6109ef8133610ab6565b610a2e576040517f08c379a0000000000000000000000000000000000000000000000000000000008152600401610a2590611a62565b60405180910390fd5b610a3f610a396111e2565b83611079565b5050565b7fdc72ed553f2544c34465af23b847953efeb813428162d767f9ba5f4013be676081565b5f60015f9054906101000a900473ffffffffffffffffffffffffffffffffffffffff16905090565b5f805f9054906101000a900473ffffffffffffffffffffffffffffffffffffffff16905090565b5f610adc8260035f8681526020019081526020015f205f0161120990919063ffffffff16565b905092915050565b5f801b81565b5f60045f9054906101000a900460ff168015610b0857506005544311155b905090565b5f60065f9054906101000a900460ff16905090565b7ff7a450ef335e1892cb42c8ca72e7242359d7711924b75db5717410da3f614aa381565b610b4f82610c56565b610b598133610ab6565b610b98576040517f08c379a0000000000000000000000000000000000000000000000000000000008152600401610b8f90611a62565b60405180910390fd5b610ba28383611079565b505050565b7fb19546dff01e856fb3f010c267a7b1c60363cf8a4664e21cc89c26224620214e81565b610bd361114e565b610bdd8133610ab6565b610c1c576040517f08c379a0000000000000000000000000000000000000000000000000000000008152600401610c1390611a62565b60405180910390fd5b610c2d610c276111e2565b83610c73565b5050565b60085f9054906101000a900473ffffffffffffffffffffffffffffffffffffffff1681565b5f60035f8381526020019081526020015f20600201549050919050565b610c988160035f8581526020019081526020015f205f0161123690919063ffffffff16565b15610cf9573373ffffffffffffffffffffffffffffffffffffffff168173ffffffffffffffffffffffffffffffffffffffff16837f2f8788117e7eff1d82e926ec794901d17c78024a50270940304540a733656f0d60405160405180910390a45b5050565b7ff7a450ef335e1892cb42c8ca72e7242359d7711924b75db5717410da3f614aa3610d288133610ab6565b610d67576040517f08c379a0000000000000000000000000000000000000000000000000000000008152600401610d5e90611a62565b60405180910390fd5b81151560075f8573ffffffffffffffffffffffffffffffffffffffff1673ffffffffffffffffffffffffffffffffffffffff1681526020019081526020015f205f015f9054906101000a900460ff16151503610df8576040517f08c379a0000000000000000000000000000000000000000000000000000000008152600401610def90611cf8565b60405180910390fd5b8160075f8573ffffffffffffffffffffffffffffffffffffffff1673ffffffffffffffffffffffffffffffffffffffff1681526020019081526020015f205f015f6101000a81548160ff0219169083151502179055508273ffffffffffffffffffffffffffffffffffffffff167ff01842a3dee2a004f3bebbc3d7713e55bba32a972ad853b42999cb12bb4741cb83604051610e949190611534565b60405180910390a2505050565b7ff7a450ef335e1892cb42c8ca72e7242359d7711924b75db5717410da3f614aa3610ecc8133610ab6565b610f0b576040517f08c379a0000000000000000000000000000000000000000000000000000000008152600401610f0290611a62565b60405180910390fd5b5f73ffffffffffffffffffffffffffffffffffffffff168473ffffffffffffffffffffffffffffffffffffffff1603610f79576040517f08c379a0000000000000000000000000000000000000000000000000000000008152600401610f7090611d60565b60405180910390fd5b60405180606001604052806001151581526020018481526020018381525060075f8673ffffffffffffffffffffffffffffffffffffffff1673ffffffffffffffffffffffffffffffffffffffff1681526020019081526020015f205f820151815f015f6101000a81548160ff02191690831515021790555060208201518160010190816110069190611f24565b50604082015181600201908161101c919061204b565b509050508373ffffffffffffffffffffffffffffffffffffffff167ff9e02d3c0b6ffaeedc171c297f570ae5107283732067d95e2630942ea38b03606001858560405161106b93929190611629565b60405180910390a250505050565b61109e8160035f8581526020019081526020015f205f0161126390919063ffffffff16565b156110ff573373ffffffffffffffffffffffffffffffffffffffff168173ffffffffffffffffffffffffffffffffffffffff16837ff6391f5c32d9c69d2a47ea670b442974b53935d1edc7fd64eb21e047a839171b60405160405180910390a45b5050565b5f600660019054906101000a900460ff16905090565b6111238282610c73565b5050565b5f7fb19546dff01e856fb3f010c267a7b1c60363cf8a4664e21cc89c26224620214e905090565b5f7f7613a25ecc738585a232ad50a301178f12b3ba8887d13e138b523c4269c47689905090565b600660019054906101000a900460ff16156111c5576040517f08c379a00000000000000000000000000000000000000000000000000000000081526004016111bc90612164565b60405180910390fd5b6001600660016101000a81548160ff021916908315150217905550565b5f7fdc72ed553f2544c34465af23b847953efeb813428162d767f9ba5f4013be6760905090565b5f61122e835f018373ffffffffffffffffffffffffffffffffffffffff165f1b611290565b905092915050565b5f61125b835f018373ffffffffffffffffffffffffffffffffffffffff165f1b6112b0565b905092915050565b5f611288835f018373ffffffffffffffffffffffffffffffffffffffff165f1b611317565b905092915050565b5f80836001015f8481526020019081526020015f20541415905092915050565b5f6112bb8383611290565b61130d57825f0182908060018154018082558091505060019003905f5260205f20015f9091909190915055825f0180549050836001015f8481526020019081526020015f208190555060019050611311565b5f90505b92915050565b5f80836001015f8481526020019081526020015f205490505f8114611408575f60018261134491906121af565b90505f6001865f018054905061135a91906121af565b90508082146113c0575f865f018281548110611379576113786121e2565b5b905f5260205f200154905080875f01848154811061139a576113996121e2565b5b905f5260205f20018190555083876001015f8381526020019081526020015f2081905550505b855f018054806113d3576113d261220f565b5b600190038181905f5260205f20015f90559055856001015f8681526020019081526020015f205f90556001935050505061140d565b5f9150505b92915050565b5f604051905090565b5f80fd5b5f80fd5b5f819050919050565b61143681611424565b8114611440575f80fd5b50565b5f813590506114518161142d565b92915050565b5f806040838503121561146d5761146c61141c565b5b5f61147a85828601611443565b925050602061148b85828601611443565b9150509250929050565b5f73ffffffffffffffffffffffffffffffffffffffff82169050919050565b5f6114be82611495565b9050919050565b6114ce816114b4565b81146114d8575f80fd5b50565b5f813590506114e9816114c5565b92915050565b5f602082840312156115045761150361141c565b5b5f611511848285016114db565b91505092915050565b5f8115159050919050565b61152e8161151a565b82525050565b5f6020820190506115475f830184611525565b92915050565b5f81519050919050565b5f82825260208201905092915050565b5f5b83811015611584578082015181840152602081019050611569565b5f8484015250505050565b5f601f19601f8301169050919050565b5f6115a98261154d565b6115b38185611557565b93506115c3818560208601611567565b6115cc8161158f565b840191505092915050565b5f81519050919050565b5f82825260208201905092915050565b5f6115fb826115d7565b61160581856115e1565b9350611615818560208601611567565b61161e8161158f565b840191505092915050565b5f60608201905061163c5f830186611525565b818103602083015261164e818561159f565b9050818103604083015261166281846115f1565b9050949350505050565b5f80604083850312156116825761168161141c565b5b5f61168f85828601611443565b92505060206116a0858286016114db565b9150509250929050565b6116b38161151a565b81146116bd575f80fd5b50565b5f813590506116ce816116aa565b92915050565b5f80604083850312156116ea576116e961141c565b5b5f6116f7858286016114db565b9250506020611708858286016116c0565b9150509250929050565b5f80fd5b5f80fd5b7f4e487b71000000000000000000000000000000000000000000000000000000005f52604160045260245ffd5b6117508261158f565b810181811067ffffffffffffffff8211171561176f5761176e61171a565b5b80604052505050565b5f611781611413565b905061178d8282611747565b919050565b5f67ffffffffffffffff8211156117ac576117ab61171a565b5b6117b58261158f565b9050602081019050919050565b828183375f83830152505050565b5f6117e26117dd84611792565b611778565b9050828152602081018484840111156117fe576117fd611716565b5b6118098482856117c2565b509392505050565b5f82601f83011261182557611824611712565b5b81356118358482602086016117d0565b91505092915050565b5f67ffffffffffffffff8211156118585761185761171a565b5b6118618261158f565b9050602081019050919050565b5f61188061187b8461183e565b611778565b90508281526020810184848401111561189c5761189b611716565b5b6118a78482856117c2565b509392505050565b5f82601f8301126118c3576118c2611712565b5b81356118d384826020860161186e565b91505092915050565b5f805f606084860312156118f3576118f261141c565b5b5f611900868287016114db565b935050602084013567ffffffffffffffff81111561192157611920611420565b5b61192d86828701611811565b925050604084013567ffffffffffffffff81111561194e5761194d611420565b5b61195a868287016118af565b9150509250925092565b61196d81611424565b82525050565b5f6020820190506119865f830184611964565b92915050565b5f80604083850312156119a2576119a161141c565b5b5f6119af858286016114db565b92505060206119c0858286016114db565b9150509250929050565b6119d3816114b4565b82525050565b5f6020820190506119ec5f8301846119ca565b92915050565b7f416363657373436f6e74726f6c3a2073656e64657220646f6573206e6f7420685f8201527f61766520726f6c65000000000000000000000000000000000000000000000000602082015250565b5f611a4c602883611557565b9150611a57826119f2565b604082019050919050565b5f6020820190508181035f830152611a7981611a40565b9050919050565b5f604082019050611a935f830185611964565b611aa06020830184611964565b9392505050565b7f4e487b71000000000000000000000000000000000000000000000000000000005f52602260045260245ffd5b5f6002820490506001821680611aeb57607f821691505b602082108103611afe57611afd611aa7565b5b50919050565b7f416363657373436f6e74726f6c3a2063616e206f6e6c792072656e6f756e63655f8201527f20726f6c657320666f722073656c660000000000000000000000000000000000602082015250565b5f611b5e602f83611557565b9150611b6982611b04565b604082019050919050565b5f6020820190508181035f830152611b8b81611b52565b9050919050565b7f496e697469616c697a61626c653a20636f6e747261637420697320616c7265615f8201527f647920696e697469616c697a6564000000000000000000000000000000000000602082015250565b5f611bec602e83611557565b9150611bf782611b92565b604082019050919050565b5f6020820190508181035f830152611c1981611be0565b9050919050565b7f416476616e636564416363657373436f6e74726f6c3a20616c726561647920695f8201527f6e697469616c697a656400000000000000000000000000000000000000000000602082015250565b5f611c7a602a83611557565b9150611c8582611c20565b604082019050919050565b5f6020820190508181035f830152611ca781611c6e565b9050919050565b7f4974656d20616c726561647920696e20746869732073746174650000000000005f82015250565b5f611ce2601a83611557565b9150611ced82611cae565b602082019050919050565b5f6020820190508181035f830152611d0f81611cd6565b9050919050565b7f496e76616c6964206974656d20616464726573730000000000000000000000005f82015250565b5f611d4a601483611557565b9150611d5582611d16565b602082019050919050565b5f6020820190508181035f830152611d7781611d3e565b9050919050565b5f819050815f5260205f209050919050565b5f6020601f8301049050919050565b5f82821b905092915050565b5f60088302611dda7fffffffffffffffffffffffffffffffffffffffffffffffffffffffffffffffff82611d9f565b611de48683611d9f565b95508019841693508086168417925050509392505050565b5f819050919050565b5f819050919050565b5f611e28611e23611e1e84611dfc565b611e05565b611dfc565b9050919050565b5f819050919050565b611e4183611e0e565b611e55611e4d82611e2f565b848454611dab565b825550505050565b5f90565b611e69611e5d565b611e74818484611e38565b505050565b5b81811015611e9757611e8c5f82611e61565b600181019050611e7a565b5050565b601f821115611edc57611ead81611d7e565b611eb684611d90565b81016020851015611ec5578190505b611ed9611ed185611d90565b830182611e79565b50505b505050565b5f82821c905092915050565b5f611efc5f1984600802611ee1565b1980831691505092915050565b5f611f148383611eed565b9150826002028217905092915050565b611f2d8261154d565b67ffffffffffffffff811115611f4657611f4561171a565b5b611f508254611ad4565b611f5b828285611e9b565b5f60209050601f831160018114611f8c575f8415611f7a578287015190505b611f848582611f09565b865550611feb565b601f198416611f9a86611d7e565b5f5b82811015611fc157848901518255600182019150602085019450602081019050611f9c565b86831015611fde5784890151611fda601f891682611eed565b8355505b6001600288020188555050505b505050505050565b5f819050815f5260205f209050919050565b601f8211156120465761201781611ff3565b61202084611d90565b8101602085101561202f578190505b61204361203b85611d90565b830182611e79565b50505b505050565b612054826115d7565b67ffffffffffffffff81111561206d5761206c61171a565b5b6120778254611ad4565b612082828285612005565b5f60209050601f8311600181146120b3575f84156120a1578287015190505b6120ab8582611f09565b865550612112565b601f1984166120c186611ff3565b5f5b828110156120e8578489015182556001820191506020850194506020810190506120c3565b868310156121055784890151612101601f891682611eed565b8355505b6001600288020188555050505b505050505050565b7f436f6e747261637420616c726561647920696e697469616c697a6564000000005f82015250565b5f61214e601c83611557565b91506121598261211a565b602082019050919050565b5f6020820190508181035f83015261217b81612142565b9050919050565b7f4e487b71000000000000000000000000000000000000000000000000000000005f52601160045260245ffd5b5f6121b982611dfc565b91506121c483611dfc565b92508282039050818111156121dc576121db612182565b5b92915050565b7f4e487b71000000000000000000000000000000000000000000000000000000005f52603260045260245ffd5b7f4e487b71000000000000000000000000000000000000000000000000000000005f52603160045260245ffdfea2646970667358221220e6f7e80e74ada9d38e620135291731cb5eafc62112943068487b9253fdaf289664736f6c63430008150033",
  "immutableReferences": {},
  "source": "// SPDX-License-Identifier: MIT\npragma solidity ^0.8.0;\n\nimport \"../Accessblity/BaseAccessControl.sol\";\n\ncontract BaseRegistry is BaseAccessControl {\n    struct RegistryItem {\n        bool isActive;\n        string description; // Additional dynamic data can be added here\n        bytes encodedData; // Encoded data for flexible storage\n    }\n\n    // Mapping of item addresses to their details\n    mapping(address => RegistryItem) public registryItems;\n\n    // Event for item registration and status changes\n    event ItemRegistered(\n        address indexed item,\n        bool isActive,\n        string description,\n        bytes encodedData\n    );\n    event ItemStatusChanged(address indexed item, bool isActive);\n\n    // Define roles for registry management\n    bytes32 public constant REGISTRY_MANAGER_ROLE =\n        keccak256(\"REGISTRY_MANAGER_ROLE\");\n\n    // Address of the BaseRegisterable contract\n    address public baseRegisterableAddress;\n\n    // Constructor to initialize the management contract\n    constructor(address _baseRegisterableAddress) {\n        baseRegisterableAddress = _baseRegisterableAddress;\n        _initialize();\n    }\n\n    // Internal function to register a new item with additional encoded data\n    function _registerItem(\n        address item,\n        string memory description,\n        bytes memory data\n    ) internal onlyRole(REGISTRY_MANAGER_ROLE) {\n        require(item != address(0), \"Invalid item address\");\n        registryItems[item] = RegistryItem({\n            isActive: true,\n            description: description,\n            encodedData: data\n        });\n        emit ItemRegistered(item, true, description, data);\n    }\n\n    // Internal function to set the activation status of an item\n    function _setItemStatus(\n        address item,\n        bool isActive\n    ) internal onlyRole(REGISTRY_MANAGER_ROLE) {\n        require(\n            registryItems[item].isActive != isActive,\n            \"Item already in this state\"\n        );\n        registryItems[item].isActive = isActive;\n        emit ItemStatusChanged(item, isActive);\n    }\n\n    // Public wrapper for registering a new item, accessible only by authorized roles\n    function registerItem(\n        address item,\n        string memory description,\n        bytes memory data\n    ) public onlyRole(REGISTRY_MANAGER_ROLE) {\n        _registerItem(item, description, data);\n    }\n\n    // Public wrapper for updating the status of an item, accessible only by authorized roles\n    function setItemStatus(\n        address item,\n        bool isActive\n    ) public onlyRole(REGISTRY_MANAGER_ROLE) {\n        _setItemStatus(item, isActive);\n    }\n}\n",
  "sourcePath": "/Users/yemo/yemowithprivate/projects/yemowith/contracts/core/objective/Registerable/BaseRegistry.sol",
  "compiler": {
    "name": "solc",
    "version": "0.8.21+commit.d9974bed.Emscripten.clang"
  },
  "schemaVersion": "3.4.16",
  "updatedAt": "2024-06-04T07:07:04.062Z",
  "devdoc": {
    "kind": "dev",
    "methods": {},
    "version": 1
  },
  "userdoc": {
    "kind": "user",
    "methods": {},
    "version": 1
  }
}