{
  "contractName": "BaseFactory",
  "abi": [
    {
      "anonymous": false,
      "inputs": [
        {
          "indexed": true,
          "internalType": "address",
          "name": "admin",
          "type": "address"
        }
      ],
      "name": "AdminAdded",
      "type": "event"
    },
    {
      "anonymous": false,
      "inputs": [
        {
          "indexed": true,
          "internalType": "address",
          "name": "admin",
          "type": "address"
        }
      ],
      "name": "AdminRemoved",
      "type": "event"
    },
    {
      "anonymous": false,
      "inputs": [
        {
          "indexed": true,
          "internalType": "address",
          "name": "deployer",
          "type": "address"
        },
        {
          "indexed": true,
          "internalType": "address",
          "name": "contractAddress",
          "type": "address"
        }
      ],
      "name": "ContractDeployed",
      "type": "event"
    },
    {
      "anonymous": false,
      "inputs": [
        {
          "indexed": false,
          "internalType": "uint256",
          "name": "untilBlock",
          "type": "uint256"
        }
      ],
      "name": "Locked",
      "type": "event"
    },
    {
      "anonymous": false,
      "inputs": [],
      "name": "Paused",
      "type": "event"
    },
    {
      "anonymous": false,
      "inputs": [
        {
          "indexed": true,
          "internalType": "bytes32",
          "name": "role",
          "type": "bytes32"
        },
        {
          "indexed": false,
          "internalType": "bytes32",
          "name": "previousAdminRole",
          "type": "bytes32"
        },
        {
          "indexed": false,
          "internalType": "bytes32",
          "name": "newAdminRole",
          "type": "bytes32"
        }
      ],
      "name": "RoleAdminChanged",
      "type": "event"
    },
    {
      "anonymous": false,
      "inputs": [
        {
          "indexed": true,
          "internalType": "bytes32",
          "name": "role",
          "type": "bytes32"
        },
        {
          "indexed": true,
          "internalType": "address",
          "name": "account",
          "type": "address"
        },
        {
          "indexed": true,
          "internalType": "address",
          "name": "sender",
          "type": "address"
        }
      ],
      "name": "RoleGranted",
      "type": "event"
    },
    {
      "anonymous": false,
      "inputs": [
        {
          "indexed": true,
          "internalType": "bytes32",
          "name": "role",
          "type": "bytes32"
        },
        {
          "indexed": true,
          "internalType": "address",
          "name": "account",
          "type": "address"
        },
        {
          "indexed": true,
          "internalType": "address",
          "name": "sender",
          "type": "address"
        }
      ],
      "name": "RoleRevoked",
      "type": "event"
    },
    {
      "anonymous": false,
      "inputs": [
        {
          "indexed": true,
          "internalType": "address",
          "name": "previousSuperAdmin",
          "type": "address"
        },
        {
          "indexed": true,
          "internalType": "address",
          "name": "newSuperAdmin",
          "type": "address"
        }
      ],
      "name": "SuperAdminChanged",
      "type": "event"
    },
    {
      "anonymous": false,
      "inputs": [],
      "name": "Unlocked",
      "type": "event"
    },
    {
      "anonymous": false,
      "inputs": [],
      "name": "Unpaused",
      "type": "event"
    },
    {
      "inputs": [],
      "name": "ADMIN_ROLE",
      "outputs": [
        {
          "internalType": "bytes32",
          "name": "",
          "type": "bytes32"
        }
      ],
      "stateMutability": "view",
      "type": "function"
    },
    {
      "inputs": [],
      "name": "DEFAULT_ADMIN_ROLE",
      "outputs": [
        {
          "internalType": "bytes32",
          "name": "",
          "type": "bytes32"
        }
      ],
      "stateMutability": "view",
      "type": "function"
    },
    {
      "inputs": [],
      "name": "EXECUTOR_ROLE",
      "outputs": [
        {
          "internalType": "bytes32",
          "name": "",
          "type": "bytes32"
        }
      ],
      "stateMutability": "view",
      "type": "function"
    },
    {
      "inputs": [],
      "name": "MULTI_EXECUTOR_ROLE",
      "outputs": [
        {
          "internalType": "bytes32",
          "name": "",
          "type": "bytes32"
        }
      ],
      "stateMutability": "view",
      "type": "function"
    },
    {
      "inputs": [],
      "name": "OWNER_ROLE",
      "outputs": [
        {
          "internalType": "bytes32",
          "name": "",
          "type": "bytes32"
        }
      ],
      "stateMutability": "view",
      "type": "function"
    },
    {
      "inputs": [],
      "name": "STATIC_CALLER_ROLE",
      "outputs": [
        {
          "internalType": "bytes32",
          "name": "",
          "type": "bytes32"
        }
      ],
      "stateMutability": "view",
      "type": "function"
    },
    {
      "inputs": [],
      "name": "SUPER_ADMIN_ROLE",
      "outputs": [
        {
          "internalType": "bytes32",
          "name": "",
          "type": "bytes32"
        }
      ],
      "stateMutability": "view",
      "type": "function"
    },
    {
      "inputs": [],
      "name": "WHITELIST_ROLE",
      "outputs": [
        {
          "internalType": "bytes32",
          "name": "",
          "type": "bytes32"
        }
      ],
      "stateMutability": "view",
      "type": "function"
    },
    {
      "inputs": [
        {
          "internalType": "bytes",
          "name": "_bytecode",
          "type": "bytes"
        },
        {
          "internalType": "bytes32",
          "name": "_salt",
          "type": "bytes32"
        }
      ],
      "name": "_computeAddress",
      "outputs": [
        {
          "internalType": "address",
          "name": "",
          "type": "address"
        }
      ],
      "stateMutability": "view",
      "type": "function"
    },
    {
      "inputs": [
        {
          "internalType": "address",
          "name": "account",
          "type": "address"
        }
      ],
      "name": "addWhitelist",
      "outputs": [],
      "stateMutability": "nonpayable",
      "type": "function"
    },
    {
      "inputs": [
        {
          "internalType": "address",
          "name": "target",
          "type": "address"
        },
        {
          "internalType": "bytes",
          "name": "data",
          "type": "bytes"
        }
      ],
      "name": "call",
      "outputs": [
        {
          "internalType": "bytes",
          "name": "",
          "type": "bytes"
        }
      ],
      "stateMutability": "nonpayable",
      "type": "function"
    },
    {
      "inputs": [
        {
          "internalType": "address",
          "name": "target",
          "type": "address"
        },
        {
          "internalType": "bytes",
          "name": "data",
          "type": "bytes"
        }
      ],
      "name": "callStatic",
      "outputs": [
        {
          "internalType": "bytes",
          "name": "",
          "type": "bytes"
        }
      ],
      "stateMutability": "view",
      "type": "function"
    },
    {
      "inputs": [
        {
          "internalType": "bytes",
          "name": "bytecode",
          "type": "bytes"
        },
        {
          "internalType": "bytes32",
          "name": "salt",
          "type": "bytes32"
        }
      ],
      "name": "computeContractAddress",
      "outputs": [
        {
          "internalType": "address",
          "name": "",
          "type": "address"
        }
      ],
      "stateMutability": "view",
      "type": "function"
    },
    {
      "inputs": [
        {
          "internalType": "bytes",
          "name": "encodedData",
          "type": "bytes"
        },
        {
          "internalType": "bytes32",
          "name": "additionalParam",
          "type": "bytes32"
        }
      ],
      "name": "decodeData",
      "outputs": [
        {
          "internalType": "bytes",
          "name": "",
          "type": "bytes"
        }
      ],
      "stateMutability": "view",
      "type": "function"
    },
    {
      "inputs": [
        {
          "internalType": "bytes",
          "name": "_bytecode",
          "type": "bytes"
        },
        {
          "internalType": "bytes32",
          "name": "_salt",
          "type": "bytes32"
        }
      ],
      "name": "deploy",
      "outputs": [
        {
          "internalType": "address",
          "name": "",
          "type": "address"
        }
      ],
      "stateMutability": "view",
      "type": "function"
    },
    {
      "inputs": [
        {
          "internalType": "bytes",
          "name": "bytecode",
          "type": "bytes"
        },
        {
          "internalType": "bytes32",
          "name": "salt",
          "type": "bytes32"
        }
      ],
      "name": "deployContract",
      "outputs": [
        {
          "internalType": "address",
          "name": "",
          "type": "address"
        }
      ],
      "stateMutability": "nonpayable",
      "type": "function"
    },
    {
      "inputs": [
        {
          "internalType": "bytes",
          "name": "data",
          "type": "bytes"
        },
        {
          "internalType": "bytes32",
          "name": "additionalParam",
          "type": "bytes32"
        }
      ],
      "name": "encodeData",
      "outputs": [
        {
          "internalType": "bytes",
          "name": "",
          "type": "bytes"
        }
      ],
      "stateMutability": "view",
      "type": "function"
    },
    {
      "inputs": [
        {
          "internalType": "address",
          "name": "target",
          "type": "address"
        },
        {
          "internalType": "bytes",
          "name": "data",
          "type": "bytes"
        }
      ],
      "name": "execute",
      "outputs": [
        {
          "internalType": "bytes",
          "name": "",
          "type": "bytes"
        }
      ],
      "stateMutability": "nonpayable",
      "type": "function"
    },
    {
      "inputs": [
        {
          "internalType": "address",
          "name": "target",
          "type": "address"
        },
        {
          "internalType": "string",
          "name": "signature",
          "type": "string"
        },
        {
          "internalType": "bytes",
          "name": "params",
          "type": "bytes"
        }
      ],
      "name": "getEncodedData",
      "outputs": [
        {
          "internalType": "address",
          "name": "",
          "type": "address"
        },
        {
          "internalType": "bytes",
          "name": "",
          "type": "bytes"
        }
      ],
      "stateMutability": "pure",
      "type": "function"
    },
    {
      "inputs": [
        {
          "internalType": "string",
          "name": "signature",
          "type": "string"
        },
        {
          "internalType": "bytes",
          "name": "params",
          "type": "bytes"
        }
      ],
      "name": "getEncodedData",
      "outputs": [
        {
          "internalType": "bytes",
          "name": "",
          "type": "bytes"
        }
      ],
      "stateMutability": "pure",
      "type": "function"
    },
    {
      "inputs": [],
      "name": "getOwner",
      "outputs": [
        {
          "internalType": "address",
          "name": "",
          "type": "address"
        }
      ],
      "stateMutability": "view",
      "type": "function"
    },
    {
      "inputs": [],
      "name": "getSuperAdmin",
      "outputs": [
        {
          "internalType": "address",
          "name": "",
          "type": "address"
        }
      ],
      "stateMutability": "view",
      "type": "function"
    },
    {
      "inputs": [
        {
          "internalType": "bytes32",
          "name": "role",
          "type": "bytes32"
        },
        {
          "internalType": "address",
          "name": "account",
          "type": "address"
        }
      ],
      "name": "grantRole",
      "outputs": [],
      "stateMutability": "nonpayable",
      "type": "function"
    },
    {
      "inputs": [
        {
          "internalType": "bytes32",
          "name": "role",
          "type": "bytes32"
        },
        {
          "internalType": "address",
          "name": "account",
          "type": "address"
        }
      ],
      "name": "hasRole",
      "outputs": [
        {
          "internalType": "bool",
          "name": "",
          "type": "bool"
        }
      ],
      "stateMutability": "view",
      "type": "function"
    },
    {
      "inputs": [
        {
          "internalType": "address",
          "name": "owner",
          "type": "address"
        },
        {
          "internalType": "address",
          "name": "superAdmin",
          "type": "address"
        },
        {
          "internalType": "address",
          "name": "admin",
          "type": "address"
        }
      ],
      "name": "initialize",
      "outputs": [],
      "stateMutability": "nonpayable",
      "type": "function"
    },
    {
      "inputs": [
        {
          "internalType": "bytes",
          "name": "_bytecode",
          "type": "bytes"
        },
        {
          "internalType": "bytes32",
          "name": "_salt",
          "type": "bytes32"
        }
      ],
      "name": "initiateDeployment",
      "outputs": [
        {
          "internalType": "address",
          "name": "",
          "type": "address"
        }
      ],
      "stateMutability": "nonpayable",
      "type": "function"
    },
    {
      "inputs": [
        {
          "internalType": "address",
          "name": "user",
          "type": "address"
        }
      ],
      "name": "isAdmin",
      "outputs": [
        {
          "internalType": "bool",
          "name": "",
          "type": "bool"
        }
      ],
      "stateMutability": "view",
      "type": "function"
    },
    {
      "inputs": [],
      "name": "isLocked",
      "outputs": [
        {
          "internalType": "bool",
          "name": "",
          "type": "bool"
        }
      ],
      "stateMutability": "view",
      "type": "function"
    },
    {
      "inputs": [],
      "name": "isPaused",
      "outputs": [
        {
          "internalType": "bool",
          "name": "",
          "type": "bool"
        }
      ],
      "stateMutability": "view",
      "type": "function"
    },
    {
      "inputs": [
        {
          "internalType": "address[]",
          "name": "targets",
          "type": "address[]"
        },
        {
          "internalType": "bytes[]",
          "name": "data",
          "type": "bytes[]"
        }
      ],
      "name": "multiExecute",
      "outputs": [
        {
          "internalType": "bytes[]",
          "name": "",
          "type": "bytes[]"
        }
      ],
      "stateMutability": "nonpayable",
      "type": "function"
    },
    {
      "inputs": [
        {
          "internalType": "address",
          "name": "account",
          "type": "address"
        }
      ],
      "name": "removeWhitelist",
      "outputs": [],
      "stateMutability": "nonpayable",
      "type": "function"
    },
    {
      "inputs": [
        {
          "internalType": "bytes32",
          "name": "role",
          "type": "bytes32"
        },
        {
          "internalType": "address",
          "name": "account",
          "type": "address"
        }
      ],
      "name": "renounceRole",
      "outputs": [],
      "stateMutability": "nonpayable",
      "type": "function"
    },
    {
      "inputs": [
        {
          "internalType": "bytes32",
          "name": "role",
          "type": "bytes32"
        },
        {
          "internalType": "address",
          "name": "account",
          "type": "address"
        }
      ],
      "name": "revokeRole",
      "outputs": [],
      "stateMutability": "nonpayable",
      "type": "function"
    },
    {
      "inputs": [
        {
          "internalType": "bytes32",
          "name": "role",
          "type": "bytes32"
        },
        {
          "internalType": "bytes32",
          "name": "newAdminRole",
          "type": "bytes32"
        }
      ],
      "name": "setRoleAdmin",
      "outputs": [],
      "stateMutability": "nonpayable",
      "type": "function"
    },
    {
      "inputs": [
        {
          "internalType": "bytes",
          "name": "encodedData",
          "type": "bytes"
        },
        {
          "internalType": "bytes",
          "name": "originalData",
          "type": "bytes"
        },
        {
          "internalType": "bytes32",
          "name": "additionalParam",
          "type": "bytes32"
        }
      ],
      "name": "validateEncodedData",
      "outputs": [
        {
          "internalType": "bool",
          "name": "",
          "type": "bool"
        }
      ],
      "stateMutability": "view",
      "type": "function"
    }
  ],
  "bytecode": "0x60806040523480156200001157600080fd5b50333333828181600160006101000a81548173ffffffffffffffffffffffffffffffffffffffff021916908373ffffffffffffffffffffffffffffffffffffffff16021790555080600260006101000a81548173ffffffffffffffffffffffffffffffffffffffff021916908373ffffffffffffffffffffffffffffffffffffffff1602179055506001600360008473ffffffffffffffffffffffffffffffffffffffff1673ffffffffffffffffffffffffffffffffffffffff16815260200190815260200160002060006101000a81548160ff0219169083151502179055505050620001257fb19546dff01e856fb3f010c267a7b1c60363cf8a4664e21cc89c26224620214e846200017560201b60201c565b6200013a6000801b836200017560201b60201c565b6200016c7f7613a25ecc738585a232ad50a301178f12b3ba8887d13e138b523c4269c47689826200017560201b60201c565b505050620002f5565b6200018782826200018b60201b60201c565b5050565b620001ba81600460008581526020019081526020016000206000016200022060201b620013cd1790919060201c565b156200021c573373ffffffffffffffffffffffffffffffffffffffff168173ffffffffffffffffffffffffffffffffffffffff16837f2f8788117e7eff1d82e926ec794901d17c78024a50270940304540a733656f0d60405160405180910390a45b5050565b600062000250836000018373ffffffffffffffffffffffffffffffffffffffff1660001b6200025860201b60201c565b905092915050565b60006200026c8383620002d260201b60201c565b620002c7578260000182908060018154018082558091505060019003906000526020600020016000909190919091505582600001805490508360010160008481526020019081526020016000208190555060019050620002cc565b600090505b92915050565b600080836001016000848152602001908152602001600020541415905092915050565b61324280620003056000396000f3fe608060405234801561001057600080fd5b50600436106102115760003560e01c806378c8cda711610125578063a4e2d634116100ad578063da73b13f1161007c578063da73b13f1461068b578063e06d4934146106a9578063e58378bb146106d9578063eed7ede2146106f7578063f80f5dd51461072757610211565b8063a4e2d63414610617578063b187bd2614610635578063c0c53b8b14610653578063d547741f1461066f57610211565b80638204c326116100f45780638204c3261461055d578063893d20e81461057b57806391d14854146105995780639ef9dfff146105c9578063a217fddf146105f957610211565b806378c8cda7146104c35780637a997ab7146104df5780637e711c06146104fd5780637eaeabff1461052d57610211565b80632bd7910b116101a857806344eb64631161017757806344eb6463146103e45780634a3aad11146104145780634af63f021461044557806362ca29ed1461047557806375b238fc146104a557610211565b80632bd7910b1461035e5780632f2ff15d1461038e57806336568abe146103aa5780634460bdd6146103c657610211565b80631cff79cd116101e45780631cff79cd146102b25780631e4e0091146102e2578063204f09eb146102fe57806324d7806c1461032e57610211565b806307bd0265146102165780630d2efdbb146102345780631a8090bb146102525780631b8b921d14610282575b600080fd5b61021e610743565b60405161022b9190611d42565b60405180910390f35b61023c610767565b6040516102499190611d42565b60405180910390f35b61026c600480360381019061026791906120be565b61078b565b6040516102799190612280565b60405180910390f35b61029c600480360381019061029791906122a2565b610915565b6040516102a99190612348565b60405180910390f35b6102cc60048036038101906102c791906122a2565b610a3c565b6040516102d99190612348565b60405180910390f35b6102fc60048036038101906102f79190612396565b610abb565b005b610318600480360381019061031391906123d6565b610b70565b6040516103259190612441565b60405180910390f35b6103486004803603810190610343919061245c565b610bba565b60405161035591906124a4565b60405180910390f35b610378600480360381019061037391906123d6565b610c10565b6040516103859190612441565b60405180910390f35b6103a860048036038101906103a391906124bf565b610c24565b005b6103c460048036038101906103bf91906124bf565b610c85565b005b6103ce610d01565b6040516103db9190611d42565b60405180910390f35b6103fe60048036038101906103f991906122a2565b610d25565b60405161040b9190612348565b60405180910390f35b61042e600480360381019061042991906125a0565b610e4a565b60405161043c92919061262b565b60405180910390f35b61045f600480360381019061045a91906123d6565b610edf565b60405161046c9190612441565b60405180910390f35b61048f600480360381019061048a91906123d6565b610ef3565b60405161049c9190612441565b60405180910390f35b6104ad610f07565b6040516104ba9190611d42565b60405180910390f35b6104dd60048036038101906104d8919061245c565b610f2b565b005b6104e7610f91565b6040516104f49190611d42565b60405180910390f35b610517600480360381019061051291906123d6565b610fb5565b6040516105249190612441565b60405180910390f35b6105476004803603810190610542919061265b565b610fc9565b6040516105549190612348565b60405180910390f35b610565611057565b6040516105729190612441565b60405180910390f35b610583611081565b6040516105909190612441565b60405180910390f35b6105b360048036038101906105ae91906124bf565b6110ab565b6040516105c091906124a4565b60405180910390f35b6105e360048036038101906105de91906126d3565b6110dd565b6040516105f091906124a4565b60405180910390f35b6106016110f3565b60405161060e9190611d42565b60405180910390f35b61061f6110fa565b60405161062c91906124a4565b60405180910390f35b61063d61111f565b60405161064a91906124a4565b60405180910390f35b61066d6004803603810190610668919061275e565b611136565b005b610689600480360381019061068491906124bf565b611296565b005b6106936112f7565b6040516106a09190611d42565b60405180910390f35b6106c360048036038101906106be91906123d6565b61131b565b6040516106d09190612348565b60405180910390f35b6106e161132f565b6040516106ee9190611d42565b60405180910390f35b610711600480360381019061070c91906123d6565b611353565b60405161071e9190612348565b60405180910390f35b610741600480360381019061073c919061245c565b611367565b005b7fd8aa0f3194971a2a116679f7c2090f6939c8d4e01a2a8d7e41d55e5351469e6381565b7f24f6679db5ad89e1735cc3ff300ee2cf5477ec5cf71573e015430144c84b7ca781565b60607f16d22fb0a3dea8ff8be795756b9481592d33d5cad2ba7d6d931b8de4c03e25926107b881336110ab565b6107f7576040517f08c379a00000000000000000000000000000000000000000000000000000000081526004016107ee90612834565b60405180910390fd5b825184511461083b576040517f08c379a0000000000000000000000000000000000000000000000000000000008152600401610832906128a0565b60405180910390fd5b6000845167ffffffffffffffff81111561085857610857611d87565b5b60405190808252806020026020018201604052801561088b57816020015b60608152602001906001900390816108765790505b50905060005b8551811015610909576108d88682815181106108b0576108af6128c0565b5b60200260200101518683815181106108cb576108ca6128c0565b5b60200260200101516113fd565b8282815181106108eb576108ea6128c0565b5b6020026020010181905250808061090190612928565b915050610891565b50809250505092915050565b60607fd8aa0f3194971a2a116679f7c2090f6939c8d4e01a2a8d7e41d55e5351469e6361094281336110ab565b610981576040517f08c379a000000000000000000000000000000000000000000000000000000000815260040161097890612834565b60405180910390fd5b6000808573ffffffffffffffffffffffffffffffffffffffff16856040516109a991906129ac565b6000604051808303816000865af19150503d80600081146109e6576040519150601f19603f3d011682016040523d82523d6000602084013e6109eb565b606091505b509150915081610a30576040517f08c379a0000000000000000000000000000000000000000000000000000000008152600401610a2790612a0f565b60405180910390fd5b80935050505092915050565b60607fd8aa0f3194971a2a116679f7c2090f6939c8d4e01a2a8d7e41d55e5351469e63610a6981336110ab565b610aa8576040517f08c379a0000000000000000000000000000000000000000000000000000000008152600401610a9f90612834565b60405180910390fd5b610ab284846113fd565b91505092915050565b6000801b610ac981336110ab565b610b08576040517f08c379a0000000000000000000000000000000000000000000000000000000008152600401610aff90612834565b60405180910390fd5b6000610b1384611524565b9050826004600086815260200190815260200160002060020181905550837fbd79b86ffe0ab8e8776151514217cd7cacd52c909f66475c3af44e129f0b00ff8285604051610b62929190612a2f565b60405180910390a250505050565b60008060ff60f81b30848680519060200120604051602001610b959493929190612b0e565b6040516020818303038152906040528051906020012090508060001c91505092915050565b6000600360008373ffffffffffffffffffffffffffffffffffffffff1673ffffffffffffffffffffffffffffffffffffffff16815260200190815260200160002060009054906101000a900460ff169050919050565b6000610c1c8383610fb5565b905092915050565b610c2d82611524565b610c3781336110ab565b610c76576040517f08c379a0000000000000000000000000000000000000000000000000000000008152600401610c6d90612834565b60405180910390fd5b610c808383611544565b505050565b3373ffffffffffffffffffffffffffffffffffffffff168173ffffffffffffffffffffffffffffffffffffffff1614610cf3576040517f08c379a0000000000000000000000000000000000000000000000000000000008152600401610cea90612bce565b60405180910390fd5b610cfd82826115d1565b5050565b7f7613a25ecc738585a232ad50a301178f12b3ba8887d13e138b523c4269c4768981565b60607f24f6679db5ad89e1735cc3ff300ee2cf5477ec5cf71573e015430144c84b7ca7610d5281336110ab565b610d91576040517f08c379a0000000000000000000000000000000000000000000000000000000008152600401610d8890612834565b60405180910390fd5b6000808573ffffffffffffffffffffffffffffffffffffffff1685604051610db991906129ac565b600060405180830381855afa9150503d8060008114610df4576040519150601f19603f3d011682016040523d82523d6000602084013e610df9565b606091505b509150915081610e3e576040517f08c379a0000000000000000000000000000000000000000000000000000000008152600401610e3590612c3a565b60405180910390fd5b80935050505092915050565b60006060848484604051602401610e619190612348565b60405160208183030381529060405290604051610e7e9190612ca1565b60405180910390207bffffffffffffffffffffffffffffffffffffffffffffffffffffffff19166020820180517bffffffffffffffffffffffffffffffffffffffffffffffffffffffff838183161783525050505091509150935093915050565b6000610eeb8383610b70565b905092915050565b6000610eff8383610b70565b905092915050565b7fa49807205ce4d355092ef5a8a18f56e8913cf4a201fbe287825b095693c2177581565b610f3361165e565b610f3d81336110ab565b610f7c576040517f08c379a0000000000000000000000000000000000000000000000000000000008152600401610f7390612834565b60405180910390fd5b610f8d610f87611686565b836115d1565b5050565b7fdc72ed553f2544c34465af23b847953efeb813428162d767f9ba5f4013be676081565b6000610fc183836116ae565b905092915050565b60608282604051602401610fdd9190612348565b60405160208183030381529060405290604051610ffa9190612ca1565b60405180910390207bffffffffffffffffffffffffffffffffffffffffffffffffffffffff19166020820180517bffffffffffffffffffffffffffffffffffffffffffffffffffffffff8381831617835250505050905092915050565b6000600260009054906101000a900473ffffffffffffffffffffffffffffffffffffffff16905090565b6000600160009054906101000a900473ffffffffffffffffffffffffffffffffffffffff16905090565b60006110d582600460008681526020019081526020016000206000016117d490919063ffffffff16565b905092915050565b60006110ea848484611804565b90509392505050565b6000801b81565b6000600560009054906101000a900460ff16801561111a57506006544311155b905090565b6000600760009054906101000a900460ff16905090565b600760029054906101000a900460ff168061115e5750600760019054906101000a900460ff16155b61119d576040517f08c379a000000000000000000000000000000000000000000000000000000000815260040161119490612d2a565b60405180910390fd5b6000600760029054906101000a900460ff1615905080156111ef576001600760026101000a81548160ff0219169083151502179055506001600760016101000a81548160ff0219169083151502179055505b6111f7611870565b15611237576040517f08c379a000000000000000000000000000000000000000000000000000000000815260040161122e90612dbc565b60405180910390fd5b611248611242611887565b856118af565b6112556000801b836118af565b61126661126061165e565b846118af565b61126e6118bd565b8015611290576000600760026101000a81548160ff0219169083151502179055505b50505050565b61129f82611524565b6112a981336110ab565b6112e8576040517f08c379a00000000000000000000000000000000000000000000000000000000081526004016112df90612834565b60405180910390fd5b6112f283836115d1565b505050565b7f16d22fb0a3dea8ff8be795756b9481592d33d5cad2ba7d6d931b8de4c03e259281565b6060611327838361192a565b905092915050565b7fb19546dff01e856fb3f010c267a7b1c60363cf8a4664e21cc89c26224620214e81565b606061135f8383611ade565b905092915050565b61136f61165e565b61137981336110ab565b6113b8576040517f08c379a00000000000000000000000000000000000000000000000000000000081526004016113af90612834565b60405180910390fd5b6113c96113c3611686565b83611544565b5050565b60006113f5836000018373ffffffffffffffffffffffffffffffffffffffff1660001b611b52565b905092915050565b60607fd8aa0f3194971a2a116679f7c2090f6939c8d4e01a2a8d7e41d55e5351469e6361142a81336110ab565b611469576040517f08c379a000000000000000000000000000000000000000000000000000000000815260040161146090612834565b60405180910390fd5b6000808573ffffffffffffffffffffffffffffffffffffffff168560405161149191906129ac565b6000604051808303816000865af19150503d80600081146114ce576040519150601f19603f3d011682016040523d82523d6000602084013e6114d3565b606091505b509150915081611518576040517f08c379a000000000000000000000000000000000000000000000000000000000815260040161150f90612e28565b60405180910390fd5b80935050505092915050565b600060046000838152602001908152602001600020600201549050919050565b61156c81600460008581526020019081526020016000206000016113cd90919063ffffffff16565b156115cd573373ffffffffffffffffffffffffffffffffffffffff168173ffffffffffffffffffffffffffffffffffffffff16837f2f8788117e7eff1d82e926ec794901d17c78024a50270940304540a733656f0d60405160405180910390a45b5050565b6115f98160046000858152602001908152602001600020600001611bc290919063ffffffff16565b1561165a573373ffffffffffffffffffffffffffffffffffffffff168173ffffffffffffffffffffffffffffffffffffffff16837ff6391f5c32d9c69d2a47ea670b442974b53935d1edc7fd64eb21e047a839171b60405160405180910390a45b5050565b60007f7613a25ecc738585a232ad50a301178f12b3ba8887d13e138b523c4269c47689905090565b60007fdc72ed553f2544c34465af23b847953efeb813428162d767f9ba5f4013be6760905090565b60008060008451036116f5576040517f08c379a00000000000000000000000000000000000000000000000000000000081526004016116ec90612e94565b60405180910390fd5b828451602086016000f59050600073ffffffffffffffffffffffffffffffffffffffff168173ffffffffffffffffffffffffffffffffffffffff1603611770576040517f08c379a000000000000000000000000000000000000000000000000000000000815260040161176790612f00565b60405180910390fd5b8073ffffffffffffffffffffffffffffffffffffffff163373ffffffffffffffffffffffffffffffffffffffff167f33c981baba081f8fd2c52ac6ad1ea95b6814b4376640f55689051f658472968860405160405180910390a38091505092915050565b60006117fc836000018373ffffffffffffffffffffffffffffffffffffffff1660001b611bf2565b905092915050565b600080611811858461192a565b90508380519060200120818051906020012014611832576000915050611869565b60008184604051602001611847929190612f20565b6040516020818303038152906040528051906020012090506000548114925050505b9392505050565b6000600760019054906101000a900460ff16905090565b60007fb19546dff01e856fb3f010c267a7b1c60363cf8a4664e21cc89c26224620214e905090565b6118b98282611544565b5050565b600760019054906101000a900460ff161561190d576040517f08c379a000000000000000000000000000000000000000000000000000000000815260040161190490612f94565b60405180910390fd5b6001600760016101000a81548160ff021916908315150217905550565b60606020835111611970576040517f08c379a00000000000000000000000000000000000000000000000000000000081526004016119679061304c565b60405180910390fd5b600060208401519050600054818460405160200161198f92919061306c565b60405160208183030381529060405280519060200120146119e5576040517f08c379a00000000000000000000000000000000000000000000000000000000081526004016119dc906130e4565b60405180910390fd5b6000602085516119f59190613104565b67ffffffffffffffff811115611a0e57611a0d611d87565b5b6040519080825280601f01601f191660200182016040528015611a405781602001600182028036833780820191505090505b5090506000602090505b8551811015611ad257858181518110611a6657611a656128c0565b5b602001015160f81c60f81b82602083611a7f9190613104565b81518110611a9057611a8f6128c0565b5b60200101907effffffffffffffffffffffffffffffffffffffffffffffffffffffffffffff1916908160001a9053508080611aca90612928565b915050611a4a565b50809250505092915050565b60606000835111611b24576040517f08c379a0000000000000000000000000000000000000000000000000000000008152600401611b1b90613184565b60405180910390fd5b6000548284604051602001611b3b939291906131a4565b604051602081830303815290604052905092915050565b6000611b5e8383611bf2565b611bb7578260000182908060018154018082558091505060019003906000526020600020016000909190919091505582600001805490508360010160008481526020019081526020016000208190555060019050611bbc565b600090505b92915050565b6000611bea836000018373ffffffffffffffffffffffffffffffffffffffff1660001b611c15565b905092915050565b600080836001016000848152602001908152602001600020541415905092915050565b60008083600101600084815260200190815260200160002054905060008114611d1d576000600182611c479190613104565b9050600060018660000180549050611c5f9190613104565b9050818114611cce576000866000018281548110611c8057611c7f6128c0565b5b9060005260206000200154905080876000018481548110611ca457611ca36128c0565b5b90600052602060002001819055508387600101600083815260200190815260200160002081905550505b85600001805480611ce257611ce16131dd565b5b600190038181906000526020600020016000905590558560010160008681526020019081526020016000206000905560019350505050611d23565b60009150505b92915050565b6000819050919050565b611d3c81611d29565b82525050565b6000602082019050611d576000830184611d33565b92915050565b6000604051905090565b600080fd5b600080fd5b600080fd5b6000601f19601f8301169050919050565b7f4e487b7100000000000000000000000000000000000000000000000000000000600052604160045260246000fd5b611dbf82611d76565b810181811067ffffffffffffffff82111715611dde57611ddd611d87565b5b80604052505050565b6000611df1611d5d565b9050611dfd8282611db6565b919050565b600067ffffffffffffffff821115611e1d57611e1c611d87565b5b602082029050602081019050919050565b600080fd5b600073ffffffffffffffffffffffffffffffffffffffff82169050919050565b6000611e5e82611e33565b9050919050565b611e6e81611e53565b8114611e7957600080fd5b50565b600081359050611e8b81611e65565b92915050565b6000611ea4611e9f84611e02565b611de7565b90508083825260208201905060208402830185811115611ec757611ec6611e2e565b5b835b81811015611ef05780611edc8882611e7c565b845260208401935050602081019050611ec9565b5050509392505050565b600082601f830112611f0f57611f0e611d71565b5b8135611f1f848260208601611e91565b91505092915050565b600067ffffffffffffffff821115611f4357611f42611d87565b5b602082029050602081019050919050565b600080fd5b600067ffffffffffffffff821115611f7457611f73611d87565b5b611f7d82611d76565b9050602081019050919050565b82818337600083830152505050565b6000611fac611fa784611f59565b611de7565b905082815260208101848484011115611fc857611fc7611f54565b5b611fd3848285611f8a565b509392505050565b600082601f830112611ff057611fef611d71565b5b8135612000848260208601611f99565b91505092915050565b600061201c61201784611f28565b611de7565b9050808382526020820190506020840283018581111561203f5761203e611e2e565b5b835b8181101561208657803567ffffffffffffffff81111561206457612063611d71565b5b8086016120718982611fdb565b85526020850194505050602081019050612041565b5050509392505050565b600082601f8301126120a5576120a4611d71565b5b81356120b5848260208601612009565b91505092915050565b600080604083850312156120d5576120d4611d67565b5b600083013567ffffffffffffffff8111156120f3576120f2611d6c565b5b6120ff85828601611efa565b925050602083013567ffffffffffffffff8111156121205761211f611d6c565b5b61212c85828601612090565b9150509250929050565b600081519050919050565b600082825260208201905092915050565b6000819050602082019050919050565b600081519050919050565b600082825260208201905092915050565b60005b8381101561219c578082015181840152602081019050612181565b838111156121ab576000848401525b50505050565b60006121bc82612162565b6121c6818561216d565b93506121d681856020860161217e565b6121df81611d76565b840191505092915050565b60006121f683836121b1565b905092915050565b6000602082019050919050565b600061221682612136565b6122208185612141565b93508360208202850161223285612152565b8060005b8581101561226e578484038952815161224f85826121ea565b945061225a836121fe565b925060208a01995050600181019050612236565b50829750879550505050505092915050565b6000602082019050818103600083015261229a818461220b565b905092915050565b600080604083850312156122b9576122b8611d67565b5b60006122c785828601611e7c565b925050602083013567ffffffffffffffff8111156122e8576122e7611d6c565b5b6122f485828601611fdb565b9150509250929050565b600082825260208201905092915050565b600061231a82612162565b61232481856122fe565b935061233481856020860161217e565b61233d81611d76565b840191505092915050565b60006020820190508181036000830152612362818461230f565b905092915050565b61237381611d29565b811461237e57600080fd5b50565b6000813590506123908161236a565b92915050565b600080604083850312156123ad576123ac611d67565b5b60006123bb85828601612381565b92505060206123cc85828601612381565b9150509250929050565b600080604083850312156123ed576123ec611d67565b5b600083013567ffffffffffffffff81111561240b5761240a611d6c565b5b61241785828601611fdb565b925050602061242885828601612381565b9150509250929050565b61243b81611e53565b82525050565b60006020820190506124566000830184612432565b92915050565b60006020828403121561247257612471611d67565b5b600061248084828501611e7c565b91505092915050565b60008115159050919050565b61249e81612489565b82525050565b60006020820190506124b96000830184612495565b92915050565b600080604083850312156124d6576124d5611d67565b5b60006124e485828601612381565b92505060206124f585828601611e7c565b9150509250929050565b600067ffffffffffffffff82111561251a57612519611d87565b5b61252382611d76565b9050602081019050919050565b600061254361253e846124ff565b611de7565b90508281526020810184848401111561255f5761255e611f54565b5b61256a848285611f8a565b509392505050565b600082601f83011261258757612586611d71565b5b8135612597848260208601612530565b91505092915050565b6000806000606084860312156125b9576125b8611d67565b5b60006125c786828701611e7c565b935050602084013567ffffffffffffffff8111156125e8576125e7611d6c565b5b6125f486828701612572565b925050604084013567ffffffffffffffff81111561261557612614611d6c565b5b61262186828701611fdb565b9150509250925092565b60006040820190506126406000830185612432565b8181036020830152612652818461230f565b90509392505050565b6000806040838503121561267257612671611d67565b5b600083013567ffffffffffffffff8111156126905761268f611d6c565b5b61269c85828601612572565b925050602083013567ffffffffffffffff8111156126bd576126bc611d6c565b5b6126c985828601611fdb565b9150509250929050565b6000806000606084860312156126ec576126eb611d67565b5b600084013567ffffffffffffffff81111561270a57612709611d6c565b5b61271686828701611fdb565b935050602084013567ffffffffffffffff81111561273757612736611d6c565b5b61274386828701611fdb565b925050604061275486828701612381565b9150509250925092565b60008060006060848603121561277757612776611d67565b5b600061278586828701611e7c565b935050602061279686828701611e7c565b92505060406127a786828701611e7c565b9150509250925092565b600082825260208201905092915050565b7f416363657373436f6e74726f6c3a2073656e64657220646f6573206e6f74206860008201527f61766520726f6c65000000000000000000000000000000000000000000000000602082015250565b600061281e6028836127b1565b9150612829826127c2565b604082019050919050565b6000602082019050818103600083015261284d81612811565b9050919050565b7f5461726765747320616e642064617461206c656e677468206d69736d61746368600082015250565b600061288a6020836127b1565b915061289582612854565b602082019050919050565b600060208201905081810360008301526128b98161287d565b9050919050565b7f4e487b7100000000000000000000000000000000000000000000000000000000600052603260045260246000fd5b7f4e487b7100000000000000000000000000000000000000000000000000000000600052601160045260246000fd5b6000819050919050565b60006129338261291e565b91507fffffffffffffffffffffffffffffffffffffffffffffffffffffffffffffffff8203612965576129646128ef565b5b600182019050919050565b600081905092915050565b600061298682612162565b6129908185612970565b93506129a081856020860161217e565b80840191505092915050565b60006129b8828461297b565b915081905092915050565b7f43616c6c206661696c6564000000000000000000000000000000000000000000600082015250565b60006129f9600b836127b1565b9150612a04826129c3565b602082019050919050565b60006020820190508181036000830152612a28816129ec565b9050919050565b6000604082019050612a446000830185611d33565b612a516020830184611d33565b9392505050565b60007fff0000000000000000000000000000000000000000000000000000000000000082169050919050565b6000819050919050565b612a9f612a9a82612a58565b612a84565b82525050565b60008160601b9050919050565b6000612abd82612aa5565b9050919050565b6000612acf82612ab2565b9050919050565b612ae7612ae282611e53565b612ac4565b82525050565b6000819050919050565b612b08612b0382611d29565b612aed565b82525050565b6000612b1a8287612a8e565b600182019150612b2a8286612ad6565b601482019150612b3a8285612af7565b602082019150612b4a8284612af7565b60208201915081905095945050505050565b7f416363657373436f6e74726f6c3a2063616e206f6e6c792072656e6f756e636560008201527f20726f6c657320666f722073656c660000000000000000000000000000000000602082015250565b6000612bb8602f836127b1565b9150612bc382612b5c565b604082019050919050565b60006020820190508181036000830152612be781612bab565b9050919050565b7f5374617469632063616c6c206661696c65640000000000000000000000000000600082015250565b6000612c246012836127b1565b9150612c2f82612bee565b602082019050919050565b60006020820190508181036000830152612c5381612c17565b9050919050565b600081519050919050565b600081905092915050565b6000612c7b82612c5a565b612c858185612c65565b9350612c9581856020860161217e565b80840191505092915050565b6000612cad8284612c70565b915081905092915050565b7f496e697469616c697a61626c653a20636f6e747261637420697320616c72656160008201527f647920696e697469616c697a6564000000000000000000000000000000000000602082015250565b6000612d14602e836127b1565b9150612d1f82612cb8565b604082019050919050565b60006020820190508181036000830152612d4381612d07565b9050919050565b7f416476616e636564416363657373436f6e74726f6c3a20616c7265616479206960008201527f6e697469616c697a656400000000000000000000000000000000000000000000602082015250565b6000612da6602a836127b1565b9150612db182612d4a565b604082019050919050565b60006020820190508181036000830152612dd581612d99565b9050919050565b7f457865637574696f6e206661696c656400000000000000000000000000000000600082015250565b6000612e126010836127b1565b9150612e1d82612ddc565b602082019050919050565b60006020820190508181036000830152612e4181612e05565b9050919050565b7f42797465636f6465206c656e677468206973207a65726f000000000000000000600082015250565b6000612e7e6017836127b1565b9150612e8982612e48565b602082019050919050565b60006020820190508181036000830152612ead81612e71565b9050919050565b7f4661696c656420746f206465706c6f7920636f6e747261637400000000000000600082015250565b6000612eea6019836127b1565b9150612ef582612eb4565b602082019050919050565b60006020820190508181036000830152612f1981612edd565b9050919050565b6000612f2c828561297b565b9150612f388284612af7565b6020820191508190509392505050565b7f436f6e747261637420616c726561647920696e697469616c697a656400000000600082015250565b6000612f7e601c836127b1565b9150612f8982612f48565b602082019050919050565b60006020820190508181036000830152612fad81612f71565b9050919050565b7f456e636f646564206461746120697320746f6f2073686f727420746f20636f6e60008201527f7461696e2073616c7420616e64206164646974696f6e616c20706172616d657460208201527f6572730000000000000000000000000000000000000000000000000000000000604082015250565b60006130366043836127b1565b915061304182612fb4565b606082019050919050565b6000602082019050818103600083015261306581613029565b9050919050565b60006130788285612af7565b6020820191506130888284612af7565b6020820191508190509392505050565b7f496e76616c696420656e636f64696e6720706172616d65746572730000000000600082015250565b60006130ce601b836127b1565b91506130d982613098565b602082019050919050565b600060208201905081810360008301526130fd816130c1565b9050919050565b600061310f8261291e565b915061311a8361291e565b92508282101561312d5761312c6128ef565b5b828203905092915050565b7f446174612063616e6e6f7420626520656d707479000000000000000000000000600082015250565b600061316e6014836127b1565b915061317982613138565b602082019050919050565b6000602082019050818103600083015261319d81613161565b9050919050565b60006131b08286612af7565b6020820191506131c08285612af7565b6020820191506131d0828461297b565b9150819050949350505050565b7f4e487b7100000000000000000000000000000000000000000000000000000000600052603160045260246000fdfea264697066735822122025fb8cff9d42fe5d86e778df700b55f3e42402494980e784d66b02591d291d6464736f6c634300080d0033",
  "immutableReferences": {},
  "source": "// SPDX-License-Identifier: MIT\npragma solidity ^0.8.0;\n\nimport \"../../objective/Binders/WithEncoder.sol\";\nimport \"../../objective/Binders/WithDeployer.sol\";\nimport \"../../objective/Binders/WithExecutor.sol\";\n\ncontract BaseFactory is WithEncoder, WithDeployer, WithExecutor {}\n",
  "sourcePath": "/Users/yemo/yemowithprivate/projects/yemowith/contracts/core/libraries/Factories/BaseFactory.sol",
  "compiler": {
    "name": "solc",
    "version": "0.8.13+commit.abaa5c0e.Emscripten.clang"
  },
  "schemaVersion": "3.4.16",
  "updatedAt": "2024-06-10T11:54:44.464Z",
  "devdoc": {
    "kind": "dev",
    "methods": {
      "_computeAddress(bytes,bytes32)": {
        "details": "Computes the address for a contract to be deployed via CREATE2.",
        "params": {
          "_bytecode": "The bytecode of the contract to be deployed.",
          "_salt": "A bytes32 salt value used to compute the address."
        },
        "returns": {
          "_0": "computedAddress The precomputed address of the contract if deployed with the provided bytecode and salt."
        }
      },
      "deploy(bytes,bytes32)": {
        "details": "Computes the address for a contract to be deployed via CREATE2, without actually deploying it.",
        "params": {
          "_bytecode": "The bytecode of the contract to be deployed.",
          "_salt": "A bytes32 salt value used to compute the address."
        },
        "returns": {
          "_0": "computedAddress The precomputed address of the contract if deployed with the provided bytecode and salt."
        }
      },
      "initiateDeployment(bytes,bytes32)": {
        "details": "Public function to initiate the deployment of a contract.",
        "params": {
          "_bytecode": "The bytecode of the contract to be deployed.",
          "_salt": "A bytes32 salt value used to create a deterministic address."
        },
        "returns": {
          "_0": "contractAddress The address of the deployed contract."
        }
      }
    },
    "version": 1
  },
  "userdoc": {
    "kind": "user",
    "methods": {},
    "version": 1
  }
}