{
  "contractName": "Executor",
  "abi": [
    {
      "anonymous": false,
      "inputs": [
        {
          "indexed": true,
          "internalType": "address",
          "name": "admin",
          "type": "address"
        }
      ],
      "name": "AdminAdded",
      "type": "event"
    },
    {
      "anonymous": false,
      "inputs": [
        {
          "indexed": true,
          "internalType": "address",
          "name": "admin",
          "type": "address"
        }
      ],
      "name": "AdminRemoved",
      "type": "event"
    },
    {
      "anonymous": false,
      "inputs": [
        {
          "indexed": false,
          "internalType": "uint256",
          "name": "untilBlock",
          "type": "uint256"
        }
      ],
      "name": "Locked",
      "type": "event"
    },
    {
      "anonymous": false,
      "inputs": [],
      "name": "Paused",
      "type": "event"
    },
    {
      "anonymous": false,
      "inputs": [
        {
          "indexed": true,
          "internalType": "bytes32",
          "name": "role",
          "type": "bytes32"
        },
        {
          "indexed": false,
          "internalType": "bytes32",
          "name": "previousAdminRole",
          "type": "bytes32"
        },
        {
          "indexed": false,
          "internalType": "bytes32",
          "name": "newAdminRole",
          "type": "bytes32"
        }
      ],
      "name": "RoleAdminChanged",
      "type": "event"
    },
    {
      "anonymous": false,
      "inputs": [
        {
          "indexed": true,
          "internalType": "bytes32",
          "name": "role",
          "type": "bytes32"
        },
        {
          "indexed": true,
          "internalType": "address",
          "name": "account",
          "type": "address"
        },
        {
          "indexed": true,
          "internalType": "address",
          "name": "sender",
          "type": "address"
        }
      ],
      "name": "RoleGranted",
      "type": "event"
    },
    {
      "anonymous": false,
      "inputs": [
        {
          "indexed": true,
          "internalType": "bytes32",
          "name": "role",
          "type": "bytes32"
        },
        {
          "indexed": true,
          "internalType": "address",
          "name": "account",
          "type": "address"
        },
        {
          "indexed": true,
          "internalType": "address",
          "name": "sender",
          "type": "address"
        }
      ],
      "name": "RoleRevoked",
      "type": "event"
    },
    {
      "anonymous": false,
      "inputs": [
        {
          "indexed": true,
          "internalType": "address",
          "name": "previousSuperAdmin",
          "type": "address"
        },
        {
          "indexed": true,
          "internalType": "address",
          "name": "newSuperAdmin",
          "type": "address"
        }
      ],
      "name": "SuperAdminChanged",
      "type": "event"
    },
    {
      "anonymous": false,
      "inputs": [],
      "name": "Unlocked",
      "type": "event"
    },
    {
      "anonymous": false,
      "inputs": [],
      "name": "Unpaused",
      "type": "event"
    },
    {
      "inputs": [],
      "name": "ADMIN_ROLE",
      "outputs": [
        {
          "internalType": "bytes32",
          "name": "",
          "type": "bytes32"
        }
      ],
      "stateMutability": "view",
      "type": "function"
    },
    {
      "inputs": [],
      "name": "DEFAULT_ADMIN_ROLE",
      "outputs": [
        {
          "internalType": "bytes32",
          "name": "",
          "type": "bytes32"
        }
      ],
      "stateMutability": "view",
      "type": "function"
    },
    {
      "inputs": [],
      "name": "EXECUTOR_ROLE",
      "outputs": [
        {
          "internalType": "bytes32",
          "name": "",
          "type": "bytes32"
        }
      ],
      "stateMutability": "view",
      "type": "function"
    },
    {
      "inputs": [],
      "name": "MULTI_EXECUTOR_ROLE",
      "outputs": [
        {
          "internalType": "bytes32",
          "name": "",
          "type": "bytes32"
        }
      ],
      "stateMutability": "view",
      "type": "function"
    },
    {
      "inputs": [],
      "name": "OWNER_ROLE",
      "outputs": [
        {
          "internalType": "bytes32",
          "name": "",
          "type": "bytes32"
        }
      ],
      "stateMutability": "view",
      "type": "function"
    },
    {
      "inputs": [],
      "name": "STATIC_CALLER_ROLE",
      "outputs": [
        {
          "internalType": "bytes32",
          "name": "",
          "type": "bytes32"
        }
      ],
      "stateMutability": "view",
      "type": "function"
    },
    {
      "inputs": [],
      "name": "SUPER_ADMIN_ROLE",
      "outputs": [
        {
          "internalType": "bytes32",
          "name": "",
          "type": "bytes32"
        }
      ],
      "stateMutability": "view",
      "type": "function"
    },
    {
      "inputs": [],
      "name": "WHITELIST_ROLE",
      "outputs": [
        {
          "internalType": "bytes32",
          "name": "",
          "type": "bytes32"
        }
      ],
      "stateMutability": "view",
      "type": "function"
    },
    {
      "inputs": [
        {
          "internalType": "address",
          "name": "account",
          "type": "address"
        }
      ],
      "name": "addWhitelist",
      "outputs": [],
      "stateMutability": "nonpayable",
      "type": "function"
    },
    {
      "inputs": [],
      "name": "getOwner",
      "outputs": [
        {
          "internalType": "address",
          "name": "",
          "type": "address"
        }
      ],
      "stateMutability": "view",
      "type": "function"
    },
    {
      "inputs": [],
      "name": "getSuperAdmin",
      "outputs": [
        {
          "internalType": "address",
          "name": "",
          "type": "address"
        }
      ],
      "stateMutability": "view",
      "type": "function"
    },
    {
      "inputs": [
        {
          "internalType": "bytes32",
          "name": "role",
          "type": "bytes32"
        },
        {
          "internalType": "address",
          "name": "account",
          "type": "address"
        }
      ],
      "name": "grantRole",
      "outputs": [],
      "stateMutability": "nonpayable",
      "type": "function"
    },
    {
      "inputs": [
        {
          "internalType": "bytes32",
          "name": "role",
          "type": "bytes32"
        },
        {
          "internalType": "address",
          "name": "account",
          "type": "address"
        }
      ],
      "name": "hasRole",
      "outputs": [
        {
          "internalType": "bool",
          "name": "",
          "type": "bool"
        }
      ],
      "stateMutability": "view",
      "type": "function"
    },
    {
      "inputs": [
        {
          "internalType": "address",
          "name": "owner",
          "type": "address"
        },
        {
          "internalType": "address",
          "name": "superAdmin",
          "type": "address"
        }
      ],
      "name": "initialize",
      "outputs": [],
      "stateMutability": "nonpayable",
      "type": "function"
    },
    {
      "inputs": [
        {
          "internalType": "address",
          "name": "user",
          "type": "address"
        }
      ],
      "name": "isAdmin",
      "outputs": [
        {
          "internalType": "bool",
          "name": "",
          "type": "bool"
        }
      ],
      "stateMutability": "view",
      "type": "function"
    },
    {
      "inputs": [],
      "name": "isLocked",
      "outputs": [
        {
          "internalType": "bool",
          "name": "",
          "type": "bool"
        }
      ],
      "stateMutability": "view",
      "type": "function"
    },
    {
      "inputs": [],
      "name": "isPaused",
      "outputs": [
        {
          "internalType": "bool",
          "name": "",
          "type": "bool"
        }
      ],
      "stateMutability": "view",
      "type": "function"
    },
    {
      "inputs": [
        {
          "internalType": "address",
          "name": "account",
          "type": "address"
        }
      ],
      "name": "removeWhitelist",
      "outputs": [],
      "stateMutability": "nonpayable",
      "type": "function"
    },
    {
      "inputs": [
        {
          "internalType": "bytes32",
          "name": "role",
          "type": "bytes32"
        },
        {
          "internalType": "address",
          "name": "account",
          "type": "address"
        }
      ],
      "name": "renounceRole",
      "outputs": [],
      "stateMutability": "nonpayable",
      "type": "function"
    },
    {
      "inputs": [
        {
          "internalType": "bytes32",
          "name": "role",
          "type": "bytes32"
        },
        {
          "internalType": "address",
          "name": "account",
          "type": "address"
        }
      ],
      "name": "revokeRole",
      "outputs": [],
      "stateMutability": "nonpayable",
      "type": "function"
    },
    {
      "inputs": [
        {
          "internalType": "bytes32",
          "name": "role",
          "type": "bytes32"
        },
        {
          "internalType": "bytes32",
          "name": "newAdminRole",
          "type": "bytes32"
        }
      ],
      "name": "setRoleAdmin",
      "outputs": [],
      "stateMutability": "nonpayable",
      "type": "function"
    },
    {
      "inputs": [
        {
          "internalType": "address",
          "name": "target",
          "type": "address"
        },
        {
          "internalType": "bytes",
          "name": "data",
          "type": "bytes"
        }
      ],
      "name": "execute",
      "outputs": [
        {
          "internalType": "bytes",
          "name": "",
          "type": "bytes"
        }
      ],
      "stateMutability": "nonpayable",
      "type": "function"
    },
    {
      "inputs": [
        {
          "internalType": "address[]",
          "name": "targets",
          "type": "address[]"
        },
        {
          "internalType": "bytes[]",
          "name": "data",
          "type": "bytes[]"
        }
      ],
      "name": "multiExecute",
      "outputs": [
        {
          "internalType": "bytes[]",
          "name": "",
          "type": "bytes[]"
        }
      ],
      "stateMutability": "nonpayable",
      "type": "function"
    },
    {
      "inputs": [
        {
          "internalType": "address",
          "name": "target",
          "type": "address"
        },
        {
          "internalType": "bytes",
          "name": "data",
          "type": "bytes"
        }
      ],
      "name": "call",
      "outputs": [
        {
          "internalType": "bytes",
          "name": "",
          "type": "bytes"
        }
      ],
      "stateMutability": "nonpayable",
      "type": "function"
    },
    {
      "inputs": [
        {
          "internalType": "address",
          "name": "target",
          "type": "address"
        },
        {
          "internalType": "bytes",
          "name": "data",
          "type": "bytes"
        }
      ],
      "name": "callStatic",
      "outputs": [
        {
          "internalType": "bytes",
          "name": "",
          "type": "bytes"
        }
      ],
      "stateMutability": "view",
      "type": "function"
    },
    {
      "inputs": [
        {
          "internalType": "address",
          "name": "target",
          "type": "address"
        },
        {
          "internalType": "string",
          "name": "signature",
          "type": "string"
        },
        {
          "internalType": "bytes",
          "name": "params",
          "type": "bytes"
        }
      ],
      "name": "getEncodedData",
      "outputs": [
        {
          "internalType": "address",
          "name": "",
          "type": "address"
        },
        {
          "internalType": "bytes",
          "name": "",
          "type": "bytes"
        }
      ],
      "stateMutability": "pure",
      "type": "function"
    },
    {
      "inputs": [
        {
          "internalType": "string",
          "name": "signature",
          "type": "string"
        },
        {
          "internalType": "bytes",
          "name": "params",
          "type": "bytes"
        }
      ],
      "name": "getEncodedData",
      "outputs": [
        {
          "internalType": "bytes",
          "name": "",
          "type": "bytes"
        }
      ],
      "stateMutability": "pure",
      "type": "function"
    }
  ],
  "bytecode": "0x608060405234801562000010575f80fd5b5033338181815f806101000a81548173ffffffffffffffffffffffffffffffffffffffff021916908373ffffffffffffffffffffffffffffffffffffffff1602179055508060015f6101000a81548173ffffffffffffffffffffffffffffffffffffffff021916908373ffffffffffffffffffffffffffffffffffffffff160217905550600160025f8473ffffffffffffffffffffffffffffffffffffffff1673ffffffffffffffffffffffffffffffffffffffff1681526020019081526020015f205f6101000a81548160ff0219169083151502179055505050620000ff5f801b836200016b60201b60201c565b620001317fb19546dff01e856fb3f010c267a7b1c60363cf8a4664e21cc89c26224620214e836200016b60201b60201c565b620001637f7613a25ecc738585a232ad50a301178f12b3ba8887d13e138b523c4269c47689826200016b60201b60201c565b5050620002d4565b6200017d82826200018160201b60201c565b5050565b620001a88160035f8581526020019081526020015f205f016200020e60201b90919060201c565b156200020a573373ffffffffffffffffffffffffffffffffffffffff168173ffffffffffffffffffffffffffffffffffffffff16837f2f8788117e7eff1d82e926ec794901d17c78024a50270940304540a733656f0d60405160405180910390a45b5050565b5f6200023b835f018373ffffffffffffffffffffffffffffffffffffffff165f1b6200024360201b60201c565b905092915050565b5f620002568383620002b460201b60201c565b620002aa57825f0182908060018154018082558091505060019003905f5260205f20015f9091909190915055825f0180549050836001015f8481526020019081526020015f208190555060019050620002ae565b5f90505b92915050565b5f80836001015f8481526020019081526020015f20541415905092915050565b6125e380620002e25f395ff3fe608060405234801561000f575f80fd5b50600436106101a7575f3560e01c806375b238fc116100f7578063a217fddf11610095578063d547741f1161006f578063d547741f146104e4578063da73b13f14610500578063e58378bb1461051e578063f80f5dd51461053c576101a7565b8063a217fddf1461048a578063a4e2d634146104a8578063b187bd26146104c6576101a7565b80637eaeabff116100d15780637eaeabff146103ee5780638204c3261461041e578063893d20e81461043c57806391d148541461045a576101a7565b806375b238fc1461039657806378c8cda7146103b45780637a997ab7146103d0576101a7565b806324d7806c116101645780634460bdd61161013e5780634460bdd6146102fb57806344eb646314610319578063485cc955146103495780634a3aad1114610365576101a7565b806324d7806c146102935780632f2ff15d146102c357806336568abe146102df576101a7565b806307bd0265146101ab5780630d2efdbb146101c95780631a8090bb146101e75780631b8b921d146102175780631cff79cd146102475780631e4e009114610277575b5f80fd5b6101b3610558565b6040516101c0919061165f565b60405180910390f35b6101d161057c565b6040516101de919061165f565b60405180910390f35b61020160048036038101906101fc91906119c1565b6105a0565b60405161020e9190611b6c565b60405180910390f35b610231600480360381019061022c9190611b8c565b610728565b60405161023e9190611c2e565b60405180910390f35b610261600480360381019061025c9190611b8c565b61084a565b60405161026e9190611c2e565b60405180910390f35b610291600480360381019061028c9190611c78565b6108c9565b005b6102ad60048036038101906102a89190611cb6565b61097a565b6040516102ba9190611cfb565b60405180910390f35b6102dd60048036038101906102d89190611d14565b6109cc565b005b6102f960048036038101906102f49190611d14565b610a2d565b005b610303610aa9565b604051610310919061165f565b60405180910390f35b610333600480360381019061032e9190611b8c565b610acd565b6040516103409190611c2e565b60405180910390f35b610363600480360381019061035e9190611d52565b610bee565b005b61037f600480360381019061037a9190611e2e565b610d4a565b60405161038d929190611ec5565b60405180910390f35b61039e610dde565b6040516103ab919061165f565b60405180910390f35b6103ce60048036038101906103c99190611cb6565b610e02565b005b6103d8610e68565b6040516103e5919061165f565b60405180910390f35b61040860048036038101906104039190611ef3565b610e8c565b6040516104159190611c2e565b60405180910390f35b610426610f1a565b6040516104339190611f69565b60405180910390f35b610444610f42565b6040516104519190611f69565b60405180910390f35b610474600480360381019061046f9190611d14565b610f69565b6040516104819190611cfb565b60405180910390f35b610492610f97565b60405161049f919061165f565b60405180910390f35b6104b0610f9d565b6040516104bd9190611cfb565b60405180910390f35b6104ce610fc0565b6040516104db9190611cfb565b60405180910390f35b6104fe60048036038101906104f99190611d14565b610fd5565b005b610508611036565b604051610515919061165f565b60405180910390f35b61052661105a565b604051610533919061165f565b60405180910390f35b61055660048036038101906105519190611cb6565b61107e565b005b7fd8aa0f3194971a2a116679f7c2090f6939c8d4e01a2a8d7e41d55e5351469e6381565b7f24f6679db5ad89e1735cc3ff300ee2cf5477ec5cf71573e015430144c84b7ca781565b60607f16d22fb0a3dea8ff8be795756b9481592d33d5cad2ba7d6d931b8de4c03e25926105cd8133610f69565b61060c576040517f08c379a000000000000000000000000000000000000000000000000000000000815260040161060390612002565b60405180910390fd5b8251845114610650576040517f08c379a00000000000000000000000000000000000000000000000000000000081526004016106479061206a565b60405180910390fd5b5f845167ffffffffffffffff81111561066c5761066b61169d565b5b60405190808252806020026020018201604052801561069f57816020015b606081526020019060019003908161068a5790505b5090505f5b855181101561071c576106eb8682815181106106c3576106c2612088565b5b60200260200101518683815181106106de576106dd612088565b5b60200260200101516110e4565b8282815181106106fe576106fd612088565b5b60200260200101819052508080610714906120eb565b9150506106a4565b50809250505092915050565b60607fd8aa0f3194971a2a116679f7c2090f6939c8d4e01a2a8d7e41d55e5351469e636107558133610f69565b610794576040517f08c379a000000000000000000000000000000000000000000000000000000000815260040161078b90612002565b60405180910390fd5b5f808573ffffffffffffffffffffffffffffffffffffffff16856040516107bb919061216c565b5f604051808303815f865af19150503d805f81146107f4576040519150601f19603f3d011682016040523d82523d5f602084013e6107f9565b606091505b50915091508161083e576040517f08c379a0000000000000000000000000000000000000000000000000000000008152600401610835906121cc565b60405180910390fd5b80935050505092915050565b60607fd8aa0f3194971a2a116679f7c2090f6939c8d4e01a2a8d7e41d55e5351469e636108778133610f69565b6108b6576040517f08c379a00000000000000000000000000000000000000000000000000000000081526004016108ad90612002565b60405180910390fd5b6108c084846110e4565b91505092915050565b5f801b6108d68133610f69565b610915576040517f08c379a000000000000000000000000000000000000000000000000000000000815260040161090c90612002565b60405180910390fd5b5f61091f84611206565b90508260035f8681526020019081526020015f2060020181905550837fbd79b86ffe0ab8e8776151514217cd7cacd52c909f66475c3af44e129f0b00ff828560405161096c9291906121ea565b60405180910390a250505050565b5f60025f8373ffffffffffffffffffffffffffffffffffffffff1673ffffffffffffffffffffffffffffffffffffffff1681526020019081526020015f205f9054906101000a900460ff169050919050565b6109d582611206565b6109df8133610f69565b610a1e576040517f08c379a0000000000000000000000000000000000000000000000000000000008152600401610a1590612002565b60405180910390fd5b610a288383611223565b505050565b3373ffffffffffffffffffffffffffffffffffffffff168173ffffffffffffffffffffffffffffffffffffffff1614610a9b576040517f08c379a0000000000000000000000000000000000000000000000000000000008152600401610a9290612281565b60405180910390fd5b610aa582826112ad565b5050565b7f7613a25ecc738585a232ad50a301178f12b3ba8887d13e138b523c4269c4768981565b60607f24f6679db5ad89e1735cc3ff300ee2cf5477ec5cf71573e015430144c84b7ca7610afa8133610f69565b610b39576040517f08c379a0000000000000000000000000000000000000000000000000000000008152600401610b3090612002565b60405180910390fd5b5f808573ffffffffffffffffffffffffffffffffffffffff1685604051610b60919061216c565b5f60405180830381855afa9150503d805f8114610b98576040519150601f19603f3d011682016040523d82523d5f602084013e610b9d565b606091505b509150915081610be2576040517f08c379a0000000000000000000000000000000000000000000000000000000008152600401610bd9906122e9565b60405180910390fd5b80935050505092915050565b600660029054906101000a900460ff1680610c165750600660019054906101000a900460ff16155b610c55576040517f08c379a0000000000000000000000000000000000000000000000000000000008152600401610c4c90612377565b60405180910390fd5b5f600660029054906101000a900460ff161590508015610ca6576001600660026101000a81548160ff0219169083151502179055506001600660016101000a81548160ff0219169083151502179055505b610cae611337565b15610cee576040517f08c379a0000000000000000000000000000000000000000000000000000000008152600401610ce590612405565b60405180910390fd5b610cfa5f801b8461134d565b610d0b610d0561135b565b8461134d565b610d1c610d16611382565b8361134d565b610d246113a9565b8015610d45575f600660026101000a81548160ff0219169083151502179055505b505050565b5f6060848484604051602401610d609190611c2e565b60405160208183030381529060405290604051610d7d9190612467565b60405180910390207bffffffffffffffffffffffffffffffffffffffffffffffffffffffff19166020820180517bffffffffffffffffffffffffffffffffffffffffffffffffffffffff838183161783525050505091509150935093915050565b7fa49807205ce4d355092ef5a8a18f56e8913cf4a201fbe287825b095693c2177581565b610e0a611382565b610e148133610f69565b610e53576040517f08c379a0000000000000000000000000000000000000000000000000000000008152600401610e4a90612002565b60405180910390fd5b610e64610e5e611416565b836112ad565b5050565b7fdc72ed553f2544c34465af23b847953efeb813428162d767f9ba5f4013be676081565b60608282604051602401610ea09190611c2e565b60405160208183030381529060405290604051610ebd9190612467565b60405180910390207bffffffffffffffffffffffffffffffffffffffffffffffffffffffff19166020820180517bffffffffffffffffffffffffffffffffffffffffffffffffffffffff8381831617835250505050905092915050565b5f60015f9054906101000a900473ffffffffffffffffffffffffffffffffffffffff16905090565b5f805f9054906101000a900473ffffffffffffffffffffffffffffffffffffffff16905090565b5f610f8f8260035f8681526020019081526020015f205f0161143d90919063ffffffff16565b905092915050565b5f801b81565b5f60045f9054906101000a900460ff168015610fbb57506005544311155b905090565b5f60065f9054906101000a900460ff16905090565b610fde82611206565b610fe88133610f69565b611027576040517f08c379a000000000000000000000000000000000000000000000000000000000815260040161101e90612002565b60405180910390fd5b61103183836112ad565b505050565b7f16d22fb0a3dea8ff8be795756b9481592d33d5cad2ba7d6d931b8de4c03e259281565b7fb19546dff01e856fb3f010c267a7b1c60363cf8a4664e21cc89c26224620214e81565b611086611382565b6110908133610f69565b6110cf576040517f08c379a00000000000000000000000000000000000000000000000000000000081526004016110c690612002565b60405180910390fd5b6110e06110da611416565b83611223565b5050565b60607fd8aa0f3194971a2a116679f7c2090f6939c8d4e01a2a8d7e41d55e5351469e636111118133610f69565b611150576040517f08c379a000000000000000000000000000000000000000000000000000000000815260040161114790612002565b60405180910390fd5b5f808573ffffffffffffffffffffffffffffffffffffffff1685604051611177919061216c565b5f604051808303815f865af19150503d805f81146111b0576040519150601f19603f3d011682016040523d82523d5f602084013e6111b5565b606091505b5091509150816111fa576040517f08c379a00000000000000000000000000000000000000000000000000000000081526004016111f1906124c7565b60405180910390fd5b80935050505092915050565b5f60035f8381526020019081526020015f20600201549050919050565b6112488160035f8581526020019081526020015f205f0161146a90919063ffffffff16565b156112a9573373ffffffffffffffffffffffffffffffffffffffff168173ffffffffffffffffffffffffffffffffffffffff16837f2f8788117e7eff1d82e926ec794901d17c78024a50270940304540a733656f0d60405160405180910390a45b5050565b6112d28160035f8581526020019081526020015f205f0161149790919063ffffffff16565b15611333573373ffffffffffffffffffffffffffffffffffffffff168173ffffffffffffffffffffffffffffffffffffffff16837ff6391f5c32d9c69d2a47ea670b442974b53935d1edc7fd64eb21e047a839171b60405160405180910390a45b5050565b5f600660019054906101000a900460ff16905090565b6113578282611223565b5050565b5f7fb19546dff01e856fb3f010c267a7b1c60363cf8a4664e21cc89c26224620214e905090565b5f7f7613a25ecc738585a232ad50a301178f12b3ba8887d13e138b523c4269c47689905090565b600660019054906101000a900460ff16156113f9576040517f08c379a00000000000000000000000000000000000000000000000000000000081526004016113f09061252f565b60405180910390fd5b6001600660016101000a81548160ff021916908315150217905550565b5f7fdc72ed553f2544c34465af23b847953efeb813428162d767f9ba5f4013be6760905090565b5f611462835f018373ffffffffffffffffffffffffffffffffffffffff165f1b6114c4565b905092915050565b5f61148f835f018373ffffffffffffffffffffffffffffffffffffffff165f1b6114e4565b905092915050565b5f6114bc835f018373ffffffffffffffffffffffffffffffffffffffff165f1b61154b565b905092915050565b5f80836001015f8481526020019081526020015f20541415905092915050565b5f6114ef83836114c4565b61154157825f0182908060018154018082558091505060019003905f5260205f20015f9091909190915055825f0180549050836001015f8481526020019081526020015f208190555060019050611545565b5f90505b92915050565b5f80836001015f8481526020019081526020015f205490505f811461163c575f600182611578919061254d565b90505f6001865f018054905061158e919061254d565b90508082146115f4575f865f0182815481106115ad576115ac612088565b5b905f5260205f200154905080875f0184815481106115ce576115cd612088565b5b905f5260205f20018190555083876001015f8381526020019081526020015f2081905550505b855f0180548061160757611606612580565b5b600190038181905f5260205f20015f90559055856001015f8681526020019081526020015f205f905560019350505050611641565b5f9150505b92915050565b5f819050919050565b61165981611647565b82525050565b5f6020820190506116725f830184611650565b92915050565b5f604051905090565b5f80fd5b5f80fd5b5f80fd5b5f601f19601f8301169050919050565b7f4e487b71000000000000000000000000000000000000000000000000000000005f52604160045260245ffd5b6116d38261168d565b810181811067ffffffffffffffff821117156116f2576116f161169d565b5b80604052505050565b5f611704611678565b905061171082826116ca565b919050565b5f67ffffffffffffffff82111561172f5761172e61169d565b5b602082029050602081019050919050565b5f80fd5b5f73ffffffffffffffffffffffffffffffffffffffff82169050919050565b5f61176d82611744565b9050919050565b61177d81611763565b8114611787575f80fd5b50565b5f8135905061179881611774565b92915050565b5f6117b06117ab84611715565b6116fb565b905080838252602082019050602084028301858111156117d3576117d2611740565b5b835b818110156117fc57806117e8888261178a565b8452602084019350506020810190506117d5565b5050509392505050565b5f82601f83011261181a57611819611689565b5b813561182a84826020860161179e565b91505092915050565b5f67ffffffffffffffff82111561184d5761184c61169d565b5b602082029050602081019050919050565b5f80fd5b5f67ffffffffffffffff82111561187c5761187b61169d565b5b6118858261168d565b9050602081019050919050565b828183375f83830152505050565b5f6118b26118ad84611862565b6116fb565b9050828152602081018484840111156118ce576118cd61185e565b5b6118d9848285611892565b509392505050565b5f82601f8301126118f5576118f4611689565b5b81356119058482602086016118a0565b91505092915050565b5f61192061191b84611833565b6116fb565b9050808382526020820190506020840283018581111561194357611942611740565b5b835b8181101561198a57803567ffffffffffffffff81111561196857611967611689565b5b80860161197589826118e1565b85526020850194505050602081019050611945565b5050509392505050565b5f82601f8301126119a8576119a7611689565b5b81356119b884826020860161190e565b91505092915050565b5f80604083850312156119d7576119d6611681565b5b5f83013567ffffffffffffffff8111156119f4576119f3611685565b5b611a0085828601611806565b925050602083013567ffffffffffffffff811115611a2157611a20611685565b5b611a2d85828601611994565b9150509250929050565b5f81519050919050565b5f82825260208201905092915050565b5f819050602082019050919050565b5f81519050919050565b5f82825260208201905092915050565b5f5b83811015611a97578082015181840152602081019050611a7c565b5f8484015250505050565b5f611aac82611a60565b611ab68185611a6a565b9350611ac6818560208601611a7a565b611acf8161168d565b840191505092915050565b5f611ae58383611aa2565b905092915050565b5f602082019050919050565b5f611b0382611a37565b611b0d8185611a41565b935083602082028501611b1f85611a51565b805f5b85811015611b5a5784840389528151611b3b8582611ada565b9450611b4683611aed565b925060208a01995050600181019050611b22565b50829750879550505050505092915050565b5f6020820190508181035f830152611b848184611af9565b905092915050565b5f8060408385031215611ba257611ba1611681565b5b5f611baf8582860161178a565b925050602083013567ffffffffffffffff811115611bd057611bcf611685565b5b611bdc858286016118e1565b9150509250929050565b5f82825260208201905092915050565b5f611c0082611a60565b611c0a8185611be6565b9350611c1a818560208601611a7a565b611c238161168d565b840191505092915050565b5f6020820190508181035f830152611c468184611bf6565b905092915050565b611c5781611647565b8114611c61575f80fd5b50565b5f81359050611c7281611c4e565b92915050565b5f8060408385031215611c8e57611c8d611681565b5b5f611c9b85828601611c64565b9250506020611cac85828601611c64565b9150509250929050565b5f60208284031215611ccb57611cca611681565b5b5f611cd88482850161178a565b91505092915050565b5f8115159050919050565b611cf581611ce1565b82525050565b5f602082019050611d0e5f830184611cec565b92915050565b5f8060408385031215611d2a57611d29611681565b5b5f611d3785828601611c64565b9250506020611d488582860161178a565b9150509250929050565b5f8060408385031215611d6857611d67611681565b5b5f611d758582860161178a565b9250506020611d868582860161178a565b9150509250929050565b5f67ffffffffffffffff821115611daa57611da961169d565b5b611db38261168d565b9050602081019050919050565b5f611dd2611dcd84611d90565b6116fb565b905082815260208101848484011115611dee57611ded61185e565b5b611df9848285611892565b509392505050565b5f82601f830112611e1557611e14611689565b5b8135611e25848260208601611dc0565b91505092915050565b5f805f60608486031215611e4557611e44611681565b5b5f611e528682870161178a565b935050602084013567ffffffffffffffff811115611e7357611e72611685565b5b611e7f86828701611e01565b925050604084013567ffffffffffffffff811115611ea057611e9f611685565b5b611eac868287016118e1565b9150509250925092565b611ebf81611763565b82525050565b5f604082019050611ed85f830185611eb6565b8181036020830152611eea8184611bf6565b90509392505050565b5f8060408385031215611f0957611f08611681565b5b5f83013567ffffffffffffffff811115611f2657611f25611685565b5b611f3285828601611e01565b925050602083013567ffffffffffffffff811115611f5357611f52611685565b5b611f5f858286016118e1565b9150509250929050565b5f602082019050611f7c5f830184611eb6565b92915050565b5f82825260208201905092915050565b7f416363657373436f6e74726f6c3a2073656e64657220646f6573206e6f7420685f8201527f61766520726f6c65000000000000000000000000000000000000000000000000602082015250565b5f611fec602883611f82565b9150611ff782611f92565b604082019050919050565b5f6020820190508181035f83015261201981611fe0565b9050919050565b7f5461726765747320616e642064617461206c656e677468206d69736d617463685f82015250565b5f612054602083611f82565b915061205f82612020565b602082019050919050565b5f6020820190508181035f83015261208181612048565b9050919050565b7f4e487b71000000000000000000000000000000000000000000000000000000005f52603260045260245ffd5b7f4e487b71000000000000000000000000000000000000000000000000000000005f52601160045260245ffd5b5f819050919050565b5f6120f5826120e2565b91507fffffffffffffffffffffffffffffffffffffffffffffffffffffffffffffffff8203612127576121266120b5565b5b600182019050919050565b5f81905092915050565b5f61214682611a60565b6121508185612132565b9350612160818560208601611a7a565b80840191505092915050565b5f612177828461213c565b915081905092915050565b7f43616c6c206661696c65640000000000000000000000000000000000000000005f82015250565b5f6121b6600b83611f82565b91506121c182612182565b602082019050919050565b5f6020820190508181035f8301526121e3816121aa565b9050919050565b5f6040820190506121fd5f830185611650565b61220a6020830184611650565b9392505050565b7f416363657373436f6e74726f6c3a2063616e206f6e6c792072656e6f756e63655f8201527f20726f6c657320666f722073656c660000000000000000000000000000000000602082015250565b5f61226b602f83611f82565b915061227682612211565b604082019050919050565b5f6020820190508181035f8301526122988161225f565b9050919050565b7f5374617469632063616c6c206661696c656400000000000000000000000000005f82015250565b5f6122d3601283611f82565b91506122de8261229f565b602082019050919050565b5f6020820190508181035f830152612300816122c7565b9050919050565b7f496e697469616c697a61626c653a20636f6e747261637420697320616c7265615f8201527f647920696e697469616c697a6564000000000000000000000000000000000000602082015250565b5f612361602e83611f82565b915061236c82612307565b604082019050919050565b5f6020820190508181035f83015261238e81612355565b9050919050565b7f416476616e636564416363657373436f6e74726f6c3a20616c726561647920695f8201527f6e697469616c697a656400000000000000000000000000000000000000000000602082015250565b5f6123ef602a83611f82565b91506123fa82612395565b604082019050919050565b5f6020820190508181035f83015261241c816123e3565b9050919050565b5f81519050919050565b5f81905092915050565b5f61244182612423565b61244b818561242d565b935061245b818560208601611a7a565b80840191505092915050565b5f6124728284612437565b915081905092915050565b7f457865637574696f6e206661696c6564000000000000000000000000000000005f82015250565b5f6124b1601083611f82565b91506124bc8261247d565b602082019050919050565b5f6020820190508181035f8301526124de816124a5565b9050919050565b7f436f6e747261637420616c726561647920696e697469616c697a6564000000005f82015250565b5f612519601c83611f82565b9150612524826124e5565b602082019050919050565b5f6020820190508181035f8301526125468161250d565b9050919050565b5f612557826120e2565b9150612562836120e2565b925082820390508181111561257a576125796120b5565b5b92915050565b7f4e487b71000000000000000000000000000000000000000000000000000000005f52603160045260245ffdfea264697066735822122076fe7db80e751eedf33b62ca2f0f9c394cbc7d1c378be89d6842907e0da0d2f964736f6c63430008150033",
  "immutableReferences": {},
  "source": "// SPDX-License-Identifier: MIT\npragma solidity ^0.8.0;\n\nimport \"../../objective/Accessblity/BaseAccessControl.sol\";\n\ncontract Executor is BaseAccessControl {\n    bytes32 public constant EXECUTOR_ROLE = keccak256(\"EXECUTOR_ROLE\");\n    bytes32 public constant STATIC_CALLER_ROLE =\n        keccak256(\"STATIC_CALLER_ROLE\");\n    bytes32 public constant MULTI_EXECUTOR_ROLE =\n        keccak256(\"MULTI_EXECUTOR_ROLE\");\n\n    function _execute(\n        address target,\n        bytes memory data\n    ) internal onlyRole(EXECUTOR_ROLE) returns (bytes memory) {\n        (bool success, bytes memory result) = target.call(data);\n        require(success, \"Execution failed\");\n        return result;\n    }\n\n    function execute(\n        address target,\n        bytes memory data\n    ) external virtual onlyRole(EXECUTOR_ROLE) returns (bytes memory) {\n        return _execute(target, data);\n    }\n\n    function multiExecute(\n        address[] memory targets,\n        bytes[] memory data\n    ) external virtual onlyRole(MULTI_EXECUTOR_ROLE) returns (bytes[] memory) {\n        require(\n            targets.length == data.length,\n            \"Targets and data length mismatch\"\n        );\n        bytes[] memory results = new bytes[](targets.length);\n        for (uint256 i = 0; i < targets.length; i++) {\n            results[i] = _execute(targets[i], data[i]);\n        }\n        return results;\n    }\n\n    function call(\n        address target,\n        bytes memory data\n    ) external virtual onlyRole(EXECUTOR_ROLE) returns (bytes memory) {\n        (bool success, bytes memory result) = target.call(data);\n        require(success, \"Call failed\");\n        return result;\n    }\n\n    function callStatic(\n        address target,\n        bytes memory data\n    )\n        external\n        view\n        virtual\n        onlyRole(STATIC_CALLER_ROLE)\n        returns (bytes memory)\n    {\n        (bool success, bytes memory result) = target.staticcall(data);\n        require(success, \"Static call failed\");\n        return result;\n    }\n\n    function getEncodedData(\n        string memory signature,\n        bytes memory params\n    ) external pure virtual returns (bytes memory) {\n        return abi.encodeWithSignature(signature, params);\n    }\n\n    function getEncodedData(\n        address target,\n        string memory signature,\n        bytes memory params\n    ) external pure virtual returns (address, bytes memory) {\n        return (target, abi.encodeWithSignature(signature, params));\n    }\n}\n",
  "sourcePath": "/Users/yemo/yemowithprivate/projects/yemowith/contracts/core/libraries/Executors/Executor.sol",
  "compiler": {
    "name": "solc",
    "version": "0.8.21+commit.d9974bed.Emscripten.clang"
  },
  "schemaVersion": "3.4.16",
  "updatedAt": "2024-06-04T07:07:04.049Z",
  "devdoc": {
    "kind": "dev",
    "methods": {},
    "version": 1
  },
  "userdoc": {
    "kind": "user",
    "methods": {},
    "version": 1
  }
}