{
  "contractName": "Executor",
  "abi": [
    {
      "anonymous": false,
      "inputs": [
        {
          "indexed": true,
          "internalType": "address",
          "name": "admin",
          "type": "address"
        }
      ],
      "name": "AdminAdded",
      "type": "event"
    },
    {
      "anonymous": false,
      "inputs": [
        {
          "indexed": true,
          "internalType": "address",
          "name": "admin",
          "type": "address"
        }
      ],
      "name": "AdminRemoved",
      "type": "event"
    },
    {
      "anonymous": false,
      "inputs": [
        {
          "indexed": false,
          "internalType": "uint256",
          "name": "untilBlock",
          "type": "uint256"
        }
      ],
      "name": "Locked",
      "type": "event"
    },
    {
      "anonymous": false,
      "inputs": [],
      "name": "Paused",
      "type": "event"
    },
    {
      "anonymous": false,
      "inputs": [
        {
          "indexed": true,
          "internalType": "bytes32",
          "name": "role",
          "type": "bytes32"
        },
        {
          "indexed": false,
          "internalType": "bytes32",
          "name": "previousAdminRole",
          "type": "bytes32"
        },
        {
          "indexed": false,
          "internalType": "bytes32",
          "name": "newAdminRole",
          "type": "bytes32"
        }
      ],
      "name": "RoleAdminChanged",
      "type": "event"
    },
    {
      "anonymous": false,
      "inputs": [
        {
          "indexed": true,
          "internalType": "bytes32",
          "name": "role",
          "type": "bytes32"
        },
        {
          "indexed": true,
          "internalType": "address",
          "name": "account",
          "type": "address"
        },
        {
          "indexed": true,
          "internalType": "address",
          "name": "sender",
          "type": "address"
        }
      ],
      "name": "RoleGranted",
      "type": "event"
    },
    {
      "anonymous": false,
      "inputs": [
        {
          "indexed": true,
          "internalType": "bytes32",
          "name": "role",
          "type": "bytes32"
        },
        {
          "indexed": true,
          "internalType": "address",
          "name": "account",
          "type": "address"
        },
        {
          "indexed": true,
          "internalType": "address",
          "name": "sender",
          "type": "address"
        }
      ],
      "name": "RoleRevoked",
      "type": "event"
    },
    {
      "anonymous": false,
      "inputs": [
        {
          "indexed": true,
          "internalType": "address",
          "name": "previousSuperAdmin",
          "type": "address"
        },
        {
          "indexed": true,
          "internalType": "address",
          "name": "newSuperAdmin",
          "type": "address"
        }
      ],
      "name": "SuperAdminChanged",
      "type": "event"
    },
    {
      "anonymous": false,
      "inputs": [],
      "name": "Unlocked",
      "type": "event"
    },
    {
      "anonymous": false,
      "inputs": [],
      "name": "Unpaused",
      "type": "event"
    },
    {
      "inputs": [],
      "name": "ADMIN_ROLE",
      "outputs": [
        {
          "internalType": "bytes32",
          "name": "",
          "type": "bytes32"
        }
      ],
      "stateMutability": "view",
      "type": "function"
    },
    {
      "inputs": [],
      "name": "DEFAULT_ADMIN_ROLE",
      "outputs": [
        {
          "internalType": "bytes32",
          "name": "",
          "type": "bytes32"
        }
      ],
      "stateMutability": "view",
      "type": "function"
    },
    {
      "inputs": [],
      "name": "EXECUTOR_ROLE",
      "outputs": [
        {
          "internalType": "bytes32",
          "name": "",
          "type": "bytes32"
        }
      ],
      "stateMutability": "view",
      "type": "function"
    },
    {
      "inputs": [],
      "name": "MULTI_EXECUTOR_ROLE",
      "outputs": [
        {
          "internalType": "bytes32",
          "name": "",
          "type": "bytes32"
        }
      ],
      "stateMutability": "view",
      "type": "function"
    },
    {
      "inputs": [],
      "name": "OWNER_ROLE",
      "outputs": [
        {
          "internalType": "bytes32",
          "name": "",
          "type": "bytes32"
        }
      ],
      "stateMutability": "view",
      "type": "function"
    },
    {
      "inputs": [],
      "name": "STATIC_CALLER_ROLE",
      "outputs": [
        {
          "internalType": "bytes32",
          "name": "",
          "type": "bytes32"
        }
      ],
      "stateMutability": "view",
      "type": "function"
    },
    {
      "inputs": [],
      "name": "SUPER_ADMIN_ROLE",
      "outputs": [
        {
          "internalType": "bytes32",
          "name": "",
          "type": "bytes32"
        }
      ],
      "stateMutability": "view",
      "type": "function"
    },
    {
      "inputs": [],
      "name": "WHITELIST_ROLE",
      "outputs": [
        {
          "internalType": "bytes32",
          "name": "",
          "type": "bytes32"
        }
      ],
      "stateMutability": "view",
      "type": "function"
    },
    {
      "inputs": [
        {
          "internalType": "address",
          "name": "account",
          "type": "address"
        }
      ],
      "name": "addWhitelist",
      "outputs": [],
      "stateMutability": "nonpayable",
      "type": "function"
    },
    {
      "inputs": [],
      "name": "getOwner",
      "outputs": [
        {
          "internalType": "address",
          "name": "",
          "type": "address"
        }
      ],
      "stateMutability": "view",
      "type": "function"
    },
    {
      "inputs": [],
      "name": "getSuperAdmin",
      "outputs": [
        {
          "internalType": "address",
          "name": "",
          "type": "address"
        }
      ],
      "stateMutability": "view",
      "type": "function"
    },
    {
      "inputs": [
        {
          "internalType": "bytes32",
          "name": "role",
          "type": "bytes32"
        },
        {
          "internalType": "address",
          "name": "account",
          "type": "address"
        }
      ],
      "name": "grantRole",
      "outputs": [],
      "stateMutability": "nonpayable",
      "type": "function"
    },
    {
      "inputs": [
        {
          "internalType": "bytes32",
          "name": "role",
          "type": "bytes32"
        },
        {
          "internalType": "address",
          "name": "account",
          "type": "address"
        }
      ],
      "name": "hasRole",
      "outputs": [
        {
          "internalType": "bool",
          "name": "",
          "type": "bool"
        }
      ],
      "stateMutability": "view",
      "type": "function"
    },
    {
      "inputs": [
        {
          "internalType": "address",
          "name": "owner",
          "type": "address"
        },
        {
          "internalType": "address",
          "name": "superAdmin",
          "type": "address"
        },
        {
          "internalType": "address",
          "name": "admin",
          "type": "address"
        }
      ],
      "name": "initialize",
      "outputs": [],
      "stateMutability": "nonpayable",
      "type": "function"
    },
    {
      "inputs": [
        {
          "internalType": "address",
          "name": "user",
          "type": "address"
        }
      ],
      "name": "isAdmin",
      "outputs": [
        {
          "internalType": "bool",
          "name": "",
          "type": "bool"
        }
      ],
      "stateMutability": "view",
      "type": "function"
    },
    {
      "inputs": [],
      "name": "isLocked",
      "outputs": [
        {
          "internalType": "bool",
          "name": "",
          "type": "bool"
        }
      ],
      "stateMutability": "view",
      "type": "function"
    },
    {
      "inputs": [],
      "name": "isPaused",
      "outputs": [
        {
          "internalType": "bool",
          "name": "",
          "type": "bool"
        }
      ],
      "stateMutability": "view",
      "type": "function"
    },
    {
      "inputs": [
        {
          "internalType": "address",
          "name": "account",
          "type": "address"
        }
      ],
      "name": "removeWhitelist",
      "outputs": [],
      "stateMutability": "nonpayable",
      "type": "function"
    },
    {
      "inputs": [
        {
          "internalType": "bytes32",
          "name": "role",
          "type": "bytes32"
        },
        {
          "internalType": "address",
          "name": "account",
          "type": "address"
        }
      ],
      "name": "renounceRole",
      "outputs": [],
      "stateMutability": "nonpayable",
      "type": "function"
    },
    {
      "inputs": [
        {
          "internalType": "bytes32",
          "name": "role",
          "type": "bytes32"
        },
        {
          "internalType": "address",
          "name": "account",
          "type": "address"
        }
      ],
      "name": "revokeRole",
      "outputs": [],
      "stateMutability": "nonpayable",
      "type": "function"
    },
    {
      "inputs": [
        {
          "internalType": "bytes32",
          "name": "role",
          "type": "bytes32"
        },
        {
          "internalType": "bytes32",
          "name": "newAdminRole",
          "type": "bytes32"
        }
      ],
      "name": "setRoleAdmin",
      "outputs": [],
      "stateMutability": "nonpayable",
      "type": "function"
    },
    {
      "inputs": [
        {
          "internalType": "address",
          "name": "target",
          "type": "address"
        },
        {
          "internalType": "bytes",
          "name": "data",
          "type": "bytes"
        }
      ],
      "name": "execute",
      "outputs": [
        {
          "internalType": "bytes",
          "name": "",
          "type": "bytes"
        }
      ],
      "stateMutability": "nonpayable",
      "type": "function"
    },
    {
      "inputs": [
        {
          "internalType": "address[]",
          "name": "targets",
          "type": "address[]"
        },
        {
          "internalType": "bytes[]",
          "name": "data",
          "type": "bytes[]"
        }
      ],
      "name": "multiExecute",
      "outputs": [
        {
          "internalType": "bytes[]",
          "name": "",
          "type": "bytes[]"
        }
      ],
      "stateMutability": "nonpayable",
      "type": "function"
    },
    {
      "inputs": [
        {
          "internalType": "address",
          "name": "target",
          "type": "address"
        },
        {
          "internalType": "bytes",
          "name": "data",
          "type": "bytes"
        }
      ],
      "name": "call",
      "outputs": [
        {
          "internalType": "bytes",
          "name": "",
          "type": "bytes"
        }
      ],
      "stateMutability": "nonpayable",
      "type": "function"
    },
    {
      "inputs": [
        {
          "internalType": "address",
          "name": "target",
          "type": "address"
        },
        {
          "internalType": "bytes",
          "name": "data",
          "type": "bytes"
        }
      ],
      "name": "callStatic",
      "outputs": [
        {
          "internalType": "bytes",
          "name": "",
          "type": "bytes"
        }
      ],
      "stateMutability": "view",
      "type": "function"
    },
    {
      "inputs": [
        {
          "internalType": "address",
          "name": "target",
          "type": "address"
        },
        {
          "internalType": "string",
          "name": "signature",
          "type": "string"
        },
        {
          "internalType": "bytes",
          "name": "params",
          "type": "bytes"
        }
      ],
      "name": "getEncodedData",
      "outputs": [
        {
          "internalType": "address",
          "name": "",
          "type": "address"
        },
        {
          "internalType": "bytes",
          "name": "",
          "type": "bytes"
        }
      ],
      "stateMutability": "pure",
      "type": "function"
    },
    {
      "inputs": [
        {
          "internalType": "string",
          "name": "signature",
          "type": "string"
        },
        {
          "internalType": "bytes",
          "name": "params",
          "type": "bytes"
        }
      ],
      "name": "getEncodedData",
      "outputs": [
        {
          "internalType": "bytes",
          "name": "",
          "type": "bytes"
        }
      ],
      "stateMutability": "pure",
      "type": "function"
    }
  ],
  "bytecode": "0x60806040523480156200001157600080fd5b503333338281816000806101000a81548173ffffffffffffffffffffffffffffffffffffffff021916908373ffffffffffffffffffffffffffffffffffffffff16021790555080600160006101000a81548173ffffffffffffffffffffffffffffffffffffffff021916908373ffffffffffffffffffffffffffffffffffffffff1602179055506001600260008473ffffffffffffffffffffffffffffffffffffffff1673ffffffffffffffffffffffffffffffffffffffff16815260200190815260200160002060006101000a81548160ff0219169083151502179055505050620001247fb19546dff01e856fb3f010c267a7b1c60363cf8a4664e21cc89c26224620214e846200017460201b60201c565b620001396000801b836200017460201b60201c565b6200016b7f7613a25ecc738585a232ad50a301178f12b3ba8887d13e138b523c4269c47689826200017460201b60201c565b505050620002f4565b6200018682826200018a60201b60201c565b5050565b620001b981600360008581526020019081526020016000206000016200021f60201b6200110c1790919060201c565b156200021b573373ffffffffffffffffffffffffffffffffffffffff168173ffffffffffffffffffffffffffffffffffffffff16837f2f8788117e7eff1d82e926ec794901d17c78024a50270940304540a733656f0d60405160405180910390a45b5050565b60006200024f836000018373ffffffffffffffffffffffffffffffffffffffff1660001b6200025760201b60201c565b905092915050565b60006200026b8383620002d160201b60201c565b620002c6578260000182908060018154018082558091505060019003906000526020600020016000909190919091505582600001805490508360010160008481526020019081526020016000208190555060019050620002cb565b600090505b92915050565b600080836001016000848152602001908152602001600020541415905092915050565b6126e780620003046000396000f3fe608060405234801561001057600080fd5b50600436106101a95760003560e01c806378c8cda7116100f9578063a4e2d63411610097578063d547741f11610071578063d547741f146104e7578063da73b13f14610503578063e58378bb14610521578063f80f5dd51461053f576101a9565b8063a4e2d6341461048f578063b187bd26146104ad578063c0c53b8b146104cb576101a9565b80638204c326116100d35780638204c32614610405578063893d20e81461042357806391d1485414610441578063a217fddf14610471576101a9565b806378c8cda71461039b5780637a997ab7146103b75780637eaeabff146103d5576101a9565b806324d7806c116101665780634460bdd6116101405780634460bdd6146102fe57806344eb64631461031c5780634a3aad111461034c57806375b238fc1461037d576101a9565b806324d7806c146102965780632f2ff15d146102c657806336568abe146102e2576101a9565b806307bd0265146101ae5780630d2efdbb146101cc5780631a8090bb146101ea5780631b8b921d1461021a5780631cff79cd1461024a5780631e4e00911461027a575b600080fd5b6101b661055b565b6040516101c391906116c7565b60405180910390f35b6101d461057f565b6040516101e191906116c7565b60405180910390f35b61020460048036038101906101ff9190611a43565b6105a3565b6040516102119190611c05565b60405180910390f35b610234600480360381019061022f9190611c27565b61072d565b6040516102419190611ccd565b60405180910390f35b610264600480360381019061025f9190611c27565b610854565b6040516102719190611ccd565b60405180910390f35b610294600480360381019061028f9190611d1b565b6108d3565b005b6102b060048036038101906102ab9190611d5b565b610988565b6040516102bd9190611da3565b60405180910390f35b6102e060048036038101906102db9190611dbe565b6109de565b005b6102fc60048036038101906102f79190611dbe565b610a3f565b005b610306610abb565b60405161031391906116c7565b60405180910390f35b61033660048036038101906103319190611c27565b610adf565b6040516103439190611ccd565b60405180910390f35b61036660048036038101906103619190611e9f565b610c04565b604051610374929190611f39565b60405180910390f35b610385610c99565b60405161039291906116c7565b60405180910390f35b6103b560048036038101906103b09190611d5b565b610cbd565b005b6103bf610d23565b6040516103cc91906116c7565b60405180910390f35b6103ef60048036038101906103ea9190611f69565b610d47565b6040516103fc9190611ccd565b60405180910390f35b61040d610dd5565b60405161041a9190611fe1565b60405180910390f35b61042b610dff565b6040516104389190611fe1565b60405180910390f35b61045b60048036038101906104569190611dbe565b610e28565b6040516104689190611da3565b60405180910390f35b610479610e5a565b60405161048691906116c7565b60405180910390f35b610497610e61565b6040516104a49190611da3565b60405180910390f35b6104b5610e86565b6040516104c29190611da3565b60405180910390f35b6104e560048036038101906104e09190611ffc565b610e9d565b005b61050160048036038101906104fc9190611dbe565b610ffd565b005b61050b61105e565b60405161051891906116c7565b60405180910390f35b610529611082565b60405161053691906116c7565b60405180910390f35b61055960048036038101906105549190611d5b565b6110a6565b005b7fd8aa0f3194971a2a116679f7c2090f6939c8d4e01a2a8d7e41d55e5351469e6381565b7f24f6679db5ad89e1735cc3ff300ee2cf5477ec5cf71573e015430144c84b7ca781565b60607f16d22fb0a3dea8ff8be795756b9481592d33d5cad2ba7d6d931b8de4c03e25926105d08133610e28565b61060f576040517f08c379a0000000000000000000000000000000000000000000000000000000008152600401610606906120d2565b60405180910390fd5b8251845114610653576040517f08c379a000000000000000000000000000000000000000000000000000000000815260040161064a9061213e565b60405180910390fd5b6000845167ffffffffffffffff8111156106705761066f61170c565b5b6040519080825280602002602001820160405280156106a357816020015b606081526020019060019003908161068e5790505b50905060005b8551811015610721576106f08682815181106106c8576106c761215e565b5b60200260200101518683815181106106e3576106e261215e565b5b602002602001015161113c565b8282815181106107035761070261215e565b5b60200260200101819052508080610719906121c6565b9150506106a9565b50809250505092915050565b60607fd8aa0f3194971a2a116679f7c2090f6939c8d4e01a2a8d7e41d55e5351469e6361075a8133610e28565b610799576040517f08c379a0000000000000000000000000000000000000000000000000000000008152600401610790906120d2565b60405180910390fd5b6000808573ffffffffffffffffffffffffffffffffffffffff16856040516107c1919061224a565b6000604051808303816000865af19150503d80600081146107fe576040519150601f19603f3d011682016040523d82523d6000602084013e610803565b606091505b509150915081610848576040517f08c379a000000000000000000000000000000000000000000000000000000000815260040161083f906122ad565b60405180910390fd5b80935050505092915050565b60607fd8aa0f3194971a2a116679f7c2090f6939c8d4e01a2a8d7e41d55e5351469e636108818133610e28565b6108c0576040517f08c379a00000000000000000000000000000000000000000000000000000000081526004016108b7906120d2565b60405180910390fd5b6108ca848461113c565b91505092915050565b6000801b6108e18133610e28565b610920576040517f08c379a0000000000000000000000000000000000000000000000000000000008152600401610917906120d2565b60405180910390fd5b600061092b84611263565b9050826003600086815260200190815260200160002060020181905550837fbd79b86ffe0ab8e8776151514217cd7cacd52c909f66475c3af44e129f0b00ff828560405161097a9291906122cd565b60405180910390a250505050565b6000600260008373ffffffffffffffffffffffffffffffffffffffff1673ffffffffffffffffffffffffffffffffffffffff16815260200190815260200160002060009054906101000a900460ff169050919050565b6109e782611263565b6109f18133610e28565b610a30576040517f08c379a0000000000000000000000000000000000000000000000000000000008152600401610a27906120d2565b60405180910390fd5b610a3a8383611283565b505050565b3373ffffffffffffffffffffffffffffffffffffffff168173ffffffffffffffffffffffffffffffffffffffff1614610aad576040517f08c379a0000000000000000000000000000000000000000000000000000000008152600401610aa490612368565b60405180910390fd5b610ab78282611310565b5050565b7f7613a25ecc738585a232ad50a301178f12b3ba8887d13e138b523c4269c4768981565b60607f24f6679db5ad89e1735cc3ff300ee2cf5477ec5cf71573e015430144c84b7ca7610b0c8133610e28565b610b4b576040517f08c379a0000000000000000000000000000000000000000000000000000000008152600401610b42906120d2565b60405180910390fd5b6000808573ffffffffffffffffffffffffffffffffffffffff1685604051610b73919061224a565b600060405180830381855afa9150503d8060008114610bae576040519150601f19603f3d011682016040523d82523d6000602084013e610bb3565b606091505b509150915081610bf8576040517f08c379a0000000000000000000000000000000000000000000000000000000008152600401610bef906123d4565b60405180910390fd5b80935050505092915050565b60006060848484604051602401610c1b9190611ccd565b60405160208183030381529060405290604051610c38919061243b565b60405180910390207bffffffffffffffffffffffffffffffffffffffffffffffffffffffff19166020820180517bffffffffffffffffffffffffffffffffffffffffffffffffffffffff838183161783525050505091509150935093915050565b7fa49807205ce4d355092ef5a8a18f56e8913cf4a201fbe287825b095693c2177581565b610cc561139d565b610ccf8133610e28565b610d0e576040517f08c379a0000000000000000000000000000000000000000000000000000000008152600401610d05906120d2565b60405180910390fd5b610d1f610d196113c5565b83611310565b5050565b7fdc72ed553f2544c34465af23b847953efeb813428162d767f9ba5f4013be676081565b60608282604051602401610d5b9190611ccd565b60405160208183030381529060405290604051610d78919061243b565b60405180910390207bffffffffffffffffffffffffffffffffffffffffffffffffffffffff19166020820180517bffffffffffffffffffffffffffffffffffffffffffffffffffffffff8381831617835250505050905092915050565b6000600160009054906101000a900473ffffffffffffffffffffffffffffffffffffffff16905090565b60008060009054906101000a900473ffffffffffffffffffffffffffffffffffffffff16905090565b6000610e5282600360008681526020019081526020016000206000016113ed90919063ffffffff16565b905092915050565b6000801b81565b6000600460009054906101000a900460ff168015610e8157506005544311155b905090565b6000600660009054906101000a900460ff16905090565b600660029054906101000a900460ff1680610ec55750600660019054906101000a900460ff16155b610f04576040517f08c379a0000000000000000000000000000000000000000000000000000000008152600401610efb906124c4565b60405180910390fd5b6000600660029054906101000a900460ff161590508015610f56576001600660026101000a81548160ff0219169083151502179055506001600660016101000a81548160ff0219169083151502179055505b610f5e61141d565b15610f9e576040517f08c379a0000000000000000000000000000000000000000000000000000000008152600401610f9590612556565b60405180910390fd5b610faf610fa9611434565b8561145c565b610fbc6000801b8361145c565b610fcd610fc761139d565b8461145c565b610fd561146a565b8015610ff7576000600660026101000a81548160ff0219169083151502179055505b50505050565b61100682611263565b6110108133610e28565b61104f576040517f08c379a0000000000000000000000000000000000000000000000000000000008152600401611046906120d2565b60405180910390fd5b6110598383611310565b505050565b7f16d22fb0a3dea8ff8be795756b9481592d33d5cad2ba7d6d931b8de4c03e259281565b7fb19546dff01e856fb3f010c267a7b1c60363cf8a4664e21cc89c26224620214e81565b6110ae61139d565b6110b88133610e28565b6110f7576040517f08c379a00000000000000000000000000000000000000000000000000000000081526004016110ee906120d2565b60405180910390fd5b6111086111026113c5565b83611283565b5050565b6000611134836000018373ffffffffffffffffffffffffffffffffffffffff1660001b6114d7565b905092915050565b60607fd8aa0f3194971a2a116679f7c2090f6939c8d4e01a2a8d7e41d55e5351469e636111698133610e28565b6111a8576040517f08c379a000000000000000000000000000000000000000000000000000000000815260040161119f906120d2565b60405180910390fd5b6000808573ffffffffffffffffffffffffffffffffffffffff16856040516111d0919061224a565b6000604051808303816000865af19150503d806000811461120d576040519150601f19603f3d011682016040523d82523d6000602084013e611212565b606091505b509150915081611257576040517f08c379a000000000000000000000000000000000000000000000000000000000815260040161124e906125c2565b60405180910390fd5b80935050505092915050565b600060036000838152602001908152602001600020600201549050919050565b6112ab816003600085815260200190815260200160002060000161110c90919063ffffffff16565b1561130c573373ffffffffffffffffffffffffffffffffffffffff168173ffffffffffffffffffffffffffffffffffffffff16837f2f8788117e7eff1d82e926ec794901d17c78024a50270940304540a733656f0d60405160405180910390a45b5050565b611338816003600085815260200190815260200160002060000161154790919063ffffffff16565b15611399573373ffffffffffffffffffffffffffffffffffffffff168173ffffffffffffffffffffffffffffffffffffffff16837ff6391f5c32d9c69d2a47ea670b442974b53935d1edc7fd64eb21e047a839171b60405160405180910390a45b5050565b60007f7613a25ecc738585a232ad50a301178f12b3ba8887d13e138b523c4269c47689905090565b60007fdc72ed553f2544c34465af23b847953efeb813428162d767f9ba5f4013be6760905090565b6000611415836000018373ffffffffffffffffffffffffffffffffffffffff1660001b611577565b905092915050565b6000600660019054906101000a900460ff16905090565b60007fb19546dff01e856fb3f010c267a7b1c60363cf8a4664e21cc89c26224620214e905090565b6114668282611283565b5050565b600660019054906101000a900460ff16156114ba576040517f08c379a00000000000000000000000000000000000000000000000000000000081526004016114b19061262e565b60405180910390fd5b6001600660016101000a81548160ff021916908315150217905550565b60006114e38383611577565b61153c578260000182908060018154018082558091505060019003906000526020600020016000909190919091505582600001805490508360010160008481526020019081526020016000208190555060019050611541565b600090505b92915050565b600061156f836000018373ffffffffffffffffffffffffffffffffffffffff1660001b61159a565b905092915050565b600080836001016000848152602001908152602001600020541415905092915050565b600080836001016000848152602001908152602001600020549050600081146116a25760006001826115cc919061264e565b90506000600186600001805490506115e4919061264e565b90508181146116535760008660000182815481106116055761160461215e565b5b90600052602060002001549050808760000184815481106116295761162861215e565b5b90600052602060002001819055508387600101600083815260200190815260200160002081905550505b8560000180548061166757611666612682565b5b6001900381819060005260206000200160009055905585600101600086815260200190815260200160002060009055600193505050506116a8565b60009150505b92915050565b6000819050919050565b6116c1816116ae565b82525050565b60006020820190506116dc60008301846116b8565b92915050565b6000604051905090565b600080fd5b600080fd5b600080fd5b6000601f19601f8301169050919050565b7f4e487b7100000000000000000000000000000000000000000000000000000000600052604160045260246000fd5b611744826116fb565b810181811067ffffffffffffffff821117156117635761176261170c565b5b80604052505050565b60006117766116e2565b9050611782828261173b565b919050565b600067ffffffffffffffff8211156117a2576117a161170c565b5b602082029050602081019050919050565b600080fd5b600073ffffffffffffffffffffffffffffffffffffffff82169050919050565b60006117e3826117b8565b9050919050565b6117f3816117d8565b81146117fe57600080fd5b50565b600081359050611810816117ea565b92915050565b600061182961182484611787565b61176c565b9050808382526020820190506020840283018581111561184c5761184b6117b3565b5b835b8181101561187557806118618882611801565b84526020840193505060208101905061184e565b5050509392505050565b600082601f830112611894576118936116f6565b5b81356118a4848260208601611816565b91505092915050565b600067ffffffffffffffff8211156118c8576118c761170c565b5b602082029050602081019050919050565b600080fd5b600067ffffffffffffffff8211156118f9576118f861170c565b5b611902826116fb565b9050602081019050919050565b82818337600083830152505050565b600061193161192c846118de565b61176c565b90508281526020810184848401111561194d5761194c6118d9565b5b61195884828561190f565b509392505050565b600082601f830112611975576119746116f6565b5b813561198584826020860161191e565b91505092915050565b60006119a161199c846118ad565b61176c565b905080838252602082019050602084028301858111156119c4576119c36117b3565b5b835b81811015611a0b57803567ffffffffffffffff8111156119e9576119e86116f6565b5b8086016119f68982611960565b855260208501945050506020810190506119c6565b5050509392505050565b600082601f830112611a2a57611a296116f6565b5b8135611a3a84826020860161198e565b91505092915050565b60008060408385031215611a5a57611a596116ec565b5b600083013567ffffffffffffffff811115611a7857611a776116f1565b5b611a848582860161187f565b925050602083013567ffffffffffffffff811115611aa557611aa46116f1565b5b611ab185828601611a15565b9150509250929050565b600081519050919050565b600082825260208201905092915050565b6000819050602082019050919050565b600081519050919050565b600082825260208201905092915050565b60005b83811015611b21578082015181840152602081019050611b06565b83811115611b30576000848401525b50505050565b6000611b4182611ae7565b611b4b8185611af2565b9350611b5b818560208601611b03565b611b64816116fb565b840191505092915050565b6000611b7b8383611b36565b905092915050565b6000602082019050919050565b6000611b9b82611abb565b611ba58185611ac6565b935083602082028501611bb785611ad7565b8060005b85811015611bf35784840389528151611bd48582611b6f565b9450611bdf83611b83565b925060208a01995050600181019050611bbb565b50829750879550505050505092915050565b60006020820190508181036000830152611c1f8184611b90565b905092915050565b60008060408385031215611c3e57611c3d6116ec565b5b6000611c4c85828601611801565b925050602083013567ffffffffffffffff811115611c6d57611c6c6116f1565b5b611c7985828601611960565b9150509250929050565b600082825260208201905092915050565b6000611c9f82611ae7565b611ca98185611c83565b9350611cb9818560208601611b03565b611cc2816116fb565b840191505092915050565b60006020820190508181036000830152611ce78184611c94565b905092915050565b611cf8816116ae565b8114611d0357600080fd5b50565b600081359050611d1581611cef565b92915050565b60008060408385031215611d3257611d316116ec565b5b6000611d4085828601611d06565b9250506020611d5185828601611d06565b9150509250929050565b600060208284031215611d7157611d706116ec565b5b6000611d7f84828501611801565b91505092915050565b60008115159050919050565b611d9d81611d88565b82525050565b6000602082019050611db86000830184611d94565b92915050565b60008060408385031215611dd557611dd46116ec565b5b6000611de385828601611d06565b9250506020611df485828601611801565b9150509250929050565b600067ffffffffffffffff821115611e1957611e1861170c565b5b611e22826116fb565b9050602081019050919050565b6000611e42611e3d84611dfe565b61176c565b905082815260208101848484011115611e5e57611e5d6118d9565b5b611e6984828561190f565b509392505050565b600082601f830112611e8657611e856116f6565b5b8135611e96848260208601611e2f565b91505092915050565b600080600060608486031215611eb857611eb76116ec565b5b6000611ec686828701611801565b935050602084013567ffffffffffffffff811115611ee757611ee66116f1565b5b611ef386828701611e71565b925050604084013567ffffffffffffffff811115611f1457611f136116f1565b5b611f2086828701611960565b9150509250925092565b611f33816117d8565b82525050565b6000604082019050611f4e6000830185611f2a565b8181036020830152611f608184611c94565b90509392505050565b60008060408385031215611f8057611f7f6116ec565b5b600083013567ffffffffffffffff811115611f9e57611f9d6116f1565b5b611faa85828601611e71565b925050602083013567ffffffffffffffff811115611fcb57611fca6116f1565b5b611fd785828601611960565b9150509250929050565b6000602082019050611ff66000830184611f2a565b92915050565b600080600060608486031215612015576120146116ec565b5b600061202386828701611801565b935050602061203486828701611801565b925050604061204586828701611801565b9150509250925092565b600082825260208201905092915050565b7f416363657373436f6e74726f6c3a2073656e64657220646f6573206e6f74206860008201527f61766520726f6c65000000000000000000000000000000000000000000000000602082015250565b60006120bc60288361204f565b91506120c782612060565b604082019050919050565b600060208201905081810360008301526120eb816120af565b9050919050565b7f5461726765747320616e642064617461206c656e677468206d69736d61746368600082015250565b600061212860208361204f565b9150612133826120f2565b602082019050919050565b600060208201905081810360008301526121578161211b565b9050919050565b7f4e487b7100000000000000000000000000000000000000000000000000000000600052603260045260246000fd5b7f4e487b7100000000000000000000000000000000000000000000000000000000600052601160045260246000fd5b6000819050919050565b60006121d1826121bc565b91507fffffffffffffffffffffffffffffffffffffffffffffffffffffffffffffffff82036122035761220261218d565b5b600182019050919050565b600081905092915050565b600061222482611ae7565b61222e818561220e565b935061223e818560208601611b03565b80840191505092915050565b60006122568284612219565b915081905092915050565b7f43616c6c206661696c6564000000000000000000000000000000000000000000600082015250565b6000612297600b8361204f565b91506122a282612261565b602082019050919050565b600060208201905081810360008301526122c68161228a565b9050919050565b60006040820190506122e260008301856116b8565b6122ef60208301846116b8565b9392505050565b7f416363657373436f6e74726f6c3a2063616e206f6e6c792072656e6f756e636560008201527f20726f6c657320666f722073656c660000000000000000000000000000000000602082015250565b6000612352602f8361204f565b915061235d826122f6565b604082019050919050565b6000602082019050818103600083015261238181612345565b9050919050565b7f5374617469632063616c6c206661696c65640000000000000000000000000000600082015250565b60006123be60128361204f565b91506123c982612388565b602082019050919050565b600060208201905081810360008301526123ed816123b1565b9050919050565b600081519050919050565b600081905092915050565b6000612415826123f4565b61241f81856123ff565b935061242f818560208601611b03565b80840191505092915050565b6000612447828461240a565b915081905092915050565b7f496e697469616c697a61626c653a20636f6e747261637420697320616c72656160008201527f647920696e697469616c697a6564000000000000000000000000000000000000602082015250565b60006124ae602e8361204f565b91506124b982612452565b604082019050919050565b600060208201905081810360008301526124dd816124a1565b9050919050565b7f416476616e636564416363657373436f6e74726f6c3a20616c7265616479206960008201527f6e697469616c697a656400000000000000000000000000000000000000000000602082015250565b6000612540602a8361204f565b915061254b826124e4565b604082019050919050565b6000602082019050818103600083015261256f81612533565b9050919050565b7f457865637574696f6e206661696c656400000000000000000000000000000000600082015250565b60006125ac60108361204f565b91506125b782612576565b602082019050919050565b600060208201905081810360008301526125db8161259f565b9050919050565b7f436f6e747261637420616c726561647920696e697469616c697a656400000000600082015250565b6000612618601c8361204f565b9150612623826125e2565b602082019050919050565b600060208201905081810360008301526126478161260b565b9050919050565b6000612659826121bc565b9150612664836121bc565b9250828210156126775761267661218d565b5b828203905092915050565b7f4e487b7100000000000000000000000000000000000000000000000000000000600052603160045260246000fdfea264697066735822122026466d7fd7418edc08cb8c74074adef845bb8c57756267b8780dcf5eb45dd62464736f6c634300080d0033",
  "immutableReferences": {},
  "source": "// SPDX-License-Identifier: MIT\npragma solidity ^0.8.0;\n\nimport \"../../objective/Accessblity/BaseAccessControl.sol\";\n\ncontract Executor is BaseAccessControl {\n    bytes32 public constant EXECUTOR_ROLE = keccak256(\"EXECUTOR_ROLE\");\n    bytes32 public constant STATIC_CALLER_ROLE =\n        keccak256(\"STATIC_CALLER_ROLE\");\n    bytes32 public constant MULTI_EXECUTOR_ROLE =\n        keccak256(\"MULTI_EXECUTOR_ROLE\");\n\n    function _execute(\n        address target,\n        bytes memory data\n    ) internal onlyRole(EXECUTOR_ROLE) returns (bytes memory) {\n        (bool success, bytes memory result) = target.call(data);\n        require(success, \"Execution failed\");\n        return result;\n    }\n\n    function execute(\n        address target,\n        bytes memory data\n    ) external virtual onlyRole(EXECUTOR_ROLE) returns (bytes memory) {\n        return _execute(target, data);\n    }\n\n    function multiExecute(\n        address[] memory targets,\n        bytes[] memory data\n    ) external virtual onlyRole(MULTI_EXECUTOR_ROLE) returns (bytes[] memory) {\n        require(\n            targets.length == data.length,\n            \"Targets and data length mismatch\"\n        );\n        bytes[] memory results = new bytes[](targets.length);\n        for (uint256 i = 0; i < targets.length; i++) {\n            results[i] = _execute(targets[i], data[i]);\n        }\n        return results;\n    }\n\n    function call(\n        address target,\n        bytes memory data\n    ) external virtual onlyRole(EXECUTOR_ROLE) returns (bytes memory) {\n        (bool success, bytes memory result) = target.call(data);\n        require(success, \"Call failed\");\n        return result;\n    }\n\n    function callStatic(\n        address target,\n        bytes memory data\n    )\n        external\n        view\n        virtual\n        onlyRole(STATIC_CALLER_ROLE)\n        returns (bytes memory)\n    {\n        (bool success, bytes memory result) = target.staticcall(data);\n        require(success, \"Static call failed\");\n        return result;\n    }\n\n    function getEncodedData(\n        string memory signature,\n        bytes memory params\n    ) external pure virtual returns (bytes memory) {\n        return abi.encodeWithSignature(signature, params);\n    }\n\n    function getEncodedData(\n        address target,\n        string memory signature,\n        bytes memory params\n    ) external pure virtual returns (address, bytes memory) {\n        return (target, abi.encodeWithSignature(signature, params));\n    }\n}\n",
  "sourcePath": "/Users/yemo/yemowithprivate/projects/yemowith/contracts/core/libraries/Executors/Executor.sol",
  "compiler": {
    "name": "solc",
    "version": "0.8.13+commit.abaa5c0e.Emscripten.clang"
  },
  "schemaVersion": "3.4.16",
  "updatedAt": "2024-06-10T11:54:44.458Z",
  "devdoc": {
    "kind": "dev",
    "methods": {},
    "version": 1
  },
  "userdoc": {
    "kind": "user",
    "methods": {},
    "version": 1
  }
}