{
  "contractName": "MultiSend",
  "abi": [
    {
      "inputs": [],
      "stateMutability": "nonpayable",
      "type": "constructor"
    },
    {
      "inputs": [
        {
          "internalType": "bytes",
          "name": "transactions",
          "type": "bytes"
        }
      ],
      "name": "multiSend",
      "outputs": [],
      "stateMutability": "payable",
      "type": "function"
    }
  ],
  "bytecode": "0x60a060405234801561000f575f80fd5b503073ffffffffffffffffffffffffffffffffffffffff1660808173ffffffffffffffffffffffffffffffffffffffff16815250506080516103c461005b5f395f603f01526103c45ff3fe60806040526004361061001d575f3560e01c80638d80ff0a14610021575b5f80fd5b61003b600480360381019061003691906102a9565b61003d565b005b7f000000000000000000000000000000000000000000000000000000000000000073ffffffffffffffffffffffffffffffffffffffff163073ffffffffffffffffffffffffffffffffffffffff16036100cb576040517f08c379a00000000000000000000000000000000000000000000000000000000081526004016100c290610370565b60405180910390fd5b805160205b81811015610157578083015160f81c6001820184015160601c308115028117905060158301850151603584018601516055850187015f855f811461011b576001811461012a57610134565b5f808585888a5af19150610134565b5f808585895af491505b505f8103610144573d5f803e3d5ffd5b82605501870196505050505050506100d0565b505050565b5f604051905090565b5f80fd5b5f80fd5b5f80fd5b5f80fd5b5f601f19601f8301169050919050565b7f4e487b71000000000000000000000000000000000000000000000000000000005f52604160045260245ffd5b6101bb82610175565b810181811067ffffffffffffffff821117156101da576101d9610185565b5b80604052505050565b5f6101ec61015c565b90506101f882826101b2565b919050565b5f67ffffffffffffffff82111561021757610216610185565b5b61022082610175565b9050602081019050919050565b828183375f83830152505050565b5f61024d610248846101fd565b6101e3565b90508281526020810184848401111561026957610268610171565b5b61027484828561022d565b509392505050565b5f82601f8301126102905761028f61016d565b5b81356102a084826020860161023b565b91505092915050565b5f602082840312156102be576102bd610165565b5b5f82013567ffffffffffffffff8111156102db576102da610169565b5b6102e78482850161027c565b91505092915050565b5f82825260208201905092915050565b7f4d756c746953656e642073686f756c64206f6e6c792062652063616c6c6564205f8201527f7669612064656c656761746563616c6c00000000000000000000000000000000602082015250565b5f61035a6030836102f0565b915061036582610300565b604082019050919050565b5f6020820190508181035f8301526103878161034e565b905091905056fea264697066735822122067ed86c1459d4fcf195933a5350608b27dc904ae2d7401979f3ccc19d996373164736f6c63430008150033",
  "immutableReferences": {
    "1115": [
      {
        "length": 32,
        "start": 63
      }
    ]
  },
  "source": "// SPDX-License-Identifier: LGPL-3.0-only\npragma solidity >=0.7.0 <0.9.0;\n\n/**\n * @title Multi Send - Allows to batch multiple transactions into one.\n * @author Nick Dodson - <nick.dodson@consensys.net>\n * @author Gonalo S - <goncalo.sa@consensys.net>\n * @author Stefan George - @Georgi87\n * @author Richard Meissner - @rmeissner\n */\ncontract MultiSend {\n    address private immutable MULTISEND_SINGLETON;\n\n    constructor() {\n        MULTISEND_SINGLETON = address(this);\n    }\n\n    /**\n     * @dev Sends multiple transactions and reverts all if one fails.\n     * @param transactions Encoded transactions. Each transaction is encoded as a packed bytes of\n     *                     operation as a uint8 with 0 for a call or 1 for a delegatecall (=> 1 byte),\n     *                     to as a address (=> 20 bytes),\n     *                     value as a uint256 (=> 32 bytes),\n     *                     data length as a uint256 (=> 32 bytes),\n     *                     data as bytes.\n     *                     see abi.encodePacked for more information on packed encoding\n     * @notice This method is payable as delegatecalls keep the msg.value from the previous call\n     *         If the calling method (e.g. execTransaction) received ETH this would revert otherwise\n     */\n    function multiSend(bytes memory transactions) public payable {\n        require(\n            address(this) != MULTISEND_SINGLETON,\n            \"MultiSend should only be called via delegatecall\"\n        );\n        /* solhint-disable no-inline-assembly */\n        assembly {\n            let length := mload(transactions)\n            let i := 0x20\n            for {\n                // Pre block is not used in \"while mode\"\n            } lt(i, length) {\n                // Post block is not used in \"while mode\"\n            } {\n                // First byte of the data is the operation.\n                // We shift by 248 bits (256 - 8 [operation byte]) it right since mload will always load 32 bytes (a word).\n                // This will also zero out unused data.\n                let operation := shr(0xf8, mload(add(transactions, i)))\n                // We offset the load address by 1 byte (operation byte)\n                // We shift it right by 96 bits (256 - 160 [20 address bytes]) to right-align the data and zero out unused data.\n                let to := shr(0x60, mload(add(transactions, add(i, 0x01))))\n                // Defaults `to` to `address(this)` if `address(0)` is provided.\n                to := or(to, mul(iszero(to), address()))\n                // We offset the load address by 21 byte (operation byte + 20 address bytes)\n                let value := mload(add(transactions, add(i, 0x15)))\n                // We offset the load address by 53 byte (operation byte + 20 address bytes + 32 value bytes)\n                let dataLength := mload(add(transactions, add(i, 0x35)))\n                // We offset the load address by 85 byte (operation byte + 20 address bytes + 32 value bytes + 32 data length bytes)\n                let data := add(transactions, add(i, 0x55))\n                let success := 0\n                switch operation\n                case 0 {\n                    success := call(gas(), to, value, data, dataLength, 0, 0)\n                }\n                case 1 {\n                    success := delegatecall(gas(), to, data, dataLength, 0, 0)\n                }\n                if eq(success, 0) {\n                    returndatacopy(0, 0, returndatasize())\n                    revert(0, returndatasize())\n                }\n                // Next entry starts at 85 byte + data length\n                i := add(i, add(0x55, dataLength))\n            }\n        }\n        /* solhint-enable no-inline-assembly */\n    }\n}\n",
  "sourcePath": "/Users/yemo/yemowithprivate/projects/yemowith/contracts/core/libraries/Executors/MultiSend.sol",
  "compiler": {
    "name": "solc",
    "version": "0.8.21+commit.d9974bed.Emscripten.clang"
  },
  "schemaVersion": "3.4.16",
  "updatedAt": "2024-06-04T07:07:04.052Z",
  "devdoc": {
    "author": "Nick Dodson - <nick.dodson@consensys.net>Gonalo S - <goncalo.sa@consensys.net>Stefan George - @Georgi87Richard Meissner - @rmeissner",
    "kind": "dev",
    "methods": {
      "multiSend(bytes)": {
        "details": "Sends multiple transactions and reverts all if one fails.",
        "params": {
          "transactions": "Encoded transactions. Each transaction is encoded as a packed bytes of                     operation as a uint8 with 0 for a call or 1 for a delegatecall (=> 1 byte),                     to as a address (=> 20 bytes),                     value as a uint256 (=> 32 bytes),                     data length as a uint256 (=> 32 bytes),                     data as bytes.                     see abi.encodePacked for more information on packed encoding"
        }
      }
    },
    "title": "Multi Send - Allows to batch multiple transactions into one.",
    "version": 1
  },
  "userdoc": {
    "kind": "user",
    "methods": {
      "multiSend(bytes)": {
        "notice": "This method is payable as delegatecalls keep the msg.value from the previous call         If the calling method (e.g. execTransaction) received ETH this would revert otherwise"
      }
    },
    "version": 1
  }
}