{
  "contractName": "MultiSendCallOnly",
  "abi": [
    {
      "inputs": [
        {
          "internalType": "bytes",
          "name": "transactions",
          "type": "bytes"
        }
      ],
      "name": "multiSend",
      "outputs": [],
      "stateMutability": "payable",
      "type": "function"
    }
  ],
  "bytecode": "0x608060405234801561000f575f80fd5b506102868061001d5f395ff3fe60806040526004361061001d575f3560e01c80638d80ff0a14610021575b5f80fd5b61003b60048036038101906100369190610209565b61003d565b005b805160205b818110156100b7578083015160f81c6001820184015160601c60158301850151603584018601516055850187015f855f8114610085576001811461009457610098565b5f808585888a5af19150610098565b5f80fd5b505f81036100a4575f80fd5b8260550187019650505050505050610042565b505050565b5f604051905090565b5f80fd5b5f80fd5b5f80fd5b5f80fd5b5f601f19601f8301169050919050565b7f4e487b71000000000000000000000000000000000000000000000000000000005f52604160045260245ffd5b61011b826100d5565b810181811067ffffffffffffffff8211171561013a576101396100e5565b5b80604052505050565b5f61014c6100bc565b90506101588282610112565b919050565b5f67ffffffffffffffff821115610177576101766100e5565b5b610180826100d5565b9050602081019050919050565b828183375f83830152505050565b5f6101ad6101a88461015d565b610143565b9050828152602081018484840111156101c9576101c86100d1565b5b6101d484828561018d565b509392505050565b5f82601f8301126101f0576101ef6100cd565b5b813561020084826020860161019b565b91505092915050565b5f6020828403121561021e5761021d6100c5565b5b5f82013567ffffffffffffffff81111561023b5761023a6100c9565b5b610247848285016101dc565b9150509291505056fea2646970667358221220d0ce80afe60594f601db9b152777636af92ce8c3a72e0e601c3bab7badb58de464736f6c63430008150033",
  "immutableReferences": {},
  "source": "// SPDX-License-Identifier: LGPL-3.0-only\npragma solidity >=0.7.0 <0.9.0;\n\n/// @title Multi Send Call Only - Allows to batch multiple transactions into one, but only calls\n/// @author Stefan George - <stefan@gnosis.io>\n/// @author Richard Meissner - <richard@gnosis.io>\n/// @notice The guard logic is not required here as this contract doesn't support nested delegate calls\ncontract MultiSendCallOnly {\n    /// @dev Sends multiple transactions and reverts all if one fails.\n    /// @param transactions Encoded transactions. Each transaction is encoded as a packed bytes of\n    ///                     operation has to be uint8(0) in this version (=> 1 byte),\n    ///                     to as a address (=> 20 bytes),\n    ///                     value as a uint256 (=> 32 bytes),\n    ///                     data length as a uint256 (=> 32 bytes),\n    ///                     data as bytes.\n    ///                     see abi.encodePacked for more information on packed encoding\n    /// @notice The code is for most part the same as the normal MultiSend (to keep compatibility),\n    ///         but reverts if a transaction tries to use a delegatecall.\n    /// @notice This method is payable as delegatecalls keep the msg.value from the previous call\n    ///         If the calling method (e.g. execTransaction) received ETH this would revert otherwise\n    function multiSend(bytes memory transactions) public payable {\n        // solhint-disable-next-line no-inline-assembly\n        assembly {\n            let length := mload(transactions)\n            let i := 0x20\n            for {\n                // Pre block is not used in \"while mode\"\n            } lt(i, length) {\n                // Post block is not used in \"while mode\"\n            } {\n                // First byte of the data is the operation.\n                // We shift by 248 bits (256 - 8 [operation byte]) it right since mload will always load 32 bytes (a word).\n                // This will also zero out unused data.\n                let operation := shr(0xf8, mload(add(transactions, i)))\n                // We offset the load address by 1 byte (operation byte)\n                // We shift it right by 96 bits (256 - 160 [20 address bytes]) to right-align the data and zero out unused data.\n                let to := shr(0x60, mload(add(transactions, add(i, 0x01))))\n                // We offset the load address by 21 byte (operation byte + 20 address bytes)\n                let value := mload(add(transactions, add(i, 0x15)))\n                // We offset the load address by 53 byte (operation byte + 20 address bytes + 32 value bytes)\n                let dataLength := mload(add(transactions, add(i, 0x35)))\n                // We offset the load address by 85 byte (operation byte + 20 address bytes + 32 value bytes + 32 data length bytes)\n                let data := add(transactions, add(i, 0x55))\n                let success := 0\n                switch operation\n                case 0 {\n                    success := call(gas(), to, value, data, dataLength, 0, 0)\n                }\n                // This version does not allow delegatecalls\n                case 1 {\n                    revert(0, 0)\n                }\n                if eq(success, 0) {\n                    revert(0, 0)\n                }\n                // Next entry starts at 85 byte + data length\n                i := add(i, add(0x55, dataLength))\n            }\n        }\n    }\n}\n",
  "sourcePath": "/Users/yemo/yemowithprivate/projects/yemowith/contracts/core/libraries/Executors/MultiSendOnlyCall.sol",
  "compiler": {
    "name": "solc",
    "version": "0.8.21+commit.d9974bed.Emscripten.clang"
  },
  "schemaVersion": "3.4.16",
  "updatedAt": "2024-06-04T07:07:04.053Z",
  "devdoc": {
    "author": "Stefan George - <stefan@gnosis.io>Richard Meissner - <richard@gnosis.io>",
    "kind": "dev",
    "methods": {
      "multiSend(bytes)": {
        "details": "Sends multiple transactions and reverts all if one fails.",
        "params": {
          "transactions": "Encoded transactions. Each transaction is encoded as a packed bytes of                     operation has to be uint8(0) in this version (=> 1 byte),                     to as a address (=> 20 bytes),                     value as a uint256 (=> 32 bytes),                     data length as a uint256 (=> 32 bytes),                     data as bytes.                     see abi.encodePacked for more information on packed encoding"
        }
      }
    },
    "title": "Multi Send Call Only - Allows to batch multiple transactions into one, but only calls",
    "version": 1
  },
  "userdoc": {
    "kind": "user",
    "methods": {
      "multiSend(bytes)": {
        "notice": "The code is for most part the same as the normal MultiSend (to keep compatibility),         but reverts if a transaction tries to use a delegatecall.This method is payable as delegatecalls keep the msg.value from the previous call         If the calling method (e.g. execTransaction) received ETH this would revert otherwise"
      }
    },
    "notice": "The guard logic is not required here as this contract doesn't support nested delegate calls",
    "version": 1
  }
}