{
  "contractName": "Registerable",
  "abi": [
    {
      "anonymous": false,
      "inputs": [
        {
          "indexed": true,
          "internalType": "address",
          "name": "admin",
          "type": "address"
        }
      ],
      "name": "AdminAdded",
      "type": "event"
    },
    {
      "anonymous": false,
      "inputs": [
        {
          "indexed": true,
          "internalType": "address",
          "name": "admin",
          "type": "address"
        }
      ],
      "name": "AdminRemoved",
      "type": "event"
    },
    {
      "anonymous": false,
      "inputs": [
        {
          "indexed": false,
          "internalType": "uint256",
          "name": "untilBlock",
          "type": "uint256"
        }
      ],
      "name": "Locked",
      "type": "event"
    },
    {
      "anonymous": false,
      "inputs": [],
      "name": "Paused",
      "type": "event"
    },
    {
      "anonymous": false,
      "inputs": [
        {
          "indexed": true,
          "internalType": "bytes32",
          "name": "registryType",
          "type": "bytes32"
        },
        {
          "indexed": false,
          "internalType": "address",
          "name": "registryAddress",
          "type": "address"
        }
      ],
      "name": "RegistryCreated",
      "type": "event"
    },
    {
      "anonymous": false,
      "inputs": [
        {
          "indexed": true,
          "internalType": "bytes32",
          "name": "role",
          "type": "bytes32"
        },
        {
          "indexed": false,
          "internalType": "bytes32",
          "name": "previousAdminRole",
          "type": "bytes32"
        },
        {
          "indexed": false,
          "internalType": "bytes32",
          "name": "newAdminRole",
          "type": "bytes32"
        }
      ],
      "name": "RoleAdminChanged",
      "type": "event"
    },
    {
      "anonymous": false,
      "inputs": [
        {
          "indexed": true,
          "internalType": "bytes32",
          "name": "role",
          "type": "bytes32"
        },
        {
          "indexed": true,
          "internalType": "address",
          "name": "account",
          "type": "address"
        },
        {
          "indexed": true,
          "internalType": "address",
          "name": "sender",
          "type": "address"
        }
      ],
      "name": "RoleGranted",
      "type": "event"
    },
    {
      "anonymous": false,
      "inputs": [
        {
          "indexed": true,
          "internalType": "bytes32",
          "name": "role",
          "type": "bytes32"
        },
        {
          "indexed": true,
          "internalType": "address",
          "name": "account",
          "type": "address"
        },
        {
          "indexed": true,
          "internalType": "address",
          "name": "sender",
          "type": "address"
        }
      ],
      "name": "RoleRevoked",
      "type": "event"
    },
    {
      "anonymous": false,
      "inputs": [
        {
          "indexed": true,
          "internalType": "address",
          "name": "previousSuperAdmin",
          "type": "address"
        },
        {
          "indexed": true,
          "internalType": "address",
          "name": "newSuperAdmin",
          "type": "address"
        }
      ],
      "name": "SuperAdminChanged",
      "type": "event"
    },
    {
      "anonymous": false,
      "inputs": [],
      "name": "Unlocked",
      "type": "event"
    },
    {
      "anonymous": false,
      "inputs": [],
      "name": "Unpaused",
      "type": "event"
    },
    {
      "inputs": [],
      "name": "ADMIN_ROLE",
      "outputs": [
        {
          "internalType": "bytes32",
          "name": "",
          "type": "bytes32"
        }
      ],
      "stateMutability": "view",
      "type": "function"
    },
    {
      "inputs": [],
      "name": "DEFAULT_ADMIN_ROLE",
      "outputs": [
        {
          "internalType": "bytes32",
          "name": "",
          "type": "bytes32"
        }
      ],
      "stateMutability": "view",
      "type": "function"
    },
    {
      "inputs": [],
      "name": "OWNER_ROLE",
      "outputs": [
        {
          "internalType": "bytes32",
          "name": "",
          "type": "bytes32"
        }
      ],
      "stateMutability": "view",
      "type": "function"
    },
    {
      "inputs": [],
      "name": "REGISTRIES_MANAGER_ROLE",
      "outputs": [
        {
          "internalType": "bytes32",
          "name": "",
          "type": "bytes32"
        }
      ],
      "stateMutability": "view",
      "type": "function"
    },
    {
      "inputs": [],
      "name": "SUPER_ADMIN_ROLE",
      "outputs": [
        {
          "internalType": "bytes32",
          "name": "",
          "type": "bytes32"
        }
      ],
      "stateMutability": "view",
      "type": "function"
    },
    {
      "inputs": [],
      "name": "WHITELIST_ROLE",
      "outputs": [
        {
          "internalType": "bytes32",
          "name": "",
          "type": "bytes32"
        }
      ],
      "stateMutability": "view",
      "type": "function"
    },
    {
      "inputs": [
        {
          "internalType": "address",
          "name": "account",
          "type": "address"
        }
      ],
      "name": "addWhitelist",
      "outputs": [],
      "stateMutability": "nonpayable",
      "type": "function"
    },
    {
      "inputs": [],
      "name": "getOwner",
      "outputs": [
        {
          "internalType": "address",
          "name": "",
          "type": "address"
        }
      ],
      "stateMutability": "view",
      "type": "function"
    },
    {
      "inputs": [],
      "name": "getSuperAdmin",
      "outputs": [
        {
          "internalType": "address",
          "name": "",
          "type": "address"
        }
      ],
      "stateMutability": "view",
      "type": "function"
    },
    {
      "inputs": [
        {
          "internalType": "bytes32",
          "name": "role",
          "type": "bytes32"
        },
        {
          "internalType": "address",
          "name": "account",
          "type": "address"
        }
      ],
      "name": "grantRole",
      "outputs": [],
      "stateMutability": "nonpayable",
      "type": "function"
    },
    {
      "inputs": [
        {
          "internalType": "bytes32",
          "name": "role",
          "type": "bytes32"
        },
        {
          "internalType": "address",
          "name": "account",
          "type": "address"
        }
      ],
      "name": "hasRole",
      "outputs": [
        {
          "internalType": "bool",
          "name": "",
          "type": "bool"
        }
      ],
      "stateMutability": "view",
      "type": "function"
    },
    {
      "inputs": [
        {
          "internalType": "address",
          "name": "owner",
          "type": "address"
        },
        {
          "internalType": "address",
          "name": "superAdmin",
          "type": "address"
        },
        {
          "internalType": "address",
          "name": "admin",
          "type": "address"
        }
      ],
      "name": "initialize",
      "outputs": [],
      "stateMutability": "nonpayable",
      "type": "function"
    },
    {
      "inputs": [
        {
          "internalType": "address",
          "name": "user",
          "type": "address"
        }
      ],
      "name": "isAdmin",
      "outputs": [
        {
          "internalType": "bool",
          "name": "",
          "type": "bool"
        }
      ],
      "stateMutability": "view",
      "type": "function"
    },
    {
      "inputs": [],
      "name": "isLocked",
      "outputs": [
        {
          "internalType": "bool",
          "name": "",
          "type": "bool"
        }
      ],
      "stateMutability": "view",
      "type": "function"
    },
    {
      "inputs": [],
      "name": "isPaused",
      "outputs": [
        {
          "internalType": "bool",
          "name": "",
          "type": "bool"
        }
      ],
      "stateMutability": "view",
      "type": "function"
    },
    {
      "inputs": [
        {
          "internalType": "bytes32",
          "name": "",
          "type": "bytes32"
        }
      ],
      "name": "registries",
      "outputs": [
        {
          "internalType": "address",
          "name": "",
          "type": "address"
        }
      ],
      "stateMutability": "view",
      "type": "function"
    },
    {
      "inputs": [
        {
          "internalType": "address",
          "name": "account",
          "type": "address"
        }
      ],
      "name": "removeWhitelist",
      "outputs": [],
      "stateMutability": "nonpayable",
      "type": "function"
    },
    {
      "inputs": [
        {
          "internalType": "bytes32",
          "name": "role",
          "type": "bytes32"
        },
        {
          "internalType": "address",
          "name": "account",
          "type": "address"
        }
      ],
      "name": "renounceRole",
      "outputs": [],
      "stateMutability": "nonpayable",
      "type": "function"
    },
    {
      "inputs": [
        {
          "internalType": "bytes32",
          "name": "role",
          "type": "bytes32"
        },
        {
          "internalType": "address",
          "name": "account",
          "type": "address"
        }
      ],
      "name": "revokeRole",
      "outputs": [],
      "stateMutability": "nonpayable",
      "type": "function"
    },
    {
      "inputs": [
        {
          "internalType": "bytes32",
          "name": "role",
          "type": "bytes32"
        },
        {
          "internalType": "bytes32",
          "name": "newAdminRole",
          "type": "bytes32"
        }
      ],
      "name": "setRoleAdmin",
      "outputs": [],
      "stateMutability": "nonpayable",
      "type": "function"
    }
  ],
  "bytecode": "0x60806040523480156200001157600080fd5b503333338281816000806101000a81548173ffffffffffffffffffffffffffffffffffffffff021916908373ffffffffffffffffffffffffffffffffffffffff16021790555080600160006101000a81548173ffffffffffffffffffffffffffffffffffffffff021916908373ffffffffffffffffffffffffffffffffffffffff1602179055506001600260008473ffffffffffffffffffffffffffffffffffffffff1673ffffffffffffffffffffffffffffffffffffffff16815260200190815260200160002060006101000a81548160ff0219169083151502179055505050620001247fb19546dff01e856fb3f010c267a7b1c60363cf8a4664e21cc89c26224620214e846200017460201b60201c565b620001396000801b836200017460201b60201c565b6200016b7f7613a25ecc738585a232ad50a301178f12b3ba8887d13e138b523c4269c47689826200017460201b60201c565b505050620002f4565b6200018682826200018a60201b60201c565b5050565b620001b981600360008581526020019081526020016000206000016200021f60201b620009d51790919060201c565b156200021b573373ffffffffffffffffffffffffffffffffffffffff168173ffffffffffffffffffffffffffffffffffffffff16837f2f8788117e7eff1d82e926ec794901d17c78024a50270940304540a733656f0d60405160405180910390a45b5050565b60006200024f836000018373ffffffffffffffffffffffffffffffffffffffff1660001b6200025760201b60201c565b905092915050565b60006200026b8383620002d160201b60201c565b620002c6578260000182908060018154018082558091505060019003906000526020600020016000909190919091505582600001805490508360010160008481526020019081526020016000208190555060019050620002cb565b600090505b92915050565b600080836001016000848152602001908152602001600020541415905092915050565b61148f80620003046000396000f3fe608060405234801561001057600080fd5b506004361061012c5760003560e01c8063893d20e8116100ad578063b187bd2611610071578063b187bd2614610321578063c0c53b8b1461033f578063d547741f1461035b578063e58378bb14610377578063f80f5dd5146103955761012c565b8063893d20e81461027957806391d1485414610297578063a217fddf146102c7578063a4e2d634146102e5578063a99c311e146103035761012c565b80635d8d57a6116100f45780635d8d57a6146101d357806375b238fc1461020357806378c8cda7146102215780637a997ab71461023d5780638204c3261461025b5761012c565b80631e4e00911461013157806324d7806c1461014d5780632f2ff15d1461017d57806336568abe146101995780634460bdd6146101b5575b600080fd5b61014b60048036038101906101469190610e8b565b6103b1565b005b61016760048036038101906101629190610f29565b610466565b6040516101749190610f71565b60405180910390f35b61019760048036038101906101929190610f8c565b6104bc565b005b6101b360048036038101906101ae9190610f8c565b61051d565b005b6101bd610599565b6040516101ca9190610fdb565b60405180910390f35b6101ed60048036038101906101e89190610ff6565b6105bd565b6040516101fa9190611032565b60405180910390f35b61020b6105f0565b6040516102189190610fdb565b60405180910390f35b61023b60048036038101906102369190610f29565b610614565b005b61024561067a565b6040516102529190610fdb565b60405180910390f35b61026361069e565b6040516102709190611032565b60405180910390f35b6102816106c8565b60405161028e9190611032565b60405180910390f35b6102b160048036038101906102ac9190610f8c565b6106f1565b6040516102be9190610f71565b60405180910390f35b6102cf610723565b6040516102dc9190610fdb565b60405180910390f35b6102ed61072a565b6040516102fa9190610f71565b60405180910390f35b61030b61074f565b6040516103189190610fdb565b60405180910390f35b610329610773565b6040516103369190610f71565b60405180910390f35b6103596004803603810190610354919061104d565b61078a565b005b61037560048036038101906103709190610f8c565b6108ea565b005b61037f61094b565b60405161038c9190610fdb565b60405180910390f35b6103af60048036038101906103aa9190610f29565b61096f565b005b6000801b6103bf81336106f1565b6103fe576040517f08c379a00000000000000000000000000000000000000000000000000000000081526004016103f590611123565b60405180910390fd5b600061040984610a05565b9050826003600086815260200190815260200160002060020181905550837fbd79b86ffe0ab8e8776151514217cd7cacd52c909f66475c3af44e129f0b00ff8285604051610458929190611143565b60405180910390a250505050565b6000600260008373ffffffffffffffffffffffffffffffffffffffff1673ffffffffffffffffffffffffffffffffffffffff16815260200190815260200160002060009054906101000a900460ff169050919050565b6104c582610a05565b6104cf81336106f1565b61050e576040517f08c379a000000000000000000000000000000000000000000000000000000000815260040161050590611123565b60405180910390fd5b6105188383610a25565b505050565b3373ffffffffffffffffffffffffffffffffffffffff168173ffffffffffffffffffffffffffffffffffffffff161461058b576040517f08c379a0000000000000000000000000000000000000000000000000000000008152600401610582906111de565b60405180910390fd5b6105958282610ab2565b5050565b7f7613a25ecc738585a232ad50a301178f12b3ba8887d13e138b523c4269c4768981565b60076020528060005260406000206000915054906101000a900473ffffffffffffffffffffffffffffffffffffffff1681565b7fa49807205ce4d355092ef5a8a18f56e8913cf4a201fbe287825b095693c2177581565b61061c610b3f565b61062681336106f1565b610665576040517f08c379a000000000000000000000000000000000000000000000000000000000815260040161065c90611123565b60405180910390fd5b610676610670610b67565b83610ab2565b5050565b7fdc72ed553f2544c34465af23b847953efeb813428162d767f9ba5f4013be676081565b6000600160009054906101000a900473ffffffffffffffffffffffffffffffffffffffff16905090565b60008060009054906101000a900473ffffffffffffffffffffffffffffffffffffffff16905090565b600061071b8260036000868152602001908152602001600020600001610b8f90919063ffffffff16565b905092915050565b6000801b81565b6000600460009054906101000a900460ff16801561074a57506005544311155b905090565b7fb0bd4b97001c1e1607bd771974169d8b6bed09e8593260a89c40edfdcfafda3181565b6000600660009054906101000a900460ff16905090565b600660029054906101000a900460ff16806107b25750600660019054906101000a900460ff16155b6107f1576040517f08c379a00000000000000000000000000000000000000000000000000000000081526004016107e890611270565b60405180910390fd5b6000600660029054906101000a900460ff161590508015610843576001600660026101000a81548160ff0219169083151502179055506001600660016101000a81548160ff0219169083151502179055505b61084b610bbf565b1561088b576040517f08c379a000000000000000000000000000000000000000000000000000000000815260040161088290611302565b60405180910390fd5b61089c610896610bd6565b85610bfe565b6108a96000801b83610bfe565b6108ba6108b4610b3f565b84610bfe565b6108c2610c0c565b80156108e4576000600660026101000a81548160ff0219169083151502179055505b50505050565b6108f382610a05565b6108fd81336106f1565b61093c576040517f08c379a000000000000000000000000000000000000000000000000000000000815260040161093390611123565b60405180910390fd5b6109468383610ab2565b505050565b7fb19546dff01e856fb3f010c267a7b1c60363cf8a4664e21cc89c26224620214e81565b610977610b3f565b61098181336106f1565b6109c0576040517f08c379a00000000000000000000000000000000000000000000000000000000081526004016109b790611123565b60405180910390fd5b6109d16109cb610b67565b83610a25565b5050565b60006109fd836000018373ffffffffffffffffffffffffffffffffffffffff1660001b610c79565b905092915050565b600060036000838152602001908152602001600020600201549050919050565b610a4d81600360008581526020019081526020016000206000016109d590919063ffffffff16565b15610aae573373ffffffffffffffffffffffffffffffffffffffff168173ffffffffffffffffffffffffffffffffffffffff16837f2f8788117e7eff1d82e926ec794901d17c78024a50270940304540a733656f0d60405160405180910390a45b5050565b610ada8160036000858152602001908152602001600020600001610ce990919063ffffffff16565b15610b3b573373ffffffffffffffffffffffffffffffffffffffff168173ffffffffffffffffffffffffffffffffffffffff16837ff6391f5c32d9c69d2a47ea670b442974b53935d1edc7fd64eb21e047a839171b60405160405180910390a45b5050565b60007f7613a25ecc738585a232ad50a301178f12b3ba8887d13e138b523c4269c47689905090565b60007fdc72ed553f2544c34465af23b847953efeb813428162d767f9ba5f4013be6760905090565b6000610bb7836000018373ffffffffffffffffffffffffffffffffffffffff1660001b610d19565b905092915050565b6000600660019054906101000a900460ff16905090565b60007fb19546dff01e856fb3f010c267a7b1c60363cf8a4664e21cc89c26224620214e905090565b610c088282610a25565b5050565b600660019054906101000a900460ff1615610c5c576040517f08c379a0000000000000000000000000000000000000000000000000000000008152600401610c539061136e565b60405180910390fd5b6001600660016101000a81548160ff021916908315150217905550565b6000610c858383610d19565b610cde578260000182908060018154018082558091505060019003906000526020600020016000909190919091505582600001805490508360010160008481526020019081526020016000208190555060019050610ce3565b600090505b92915050565b6000610d11836000018373ffffffffffffffffffffffffffffffffffffffff1660001b610d3c565b905092915050565b600080836001016000848152602001908152602001600020541415905092915050565b60008083600101600084815260200190815260200160002054905060008114610e44576000600182610d6e91906113c7565b9050600060018660000180549050610d8691906113c7565b9050818114610df5576000866000018281548110610da757610da66113fb565b5b9060005260206000200154905080876000018481548110610dcb57610dca6113fb565b5b90600052602060002001819055508387600101600083815260200190815260200160002081905550505b85600001805480610e0957610e0861142a565b5b600190038181906000526020600020016000905590558560010160008681526020019081526020016000206000905560019350505050610e4a565b60009150505b92915050565b600080fd5b6000819050919050565b610e6881610e55565b8114610e7357600080fd5b50565b600081359050610e8581610e5f565b92915050565b60008060408385031215610ea257610ea1610e50565b5b6000610eb085828601610e76565b9250506020610ec185828601610e76565b9150509250929050565b600073ffffffffffffffffffffffffffffffffffffffff82169050919050565b6000610ef682610ecb565b9050919050565b610f0681610eeb565b8114610f1157600080fd5b50565b600081359050610f2381610efd565b92915050565b600060208284031215610f3f57610f3e610e50565b5b6000610f4d84828501610f14565b91505092915050565b60008115159050919050565b610f6b81610f56565b82525050565b6000602082019050610f866000830184610f62565b92915050565b60008060408385031215610fa357610fa2610e50565b5b6000610fb185828601610e76565b9250506020610fc285828601610f14565b9150509250929050565b610fd581610e55565b82525050565b6000602082019050610ff06000830184610fcc565b92915050565b60006020828403121561100c5761100b610e50565b5b600061101a84828501610e76565b91505092915050565b61102c81610eeb565b82525050565b60006020820190506110476000830184611023565b92915050565b60008060006060848603121561106657611065610e50565b5b600061107486828701610f14565b935050602061108586828701610f14565b925050604061109686828701610f14565b9150509250925092565b600082825260208201905092915050565b7f416363657373436f6e74726f6c3a2073656e64657220646f6573206e6f74206860008201527f61766520726f6c65000000000000000000000000000000000000000000000000602082015250565b600061110d6028836110a0565b9150611118826110b1565b604082019050919050565b6000602082019050818103600083015261113c81611100565b9050919050565b60006040820190506111586000830185610fcc565b6111656020830184610fcc565b9392505050565b7f416363657373436f6e74726f6c3a2063616e206f6e6c792072656e6f756e636560008201527f20726f6c657320666f722073656c660000000000000000000000000000000000602082015250565b60006111c8602f836110a0565b91506111d38261116c565b604082019050919050565b600060208201905081810360008301526111f7816111bb565b9050919050565b7f496e697469616c697a61626c653a20636f6e747261637420697320616c72656160008201527f647920696e697469616c697a6564000000000000000000000000000000000000602082015250565b600061125a602e836110a0565b9150611265826111fe565b604082019050919050565b600060208201905081810360008301526112898161124d565b9050919050565b7f416476616e636564416363657373436f6e74726f6c3a20616c7265616479206960008201527f6e697469616c697a656400000000000000000000000000000000000000000000602082015250565b60006112ec602a836110a0565b91506112f782611290565b604082019050919050565b6000602082019050818103600083015261131b816112df565b9050919050565b7f436f6e747261637420616c726561647920696e697469616c697a656400000000600082015250565b6000611358601c836110a0565b915061136382611322565b602082019050919050565b600060208201905081810360008301526113878161134b565b9050919050565b6000819050919050565b7f4e487b7100000000000000000000000000000000000000000000000000000000600052601160045260246000fd5b60006113d28261138e565b91506113dd8361138e565b9250828210156113f0576113ef611398565b5b828203905092915050565b7f4e487b7100000000000000000000000000000000000000000000000000000000600052603260045260246000fd5b7f4e487b7100000000000000000000000000000000000000000000000000000000600052603160045260246000fdfea264697066735822122077bb6e06ba7a9096370f67973ec1f649edd20b8d5b0f0ba6163d974ae5a5aedd64736f6c634300080d0033",
  "immutableReferences": {},
  "source": "// SPDX-License-Identifier: MIT\npragma solidity ^0.8.0;\n\nimport \"../Accessblity/BaseAccessControl.sol\";\n\ncontract Registerable is BaseAccessControl {\n    // Mapping to store addresses of different registry contracts\n    mapping(bytes32 => address) public registries;\n\n    // Event for registry creation and updates\n    event RegistryCreated(\n        bytes32 indexed registryType,\n        address registryAddress\n    );\n\n    // Define roles for management\n    bytes32 public constant REGISTRIES_MANAGER_ROLE =\n        keccak256(\"REGISTRIES_MANAGER_ROLE\");\n\n    // Internal function to create a new registry\n    function _createRegistry(\n        bytes32 registryType,\n        address registryImplementation\n    ) internal virtual {\n        require(\n            registries[registryType] == address(0),\n            \"Registry type already exists\"\n        );\n        registries[registryType] = registryImplementation;\n        emit RegistryCreated(registryType, registryImplementation);\n    }\n\n    // Internal function to update an existing registry\n    function _updateRegistry(\n        bytes32 registryType,\n        address newRegistryImplementation\n    ) internal virtual {\n        require(\n            registries[registryType] != address(0),\n            \"Registry type does not exist\"\n        );\n        registries[registryType] = newRegistryImplementation;\n        emit RegistryCreated(registryType, newRegistryImplementation);\n    }\n}\n",
  "sourcePath": "/Users/yemo/yemowithprivate/projects/yemowith/contracts/core/objective/Registerable/Registerable.sol",
  "compiler": {
    "name": "solc",
    "version": "0.8.13+commit.abaa5c0e.Emscripten.clang"
  },
  "schemaVersion": "3.4.16",
  "updatedAt": "2024-06-10T11:54:44.481Z",
  "devdoc": {
    "kind": "dev",
    "methods": {},
    "version": 1
  },
  "userdoc": {
    "kind": "user",
    "methods": {},
    "version": 1
  }
}