{
  "contractName": "Registerable",
  "abi": [
    {
      "anonymous": false,
      "inputs": [
        {
          "indexed": true,
          "internalType": "address",
          "name": "admin",
          "type": "address"
        }
      ],
      "name": "AdminAdded",
      "type": "event"
    },
    {
      "anonymous": false,
      "inputs": [
        {
          "indexed": true,
          "internalType": "address",
          "name": "admin",
          "type": "address"
        }
      ],
      "name": "AdminRemoved",
      "type": "event"
    },
    {
      "anonymous": false,
      "inputs": [
        {
          "indexed": false,
          "internalType": "uint256",
          "name": "untilBlock",
          "type": "uint256"
        }
      ],
      "name": "Locked",
      "type": "event"
    },
    {
      "anonymous": false,
      "inputs": [],
      "name": "Paused",
      "type": "event"
    },
    {
      "anonymous": false,
      "inputs": [
        {
          "indexed": true,
          "internalType": "bytes32",
          "name": "registryType",
          "type": "bytes32"
        },
        {
          "indexed": false,
          "internalType": "address",
          "name": "registryAddress",
          "type": "address"
        }
      ],
      "name": "RegistryCreated",
      "type": "event"
    },
    {
      "anonymous": false,
      "inputs": [
        {
          "indexed": true,
          "internalType": "bytes32",
          "name": "role",
          "type": "bytes32"
        },
        {
          "indexed": false,
          "internalType": "bytes32",
          "name": "previousAdminRole",
          "type": "bytes32"
        },
        {
          "indexed": false,
          "internalType": "bytes32",
          "name": "newAdminRole",
          "type": "bytes32"
        }
      ],
      "name": "RoleAdminChanged",
      "type": "event"
    },
    {
      "anonymous": false,
      "inputs": [
        {
          "indexed": true,
          "internalType": "bytes32",
          "name": "role",
          "type": "bytes32"
        },
        {
          "indexed": true,
          "internalType": "address",
          "name": "account",
          "type": "address"
        },
        {
          "indexed": true,
          "internalType": "address",
          "name": "sender",
          "type": "address"
        }
      ],
      "name": "RoleGranted",
      "type": "event"
    },
    {
      "anonymous": false,
      "inputs": [
        {
          "indexed": true,
          "internalType": "bytes32",
          "name": "role",
          "type": "bytes32"
        },
        {
          "indexed": true,
          "internalType": "address",
          "name": "account",
          "type": "address"
        },
        {
          "indexed": true,
          "internalType": "address",
          "name": "sender",
          "type": "address"
        }
      ],
      "name": "RoleRevoked",
      "type": "event"
    },
    {
      "anonymous": false,
      "inputs": [
        {
          "indexed": true,
          "internalType": "address",
          "name": "previousSuperAdmin",
          "type": "address"
        },
        {
          "indexed": true,
          "internalType": "address",
          "name": "newSuperAdmin",
          "type": "address"
        }
      ],
      "name": "SuperAdminChanged",
      "type": "event"
    },
    {
      "anonymous": false,
      "inputs": [],
      "name": "Unlocked",
      "type": "event"
    },
    {
      "anonymous": false,
      "inputs": [],
      "name": "Unpaused",
      "type": "event"
    },
    {
      "inputs": [],
      "name": "ADMIN_ROLE",
      "outputs": [
        {
          "internalType": "bytes32",
          "name": "",
          "type": "bytes32"
        }
      ],
      "stateMutability": "view",
      "type": "function"
    },
    {
      "inputs": [],
      "name": "DEFAULT_ADMIN_ROLE",
      "outputs": [
        {
          "internalType": "bytes32",
          "name": "",
          "type": "bytes32"
        }
      ],
      "stateMutability": "view",
      "type": "function"
    },
    {
      "inputs": [],
      "name": "OWNER_ROLE",
      "outputs": [
        {
          "internalType": "bytes32",
          "name": "",
          "type": "bytes32"
        }
      ],
      "stateMutability": "view",
      "type": "function"
    },
    {
      "inputs": [],
      "name": "REGISTRIES_MANAGER_ROLE",
      "outputs": [
        {
          "internalType": "bytes32",
          "name": "",
          "type": "bytes32"
        }
      ],
      "stateMutability": "view",
      "type": "function"
    },
    {
      "inputs": [],
      "name": "SUPER_ADMIN_ROLE",
      "outputs": [
        {
          "internalType": "bytes32",
          "name": "",
          "type": "bytes32"
        }
      ],
      "stateMutability": "view",
      "type": "function"
    },
    {
      "inputs": [],
      "name": "WHITELIST_ROLE",
      "outputs": [
        {
          "internalType": "bytes32",
          "name": "",
          "type": "bytes32"
        }
      ],
      "stateMutability": "view",
      "type": "function"
    },
    {
      "inputs": [
        {
          "internalType": "address",
          "name": "account",
          "type": "address"
        }
      ],
      "name": "addWhitelist",
      "outputs": [],
      "stateMutability": "nonpayable",
      "type": "function"
    },
    {
      "inputs": [],
      "name": "getOwner",
      "outputs": [
        {
          "internalType": "address",
          "name": "",
          "type": "address"
        }
      ],
      "stateMutability": "view",
      "type": "function"
    },
    {
      "inputs": [],
      "name": "getSuperAdmin",
      "outputs": [
        {
          "internalType": "address",
          "name": "",
          "type": "address"
        }
      ],
      "stateMutability": "view",
      "type": "function"
    },
    {
      "inputs": [
        {
          "internalType": "bytes32",
          "name": "role",
          "type": "bytes32"
        },
        {
          "internalType": "address",
          "name": "account",
          "type": "address"
        }
      ],
      "name": "grantRole",
      "outputs": [],
      "stateMutability": "nonpayable",
      "type": "function"
    },
    {
      "inputs": [
        {
          "internalType": "bytes32",
          "name": "role",
          "type": "bytes32"
        },
        {
          "internalType": "address",
          "name": "account",
          "type": "address"
        }
      ],
      "name": "hasRole",
      "outputs": [
        {
          "internalType": "bool",
          "name": "",
          "type": "bool"
        }
      ],
      "stateMutability": "view",
      "type": "function"
    },
    {
      "inputs": [
        {
          "internalType": "address",
          "name": "owner",
          "type": "address"
        },
        {
          "internalType": "address",
          "name": "superAdmin",
          "type": "address"
        }
      ],
      "name": "initialize",
      "outputs": [],
      "stateMutability": "nonpayable",
      "type": "function"
    },
    {
      "inputs": [
        {
          "internalType": "address",
          "name": "user",
          "type": "address"
        }
      ],
      "name": "isAdmin",
      "outputs": [
        {
          "internalType": "bool",
          "name": "",
          "type": "bool"
        }
      ],
      "stateMutability": "view",
      "type": "function"
    },
    {
      "inputs": [],
      "name": "isLocked",
      "outputs": [
        {
          "internalType": "bool",
          "name": "",
          "type": "bool"
        }
      ],
      "stateMutability": "view",
      "type": "function"
    },
    {
      "inputs": [],
      "name": "isPaused",
      "outputs": [
        {
          "internalType": "bool",
          "name": "",
          "type": "bool"
        }
      ],
      "stateMutability": "view",
      "type": "function"
    },
    {
      "inputs": [
        {
          "internalType": "bytes32",
          "name": "",
          "type": "bytes32"
        }
      ],
      "name": "registries",
      "outputs": [
        {
          "internalType": "address",
          "name": "",
          "type": "address"
        }
      ],
      "stateMutability": "view",
      "type": "function"
    },
    {
      "inputs": [
        {
          "internalType": "address",
          "name": "account",
          "type": "address"
        }
      ],
      "name": "removeWhitelist",
      "outputs": [],
      "stateMutability": "nonpayable",
      "type": "function"
    },
    {
      "inputs": [
        {
          "internalType": "bytes32",
          "name": "role",
          "type": "bytes32"
        },
        {
          "internalType": "address",
          "name": "account",
          "type": "address"
        }
      ],
      "name": "renounceRole",
      "outputs": [],
      "stateMutability": "nonpayable",
      "type": "function"
    },
    {
      "inputs": [
        {
          "internalType": "bytes32",
          "name": "role",
          "type": "bytes32"
        },
        {
          "internalType": "address",
          "name": "account",
          "type": "address"
        }
      ],
      "name": "revokeRole",
      "outputs": [],
      "stateMutability": "nonpayable",
      "type": "function"
    },
    {
      "inputs": [
        {
          "internalType": "bytes32",
          "name": "role",
          "type": "bytes32"
        },
        {
          "internalType": "bytes32",
          "name": "newAdminRole",
          "type": "bytes32"
        }
      ],
      "name": "setRoleAdmin",
      "outputs": [],
      "stateMutability": "nonpayable",
      "type": "function"
    }
  ],
  "bytecode": "0x608060405234801562000010575f80fd5b5033338181815f806101000a81548173ffffffffffffffffffffffffffffffffffffffff021916908373ffffffffffffffffffffffffffffffffffffffff1602179055508060015f6101000a81548173ffffffffffffffffffffffffffffffffffffffff021916908373ffffffffffffffffffffffffffffffffffffffff160217905550600160025f8473ffffffffffffffffffffffffffffffffffffffff1673ffffffffffffffffffffffffffffffffffffffff1681526020019081526020015f205f6101000a81548160ff0219169083151502179055505050620000ff5f801b836200016b60201b60201c565b620001317fb19546dff01e856fb3f010c267a7b1c60363cf8a4664e21cc89c26224620214e836200016b60201b60201c565b620001637f7613a25ecc738585a232ad50a301178f12b3ba8887d13e138b523c4269c47689826200016b60201b60201c565b5050620002d4565b6200017d82826200018160201b60201c565b5050565b620001a88160035f8581526020019081526020015f205f016200020e60201b90919060201c565b156200020a573373ffffffffffffffffffffffffffffffffffffffff168173ffffffffffffffffffffffffffffffffffffffff16837f2f8788117e7eff1d82e926ec794901d17c78024a50270940304540a733656f0d60405160405180910390a45b5050565b5f6200023b835f018373ffffffffffffffffffffffffffffffffffffffff165f1b6200024360201b60201c565b905092915050565b5f620002568383620002b460201b60201c565b620002aa57825f0182908060018154018082558091505060019003905f5260205f20015f9091909190915055825f0180549050836001015f8481526020019081526020015f208190555060019050620002ae565b5f90505b92915050565b5f80836001015f8481526020019081526020015f20541415905092915050565b6113eb80620002e25f395ff3fe608060405234801561000f575f80fd5b506004361061012a575f3560e01c80638204c326116100ab578063a99c311e1161006f578063a99c311e1461031c578063b187bd261461033a578063d547741f14610358578063e58378bb14610374578063f80f5dd5146103925761012a565b80638204c32614610274578063893d20e81461029257806391d14854146102b0578063a217fddf146102e0578063a4e2d634146102fe5761012a565b8063485cc955116100f2578063485cc955146101d05780635d8d57a6146101ec57806375b238fc1461021c57806378c8cda71461023a5780637a997ab7146102565761012a565b80631e4e00911461012e57806324d7806c1461014a5780632f2ff15d1461017a57806336568abe146101965780634460bdd6146101b2575b5f80fd5b61014860048036038101906101439190610e2e565b6103ae565b005b610164600480360381019061015f9190610ec6565b61045f565b6040516101719190610f0b565b60405180910390f35b610194600480360381019061018f9190610f24565b6104b1565b005b6101b060048036038101906101ab9190610f24565b610512565b005b6101ba61058e565b6040516101c79190610f71565b60405180910390f35b6101ea60048036038101906101e59190610f8a565b6105b2565b005b61020660048036038101906102019190610fc8565b61070e565b6040516102139190611002565b60405180910390f35b61022461073e565b6040516102319190610f71565b60405180910390f35b610254600480360381019061024f9190610ec6565b610762565b005b61025e6107c8565b60405161026b9190610f71565b60405180910390f35b61027c6107ec565b6040516102899190611002565b60405180910390f35b61029a610814565b6040516102a79190611002565b60405180910390f35b6102ca60048036038101906102c59190610f24565b61083b565b6040516102d79190610f0b565b60405180910390f35b6102e8610869565b6040516102f59190610f71565b60405180910390f35b61030661086f565b6040516103139190610f0b565b60405180910390f35b610324610892565b6040516103319190610f71565b60405180910390f35b6103426108b6565b60405161034f9190610f0b565b60405180910390f35b610372600480360381019061036d9190610f24565b6108cb565b005b61037c61092c565b6040516103899190610f71565b60405180910390f35b6103ac60048036038101906103a79190610ec6565b610950565b005b5f801b6103bb813361083b565b6103fa576040517f08c379a00000000000000000000000000000000000000000000000000000000081526004016103f19061109b565b60405180910390fd5b5f610404846109b6565b90508260035f8681526020019081526020015f2060020181905550837fbd79b86ffe0ab8e8776151514217cd7cacd52c909f66475c3af44e129f0b00ff82856040516104519291906110b9565b60405180910390a250505050565b5f60025f8373ffffffffffffffffffffffffffffffffffffffff1673ffffffffffffffffffffffffffffffffffffffff1681526020019081526020015f205f9054906101000a900460ff169050919050565b6104ba826109b6565b6104c4813361083b565b610503576040517f08c379a00000000000000000000000000000000000000000000000000000000081526004016104fa9061109b565b60405180910390fd5b61050d83836109d3565b505050565b3373ffffffffffffffffffffffffffffffffffffffff168173ffffffffffffffffffffffffffffffffffffffff1614610580576040517f08c379a000000000000000000000000000000000000000000000000000000000815260040161057790611150565b60405180910390fd5b61058a8282610a5d565b5050565b7f7613a25ecc738585a232ad50a301178f12b3ba8887d13e138b523c4269c4768981565b600660029054906101000a900460ff16806105da5750600660019054906101000a900460ff16155b610619576040517f08c379a0000000000000000000000000000000000000000000000000000000008152600401610610906111de565b60405180910390fd5b5f600660029054906101000a900460ff16159050801561066a576001600660026101000a81548160ff0219169083151502179055506001600660016101000a81548160ff0219169083151502179055505b610672610ae7565b156106b2576040517f08c379a00000000000000000000000000000000000000000000000000000000081526004016106a99061126c565b60405180910390fd5b6106be5f801b84610afd565b6106cf6106c9610b0b565b84610afd565b6106e06106da610b32565b83610afd565b6106e8610b59565b8015610709575f600660026101000a81548160ff0219169083151502179055505b505050565b6007602052805f5260405f205f915054906101000a900473ffffffffffffffffffffffffffffffffffffffff1681565b7fa49807205ce4d355092ef5a8a18f56e8913cf4a201fbe287825b095693c2177581565b61076a610b32565b610774813361083b565b6107b3576040517f08c379a00000000000000000000000000000000000000000000000000000000081526004016107aa9061109b565b60405180910390fd5b6107c46107be610bc6565b83610a5d565b5050565b7fdc72ed553f2544c34465af23b847953efeb813428162d767f9ba5f4013be676081565b5f60015f9054906101000a900473ffffffffffffffffffffffffffffffffffffffff16905090565b5f805f9054906101000a900473ffffffffffffffffffffffffffffffffffffffff16905090565b5f6108618260035f8681526020019081526020015f205f01610bed90919063ffffffff16565b905092915050565b5f801b81565b5f60045f9054906101000a900460ff16801561088d57506005544311155b905090565b7fb0bd4b97001c1e1607bd771974169d8b6bed09e8593260a89c40edfdcfafda3181565b5f60065f9054906101000a900460ff16905090565b6108d4826109b6565b6108de813361083b565b61091d576040517f08c379a00000000000000000000000000000000000000000000000000000000081526004016109149061109b565b60405180910390fd5b6109278383610a5d565b505050565b7fb19546dff01e856fb3f010c267a7b1c60363cf8a4664e21cc89c26224620214e81565b610958610b32565b610962813361083b565b6109a1576040517f08c379a00000000000000000000000000000000000000000000000000000000081526004016109989061109b565b60405180910390fd5b6109b26109ac610bc6565b836109d3565b5050565b5f60035f8381526020019081526020015f20600201549050919050565b6109f88160035f8581526020019081526020015f205f01610c1a90919063ffffffff16565b15610a59573373ffffffffffffffffffffffffffffffffffffffff168173ffffffffffffffffffffffffffffffffffffffff16837f2f8788117e7eff1d82e926ec794901d17c78024a50270940304540a733656f0d60405160405180910390a45b5050565b610a828160035f8581526020019081526020015f205f01610c4790919063ffffffff16565b15610ae3573373ffffffffffffffffffffffffffffffffffffffff168173ffffffffffffffffffffffffffffffffffffffff16837ff6391f5c32d9c69d2a47ea670b442974b53935d1edc7fd64eb21e047a839171b60405160405180910390a45b5050565b5f600660019054906101000a900460ff16905090565b610b0782826109d3565b5050565b5f7fb19546dff01e856fb3f010c267a7b1c60363cf8a4664e21cc89c26224620214e905090565b5f7f7613a25ecc738585a232ad50a301178f12b3ba8887d13e138b523c4269c47689905090565b600660019054906101000a900460ff1615610ba9576040517f08c379a0000000000000000000000000000000000000000000000000000000008152600401610ba0906112d4565b60405180910390fd5b6001600660016101000a81548160ff021916908315150217905550565b5f7fdc72ed553f2544c34465af23b847953efeb813428162d767f9ba5f4013be6760905090565b5f610c12835f018373ffffffffffffffffffffffffffffffffffffffff165f1b610c74565b905092915050565b5f610c3f835f018373ffffffffffffffffffffffffffffffffffffffff165f1b610c94565b905092915050565b5f610c6c835f018373ffffffffffffffffffffffffffffffffffffffff165f1b610cfb565b905092915050565b5f80836001015f8481526020019081526020015f20541415905092915050565b5f610c9f8383610c74565b610cf157825f0182908060018154018082558091505060019003905f5260205f20015f9091909190915055825f0180549050836001015f8481526020019081526020015f208190555060019050610cf5565b5f90505b92915050565b5f80836001015f8481526020019081526020015f205490505f8114610dec575f600182610d289190611328565b90505f6001865f0180549050610d3e9190611328565b9050808214610da4575f865f018281548110610d5d57610d5c61135b565b5b905f5260205f200154905080875f018481548110610d7e57610d7d61135b565b5b905f5260205f20018190555083876001015f8381526020019081526020015f2081905550505b855f01805480610db757610db6611388565b5b600190038181905f5260205f20015f90559055856001015f8681526020019081526020015f205f905560019350505050610df1565b5f9150505b92915050565b5f80fd5b5f819050919050565b610e0d81610dfb565b8114610e17575f80fd5b50565b5f81359050610e2881610e04565b92915050565b5f8060408385031215610e4457610e43610df7565b5b5f610e5185828601610e1a565b9250506020610e6285828601610e1a565b9150509250929050565b5f73ffffffffffffffffffffffffffffffffffffffff82169050919050565b5f610e9582610e6c565b9050919050565b610ea581610e8b565b8114610eaf575f80fd5b50565b5f81359050610ec081610e9c565b92915050565b5f60208284031215610edb57610eda610df7565b5b5f610ee884828501610eb2565b91505092915050565b5f8115159050919050565b610f0581610ef1565b82525050565b5f602082019050610f1e5f830184610efc565b92915050565b5f8060408385031215610f3a57610f39610df7565b5b5f610f4785828601610e1a565b9250506020610f5885828601610eb2565b9150509250929050565b610f6b81610dfb565b82525050565b5f602082019050610f845f830184610f62565b92915050565b5f8060408385031215610fa057610f9f610df7565b5b5f610fad85828601610eb2565b9250506020610fbe85828601610eb2565b9150509250929050565b5f60208284031215610fdd57610fdc610df7565b5b5f610fea84828501610e1a565b91505092915050565b610ffc81610e8b565b82525050565b5f6020820190506110155f830184610ff3565b92915050565b5f82825260208201905092915050565b7f416363657373436f6e74726f6c3a2073656e64657220646f6573206e6f7420685f8201527f61766520726f6c65000000000000000000000000000000000000000000000000602082015250565b5f61108560288361101b565b91506110908261102b565b604082019050919050565b5f6020820190508181035f8301526110b281611079565b9050919050565b5f6040820190506110cc5f830185610f62565b6110d96020830184610f62565b9392505050565b7f416363657373436f6e74726f6c3a2063616e206f6e6c792072656e6f756e63655f8201527f20726f6c657320666f722073656c660000000000000000000000000000000000602082015250565b5f61113a602f8361101b565b9150611145826110e0565b604082019050919050565b5f6020820190508181035f8301526111678161112e565b9050919050565b7f496e697469616c697a61626c653a20636f6e747261637420697320616c7265615f8201527f647920696e697469616c697a6564000000000000000000000000000000000000602082015250565b5f6111c8602e8361101b565b91506111d38261116e565b604082019050919050565b5f6020820190508181035f8301526111f5816111bc565b9050919050565b7f416476616e636564416363657373436f6e74726f6c3a20616c726561647920695f8201527f6e697469616c697a656400000000000000000000000000000000000000000000602082015250565b5f611256602a8361101b565b9150611261826111fc565b604082019050919050565b5f6020820190508181035f8301526112838161124a565b9050919050565b7f436f6e747261637420616c726561647920696e697469616c697a6564000000005f82015250565b5f6112be601c8361101b565b91506112c98261128a565b602082019050919050565b5f6020820190508181035f8301526112eb816112b2565b9050919050565b5f819050919050565b7f4e487b71000000000000000000000000000000000000000000000000000000005f52601160045260245ffd5b5f611332826112f2565b915061133d836112f2565b9250828203905081811115611355576113546112fb565b5b92915050565b7f4e487b71000000000000000000000000000000000000000000000000000000005f52603260045260245ffd5b7f4e487b71000000000000000000000000000000000000000000000000000000005f52603160045260245ffdfea2646970667358221220733cf446dedf46788a53d9af757421fc9f9872f138ed6d4a45ec73f38965065f64736f6c63430008150033",
  "immutableReferences": {},
  "source": "// SPDX-License-Identifier: MIT\npragma solidity ^0.8.0;\n\nimport \"../Accessblity/BaseAccessControl.sol\";\n\ncontract Registerable is BaseAccessControl {\n    // Mapping to store addresses of different registry contracts\n    mapping(bytes32 => address) public registries;\n\n    // Event for registry creation and updates\n    event RegistryCreated(\n        bytes32 indexed registryType,\n        address registryAddress\n    );\n\n    // Define roles for management\n    bytes32 public constant REGISTRIES_MANAGER_ROLE =\n        keccak256(\"REGISTRIES_MANAGER_ROLE\");\n\n    // Internal function to create a new registry\n    function _createRegistry(\n        bytes32 registryType,\n        address registryImplementation\n    ) internal virtual {\n        require(\n            registries[registryType] == address(0),\n            \"Registry type already exists\"\n        );\n        registries[registryType] = registryImplementation;\n        emit RegistryCreated(registryType, registryImplementation);\n    }\n\n    // Internal function to update an existing registry\n    function _updateRegistry(\n        bytes32 registryType,\n        address newRegistryImplementation\n    ) internal virtual {\n        require(\n            registries[registryType] != address(0),\n            \"Registry type does not exist\"\n        );\n        registries[registryType] = newRegistryImplementation;\n        emit RegistryCreated(registryType, newRegistryImplementation);\n    }\n}\n",
  "sourcePath": "/Users/yemo/yemowithprivate/projects/yemowith/contracts/core/objective/Registerable/Registerable.sol",
  "compiler": {
    "name": "solc",
    "version": "0.8.21+commit.d9974bed.Emscripten.clang"
  },
  "schemaVersion": "3.4.16",
  "updatedAt": "2024-06-04T07:07:04.065Z",
  "devdoc": {
    "kind": "dev",
    "methods": {},
    "version": 1
  },
  "userdoc": {
    "kind": "user",
    "methods": {},
    "version": 1
  }
}