{"abi":[{"type":"function","name":"DEFAULT_ADMIN_ROLE","inputs":[],"outputs":[{"name":"","type":"bytes32","internalType":"bytes32"}],"stateMutability":"view"},{"type":"function","name":"LOCKER_ROLE","inputs":[],"outputs":[{"name":"","type":"bytes32","internalType":"bytes32"}],"stateMutability":"view"},{"type":"function","name":"PAUSER_ROLE","inputs":[],"outputs":[{"name":"","type":"bytes32","internalType":"bytes32"}],"stateMutability":"view"},{"type":"function","name":"SUPER_ADMIN_ROLE","inputs":[],"outputs":[{"name":"","type":"bytes32","internalType":"bytes32"}],"stateMutability":"view"},{"type":"function","name":"addConcept","inputs":[{"name":"conceptId","type":"bytes32","internalType":"bytes32"},{"name":"name","type":"string","internalType":"string"},{"name":"operationType","type":"uint8","internalType":"enum AppliesConcepts.OperationType"},{"name":"mode","type":"uint8","internalType":"enum AppliesConcepts.Mode"},{"name":"value","type":"uint256","internalType":"uint256"}],"outputs":[],"stateMutability":"nonpayable"},{"type":"function","name":"applyConcept","inputs":[{"name":"conceptId","type":"bytes32","internalType":"bytes32"},{"name":"inputValue","type":"uint256","internalType":"uint256"},{"name":"overrideValue","type":"uint256","internalType":"uint256"}],"outputs":[{"name":"originalValue","type":"uint256","internalType":"uint256"},{"name":"givenValue","type":"uint256","internalType":"uint256"},{"name":"outputValue","type":"uint256","internalType":"uint256"},{"name":"difference","type":"int256","internalType":"int256"}],"stateMutability":"nonpayable"},{"type":"function","name":"concepts","inputs":[{"name":"","type":"bytes32","internalType":"bytes32"}],"outputs":[{"name":"name","type":"string","internalType":"string"},{"name":"operationType","type":"uint8","internalType":"enum AppliesConcepts.OperationType"},{"name":"mode","type":"uint8","internalType":"enum AppliesConcepts.Mode"},{"name":"value","type":"uint256","internalType":"uint256"}],"stateMutability":"view"},{"type":"function","name":"getOwner","inputs":[],"outputs":[{"name":"","type":"address","internalType":"address"}],"stateMutability":"view"},{"type":"function","name":"getRoleAdmin","inputs":[{"name":"role","type":"bytes32","internalType":"bytes32"}],"outputs":[{"name":"","type":"bytes32","internalType":"bytes32"}],"stateMutability":"view"},{"type":"function","name":"hasRole","inputs":[{"name":"role","type":"bytes32","internalType":"bytes32"},{"name":"account","type":"address","internalType":"address"}],"outputs":[{"name":"","type":"bool","internalType":"bool"}],"stateMutability":"view"},{"type":"function","name":"isAdmin","inputs":[{"name":"user","type":"address","internalType":"address"}],"outputs":[{"name":"","type":"bool","internalType":"bool"}],"stateMutability":"view"},{"type":"function","name":"isLocked","inputs":[],"outputs":[{"name":"","type":"bool","internalType":"bool"}],"stateMutability":"view"},{"type":"function","name":"isPaused","inputs":[],"outputs":[{"name":"","type":"bool","internalType":"bool"}],"stateMutability":"view"},{"type":"function","name":"supportsInterface","inputs":[{"name":"interfaceId","type":"bytes4","internalType":"bytes4"}],"outputs":[{"name":"","type":"bool","internalType":"bool"}],"stateMutability":"view"},{"type":"event","name":"AccessibleInitialized","inputs":[{"name":"owner","type":"address","indexed":true,"internalType":"address"}],"anonymous":false},{"type":"event","name":"AdminStatusChanged","inputs":[{"name":"admin","type":"address","indexed":true,"internalType":"address"},{"name":"status","type":"bool","indexed":false,"internalType":"bool"}],"anonymous":false},{"type":"event","name":"ConceptAdded","inputs":[{"name":"conceptId","type":"bytes32","indexed":true,"internalType":"bytes32"},{"name":"name","type":"string","indexed":false,"internalType":"string"},{"name":"operationType","type":"uint8","indexed":false,"internalType":"enum AppliesConcepts.OperationType"},{"name":"mode","type":"uint8","indexed":false,"internalType":"enum AppliesConcepts.Mode"},{"name":"value","type":"uint256","indexed":false,"internalType":"uint256"}],"anonymous":false},{"type":"event","name":"ConceptApplied","inputs":[{"name":"conceptId","type":"bytes32","indexed":true,"internalType":"bytes32"},{"name":"inputValue","type":"uint256","indexed":false,"internalType":"uint256"},{"name":"outputValue","type":"uint256","indexed":false,"internalType":"uint256"}],"anonymous":false},{"type":"event","name":"Locked","inputs":[{"name":"untilBlock","type":"uint256","indexed":false,"internalType":"uint256"}],"anonymous":false},{"type":"event","name":"OwnerChanged","inputs":[{"name":"oldOwner","type":"address","indexed":true,"internalType":"address"},{"name":"newOwner","type":"address","indexed":true,"internalType":"address"}],"anonymous":false},{"type":"event","name":"Paused","inputs":[],"anonymous":false},{"type":"event","name":"RoleAdminChanged","inputs":[{"name":"role","type":"bytes32","indexed":true,"internalType":"bytes32"},{"name":"previousAdminRole","type":"bytes32","indexed":false,"internalType":"bytes32"},{"name":"newAdminRole","type":"bytes32","indexed":false,"internalType":"bytes32"}],"anonymous":false},{"type":"event","name":"RoleGranted","inputs":[{"name":"role","type":"bytes32","indexed":true,"internalType":"bytes32"},{"name":"account","type":"address","indexed":true,"internalType":"address"},{"name":"sender","type":"address","indexed":true,"internalType":"address"}],"anonymous":false},{"type":"event","name":"RoleRevoked","inputs":[{"name":"role","type":"bytes32","indexed":true,"internalType":"bytes32"},{"name":"account","type":"address","indexed":true,"internalType":"address"},{"name":"sender","type":"address","indexed":true,"internalType":"address"}],"anonymous":false},{"type":"event","name":"StatusableInitialized","inputs":[{"name":"owner","type":"address","indexed":true,"internalType":"address"}],"anonymous":false},{"type":"event","name":"SuperAdminChanged","inputs":[{"name":"oldSuperAdmin","type":"address","indexed":true,"internalType":"address"},{"name":"newSuperAdmin","type":"address","indexed":true,"internalType":"address"}],"anonymous":false},{"type":"event","name":"Unlocked","inputs":[],"anonymous":false},{"type":"event","name":"Unpaused","inputs":[],"anonymous":false}],"bytecode":{"object":"0x6080604052348015600f57600080fd5b50600080546001600160a01b03191633179055610e1b806100316000396000f3fe608060405234801561001057600080fd5b50600436106100ea5760003560e01c806391d148541161008c578063a4e2d63411610066578063a4e2d63414610223578063b187bd261461022b578063e63ab1e914610236578063f36213671461025d57600080fd5b806391d14854146101f357806395047c4914610206578063a217fddf1461021b57600080fd5b806324d7806c116100c857806324d7806c1461016b5780634460bdd61461017e5780635d0ba4de146101a5578063893d20e8146101d857600080fd5b806301ffc9a7146100ef57806303f2b87d14610117578063248a9ca31461013a575b600080fd5b6101026100fd366004610970565b610284565b60405190151581526020015b60405180910390f35b61012a61012536600461099a565b6102bb565b60405161010e94939291906109dd565b61015d61014836600461099a565b60009081526006602052604090206002015490565b60405190815260200161010e565b610102610179366004610a73565b610372565b61015d7f7613a25ecc738585a232ad50a301178f12b3ba8887d13e138b523c4269c4768981565b6101b86101b3366004610a8e565b6103a9565b60408051948552602085019390935291830152606082015260800161010e565b6000546040516001600160a01b03909116815260200161010e565b610102610201366004610aba565b6107c4565b610219610214366004610b1a565b6107fc565b005b61015d600081565b610102610954565b60055460ff16610102565b61015d7f65d7a28e3265b37a6474929f336521b332c1681b933f6cb9f3376673440d862a81565b61015d7faf9a8bb3cbd6b84fbccefa71ff73e26e798553c6914585a84886212a46a9027981565b60006001600160e01b031982166301ffc9a760e01b14806102b557506301ffc9a760e01b6001600160e01b03198316145b92915050565b6007602052600090815260409020805481906102d690610bfe565b80601f016020809104026020016040519081016040528092919081815260200182805461030290610bfe565b801561034f5780601f106103245761010080835404028352916020019161034f565b820191906000526020600020905b81548152906001019060200180831161033257829003601f168201915b505050506001830154600290930154919260ff8082169361010090920416915084565b6001600160a01b03811660009081526002602052604081205460ff16806102b55750506001546001600160a01b0390811691161490565b6000806000806000600760008981526020019081526020016000206040518060800160405290816000820180546103df90610bfe565b80601f016020809104026020016040519081016040528092919081815260200182805461040b90610bfe565b80156104585780601f1061042d57610100808354040283529160200191610458565b820191906000526020600020905b81548152906001019060200180831161043b57829003601f168201915b5050509183525050600182015460209091019060ff16600381111561047f5761047f6109b3565b6003811115610490576104906109b3565b81526020016001820160019054906101000a900460ff1660018111156104b8576104b86109b3565b60018111156104c9576104c96109b3565b815260200160028201548152505090508694508693508692506000866000036104f65781606001516104f8565b865b9050600082604001516001811115610512576105126109b3565b036106075760008260200151600381111561052f5761052f6109b3565b036105455761053e8189610c4e565b9350610771565b60018260200151600381111561055d5761055d6109b3565b0361056c5761053e8189610c65565b600282602001516003811115610584576105846109b3565b036105db57806000036105d15760405162461bcd60e51b815260206004820152601060248201526f4469766973696f6e206279207a65726f60801b60448201526064015b60405180910390fd5b61053e8189610c78565b6003826020015160038111156105f3576105f36109b3565b036106025761053e8189610c9a565b610771565b60018260400151600181111561061f5761061f6109b3565b036107715760008260200151600381111561063c5761063c6109b3565b0361066157606461064d8282610c65565b610657908a610c4e565b61053e9190610c78565b600182602001516003811115610679576106796109b3565b1461077157600182602001516003811115610696576106966109b3565b036106bb5760646106a7828a610c4e565b6106b19190610c78565b61053e9089610c65565b6002826020015160038111156106d3576106d36109b3565b03610731578060000361071b5760405162461bcd60e51b815260206004820152601060248201526f4469766973696f6e206279207a65726f60801b60448201526064016105c8565b610726816064610c65565b610657896064610c4e565b600382602001516003811115610749576107496109b3565b0361077157606461075a828a610c4e565b6107649190610c78565b61076e9089610c9a565b93505b61077b8885610cad565b604080518a8152602081018790529194508a917f8f415b52b2c145a36704a2e9221869a9e0dc24835886d7c5a8a0461a1b15d5ff910160405180910390a2505093509350935093565b60008281526006602052604081206107f590836001600160a01b038116600090815260018301602052604081205415155b9392505050565b6000546001600160a01b031633146108465760405162461bcd60e51b815260206004820152600d60248201526c2737ba103a34329037bbb732b960991b60448201526064016105c8565b6040518060800160405280858152602001846003811115610869576108696109b3565b8152602001836001811115610880576108806109b3565b815260209081018390526000878152600790915260409020815181906108a69082610d25565b50602082015160018083018054909160ff19909116908360038111156108ce576108ce6109b3565b021790555060408201518160010160016101000a81548160ff021916908360018111156108fd576108fd6109b3565b021790555060608201518160020155905050847f7c1cc337a07cd78a8a1bb0065bcc9b43f9747819fa509621f0dff1588ffcfe828585858560405161094594939291906109dd565b60405180910390a25050505050565b60035460009060ff16801561096b57506004544311155b905090565b60006020828403121561098257600080fd5b81356001600160e01b0319811681146107f557600080fd5b6000602082840312156109ac57600080fd5b5035919050565b634e487b7160e01b600052602160045260246000fd5b600281106109d9576109d96109b3565b9052565b608081526000855180608084015260005b81811015610a0b57602081890181015160a08684010152016109ee565b50600060a0828501015260a0601f19601f83011684010191505060048510610a3557610a356109b3565b846020830152610a4860408301856109c9565b82606083015295945050505050565b80356001600160a01b0381168114610a6e57600080fd5b919050565b600060208284031215610a8557600080fd5b6107f582610a57565b600080600060608486031215610aa357600080fd5b505081359360208301359350604090920135919050565b60008060408385031215610acd57600080fd5b82359150610add60208401610a57565b90509250929050565b634e487b7160e01b600052604160045260246000fd5b803560048110610a6e57600080fd5b803560028110610a6e57600080fd5b600080600080600060a08688031215610b3257600080fd5b85359450602086013567ffffffffffffffff80821115610b5157600080fd5b818801915088601f830112610b6557600080fd5b813581811115610b7757610b77610ae6565b604051601f8201601f19908116603f01168101908382118183101715610b9f57610b9f610ae6565b816040528281528b6020848701011115610bb857600080fd5b826020860160208301376000602084830101528098505050505050610bdf60408701610afc565b9250610bed60608701610b0b565b949793965091946080013592915050565b600181811c90821680610c1257607f821691505b602082108103610c3257634e487b7160e01b600052602260045260246000fd5b50919050565b634e487b7160e01b600052601160045260246000fd5b80820281158282048414176102b5576102b5610c38565b808201808211156102b5576102b5610c38565b600082610c9557634e487b7160e01b600052601260045260246000fd5b500490565b818103818111156102b5576102b5610c38565b8181036000831280158383131683831282161715610ccd57610ccd610c38565b5092915050565b601f821115610d20576000816000526020600020601f850160051c81016020861015610cfd5750805b601f850160051c820191505b81811015610d1c57828155600101610d09565b5050505b505050565b815167ffffffffffffffff811115610d3f57610d3f610ae6565b610d5381610d4d8454610bfe565b84610cd4565b602080601f831160018114610d885760008415610d705750858301515b600019600386901b1c1916600185901b178555610d1c565b600085815260208120601f198616915b82811015610db757888601518255948401946001909101908401610d98565b5085821015610dd55787850151600019600388901b60f8161c191681555b5050505050600190811b0190555056fea264697066735822122072229b7af847980ce59d34a0c1f943d8d8318b7d47761796f7891a7baa91280664736f6c63430008190033","linkReferences":{}},"methodIdentifiers":{"DEFAULT_ADMIN_ROLE()":"a217fddf","LOCKER_ROLE()":"f3621367","PAUSER_ROLE()":"e63ab1e9","SUPER_ADMIN_ROLE()":"4460bdd6","addConcept(bytes32,string,uint8,uint8,uint256)":"95047c49","applyConcept(bytes32,uint256,uint256)":"5d0ba4de","concepts(bytes32)":"03f2b87d","getOwner()":"893d20e8","getRoleAdmin(bytes32)":"248a9ca3","hasRole(bytes32,address)":"91d14854","isAdmin(address)":"24d7806c","isLocked()":"a4e2d634","isPaused()":"b187bd26","supportsInterface(bytes4)":"01ffc9a7"},"id":17}